{
  "abi": [
    {
      "inputs": [],
      "stateMutability": "nonpayable",
      "type": "constructor"
    },
    {
      "anonymous": false,
      "inputs": [
        {
          "indexed": true,
          "internalType": "string",
          "name": "competitionName",
          "type": "string"
        }
      ],
      "name": "CompetitionActiveToggled",
      "type": "event"
    },
    {
      "anonymous": false,
      "inputs": [
        {
          "indexed": true,
          "internalType": "string",
          "name": "competitionName",
          "type": "string"
        },
        {
          "indexed": true,
          "internalType": "bytes32",
          "name": "newLocation",
          "type": "bytes32"
        }
      ],
      "name": "CompetitionRulesLocationChanged",
      "type": "event"
    },
    {
      "anonymous": false,
      "inputs": [
        {
          "indexed": true,
          "internalType": "string",
          "name": "competitionName",
          "type": "string"
        },
        {
          "indexed": true,
          "internalType": "address",
          "name": "newVaultAddress",
          "type": "address"
        }
      ],
      "name": "CompetitionVaultAddressChanged",
      "type": "event"
    },
    {
      "anonymous": false,
      "inputs": [
        {
          "indexed": true,
          "internalType": "string",
          "name": "extensionName",
          "type": "string"
        }
      ],
      "name": "ExtensionActiveToggled",
      "type": "event"
    },
    {
      "anonymous": false,
      "inputs": [
        {
          "indexed": true,
          "internalType": "string",
          "name": "extensionName",
          "type": "string"
        },
        {
          "indexed": true,
          "internalType": "bytes32",
          "name": "newLocation",
          "type": "bytes32"
        }
      ],
      "name": "ExtensionInfoLocationChanged",
      "type": "event"
    },
    {
      "anonymous": false,
      "inputs": [
        {
          "indexed": true,
          "internalType": "string",
          "name": "competitionName",
          "type": "string"
        },
        {
          "indexed": true,
          "internalType": "address",
          "name": "competitionAddress",
          "type": "address"
        },
        {
          "indexed": true,
          "internalType": "address",
          "name": "vaultAddress",
          "type": "address"
        },
        {
          "indexed": false,
          "internalType": "bytes32",
          "name": "rulesLocation",
          "type": "bytes32"
        }
      ],
      "name": "NewCompetitionRegistered",
      "type": "event"
    },
    {
      "anonymous": false,
      "inputs": [
        {
          "indexed": true,
          "internalType": "string",
          "name": "extensionName",
          "type": "string"
        },
        {
          "indexed": true,
          "internalType": "address",
          "name": "extensionAddress",
          "type": "address"
        },
        {
          "indexed": true,
          "internalType": "bytes32",
          "name": "informationLocation",
          "type": "bytes32"
        }
      ],
      "name": "NewExtensionRegistered",
      "type": "event"
    },
    {
      "anonymous": false,
      "inputs": [
        {
          "indexed": true,
          "internalType": "bytes32",
          "name": "role",
          "type": "bytes32"
        },
        {
          "indexed": true,
          "internalType": "bytes32",
          "name": "previousAdminRole",
          "type": "bytes32"
        },
        {
          "indexed": true,
          "internalType": "bytes32",
          "name": "newAdminRole",
          "type": "bytes32"
        }
      ],
      "name": "RoleAdminChanged",
      "type": "event"
    },
    {
      "anonymous": false,
      "inputs": [
        {
          "indexed": true,
          "internalType": "bytes32",
          "name": "role",
          "type": "bytes32"
        },
        {
          "indexed": true,
          "internalType": "address",
          "name": "account",
          "type": "address"
        },
        {
          "indexed": true,
          "internalType": "address",
          "name": "sender",
          "type": "address"
        }
      ],
      "name": "RoleGranted",
      "type": "event"
    },
    {
      "anonymous": false,
      "inputs": [
        {
          "indexed": true,
          "internalType": "bytes32",
          "name": "role",
          "type": "bytes32"
        },
        {
          "indexed": true,
          "internalType": "address",
          "name": "account",
          "type": "address"
        },
        {
          "indexed": true,
          "internalType": "address",
          "name": "sender",
          "type": "address"
        }
      ],
      "name": "RoleRevoked",
      "type": "event"
    },
    {
      "anonymous": false,
      "inputs": [
        {
          "indexed": true,
          "internalType": "address",
          "name": "newAddress",
          "type": "address"
        }
      ],
      "name": "TokenAddressChanged",
      "type": "event"
    },
    {
      "inputs": [],
      "name": "DEFAULT_ADMIN_ROLE",
      "outputs": [
        {
          "internalType": "bytes32",
          "name": "",
          "type": "bytes32"
        }
      ],
      "stateMutability": "view",
      "type": "function"
    },
    {
      "inputs": [
        {
          "internalType": "string",
          "name": "competitionName",
          "type": "string"
        },
        {
          "internalType": "bytes32",
          "name": "newLocation",
          "type": "bytes32"
        }
      ],
      "name": "changeCompetitionRulesLocation",
      "outputs": [],
      "stateMutability": "nonpayable",
      "type": "function"
    },
    {
      "inputs": [
        {
          "internalType": "string",
          "name": "competitionName",
          "type": "string"
        },
        {
          "internalType": "address",
          "name": "newVaultAddress",
          "type": "address"
        }
      ],
      "name": "changeCompetitionVault",
      "outputs": [],
      "stateMutability": "nonpayable",
      "type": "function"
    },
    {
      "inputs": [
        {
          "internalType": "string",
          "name": "extensionName",
          "type": "string"
        },
        {
          "internalType": "bytes32",
          "name": "newLocation",
          "type": "bytes32"
        }
      ],
      "name": "changeExtensionInfoLocation",
      "outputs": [],
      "stateMutability": "nonpayable",
      "type": "function"
    },
    {
      "inputs": [
        {
          "internalType": "address",
          "name": "newAddress",
          "type": "address"
        }
      ],
      "name": "changeTokenAddress",
      "outputs": [],
      "stateMutability": "nonpayable",
      "type": "function"
    },
    {
      "inputs": [
        {
          "internalType": "string",
          "name": "competitionName",
          "type": "string"
        }
      ],
      "name": "getCompetitionActive",
      "outputs": [
        {
          "internalType": "bool",
          "name": "active",
          "type": "bool"
        }
      ],
      "stateMutability": "view",
      "type": "function"
    },
    {
      "inputs": [
        {
          "internalType": "string",
          "name": "competitionName",
          "type": "string"
        }
      ],
      "name": "getCompetitionAddress",
      "outputs": [
        {
          "internalType": "address",
          "name": "competitionAddress",
          "type": "address"
        }
      ],
      "stateMutability": "view",
      "type": "function"
    },
    {
      "inputs": [],
      "name": "getCompetitionList",
      "outputs": [
        {
          "internalType": "string[]",
          "name": "competitionNames",
          "type": "string[]"
        }
      ],
      "stateMutability": "view",
      "type": "function"
    },
    {
      "inputs": [
        {
          "internalType": "string",
          "name": "competitionName",
          "type": "string"
        }
      ],
      "name": "getCompetitionRulesLocation",
      "outputs": [
        {
          "internalType": "bytes32",
          "name": "rulesLocation",
          "type": "bytes32"
        }
      ],
      "stateMutability": "view",
      "type": "function"
    },
    {
      "inputs": [
        {
          "internalType": "string",
          "name": "competitionName",
          "type": "string"
        }
      ],
      "name": "getCompetitionVault",
      "outputs": [
        {
          "internalType": "address",
          "name": "vaultAddress",
          "type": "address"
        }
      ],
      "stateMutability": "view",
      "type": "function"
    },
    {
      "inputs": [
        {
          "internalType": "string",
          "name": "extensionName",
          "type": "string"
        }
      ],
      "name": "getExtensionActive",
      "outputs": [
        {
          "internalType": "bool",
          "name": "active",
          "type": "bool"
        }
      ],
      "stateMutability": "view",
      "type": "function"
    },
    {
      "inputs": [
        {
          "internalType": "string",
          "name": "extensionName",
          "type": "string"
        }
      ],
      "name": "getExtensionAddress",
      "outputs": [
        {
          "internalType": "address",
          "name": "extensionAddress",
          "type": "address"
        }
      ],
      "stateMutability": "view",
      "type": "function"
    },
    {
      "inputs": [],
      "name": "getExtensionList",
      "outputs": [
        {
          "internalType": "string[]",
          "name": "extensionNames",
          "type": "string[]"
        }
      ],
      "stateMutability": "view",
      "type": "function"
    },
    {
      "inputs": [
        {
          "internalType": "string",
          "name": "extensionName",
          "type": "string"
        }
      ],
      "name": "getExtensionRulesLocation",
      "outputs": [
        {
          "internalType": "bytes32",
          "name": "informationLocation",
          "type": "bytes32"
        }
      ],
      "stateMutability": "view",
      "type": "function"
    },
    {
      "inputs": [
        {
          "internalType": "bytes32",
          "name": "role",
          "type": "bytes32"
        }
      ],
      "name": "getRoleAdmin",
      "outputs": [
        {
          "internalType": "bytes32",
          "name": "",
          "type": "bytes32"
        }
      ],
      "stateMutability": "view",
      "type": "function"
    },
    {
      "inputs": [],
      "name": "getTokenAddress",
      "outputs": [
        {
          "internalType": "address",
          "name": "token",
          "type": "address"
        }
      ],
      "stateMutability": "view",
      "type": "function"
    },
    {
      "inputs": [
        {
          "internalType": "bytes32",
          "name": "role",
          "type": "bytes32"
        },
        {
          "internalType": "address",
          "name": "account",
          "type": "address"
        }
      ],
      "name": "grantRole",
      "outputs": [],
      "stateMutability": "nonpayable",
      "type": "function"
    },
    {
      "inputs": [
        {
          "internalType": "bytes32",
          "name": "role",
          "type": "bytes32"
        },
        {
          "internalType": "address",
          "name": "account",
          "type": "address"
        }
      ],
      "name": "hasRole",
      "outputs": [
        {
          "internalType": "bool",
          "name": "",
          "type": "bool"
        }
      ],
      "stateMutability": "view",
      "type": "function"
    },
    {
      "inputs": [
        {
          "internalType": "string",
          "name": "competitionName",
          "type": "string"
        },
        {
          "internalType": "address",
          "name": "competitionAddress",
          "type": "address"
        },
        {
          "internalType": "address",
          "name": "vaultAddress",
          "type": "address"
        },
        {
          "internalType": "bytes32",
          "name": "rulesLocation",
          "type": "bytes32"
        }
      ],
      "name": "registerNewCompetition",
      "outputs": [],
      "stateMutability": "nonpayable",
      "type": "function"
    },
    {
      "inputs": [
        {
          "internalType": "string",
          "name": "extensionName",
          "type": "string"
        },
        {
          "internalType": "address",
          "name": "extensionAddress",
          "type": "address"
        },
        {
          "internalType": "bytes32",
          "name": "informationLocation",
          "type": "bytes32"
        }
      ],
      "name": "registerNewExtension",
      "outputs": [],
      "stateMutability": "nonpayable",
      "type": "function"
    },
    {
      "inputs": [
        {
          "internalType": "bytes32",
          "name": "role",
          "type": "bytes32"
        },
        {
          "internalType": "address",
          "name": "account",
          "type": "address"
        }
      ],
      "name": "renounceRole",
      "outputs": [],
      "stateMutability": "nonpayable",
      "type": "function"
    },
    {
      "inputs": [
        {
          "internalType": "bytes32",
          "name": "role",
          "type": "bytes32"
        },
        {
          "internalType": "address",
          "name": "account",
          "type": "address"
        }
      ],
      "name": "revokeRole",
      "outputs": [],
      "stateMutability": "nonpayable",
      "type": "function"
    },
    {
      "inputs": [
        {
          "internalType": "bytes4",
          "name": "interfaceId",
          "type": "bytes4"
        }
      ],
      "name": "supportsInterface",
      "outputs": [
        {
          "internalType": "bool",
          "name": "",
          "type": "bool"
        }
      ],
      "stateMutability": "view",
      "type": "function"
    },
    {
      "inputs": [
        {
          "internalType": "string",
          "name": "competitionName",
          "type": "string"
        }
      ],
      "name": "toggleCompetitionActive",
      "outputs": [],
      "stateMutability": "nonpayable",
      "type": "function"
    },
    {
      "inputs": [
        {
          "internalType": "string",
          "name": "extensionName",
          "type": "string"
        }
      ],
      "name": "toggleExtensionActive",
      "outputs": [],
      "stateMutability": "nonpayable",
      "type": "function"
    }
  ],
  "bytecode": "60806040523480156200001157600080fd5b506200001f60003362000025565b620000d5565b62000031828262000035565b5050565b6000828152602081815260408083206001600160a01b038516845290915290205460ff1662000031576000828152602081815260408083206001600160a01b03851684529091529020805460ff19166001179055620000913390565b6001600160a01b0316816001600160a01b0316837f2f8788117e7eff1d82e926ec794901d17c78024a50270940304540a733656f0d60405160405180910390a45050565b611e5f80620000e56000396000f3fe608060405234801561001057600080fd5b50600436106101735760003560e01c8063526ecad8116100de578063a59e994711610097578063ddad6d5011610071578063ddad6d501461033a578063e4bf72cc1461034d578063f77d657114610360578063ff280a161461037357600080fd5b8063a59e994714610301578063c9cda91f14610314578063d547741f1461032757600080fd5b8063526ecad8146102a55780635d58ebc1146102b857806382144989146102cb5780638b9c0e36146102de57806391d14854146102e6578063a217fddf146102f957600080fd5b80632f2ff15d116101305780632f2ff15d1461023357806335f2d3c61461024657806336568abe146102595780633d7837401461026c57806341d7238e1461027f5780634d2ddc6c1461029257600080fd5b806301ffc9a71461017857806306bbb7f6146101a057806310fe9ae8146101b5578063202a1c65146101da578063248a9ca3146101ed5780632ac7b7571461021e575b600080fd5b61018b610186366004611b7d565b610386565b60405190151581526020015b60405180910390f35b6101b36101ae366004611ba5565b6103bd565b005b6001546001600160a01b03165b6040516001600160a01b039091168152602001610197565b6101c26101e8366004611ba5565b6105c5565b6102106101fb366004611b3a565b60009081526020819052604090206001015490565b604051908152602001610197565b6102266105ff565b6040516101979190611d56565b6101b3610241366004611b52565b6106d8565b6101b3610254366004611ca2565b610767565b6101b3610267366004611b52565b610993565b61021061027a366004611ba5565b610a0d565b6101b361028d366004611ba5565b610a3b565b6101b36102a0366004611c37565b610c38565b6102106102b3366004611ba5565b610e9e565b6101c26102c6366004611ba5565b610ecc565b61018b6102d9366004611ba5565b610ee0565b610226610f0e565b61018b6102f4366004611b52565b610fde565b610210600081565b6101b361030f366004611be5565b611007565b6101b3610322366004611b19565b611273565b6101b3610335366004611b52565b6113af565b6101c2610348366004611ba5565b61142f565b6101b361035b366004611cfc565b611466565b61018b61036e366004611ba5565b6116b7565b6101b3610381366004611cfc565b6116cb565b60006001600160e01b03198216637965db0b60e01b14806103b757506301ffc9a760e01b6001600160e01b03198316145b92915050565b6103c8600033610fde565b61043f5760405162461bcd60e51b815260206004820152603b60248201527f5265676973747279202d20746f67676c65436f6d7065746974696f6e4163746960448201527f76653a2043616c6c657220697320756e617574686f72697a65642e000000000060648201526084015b60405180910390fd5b60006001600160a01b03166002838360405161045c929190611d46565b908152604051908190036020019020546001600160a01b0361010090910416141561052c5760405162461bcd60e51b815260206004820152606e60248201527f5265676973747279202d20746f67676c65436f6d7065746974696f6e4163746960448201527f76653a20436f6d7065746974696f6e20646f6573206e6f742065786973742e2060648201527f5573652066756e6374696f6e202772656769737465724e6577436f6d7065746960848201526d3a34b7b7139034b739ba32b0b21760911b60a482015260c401610436565b6002828260405161053e929190611d46565b9081526040519081900360200181205460ff1615906002906105639085908590611d46565b908152604051908190036020018120805492151560ff19909316929092179091556105919083908390611d46565b604051908190038120907fb1bdac09178448906c9b70df8b0345ac474bbb794b64a551cfffa0a83a0dfdd990600090a25050565b6000600383836040516105d9929190611d46565b908152604051908190036020019020546001600160a01b03610100909104169392505050565b60606005805480602002602001604051908101604052809291908181526020016000905b828210156106cf57838290600052602060002001805461064290611dee565b80601f016020809104026020016040519081016040528092919081815260200182805461066e90611dee565b80156106bb5780601f10610690576101008083540402835291602001916106bb565b820191906000526020600020905b81548152906001019060200180831161069e57829003601f168201915b505050505081526020019060010190610623565b50505050905090565b6000828152602081905260409020600101546106f5905b33610fde565b6107595760405162461bcd60e51b815260206004820152602f60248201527f416363657373436f6e74726f6c3a2073656e646572206d75737420626520616e60448201526e0818591b5a5b881d1bc819dc985b9d608a1b6064820152608401610436565b6107638282611934565b5050565b610772600033610fde565b6107e45760405162461bcd60e51b815260206004820152603860248201527f5265676973747279202d2072656769737465724e6577457874656e73696f6e3a60448201527f2043616c6c657220697320756e617574686f72697a65642e00000000000000006064820152608401610436565b600384846040516107f6929190611d46565b9081526040519081900360200190205460ff161561087c5760405162461bcd60e51b815260206004820152603a60248201527f5265676973747279202d2072656769737465724e6577457874656e73696f6e3a60448201527f20457874656e73696f6e20616c7265616479206578697374732e0000000000006064820152608401610436565b60408051606081018252600181526001600160a01b038416602082015280820183905290516003906108b19087908790611d46565b908152604080516020928190038301902083518154938501516001600160a81b0319909416901515610100600160a81b031916176101006001600160a01b03909416939093029290921782559190910151600191820155600580549182018155600052610941907f036b6384b5eca791c62761152d0c79bb0604c104a5fb6f4eb0703f3154bb3db0018585611a1d565b5080826001600160a01b0316858560405161095d929190611d46565b604051908190038120907fc9ecde0ab371f72e2d34131665b30ce9144ea01e7de4a8d5a14d4720617de99190600090a450505050565b6001600160a01b0381163314610a035760405162461bcd60e51b815260206004820152602f60248201527f416363657373436f6e74726f6c3a2063616e206f6e6c792072656e6f756e636560448201526e103937b632b9903337b91039b2b63360891b6064820152608401610436565b61076382826119b8565b600060028383604051610a21929190611d46565b908152602001604051809103902060020154905092915050565b610a46600033610fde565b610ab85760405162461bcd60e51b815260206004820152603960248201527f5265676973747279202d20746f67676c65457874656e73696f6e41637469766560448201527f3a2043616c6c657220697320756e617574686f72697a65642e000000000000006064820152608401610436565b60006001600160a01b031660038383604051610ad5929190611d46565b908152604051908190036020019020546001600160a01b03610100909104161415610b9f5760405162461bcd60e51b815260206004820152606860248201527f5265676973747279202d20746f67676c65457874656e73696f6e41637469766560448201527f3a20457874656e73696f6e20646f6573206e6f742065786973742e205573652060648201527f66756e6374696f6e202772656769737465724e6577457874656e73696f6e272060848201526734b739ba32b0b21760c11b60a482015260c401610436565b60038282604051610bb1929190611d46565b9081526040519081900360200181205460ff161590600390610bd69085908590611d46565b908152604051908190036020018120805492151560ff1990931692909217909155610c049083908390611d46565b604051908190038120907f83ae5d198de73bba6f0f383b1b155dae2ca94d1d7ecbd63542d0d07635209fdd90600090a25050565b610c43600033610fde565b610cb55760405162461bcd60e51b815260206004820152603a60248201527f5265676973747279202d2072656769737465724e6577436f6d7065746974696f60448201527f6e3a2043616c6c657220697320756e617574686f72697a65642e0000000000006064820152608401610436565b60028585604051610cc7929190611d46565b9081526040519081900360200190205460ff1615610d4d5760405162461bcd60e51b815260206004820152603e60248201527f5265676973747279202d2072656769737465724e6577436f6d7065746974696f60448201527f6e3a20436f6d7065746974696f6e20616c7265616479206578697374732e00006064820152608401610436565b60408051608081018252600181526001600160a01b038086166020830152841681830152606081018390529051600290610d8a9088908890611d46565b908152604080516020928190038301902083518154938501516001600160a81b0319909416901515610100600160a81b031916176101006001600160a01b039485160217815590830151600180830180546001600160a01b0319169290941691909117909255606090920151600290920191909155600480549182018155600052610e38907f8a35acfbc15ff81a39ae7d344fd709f28e8600b4aa8c65c6b64bfe7fe36bd19b018686611a1d565b50816001600160a01b0316836001600160a01b03168686604051610e5d929190611d46565b604051908190038120848252907fd90ede5d677ad2a14bd589a04c16586098f2f5b09d36bf775fb413c5c7ff6a989060200160405180910390a45050505050565b600060038383604051610eb2929190611d46565b908152602001604051809103902060010154905092915050565b6000600283836040516105d9929190611d46565b600060028383604051610ef4929190611d46565b9081526040519081900360200190205460ff169392505050565b60606004805480602002602001604051908101604052809291908181526020016000905b828210156106cf578382906000526020600020018054610f5190611dee565b80601f0160208091040260200160405190810160405280929190818152602001828054610f7d90611dee565b8015610fca5780601f10610f9f57610100808354040283529160200191610fca565b820191906000526020600020905b815481529060010190602001808311610fad57829003601f168201915b505050505081526020019060010190610f32565b6000918252602082815260408084206001600160a01b0393909316845291905290205460ff1690565b611012600033610fde565b6110845760405162461bcd60e51b815260206004820152603a60248201527f5265676973747279202d206368616e6765436f6d7065746974696f6e5661756c60448201527f743a2043616c6c657220697320756e617574686f72697a65642e0000000000006064820152608401610436565b60006001600160a01b0316600284846040516110a1929190611d46565b908152604051908190036020019020546001600160a01b036101009091041614156111705760405162461bcd60e51b815260206004820152606d60248201527f5265676973747279202d206368616e6765436f6d7065746974696f6e5661756c60448201527f743a20436f6d7065746974696f6e20646f6573206e6f742065786973742e205560648201527f73652066756e6374696f6e202772656769737465724e6577436f6d706574697460848201526c34b7b7139034b739ba32b0b21760991b60a482015260c401610436565b6001600160a01b0381166111ec5760405162461bcd60e51b815260206004820152603b60248201527f5265676973747279202d206368616e6765436f6d7065746974696f6e5661756c60448201527f743a2043616e6e6f742073657420746f203020616464726573732e00000000006064820152608401610436565b80600284846040516111ff929190611d46565b90815260405190819003602001812060010180546001600160a01b039384166001600160a01b03199091161790559082169061123e9085908590611d46565b604051908190038120907f7cfac95b87ab328bbdc2cb62be233c18b521a6044b46f0a9f5281732bc8cb6ab90600090a3505050565b61127e600033610fde565b6112e95760405162461bcd60e51b815260206004820152603660248201527f5265676973747279202d206368616e6765546f6b656e416464726573733a204360448201527530b63632b91034b9903ab730baba3437b934bd32b21760511b6064820152608401610436565b6001600160a01b0381166113655760405162461bcd60e51b815260206004820152603760248201527f5265676973747279202d206368616e6765546f6b656e416464726573733a204360448201527f616e6e6f742073657420746f203020616464726573732e0000000000000000006064820152608401610436565b600180546001600160a01b0319166001600160a01b0383169081179091556040517f1297217f6da0341ba2cab10677a2e4471c20ebc84acc96ef2339a734a3a233b290600090a250565b6000828152602081905260409020600101546113ca906106ef565b610a035760405162461bcd60e51b815260206004820152603060248201527f416363657373436f6e74726f6c3a2073656e646572206d75737420626520616e60448201526f2061646d696e20746f207265766f6b6560801b6064820152608401610436565b600060028383604051611443929190611d46565b908152604051908190036020019020600101546001600160a01b03169392505050565b611471600033610fde565b6114e35760405162461bcd60e51b815260206004820152603f60248201527f5265676973747279202d206368616e6765457874656e73696f6e496e666f4c6f60448201527f636174696f6e3a2043616c6c657220697320756e617574686f72697a65642e006064820152608401610436565b60006001600160a01b031660038484604051611500929190611d46565b908152604051908190036020019020546001600160a01b036101009091041614156115d45760405162461bcd60e51b815260206004820152607260248201527f5265676973747279202d206368616e6765457874656e73696f6e496e666f4c6f60448201527f636174696f6e3a20436f6d7065746974696f6e20646f6573206e6f742065786960648201527f73742e205573652066756e6374696f6e202772656769737465724e6577436f6d6084820152713832ba34ba34b7b7139034b739ba32b0b21760711b60a482015260c401610436565b80611649576040805162461bcd60e51b81526020600482015260248101919091527f5265676973747279202d206368616e6765457874656e73696f6e496e666f4c6f60448201527f636174696f6e3a2043616e6e6f742073657420746f203020616464726573732e6064820152608401610436565b806003848460405161165c929190611d46565b908152602001604051809103902060010181905550808383604051611682929190611d46565b604051908190038120907f88bfdf54ce240d8032ad74fde55d2fc88647a35643bd1a8a4bb7bfc6efc6058c90600090a3505050565b600060038383604051610ef4929190611d46565b6116d6600033610fde565b6117535760405162461bcd60e51b815260206004820152604260248201527f5265676973747279202d206368616e6765436f6d7065746974696f6e52756c6560448201527f734c6f636174696f6e3a2043616c6c657220697320756e617574686f72697a65606482015261321760f11b608482015260a401610436565b60006001600160a01b031660028484604051611770929190611d46565b908152604051908190036020019020546001600160a01b036101009091041614156118475760405162461bcd60e51b815260206004820152607560248201527f5265676973747279202d206368616e6765436f6d7065746974696f6e52756c6560448201527f734c6f636174696f6e3a20436f6d7065746974696f6e20646f6573206e6f742060648201527f65786973742e205573652066756e6374696f6e202772656769737465724e657760848201527421b7b6b832ba34ba34b7b7139034b739ba32b0b21760591b60a482015260c401610436565b806118c65760405162461bcd60e51b815260206004820152604360248201527f5265676973747279202d206368616e6765436f6d7065746974696f6e52756c6560448201527f734c6f636174696f6e3a2043616e6e6f742073657420746f203020616464726560648201526239b99760e91b608482015260a401610436565b80600284846040516118d9929190611d46565b9081526020016040518091039020600201819055508083836040516118ff929190611d46565b604051908190038120907f090e4275b4012fedfa9b631d72bff03048df6aff9864bc8cdee29aa02360d7fd90600090a3505050565b61193e8282610fde565b610763576000828152602081815260408083206001600160a01b03851684529091529020805460ff191660011790556119743390565b6001600160a01b0316816001600160a01b0316837f2f8788117e7eff1d82e926ec794901d17c78024a50270940304540a733656f0d60405160405180910390a45050565b6119c28282610fde565b15610763576000828152602081815260408083206001600160a01b0385168085529252808320805460ff1916905551339285917ff6391f5c32d9c69d2a47ea670b442974b53935d1edc7fd64eb21e047a839171b9190a45050565b828054611a2990611dee565b90600052602060002090601f016020900481019282611a4b5760008555611a91565b82601f10611a645782800160ff19823516178555611a91565b82800160010185558215611a91579182015b82811115611a91578235825591602001919060010190611a76565b50611a9d929150611aa1565b5090565b5b80821115611a9d5760008155600101611aa2565b80356001600160a01b0381168114611acd57600080fd5b919050565b60008083601f840112611ae3578182fd5b50813567ffffffffffffffff811115611afa578182fd5b602083019150836020828501011115611b1257600080fd5b9250929050565b600060208284031215611b2a578081fd5b611b3382611ab6565b9392505050565b600060208284031215611b4b578081fd5b5035919050565b60008060408385031215611b64578081fd5b82359150611b7460208401611ab6565b90509250929050565b600060208284031215611b8e578081fd5b81356001600160e01b031981168114611b33578182fd5b60008060208385031215611bb7578182fd5b823567ffffffffffffffff811115611bcd578283fd5b611bd985828601611ad2565b90969095509350505050565b600080600060408486031215611bf9578081fd5b833567ffffffffffffffff811115611c0f578182fd5b611c1b86828701611ad2565b9094509250611c2e905060208501611ab6565b90509250925092565b600080600080600060808688031215611c4e578081fd5b853567ffffffffffffffff811115611c64578182fd5b611c7088828901611ad2565b9096509450611c83905060208701611ab6565b9250611c9160408701611ab6565b949793965091946060013592915050565b60008060008060608587031215611cb7578384fd5b843567ffffffffffffffff811115611ccd578485fd5b611cd987828801611ad2565b9095509350611cec905060208601611ab6565b9396929550929360400135925050565b600080600060408486031215611d10578283fd5b833567ffffffffffffffff811115611d26578384fd5b611d3286828701611ad2565b909790965060209590950135949350505050565b8183823760009101908152919050565b6000602080830181845280855180835260408601915060408160051b8701019250838701855b82811015611de157878503603f1901845281518051808752885b81811015611db1578281018901518882018a01528801611d96565b81811115611dc1578989838a0101525b50601f01601f191695909501860194509285019290850190600101611d7c565b5092979650505050505050565b600181811c90821680611e0257607f821691505b60208210811415611e2357634e487b7160e01b600052602260045260246000fd5b5091905056fea26469706673582212204220e8630557f1f36ae77eb88b4ecbf5287d5dcf49ec26a90491b1ada85363ec64736f6c63430008040033",
  "bytecodeSha1": "5072787be126368811dd0508f93e04a3c81c8c6e",
  "compiler": {
    "evm_version": "istanbul",
    "optimizer": {
      "enabled": true,
      "runs": 200
    },
    "version": "0.8.4+commit.c7e474f2"
  },
  "contractName": "Registry",
  "language": "Solidity",
  "natspec": {
    "kind": "dev",
    "methods": {
      "getRoleAdmin(bytes32)": {
        "details": "Returns the admin role that controls `role`. See {grantRole} and {revokeRole}. To change a role's admin, use {_setRoleAdmin}."
      },
      "grantRole(bytes32,address)": {
        "details": "Grants `role` to `account`. If `account` had not been already granted `role`, emits a {RoleGranted} event. Requirements: - the caller must have ``role``'s admin role."
      },
      "hasRole(bytes32,address)": {
        "details": "Returns `true` if `account` has been granted `role`."
      },
      "renounceRole(bytes32,address)": {
        "details": "Revokes `role` from the calling account. Roles are often managed via {grantRole} and {revokeRole}: this function's purpose is to provide a mechanism for accounts to lose their privileges if they are compromised (such as when a trusted device is misplaced). If the calling account had been granted `role`, emits a {RoleRevoked} event. Requirements: - the caller must be `account`."
      },
      "revokeRole(bytes32,address)": {
        "details": "Revokes `role` from `account`. If `account` had been granted `role`, emits a {RoleRevoked} event. Requirements: - the caller must have ``role``'s admin role."
      },
      "supportsInterface(bytes4)": {
        "details": "See {IERC165-supportsInterface}."
      }
    },
    "version": 1
  },
  "opcodes": "PUSH1 0x80 PUSH1 0x40 MSTORE CALLVALUE DUP1 ISZERO PUSH2 0x10 JUMPI PUSH1 0x0 DUP1 REVERT JUMPDEST POP PUSH1 0x4 CALLDATASIZE LT PUSH2 0x173 JUMPI PUSH1 0x0 CALLDATALOAD PUSH1 0xE0 SHR DUP1 PUSH4 0x526ECAD8 GT PUSH2 0xDE JUMPI DUP1 PUSH4 0xA59E9947 GT PUSH2 0x97 JUMPI DUP1 PUSH4 0xDDAD6D50 GT PUSH2 0x71 JUMPI DUP1 PUSH4 0xDDAD6D50 EQ PUSH2 0x33A JUMPI DUP1 PUSH4 0xE4BF72CC EQ PUSH2 0x34D JUMPI DUP1 PUSH4 0xF77D6571 EQ PUSH2 0x360 JUMPI DUP1 PUSH4 0xFF280A16 EQ PUSH2 0x373 JUMPI PUSH1 0x0 DUP1 REVERT JUMPDEST DUP1 PUSH4 0xA59E9947 EQ PUSH2 0x301 JUMPI DUP1 PUSH4 0xC9CDA91F EQ PUSH2 0x314 JUMPI DUP1 PUSH4 0xD547741F EQ PUSH2 0x327 JUMPI PUSH1 0x0 DUP1 REVERT JUMPDEST DUP1 PUSH4 0x526ECAD8 EQ PUSH2 0x2A5 JUMPI DUP1 PUSH4 0x5D58EBC1 EQ PUSH2 0x2B8 JUMPI DUP1 PUSH4 0x82144989 EQ PUSH2 0x2CB JUMPI DUP1 PUSH4 0x8B9C0E36 EQ PUSH2 0x2DE JUMPI DUP1 PUSH4 0x91D14854 EQ PUSH2 0x2E6 JUMPI DUP1 PUSH4 0xA217FDDF EQ PUSH2 0x2F9 JUMPI PUSH1 0x0 DUP1 REVERT JUMPDEST DUP1 PUSH4 0x2F2FF15D GT PUSH2 0x130 JUMPI DUP1 PUSH4 0x2F2FF15D EQ PUSH2 0x233 JUMPI DUP1 PUSH4 0x35F2D3C6 EQ PUSH2 0x246 JUMPI DUP1 PUSH4 0x36568ABE EQ PUSH2 0x259 JUMPI DUP1 PUSH4 0x3D783740 EQ PUSH2 0x26C JUMPI DUP1 PUSH4 0x41D7238E EQ PUSH2 0x27F JUMPI DUP1 PUSH4 0x4D2DDC6C EQ PUSH2 0x292 JUMPI PUSH1 0x0 DUP1 REVERT JUMPDEST DUP1 PUSH4 0x1FFC9A7 EQ PUSH2 0x178 JUMPI DUP1 PUSH4 0x6BBB7F6 EQ PUSH2 0x1A0 JUMPI DUP1 PUSH4 0x10FE9AE8 EQ PUSH2 0x1B5 JUMPI DUP1 PUSH4 0x202A1C65 EQ PUSH2 0x1DA JUMPI DUP1 PUSH4 0x248A9CA3 EQ PUSH2 0x1ED JUMPI DUP1 PUSH4 0x2AC7B757 EQ PUSH2 0x21E JUMPI JUMPDEST PUSH1 0x0 DUP1 REVERT JUMPDEST PUSH2 0x18B PUSH2 0x186 CALLDATASIZE PUSH1 0x4 PUSH2 0x1B7D JUMP JUMPDEST PUSH2 0x386 JUMP JUMPDEST PUSH1 0x40 MLOAD SWAP1 ISZERO ISZERO DUP2 MSTORE PUSH1 0x20 ADD JUMPDEST PUSH1 0x40 MLOAD DUP1 SWAP2 SUB SWAP1 RETURN JUMPDEST PUSH2 0x1B3 PUSH2 0x1AE CALLDATASIZE PUSH1 0x4 PUSH2 0x1BA5 JUMP JUMPDEST PUSH2 0x3BD JUMP JUMPDEST STOP JUMPDEST PUSH1 0x1 SLOAD PUSH1 0x1 PUSH1 0x1 PUSH1 0xA0 SHL SUB AND JUMPDEST PUSH1 0x40 MLOAD PUSH1 0x1 PUSH1 0x1 PUSH1 0xA0 SHL SUB SWAP1 SWAP2 AND DUP2 MSTORE PUSH1 0x20 ADD PUSH2 0x197 JUMP JUMPDEST PUSH2 0x1C2 PUSH2 0x1E8 CALLDATASIZE PUSH1 0x4 PUSH2 0x1BA5 JUMP JUMPDEST PUSH2 0x5C5 JUMP JUMPDEST PUSH2 0x210 PUSH2 0x1FB CALLDATASIZE PUSH1 0x4 PUSH2 0x1B3A JUMP JUMPDEST PUSH1 0x0 SWAP1 DUP2 MSTORE PUSH1 0x20 DUP2 SWAP1 MSTORE PUSH1 0x40 SWAP1 KECCAK256 PUSH1 0x1 ADD SLOAD SWAP1 JUMP JUMPDEST PUSH1 0x40 MLOAD SWAP1 DUP2 MSTORE PUSH1 0x20 ADD PUSH2 0x197 JUMP JUMPDEST PUSH2 0x226 PUSH2 0x5FF JUMP JUMPDEST PUSH1 0x40 MLOAD PUSH2 0x197 SWAP2 SWAP1 PUSH2 0x1D56 JUMP JUMPDEST PUSH2 0x1B3 PUSH2 0x241 CALLDATASIZE PUSH1 0x4 PUSH2 0x1B52 JUMP JUMPDEST PUSH2 0x6D8 JUMP JUMPDEST PUSH2 0x1B3 PUSH2 0x254 CALLDATASIZE PUSH1 0x4 PUSH2 0x1CA2 JUMP JUMPDEST PUSH2 0x767 JUMP JUMPDEST PUSH2 0x1B3 PUSH2 0x267 CALLDATASIZE PUSH1 0x4 PUSH2 0x1B52 JUMP JUMPDEST PUSH2 0x993 JUMP JUMPDEST PUSH2 0x210 PUSH2 0x27A CALLDATASIZE PUSH1 0x4 PUSH2 0x1BA5 JUMP JUMPDEST PUSH2 0xA0D JUMP JUMPDEST PUSH2 0x1B3 PUSH2 0x28D CALLDATASIZE PUSH1 0x4 PUSH2 0x1BA5 JUMP JUMPDEST PUSH2 0xA3B JUMP JUMPDEST PUSH2 0x1B3 PUSH2 0x2A0 CALLDATASIZE PUSH1 0x4 PUSH2 0x1C37 JUMP JUMPDEST PUSH2 0xC38 JUMP JUMPDEST PUSH2 0x210 PUSH2 0x2B3 CALLDATASIZE PUSH1 0x4 PUSH2 0x1BA5 JUMP JUMPDEST PUSH2 0xE9E JUMP JUMPDEST PUSH2 0x1C2 PUSH2 0x2C6 CALLDATASIZE PUSH1 0x4 PUSH2 0x1BA5 JUMP JUMPDEST PUSH2 0xECC JUMP JUMPDEST PUSH2 0x18B PUSH2 0x2D9 CALLDATASIZE PUSH1 0x4 PUSH2 0x1BA5 JUMP JUMPDEST PUSH2 0xEE0 JUMP JUMPDEST PUSH2 0x226 PUSH2 0xF0E JUMP JUMPDEST PUSH2 0x18B PUSH2 0x2F4 CALLDATASIZE PUSH1 0x4 PUSH2 0x1B52 JUMP JUMPDEST PUSH2 0xFDE JUMP JUMPDEST PUSH2 0x210 PUSH1 0x0 DUP2 JUMP JUMPDEST PUSH2 0x1B3 PUSH2 0x30F CALLDATASIZE PUSH1 0x4 PUSH2 0x1BE5 JUMP JUMPDEST PUSH2 0x1007 JUMP JUMPDEST PUSH2 0x1B3 PUSH2 0x322 CALLDATASIZE PUSH1 0x4 PUSH2 0x1B19 JUMP JUMPDEST PUSH2 0x1273 JUMP JUMPDEST PUSH2 0x1B3 PUSH2 0x335 CALLDATASIZE PUSH1 0x4 PUSH2 0x1B52 JUMP JUMPDEST PUSH2 0x13AF JUMP JUMPDEST PUSH2 0x1C2 PUSH2 0x348 CALLDATASIZE PUSH1 0x4 PUSH2 0x1BA5 JUMP JUMPDEST PUSH2 0x142F JUMP JUMPDEST PUSH2 0x1B3 PUSH2 0x35B CALLDATASIZE PUSH1 0x4 PUSH2 0x1CFC JUMP JUMPDEST PUSH2 0x1466 JUMP JUMPDEST PUSH2 0x18B PUSH2 0x36E CALLDATASIZE PUSH1 0x4 PUSH2 0x1BA5 JUMP JUMPDEST PUSH2 0x16B7 JUMP JUMPDEST PUSH2 0x1B3 PUSH2 0x381 CALLDATASIZE PUSH1 0x4 PUSH2 0x1CFC JUMP JUMPDEST PUSH2 0x16CB JUMP JUMPDEST PUSH1 0x0 PUSH1 0x1 PUSH1 0x1 PUSH1 0xE0 SHL SUB NOT DUP3 AND PUSH4 0x7965DB0B PUSH1 0xE0 SHL EQ DUP1 PUSH2 0x3B7 JUMPI POP PUSH4 0x1FFC9A7 PUSH1 0xE0 SHL PUSH1 0x1 PUSH1 0x1 PUSH1 0xE0 SHL SUB NOT DUP4 AND EQ JUMPDEST SWAP3 SWAP2 POP POP JUMP JUMPDEST PUSH2 0x3C8 PUSH1 0x0 CALLER PUSH2 0xFDE JUMP JUMPDEST PUSH2 0x43F JUMPI PUSH1 0x40 MLOAD PUSH3 0x461BCD PUSH1 0xE5 SHL DUP2 MSTORE PUSH1 0x20 PUSH1 0x4 DUP3 ADD MSTORE PUSH1 0x3B PUSH1 0x24 DUP3 ADD MSTORE PUSH32 0x5265676973747279202D20746F67676C65436F6D7065746974696F6E41637469 PUSH1 0x44 DUP3 ADD MSTORE PUSH32 0x76653A2043616C6C657220697320756E617574686F72697A65642E0000000000 PUSH1 0x64 DUP3 ADD MSTORE PUSH1 0x84 ADD JUMPDEST PUSH1 0x40 MLOAD DUP1 SWAP2 SUB SWAP1 REVERT JUMPDEST PUSH1 0x0 PUSH1 0x1 PUSH1 0x1 PUSH1 0xA0 SHL SUB AND PUSH1 0x2 DUP4 DUP4 PUSH1 0x40 MLOAD PUSH2 0x45C SWAP3 SWAP2 SWAP1 PUSH2 0x1D46 JUMP JUMPDEST SWAP1 DUP2 MSTORE PUSH1 0x40 MLOAD SWAP1 DUP2 SWAP1 SUB PUSH1 0x20 ADD SWAP1 KECCAK256 SLOAD PUSH1 0x1 PUSH1 0x1 PUSH1 0xA0 SHL SUB PUSH2 0x100 SWAP1 SWAP2 DIV AND EQ ISZERO PUSH2 0x52C JUMPI PUSH1 0x40 MLOAD PUSH3 0x461BCD PUSH1 0xE5 SHL DUP2 MSTORE PUSH1 0x20 PUSH1 0x4 DUP3 ADD MSTORE PUSH1 0x6E PUSH1 0x24 DUP3 ADD MSTORE PUSH32 0x5265676973747279202D20746F67676C65436F6D7065746974696F6E41637469 PUSH1 0x44 DUP3 ADD MSTORE PUSH32 0x76653A20436F6D7065746974696F6E20646F6573206E6F742065786973742E20 PUSH1 0x64 DUP3 ADD MSTORE PUSH32 0x5573652066756E6374696F6E202772656769737465724E6577436F6D70657469 PUSH1 0x84 DUP3 ADD MSTORE PUSH14 0x3A34B7B7139034B739BA32B0B217 PUSH1 0x91 SHL PUSH1 0xA4 DUP3 ADD MSTORE PUSH1 0xC4 ADD PUSH2 0x436 JUMP JUMPDEST PUSH1 0x2 DUP3 DUP3 PUSH1 0x40 MLOAD PUSH2 0x53E SWAP3 SWAP2 SWAP1 PUSH2 0x1D46 JUMP JUMPDEST SWAP1 DUP2 MSTORE PUSH1 0x40 MLOAD SWAP1 DUP2 SWAP1 SUB PUSH1 0x20 ADD DUP2 KECCAK256 SLOAD PUSH1 0xFF AND ISZERO SWAP1 PUSH1 0x2 SWAP1 PUSH2 0x563 SWAP1 DUP6 SWAP1 DUP6 SWAP1 PUSH2 0x1D46 JUMP JUMPDEST SWAP1 DUP2 MSTORE PUSH1 0x40 MLOAD SWAP1 DUP2 SWAP1 SUB PUSH1 0x20 ADD DUP2 KECCAK256 DUP1 SLOAD SWAP3 ISZERO ISZERO PUSH1 0xFF NOT SWAP1 SWAP4 AND SWAP3 SWAP1 SWAP3 OR SWAP1 SWAP2 SSTORE PUSH2 0x591 SWAP1 DUP4 SWAP1 DUP4 SWAP1 PUSH2 0x1D46 JUMP JUMPDEST PUSH1 0x40 MLOAD SWAP1 DUP2 SWAP1 SUB DUP2 KECCAK256 SWAP1 PUSH32 0xB1BDAC09178448906C9B70DF8B0345AC474BBB794B64A551CFFFA0A83A0DFDD9 SWAP1 PUSH1 0x0 SWAP1 LOG2 POP POP JUMP JUMPDEST PUSH1 0x0 PUSH1 0x3 DUP4 DUP4 PUSH1 0x40 MLOAD PUSH2 0x5D9 SWAP3 SWAP2 SWAP1 PUSH2 0x1D46 JUMP JUMPDEST SWAP1 DUP2 MSTORE PUSH1 0x40 MLOAD SWAP1 DUP2 SWAP1 SUB PUSH1 0x20 ADD SWAP1 KECCAK256 SLOAD PUSH1 0x1 PUSH1 0x1 PUSH1 0xA0 SHL SUB PUSH2 0x100 SWAP1 SWAP2 DIV AND SWAP4 SWAP3 POP POP POP JUMP JUMPDEST PUSH1 0x60 PUSH1 0x5 DUP1 SLOAD DUP1 PUSH1 0x20 MUL PUSH1 0x20 ADD PUSH1 0x40 MLOAD SWAP1 DUP2 ADD PUSH1 0x40 MSTORE DUP1 SWAP3 SWAP2 SWAP1 DUP2 DUP2 MSTORE PUSH1 0x20 ADD PUSH1 0x0 SWAP1 JUMPDEST DUP3 DUP3 LT ISZERO PUSH2 0x6CF JUMPI DUP4 DUP3 SWAP1 PUSH1 0x0 MSTORE PUSH1 0x20 PUSH1 0x0 KECCAK256 ADD DUP1 SLOAD PUSH2 0x642 SWAP1 PUSH2 0x1DEE JUMP JUMPDEST DUP1 PUSH1 0x1F ADD PUSH1 0x20 DUP1 SWAP2 DIV MUL PUSH1 0x20 ADD PUSH1 0x40 MLOAD SWAP1 DUP2 ADD PUSH1 0x40 MSTORE DUP1 SWAP3 SWAP2 SWAP1 DUP2 DUP2 MSTORE PUSH1 0x20 ADD DUP3 DUP1 SLOAD PUSH2 0x66E SWAP1 PUSH2 0x1DEE JUMP JUMPDEST DUP1 ISZERO PUSH2 0x6BB JUMPI DUP1 PUSH1 0x1F LT PUSH2 0x690 JUMPI PUSH2 0x100 DUP1 DUP4 SLOAD DIV MUL DUP4 MSTORE SWAP2 PUSH1 0x20 ADD SWAP2 PUSH2 0x6BB JUMP JUMPDEST DUP3 ADD SWAP2 SWAP1 PUSH1 0x0 MSTORE PUSH1 0x20 PUSH1 0x0 KECCAK256 SWAP1 JUMPDEST DUP2 SLOAD DUP2 MSTORE SWAP1 PUSH1 0x1 ADD SWAP1 PUSH1 0x20 ADD DUP1 DUP4 GT PUSH2 0x69E JUMPI DUP3 SWAP1 SUB PUSH1 0x1F AND DUP3 ADD SWAP2 JUMPDEST POP POP POP POP POP DUP2 MSTORE PUSH1 0x20 ADD SWAP1 PUSH1 0x1 ADD SWAP1 PUSH2 0x623 JUMP JUMPDEST POP POP POP POP SWAP1 POP SWAP1 JUMP JUMPDEST PUSH1 0x0 DUP3 DUP2 MSTORE PUSH1 0x20 DUP2 SWAP1 MSTORE PUSH1 0x40 SWAP1 KECCAK256 PUSH1 0x1 ADD SLOAD PUSH2 0x6F5 SWAP1 JUMPDEST CALLER PUSH2 0xFDE JUMP JUMPDEST PUSH2 0x759 JUMPI PUSH1 0x40 MLOAD PUSH3 0x461BCD PUSH1 0xE5 SHL DUP2 MSTORE PUSH1 0x20 PUSH1 0x4 DUP3 ADD MSTORE PUSH1 0x2F PUSH1 0x24 DUP3 ADD MSTORE PUSH32 0x416363657373436F6E74726F6C3A2073656E646572206D75737420626520616E PUSH1 0x44 DUP3 ADD MSTORE PUSH15 0x818591B5A5B881D1BC819DC985B9D PUSH1 0x8A SHL PUSH1 0x64 DUP3 ADD MSTORE PUSH1 0x84 ADD PUSH2 0x436 JUMP JUMPDEST PUSH2 0x763 DUP3 DUP3 PUSH2 0x1934 JUMP JUMPDEST POP POP JUMP JUMPDEST PUSH2 0x772 PUSH1 0x0 CALLER PUSH2 0xFDE JUMP JUMPDEST PUSH2 0x7E4 JUMPI PUSH1 0x40 MLOAD PUSH3 0x461BCD PUSH1 0xE5 SHL DUP2 MSTORE PUSH1 0x20 PUSH1 0x4 DUP3 ADD MSTORE PUSH1 0x38 PUSH1 0x24 DUP3 ADD MSTORE PUSH32 0x5265676973747279202D2072656769737465724E6577457874656E73696F6E3A PUSH1 0x44 DUP3 ADD MSTORE PUSH32 0x2043616C6C657220697320756E617574686F72697A65642E0000000000000000 PUSH1 0x64 DUP3 ADD MSTORE PUSH1 0x84 ADD PUSH2 0x436 JUMP JUMPDEST PUSH1 0x3 DUP5 DUP5 PUSH1 0x40 MLOAD PUSH2 0x7F6 SWAP3 SWAP2 SWAP1 PUSH2 0x1D46 JUMP JUMPDEST SWAP1 DUP2 MSTORE PUSH1 0x40 MLOAD SWAP1 DUP2 SWAP1 SUB PUSH1 0x20 ADD SWAP1 KECCAK256 SLOAD PUSH1 0xFF AND ISZERO PUSH2 0x87C JUMPI PUSH1 0x40 MLOAD PUSH3 0x461BCD PUSH1 0xE5 SHL DUP2 MSTORE PUSH1 0x20 PUSH1 0x4 DUP3 ADD MSTORE PUSH1 0x3A PUSH1 0x24 DUP3 ADD MSTORE PUSH32 0x5265676973747279202D2072656769737465724E6577457874656E73696F6E3A PUSH1 0x44 DUP3 ADD MSTORE PUSH32 0x20457874656E73696F6E20616C7265616479206578697374732E000000000000 PUSH1 0x64 DUP3 ADD MSTORE PUSH1 0x84 ADD PUSH2 0x436 JUMP JUMPDEST PUSH1 0x40 DUP1 MLOAD PUSH1 0x60 DUP2 ADD DUP3 MSTORE PUSH1 0x1 DUP2 MSTORE PUSH1 0x1 PUSH1 0x1 PUSH1 0xA0 SHL SUB DUP5 AND PUSH1 0x20 DUP3 ADD MSTORE DUP1 DUP3 ADD DUP4 SWAP1 MSTORE SWAP1 MLOAD PUSH1 0x3 SWAP1 PUSH2 0x8B1 SWAP1 DUP8 SWAP1 DUP8 SWAP1 PUSH2 0x1D46 JUMP JUMPDEST SWAP1 DUP2 MSTORE PUSH1 0x40 DUP1 MLOAD PUSH1 0x20 SWAP3 DUP2 SWAP1 SUB DUP4 ADD SWAP1 KECCAK256 DUP4 MLOAD DUP2 SLOAD SWAP4 DUP6 ADD MLOAD PUSH1 0x1 PUSH1 0x1 PUSH1 0xA8 SHL SUB NOT SWAP1 SWAP5 AND SWAP1 ISZERO ISZERO PUSH2 0x100 PUSH1 0x1 PUSH1 0xA8 SHL SUB NOT AND OR PUSH2 0x100 PUSH1 0x1 PUSH1 0x1 PUSH1 0xA0 SHL SUB SWAP1 SWAP5 AND SWAP4 SWAP1 SWAP4 MUL SWAP3 SWAP1 SWAP3 OR DUP3 SSTORE SWAP2 SWAP1 SWAP2 ADD MLOAD PUSH1 0x1 SWAP2 DUP3 ADD SSTORE PUSH1 0x5 DUP1 SLOAD SWAP2 DUP3 ADD DUP2 SSTORE PUSH1 0x0 MSTORE PUSH2 0x941 SWAP1 PUSH32 0x36B6384B5ECA791C62761152D0C79BB0604C104A5FB6F4EB0703F3154BB3DB0 ADD DUP6 DUP6 PUSH2 0x1A1D JUMP JUMPDEST POP DUP1 DUP3 PUSH1 0x1 PUSH1 0x1 PUSH1 0xA0 SHL SUB AND DUP6 DUP6 PUSH1 0x40 MLOAD PUSH2 0x95D SWAP3 SWAP2 SWAP1 PUSH2 0x1D46 JUMP JUMPDEST PUSH1 0x40 MLOAD SWAP1 DUP2 SWAP1 SUB DUP2 KECCAK256 SWAP1 PUSH32 0xC9ECDE0AB371F72E2D34131665B30CE9144EA01E7DE4A8D5A14D4720617DE991 SWAP1 PUSH1 0x0 SWAP1 LOG4 POP POP POP POP JUMP JUMPDEST PUSH1 0x1 PUSH1 0x1 PUSH1 0xA0 SHL SUB DUP2 AND CALLER EQ PUSH2 0xA03 JUMPI PUSH1 0x40 MLOAD PUSH3 0x461BCD PUSH1 0xE5 SHL DUP2 MSTORE PUSH1 0x20 PUSH1 0x4 DUP3 ADD MSTORE PUSH1 0x2F PUSH1 0x24 DUP3 ADD MSTORE PUSH32 0x416363657373436F6E74726F6C3A2063616E206F6E6C792072656E6F756E6365 PUSH1 0x44 DUP3 ADD MSTORE PUSH15 0x103937B632B9903337B91039B2B633 PUSH1 0x89 SHL PUSH1 0x64 DUP3 ADD MSTORE PUSH1 0x84 ADD PUSH2 0x436 JUMP JUMPDEST PUSH2 0x763 DUP3 DUP3 PUSH2 0x19B8 JUMP JUMPDEST PUSH1 0x0 PUSH1 0x2 DUP4 DUP4 PUSH1 0x40 MLOAD PUSH2 0xA21 SWAP3 SWAP2 SWAP1 PUSH2 0x1D46 JUMP JUMPDEST SWAP1 DUP2 MSTORE PUSH1 0x20 ADD PUSH1 0x40 MLOAD DUP1 SWAP2 SUB SWAP1 KECCAK256 PUSH1 0x2 ADD SLOAD SWAP1 POP SWAP3 SWAP2 POP POP JUMP JUMPDEST PUSH2 0xA46 PUSH1 0x0 CALLER PUSH2 0xFDE JUMP JUMPDEST PUSH2 0xAB8 JUMPI PUSH1 0x40 MLOAD PUSH3 0x461BCD PUSH1 0xE5 SHL DUP2 MSTORE PUSH1 0x20 PUSH1 0x4 DUP3 ADD MSTORE PUSH1 0x39 PUSH1 0x24 DUP3 ADD MSTORE PUSH32 0x5265676973747279202D20746F67676C65457874656E73696F6E416374697665 PUSH1 0x44 DUP3 ADD MSTORE PUSH32 0x3A2043616C6C657220697320756E617574686F72697A65642E00000000000000 PUSH1 0x64 DUP3 ADD MSTORE PUSH1 0x84 ADD PUSH2 0x436 JUMP JUMPDEST PUSH1 0x0 PUSH1 0x1 PUSH1 0x1 PUSH1 0xA0 SHL SUB AND PUSH1 0x3 DUP4 DUP4 PUSH1 0x40 MLOAD PUSH2 0xAD5 SWAP3 SWAP2 SWAP1 PUSH2 0x1D46 JUMP JUMPDEST SWAP1 DUP2 MSTORE PUSH1 0x40 MLOAD SWAP1 DUP2 SWAP1 SUB PUSH1 0x20 ADD SWAP1 KECCAK256 SLOAD PUSH1 0x1 PUSH1 0x1 PUSH1 0xA0 SHL SUB PUSH2 0x100 SWAP1 SWAP2 DIV AND EQ ISZERO PUSH2 0xB9F JUMPI PUSH1 0x40 MLOAD PUSH3 0x461BCD PUSH1 0xE5 SHL DUP2 MSTORE PUSH1 0x20 PUSH1 0x4 DUP3 ADD MSTORE PUSH1 0x68 PUSH1 0x24 DUP3 ADD MSTORE PUSH32 0x5265676973747279202D20746F67676C65457874656E73696F6E416374697665 PUSH1 0x44 DUP3 ADD MSTORE PUSH32 0x3A20457874656E73696F6E20646F6573206E6F742065786973742E2055736520 PUSH1 0x64 DUP3 ADD MSTORE PUSH32 0x66756E6374696F6E202772656769737465724E6577457874656E73696F6E2720 PUSH1 0x84 DUP3 ADD MSTORE PUSH8 0x34B739BA32B0B217 PUSH1 0xC1 SHL PUSH1 0xA4 DUP3 ADD MSTORE PUSH1 0xC4 ADD PUSH2 0x436 JUMP JUMPDEST PUSH1 0x3 DUP3 DUP3 PUSH1 0x40 MLOAD PUSH2 0xBB1 SWAP3 SWAP2 SWAP1 PUSH2 0x1D46 JUMP JUMPDEST SWAP1 DUP2 MSTORE PUSH1 0x40 MLOAD SWAP1 DUP2 SWAP1 SUB PUSH1 0x20 ADD DUP2 KECCAK256 SLOAD PUSH1 0xFF AND ISZERO SWAP1 PUSH1 0x3 SWAP1 PUSH2 0xBD6 SWAP1 DUP6 SWAP1 DUP6 SWAP1 PUSH2 0x1D46 JUMP JUMPDEST SWAP1 DUP2 MSTORE PUSH1 0x40 MLOAD SWAP1 DUP2 SWAP1 SUB PUSH1 0x20 ADD DUP2 KECCAK256 DUP1 SLOAD SWAP3 ISZERO ISZERO PUSH1 0xFF NOT SWAP1 SWAP4 AND SWAP3 SWAP1 SWAP3 OR SWAP1 SWAP2 SSTORE PUSH2 0xC04 SWAP1 DUP4 SWAP1 DUP4 SWAP1 PUSH2 0x1D46 JUMP JUMPDEST PUSH1 0x40 MLOAD SWAP1 DUP2 SWAP1 SUB DUP2 KECCAK256 SWAP1 PUSH32 0x83AE5D198DE73BBA6F0F383B1B155DAE2CA94D1D7ECBD63542D0D07635209FDD SWAP1 PUSH1 0x0 SWAP1 LOG2 POP POP JUMP JUMPDEST PUSH2 0xC43 PUSH1 0x0 CALLER PUSH2 0xFDE JUMP JUMPDEST PUSH2 0xCB5 JUMPI PUSH1 0x40 MLOAD PUSH3 0x461BCD PUSH1 0xE5 SHL DUP2 MSTORE PUSH1 0x20 PUSH1 0x4 DUP3 ADD MSTORE PUSH1 0x3A PUSH1 0x24 DUP3 ADD MSTORE PUSH32 0x5265676973747279202D2072656769737465724E6577436F6D7065746974696F PUSH1 0x44 DUP3 ADD MSTORE PUSH32 0x6E3A2043616C6C657220697320756E617574686F72697A65642E000000000000 PUSH1 0x64 DUP3 ADD MSTORE PUSH1 0x84 ADD PUSH2 0x436 JUMP JUMPDEST PUSH1 0x2 DUP6 DUP6 PUSH1 0x40 MLOAD PUSH2 0xCC7 SWAP3 SWAP2 SWAP1 PUSH2 0x1D46 JUMP JUMPDEST SWAP1 DUP2 MSTORE PUSH1 0x40 MLOAD SWAP1 DUP2 SWAP1 SUB PUSH1 0x20 ADD SWAP1 KECCAK256 SLOAD PUSH1 0xFF AND ISZERO PUSH2 0xD4D JUMPI PUSH1 0x40 MLOAD PUSH3 0x461BCD PUSH1 0xE5 SHL DUP2 MSTORE PUSH1 0x20 PUSH1 0x4 DUP3 ADD MSTORE PUSH1 0x3E PUSH1 0x24 DUP3 ADD MSTORE PUSH32 0x5265676973747279202D2072656769737465724E6577436F6D7065746974696F PUSH1 0x44 DUP3 ADD MSTORE PUSH32 0x6E3A20436F6D7065746974696F6E20616C7265616479206578697374732E0000 PUSH1 0x64 DUP3 ADD MSTORE PUSH1 0x84 ADD PUSH2 0x436 JUMP JUMPDEST PUSH1 0x40 DUP1 MLOAD PUSH1 0x80 DUP2 ADD DUP3 MSTORE PUSH1 0x1 DUP2 MSTORE PUSH1 0x1 PUSH1 0x1 PUSH1 0xA0 SHL SUB DUP1 DUP7 AND PUSH1 0x20 DUP4 ADD MSTORE DUP5 AND DUP2 DUP4 ADD MSTORE PUSH1 0x60 DUP2 ADD DUP4 SWAP1 MSTORE SWAP1 MLOAD PUSH1 0x2 SWAP1 PUSH2 0xD8A SWAP1 DUP9 SWAP1 DUP9 SWAP1 PUSH2 0x1D46 JUMP JUMPDEST SWAP1 DUP2 MSTORE PUSH1 0x40 DUP1 MLOAD PUSH1 0x20 SWAP3 DUP2 SWAP1 SUB DUP4 ADD SWAP1 KECCAK256 DUP4 MLOAD DUP2 SLOAD SWAP4 DUP6 ADD MLOAD PUSH1 0x1 PUSH1 0x1 PUSH1 0xA8 SHL SUB NOT SWAP1 SWAP5 AND SWAP1 ISZERO ISZERO PUSH2 0x100 PUSH1 0x1 PUSH1 0xA8 SHL SUB NOT AND OR PUSH2 0x100 PUSH1 0x1 PUSH1 0x1 PUSH1 0xA0 SHL SUB SWAP5 DUP6 AND MUL OR DUP2 SSTORE SWAP1 DUP4 ADD MLOAD PUSH1 0x1 DUP1 DUP4 ADD DUP1 SLOAD PUSH1 0x1 PUSH1 0x1 PUSH1 0xA0 SHL SUB NOT AND SWAP3 SWAP1 SWAP5 AND SWAP2 SWAP1 SWAP2 OR SWAP1 SWAP3 SSTORE PUSH1 0x60 SWAP1 SWAP3 ADD MLOAD PUSH1 0x2 SWAP1 SWAP3 ADD SWAP2 SWAP1 SWAP2 SSTORE PUSH1 0x4 DUP1 SLOAD SWAP2 DUP3 ADD DUP2 SSTORE PUSH1 0x0 MSTORE PUSH2 0xE38 SWAP1 PUSH32 0x8A35ACFBC15FF81A39AE7D344FD709F28E8600B4AA8C65C6B64BFE7FE36BD19B ADD DUP7 DUP7 PUSH2 0x1A1D JUMP JUMPDEST POP DUP2 PUSH1 0x1 PUSH1 0x1 PUSH1 0xA0 SHL SUB AND DUP4 PUSH1 0x1 PUSH1 0x1 PUSH1 0xA0 SHL SUB AND DUP7 DUP7 PUSH1 0x40 MLOAD PUSH2 0xE5D SWAP3 SWAP2 SWAP1 PUSH2 0x1D46 JUMP JUMPDEST PUSH1 0x40 MLOAD SWAP1 DUP2 SWAP1 SUB DUP2 KECCAK256 DUP5 DUP3 MSTORE SWAP1 PUSH32 0xD90EDE5D677AD2A14BD589A04C16586098F2F5B09D36BF775FB413C5C7FF6A98 SWAP1 PUSH1 0x20 ADD PUSH1 0x40 MLOAD DUP1 SWAP2 SUB SWAP1 LOG4 POP POP POP POP POP JUMP JUMPDEST PUSH1 0x0 PUSH1 0x3 DUP4 DUP4 PUSH1 0x40 MLOAD PUSH2 0xEB2 SWAP3 SWAP2 SWAP1 PUSH2 0x1D46 JUMP JUMPDEST SWAP1 DUP2 MSTORE PUSH1 0x20 ADD PUSH1 0x40 MLOAD DUP1 SWAP2 SUB SWAP1 KECCAK256 PUSH1 0x1 ADD SLOAD SWAP1 POP SWAP3 SWAP2 POP POP JUMP JUMPDEST PUSH1 0x0 PUSH1 0x2 DUP4 DUP4 PUSH1 0x40 MLOAD PUSH2 0x5D9 SWAP3 SWAP2 SWAP1 PUSH2 0x1D46 JUMP JUMPDEST PUSH1 0x0 PUSH1 0x2 DUP4 DUP4 PUSH1 0x40 MLOAD PUSH2 0xEF4 SWAP3 SWAP2 SWAP1 PUSH2 0x1D46 JUMP JUMPDEST SWAP1 DUP2 MSTORE PUSH1 0x40 MLOAD SWAP1 DUP2 SWAP1 SUB PUSH1 0x20 ADD SWAP1 KECCAK256 SLOAD PUSH1 0xFF AND SWAP4 SWAP3 POP POP POP JUMP JUMPDEST PUSH1 0x60 PUSH1 0x4 DUP1 SLOAD DUP1 PUSH1 0x20 MUL PUSH1 0x20 ADD PUSH1 0x40 MLOAD SWAP1 DUP2 ADD PUSH1 0x40 MSTORE DUP1 SWAP3 SWAP2 SWAP1 DUP2 DUP2 MSTORE PUSH1 0x20 ADD PUSH1 0x0 SWAP1 JUMPDEST DUP3 DUP3 LT ISZERO PUSH2 0x6CF JUMPI DUP4 DUP3 SWAP1 PUSH1 0x0 MSTORE PUSH1 0x20 PUSH1 0x0 KECCAK256 ADD DUP1 SLOAD PUSH2 0xF51 SWAP1 PUSH2 0x1DEE JUMP JUMPDEST DUP1 PUSH1 0x1F ADD PUSH1 0x20 DUP1 SWAP2 DIV MUL PUSH1 0x20 ADD PUSH1 0x40 MLOAD SWAP1 DUP2 ADD PUSH1 0x40 MSTORE DUP1 SWAP3 SWAP2 SWAP1 DUP2 DUP2 MSTORE PUSH1 0x20 ADD DUP3 DUP1 SLOAD PUSH2 0xF7D SWAP1 PUSH2 0x1DEE JUMP JUMPDEST DUP1 ISZERO PUSH2 0xFCA JUMPI DUP1 PUSH1 0x1F LT PUSH2 0xF9F JUMPI PUSH2 0x100 DUP1 DUP4 SLOAD DIV MUL DUP4 MSTORE SWAP2 PUSH1 0x20 ADD SWAP2 PUSH2 0xFCA JUMP JUMPDEST DUP3 ADD SWAP2 SWAP1 PUSH1 0x0 MSTORE PUSH1 0x20 PUSH1 0x0 KECCAK256 SWAP1 JUMPDEST DUP2 SLOAD DUP2 MSTORE SWAP1 PUSH1 0x1 ADD SWAP1 PUSH1 0x20 ADD DUP1 DUP4 GT PUSH2 0xFAD JUMPI DUP3 SWAP1 SUB PUSH1 0x1F AND DUP3 ADD SWAP2 JUMPDEST POP POP POP POP POP DUP2 MSTORE PUSH1 0x20 ADD SWAP1 PUSH1 0x1 ADD SWAP1 PUSH2 0xF32 JUMP JUMPDEST PUSH1 0x0 SWAP2 DUP3 MSTORE PUSH1 0x20 DUP3 DUP2 MSTORE PUSH1 0x40 DUP1 DUP5 KECCAK256 PUSH1 0x1 PUSH1 0x1 PUSH1 0xA0 SHL SUB SWAP4 SWAP1 SWAP4 AND DUP5 MSTORE SWAP2 SWAP1 MSTORE SWAP1 KECCAK256 SLOAD PUSH1 0xFF AND SWAP1 JUMP JUMPDEST PUSH2 0x1012 PUSH1 0x0 CALLER PUSH2 0xFDE JUMP JUMPDEST PUSH2 0x1084 JUMPI PUSH1 0x40 MLOAD PUSH3 0x461BCD PUSH1 0xE5 SHL DUP2 MSTORE PUSH1 0x20 PUSH1 0x4 DUP3 ADD MSTORE PUSH1 0x3A PUSH1 0x24 DUP3 ADD MSTORE PUSH32 0x5265676973747279202D206368616E6765436F6D7065746974696F6E5661756C PUSH1 0x44 DUP3 ADD MSTORE PUSH32 0x743A2043616C6C657220697320756E617574686F72697A65642E000000000000 PUSH1 0x64 DUP3 ADD MSTORE PUSH1 0x84 ADD PUSH2 0x436 JUMP JUMPDEST PUSH1 0x0 PUSH1 0x1 PUSH1 0x1 PUSH1 0xA0 SHL SUB AND PUSH1 0x2 DUP5 DUP5 PUSH1 0x40 MLOAD PUSH2 0x10A1 SWAP3 SWAP2 SWAP1 PUSH2 0x1D46 JUMP JUMPDEST SWAP1 DUP2 MSTORE PUSH1 0x40 MLOAD SWAP1 DUP2 SWAP1 SUB PUSH1 0x20 ADD SWAP1 KECCAK256 SLOAD PUSH1 0x1 PUSH1 0x1 PUSH1 0xA0 SHL SUB PUSH2 0x100 SWAP1 SWAP2 DIV AND EQ ISZERO PUSH2 0x1170 JUMPI PUSH1 0x40 MLOAD PUSH3 0x461BCD PUSH1 0xE5 SHL DUP2 MSTORE PUSH1 0x20 PUSH1 0x4 DUP3 ADD MSTORE PUSH1 0x6D PUSH1 0x24 DUP3 ADD MSTORE PUSH32 0x5265676973747279202D206368616E6765436F6D7065746974696F6E5661756C PUSH1 0x44 DUP3 ADD MSTORE PUSH32 0x743A20436F6D7065746974696F6E20646F6573206E6F742065786973742E2055 PUSH1 0x64 DUP3 ADD MSTORE PUSH32 0x73652066756E6374696F6E202772656769737465724E6577436F6D7065746974 PUSH1 0x84 DUP3 ADD MSTORE PUSH13 0x34B7B7139034B739BA32B0B217 PUSH1 0x99 SHL PUSH1 0xA4 DUP3 ADD MSTORE PUSH1 0xC4 ADD PUSH2 0x436 JUMP JUMPDEST PUSH1 0x1 PUSH1 0x1 PUSH1 0xA0 SHL SUB DUP2 AND PUSH2 0x11EC JUMPI PUSH1 0x40 MLOAD PUSH3 0x461BCD PUSH1 0xE5 SHL DUP2 MSTORE PUSH1 0x20 PUSH1 0x4 DUP3 ADD MSTORE PUSH1 0x3B PUSH1 0x24 DUP3 ADD MSTORE PUSH32 0x5265676973747279202D206368616E6765436F6D7065746974696F6E5661756C PUSH1 0x44 DUP3 ADD MSTORE PUSH32 0x743A2043616E6E6F742073657420746F203020616464726573732E0000000000 PUSH1 0x64 DUP3 ADD MSTORE PUSH1 0x84 ADD PUSH2 0x436 JUMP JUMPDEST DUP1 PUSH1 0x2 DUP5 DUP5 PUSH1 0x40 MLOAD PUSH2 0x11FF SWAP3 SWAP2 SWAP1 PUSH2 0x1D46 JUMP JUMPDEST SWAP1 DUP2 MSTORE PUSH1 0x40 MLOAD SWAP1 DUP2 SWAP1 SUB PUSH1 0x20 ADD DUP2 KECCAK256 PUSH1 0x1 ADD DUP1 SLOAD PUSH1 0x1 PUSH1 0x1 PUSH1 0xA0 SHL SUB SWAP4 DUP5 AND PUSH1 0x1 PUSH1 0x1 PUSH1 0xA0 SHL SUB NOT SWAP1 SWAP2 AND OR SWAP1 SSTORE SWAP1 DUP3 AND SWAP1 PUSH2 0x123E SWAP1 DUP6 SWAP1 DUP6 SWAP1 PUSH2 0x1D46 JUMP JUMPDEST PUSH1 0x40 MLOAD SWAP1 DUP2 SWAP1 SUB DUP2 KECCAK256 SWAP1 PUSH32 0x7CFAC95B87AB328BBDC2CB62BE233C18B521A6044B46F0A9F5281732BC8CB6AB SWAP1 PUSH1 0x0 SWAP1 LOG3 POP POP POP JUMP JUMPDEST PUSH2 0x127E PUSH1 0x0 CALLER PUSH2 0xFDE JUMP JUMPDEST PUSH2 0x12E9 JUMPI PUSH1 0x40 MLOAD PUSH3 0x461BCD PUSH1 0xE5 SHL DUP2 MSTORE PUSH1 0x20 PUSH1 0x4 DUP3 ADD MSTORE PUSH1 0x36 PUSH1 0x24 DUP3 ADD MSTORE PUSH32 0x5265676973747279202D206368616E6765546F6B656E416464726573733A2043 PUSH1 0x44 DUP3 ADD MSTORE PUSH22 0x30B63632B91034B9903AB730BABA3437B934BD32B217 PUSH1 0x51 SHL PUSH1 0x64 DUP3 ADD MSTORE PUSH1 0x84 ADD PUSH2 0x436 JUMP JUMPDEST PUSH1 0x1 PUSH1 0x1 PUSH1 0xA0 SHL SUB DUP2 AND PUSH2 0x1365 JUMPI PUSH1 0x40 MLOAD PUSH3 0x461BCD PUSH1 0xE5 SHL DUP2 MSTORE PUSH1 0x20 PUSH1 0x4 DUP3 ADD MSTORE PUSH1 0x37 PUSH1 0x24 DUP3 ADD MSTORE PUSH32 0x5265676973747279202D206368616E6765546F6B656E416464726573733A2043 PUSH1 0x44 DUP3 ADD MSTORE PUSH32 0x616E6E6F742073657420746F203020616464726573732E000000000000000000 PUSH1 0x64 DUP3 ADD MSTORE PUSH1 0x84 ADD PUSH2 0x436 JUMP JUMPDEST PUSH1 0x1 DUP1 SLOAD PUSH1 0x1 PUSH1 0x1 PUSH1 0xA0 SHL SUB NOT AND PUSH1 0x1 PUSH1 0x1 PUSH1 0xA0 SHL SUB DUP4 AND SWAP1 DUP2 OR SWAP1 SWAP2 SSTORE PUSH1 0x40 MLOAD PUSH32 0x1297217F6DA0341BA2CAB10677A2E4471C20EBC84ACC96EF2339A734A3A233B2 SWAP1 PUSH1 0x0 SWAP1 LOG2 POP JUMP JUMPDEST PUSH1 0x0 DUP3 DUP2 MSTORE PUSH1 0x20 DUP2 SWAP1 MSTORE PUSH1 0x40 SWAP1 KECCAK256 PUSH1 0x1 ADD SLOAD PUSH2 0x13CA SWAP1 PUSH2 0x6EF JUMP JUMPDEST PUSH2 0xA03 JUMPI PUSH1 0x40 MLOAD PUSH3 0x461BCD PUSH1 0xE5 SHL DUP2 MSTORE PUSH1 0x20 PUSH1 0x4 DUP3 ADD MSTORE PUSH1 0x30 PUSH1 0x24 DUP3 ADD MSTORE PUSH32 0x416363657373436F6E74726F6C3A2073656E646572206D75737420626520616E PUSH1 0x44 DUP3 ADD MSTORE PUSH16 0x2061646D696E20746F207265766F6B65 PUSH1 0x80 SHL PUSH1 0x64 DUP3 ADD MSTORE PUSH1 0x84 ADD PUSH2 0x436 JUMP JUMPDEST PUSH1 0x0 PUSH1 0x2 DUP4 DUP4 PUSH1 0x40 MLOAD PUSH2 0x1443 SWAP3 SWAP2 SWAP1 PUSH2 0x1D46 JUMP JUMPDEST SWAP1 DUP2 MSTORE PUSH1 0x40 MLOAD SWAP1 DUP2 SWAP1 SUB PUSH1 0x20 ADD SWAP1 KECCAK256 PUSH1 0x1 ADD SLOAD PUSH1 0x1 PUSH1 0x1 PUSH1 0xA0 SHL SUB AND SWAP4 SWAP3 POP POP POP JUMP JUMPDEST PUSH2 0x1471 PUSH1 0x0 CALLER PUSH2 0xFDE JUMP JUMPDEST PUSH2 0x14E3 JUMPI PUSH1 0x40 MLOAD PUSH3 0x461BCD PUSH1 0xE5 SHL DUP2 MSTORE PUSH1 0x20 PUSH1 0x4 DUP3 ADD MSTORE PUSH1 0x3F PUSH1 0x24 DUP3 ADD MSTORE PUSH32 0x5265676973747279202D206368616E6765457874656E73696F6E496E666F4C6F PUSH1 0x44 DUP3 ADD MSTORE PUSH32 0x636174696F6E3A2043616C6C657220697320756E617574686F72697A65642E00 PUSH1 0x64 DUP3 ADD MSTORE PUSH1 0x84 ADD PUSH2 0x436 JUMP JUMPDEST PUSH1 0x0 PUSH1 0x1 PUSH1 0x1 PUSH1 0xA0 SHL SUB AND PUSH1 0x3 DUP5 DUP5 PUSH1 0x40 MLOAD PUSH2 0x1500 SWAP3 SWAP2 SWAP1 PUSH2 0x1D46 JUMP JUMPDEST SWAP1 DUP2 MSTORE PUSH1 0x40 MLOAD SWAP1 DUP2 SWAP1 SUB PUSH1 0x20 ADD SWAP1 KECCAK256 SLOAD PUSH1 0x1 PUSH1 0x1 PUSH1 0xA0 SHL SUB PUSH2 0x100 SWAP1 SWAP2 DIV AND EQ ISZERO PUSH2 0x15D4 JUMPI PUSH1 0x40 MLOAD PUSH3 0x461BCD PUSH1 0xE5 SHL DUP2 MSTORE PUSH1 0x20 PUSH1 0x4 DUP3 ADD MSTORE PUSH1 0x72 PUSH1 0x24 DUP3 ADD MSTORE PUSH32 0x5265676973747279202D206368616E6765457874656E73696F6E496E666F4C6F PUSH1 0x44 DUP3 ADD MSTORE PUSH32 0x636174696F6E3A20436F6D7065746974696F6E20646F6573206E6F7420657869 PUSH1 0x64 DUP3 ADD MSTORE PUSH32 0x73742E205573652066756E6374696F6E202772656769737465724E6577436F6D PUSH1 0x84 DUP3 ADD MSTORE PUSH18 0x3832BA34BA34B7B7139034B739BA32B0B217 PUSH1 0x71 SHL PUSH1 0xA4 DUP3 ADD MSTORE PUSH1 0xC4 ADD PUSH2 0x436 JUMP JUMPDEST DUP1 PUSH2 0x1649 JUMPI PUSH1 0x40 DUP1 MLOAD PUSH3 0x461BCD PUSH1 0xE5 SHL DUP2 MSTORE PUSH1 0x20 PUSH1 0x4 DUP3 ADD MSTORE PUSH1 0x24 DUP2 ADD SWAP2 SWAP1 SWAP2 MSTORE PUSH32 0x5265676973747279202D206368616E6765457874656E73696F6E496E666F4C6F PUSH1 0x44 DUP3 ADD MSTORE PUSH32 0x636174696F6E3A2043616E6E6F742073657420746F203020616464726573732E PUSH1 0x64 DUP3 ADD MSTORE PUSH1 0x84 ADD PUSH2 0x436 JUMP JUMPDEST DUP1 PUSH1 0x3 DUP5 DUP5 PUSH1 0x40 MLOAD PUSH2 0x165C SWAP3 SWAP2 SWAP1 PUSH2 0x1D46 JUMP JUMPDEST SWAP1 DUP2 MSTORE PUSH1 0x20 ADD PUSH1 0x40 MLOAD DUP1 SWAP2 SUB SWAP1 KECCAK256 PUSH1 0x1 ADD DUP2 SWAP1 SSTORE POP DUP1 DUP4 DUP4 PUSH1 0x40 MLOAD PUSH2 0x1682 SWAP3 SWAP2 SWAP1 PUSH2 0x1D46 JUMP JUMPDEST PUSH1 0x40 MLOAD SWAP1 DUP2 SWAP1 SUB DUP2 KECCAK256 SWAP1 PUSH32 0x88BFDF54CE240D8032AD74FDE55D2FC88647A35643BD1A8A4BB7BFC6EFC6058C SWAP1 PUSH1 0x0 SWAP1 LOG3 POP POP POP JUMP JUMPDEST PUSH1 0x0 PUSH1 0x3 DUP4 DUP4 PUSH1 0x40 MLOAD PUSH2 0xEF4 SWAP3 SWAP2 SWAP1 PUSH2 0x1D46 JUMP JUMPDEST PUSH2 0x16D6 PUSH1 0x0 CALLER PUSH2 0xFDE JUMP JUMPDEST PUSH2 0x1753 JUMPI PUSH1 0x40 MLOAD PUSH3 0x461BCD PUSH1 0xE5 SHL DUP2 MSTORE PUSH1 0x20 PUSH1 0x4 DUP3 ADD MSTORE PUSH1 0x42 PUSH1 0x24 DUP3 ADD MSTORE PUSH32 0x5265676973747279202D206368616E6765436F6D7065746974696F6E52756C65 PUSH1 0x44 DUP3 ADD MSTORE PUSH32 0x734C6F636174696F6E3A2043616C6C657220697320756E617574686F72697A65 PUSH1 0x64 DUP3 ADD MSTORE PUSH2 0x3217 PUSH1 0xF1 SHL PUSH1 0x84 DUP3 ADD MSTORE PUSH1 0xA4 ADD PUSH2 0x436 JUMP JUMPDEST PUSH1 0x0 PUSH1 0x1 PUSH1 0x1 PUSH1 0xA0 SHL SUB AND PUSH1 0x2 DUP5 DUP5 PUSH1 0x40 MLOAD PUSH2 0x1770 SWAP3 SWAP2 SWAP1 PUSH2 0x1D46 JUMP JUMPDEST SWAP1 DUP2 MSTORE PUSH1 0x40 MLOAD SWAP1 DUP2 SWAP1 SUB PUSH1 0x20 ADD SWAP1 KECCAK256 SLOAD PUSH1 0x1 PUSH1 0x1 PUSH1 0xA0 SHL SUB PUSH2 0x100 SWAP1 SWAP2 DIV AND EQ ISZERO PUSH2 0x1847 JUMPI PUSH1 0x40 MLOAD PUSH3 0x461BCD PUSH1 0xE5 SHL DUP2 MSTORE PUSH1 0x20 PUSH1 0x4 DUP3 ADD MSTORE PUSH1 0x75 PUSH1 0x24 DUP3 ADD MSTORE PUSH32 0x5265676973747279202D206368616E6765436F6D7065746974696F6E52756C65 PUSH1 0x44 DUP3 ADD MSTORE PUSH32 0x734C6F636174696F6E3A20436F6D7065746974696F6E20646F6573206E6F7420 PUSH1 0x64 DUP3 ADD MSTORE PUSH32 0x65786973742E205573652066756E6374696F6E202772656769737465724E6577 PUSH1 0x84 DUP3 ADD MSTORE PUSH21 0x21B7B6B832BA34BA34B7B7139034B739BA32B0B217 PUSH1 0x59 SHL PUSH1 0xA4 DUP3 ADD MSTORE PUSH1 0xC4 ADD PUSH2 0x436 JUMP JUMPDEST DUP1 PUSH2 0x18C6 JUMPI PUSH1 0x40 MLOAD PUSH3 0x461BCD PUSH1 0xE5 SHL DUP2 MSTORE PUSH1 0x20 PUSH1 0x4 DUP3 ADD MSTORE PUSH1 0x43 PUSH1 0x24 DUP3 ADD MSTORE PUSH32 0x5265676973747279202D206368616E6765436F6D7065746974696F6E52756C65 PUSH1 0x44 DUP3 ADD MSTORE PUSH32 0x734C6F636174696F6E3A2043616E6E6F742073657420746F2030206164647265 PUSH1 0x64 DUP3 ADD MSTORE PUSH3 0x39B997 PUSH1 0xE9 SHL PUSH1 0x84 DUP3 ADD MSTORE PUSH1 0xA4 ADD PUSH2 0x436 JUMP JUMPDEST DUP1 PUSH1 0x2 DUP5 DUP5 PUSH1 0x40 MLOAD PUSH2 0x18D9 SWAP3 SWAP2 SWAP1 PUSH2 0x1D46 JUMP JUMPDEST SWAP1 DUP2 MSTORE PUSH1 0x20 ADD PUSH1 0x40 MLOAD DUP1 SWAP2 SUB SWAP1 KECCAK256 PUSH1 0x2 ADD DUP2 SWAP1 SSTORE POP DUP1 DUP4 DUP4 PUSH1 0x40 MLOAD PUSH2 0x18FF SWAP3 SWAP2 SWAP1 PUSH2 0x1D46 JUMP JUMPDEST PUSH1 0x40 MLOAD SWAP1 DUP2 SWAP1 SUB DUP2 KECCAK256 SWAP1 PUSH32 0x90E4275B4012FEDFA9B631D72BFF03048DF6AFF9864BC8CDEE29AA02360D7FD SWAP1 PUSH1 0x0 SWAP1 LOG3 POP POP POP JUMP JUMPDEST PUSH2 0x193E DUP3 DUP3 PUSH2 0xFDE JUMP JUMPDEST PUSH2 0x763 JUMPI PUSH1 0x0 DUP3 DUP2 MSTORE PUSH1 0x20 DUP2 DUP2 MSTORE PUSH1 0x40 DUP1 DUP4 KECCAK256 PUSH1 0x1 PUSH1 0x1 PUSH1 0xA0 SHL SUB DUP6 AND DUP5 MSTORE SWAP1 SWAP2 MSTORE SWAP1 KECCAK256 DUP1 SLOAD PUSH1 0xFF NOT AND PUSH1 0x1 OR SWAP1 SSTORE PUSH2 0x1974 CALLER SWAP1 JUMP JUMPDEST PUSH1 0x1 PUSH1 0x1 PUSH1 0xA0 SHL SUB AND DUP2 PUSH1 0x1 PUSH1 0x1 PUSH1 0xA0 SHL SUB AND DUP4 PUSH32 0x2F8788117E7EFF1D82E926EC794901D17C78024A50270940304540A733656F0D PUSH1 0x40 MLOAD PUSH1 0x40 MLOAD DUP1 SWAP2 SUB SWAP1 LOG4 POP POP JUMP JUMPDEST PUSH2 0x19C2 DUP3 DUP3 PUSH2 0xFDE JUMP JUMPDEST ISZERO PUSH2 0x763 JUMPI PUSH1 0x0 DUP3 DUP2 MSTORE PUSH1 0x20 DUP2 DUP2 MSTORE PUSH1 0x40 DUP1 DUP4 KECCAK256 PUSH1 0x1 PUSH1 0x1 PUSH1 0xA0 SHL SUB DUP6 AND DUP1 DUP6 MSTORE SWAP3 MSTORE DUP1 DUP4 KECCAK256 DUP1 SLOAD PUSH1 0xFF NOT AND SWAP1 SSTORE MLOAD CALLER SWAP3 DUP6 SWAP2 PUSH32 0xF6391F5C32D9C69D2A47EA670B442974B53935D1EDC7FD64EB21E047A839171B SWAP2 SWAP1 LOG4 POP POP JUMP JUMPDEST DUP3 DUP1 SLOAD PUSH2 0x1A29 SWAP1 PUSH2 0x1DEE JUMP JUMPDEST SWAP1 PUSH1 0x0 MSTORE PUSH1 0x20 PUSH1 0x0 KECCAK256 SWAP1 PUSH1 0x1F ADD PUSH1 0x20 SWAP1 DIV DUP2 ADD SWAP3 DUP3 PUSH2 0x1A4B JUMPI PUSH1 0x0 DUP6 SSTORE PUSH2 0x1A91 JUMP JUMPDEST DUP3 PUSH1 0x1F LT PUSH2 0x1A64 JUMPI DUP3 DUP1 ADD PUSH1 0xFF NOT DUP3 CALLDATALOAD AND OR DUP6 SSTORE PUSH2 0x1A91 JUMP JUMPDEST DUP3 DUP1 ADD PUSH1 0x1 ADD DUP6 SSTORE DUP3 ISZERO PUSH2 0x1A91 JUMPI SWAP2 DUP3 ADD JUMPDEST DUP3 DUP2 GT ISZERO PUSH2 0x1A91 JUMPI DUP3 CALLDATALOAD DUP3 SSTORE SWAP2 PUSH1 0x20 ADD SWAP2 SWAP1 PUSH1 0x1 ADD SWAP1 PUSH2 0x1A76 JUMP JUMPDEST POP PUSH2 0x1A9D SWAP3 SWAP2 POP PUSH2 0x1AA1 JUMP JUMPDEST POP SWAP1 JUMP JUMPDEST JUMPDEST DUP1 DUP3 GT ISZERO PUSH2 0x1A9D JUMPI PUSH1 0x0 DUP2 SSTORE PUSH1 0x1 ADD PUSH2 0x1AA2 JUMP JUMPDEST DUP1 CALLDATALOAD PUSH1 0x1 PUSH1 0x1 PUSH1 0xA0 SHL SUB DUP2 AND DUP2 EQ PUSH2 0x1ACD JUMPI PUSH1 0x0 DUP1 REVERT JUMPDEST SWAP2 SWAP1 POP JUMP JUMPDEST PUSH1 0x0 DUP1 DUP4 PUSH1 0x1F DUP5 ADD SLT PUSH2 0x1AE3 JUMPI DUP2 DUP3 REVERT JUMPDEST POP DUP2 CALLDATALOAD PUSH8 0xFFFFFFFFFFFFFFFF DUP2 GT ISZERO PUSH2 0x1AFA JUMPI DUP2 DUP3 REVERT JUMPDEST PUSH1 0x20 DUP4 ADD SWAP2 POP DUP4 PUSH1 0x20 DUP3 DUP6 ADD ADD GT ISZERO PUSH2 0x1B12 JUMPI PUSH1 0x0 DUP1 REVERT JUMPDEST SWAP3 POP SWAP3 SWAP1 POP JUMP JUMPDEST PUSH1 0x0 PUSH1 0x20 DUP3 DUP5 SUB SLT ISZERO PUSH2 0x1B2A JUMPI DUP1 DUP2 REVERT JUMPDEST PUSH2 0x1B33 DUP3 PUSH2 0x1AB6 JUMP JUMPDEST SWAP4 SWAP3 POP POP POP JUMP JUMPDEST PUSH1 0x0 PUSH1 0x20 DUP3 DUP5 SUB SLT ISZERO PUSH2 0x1B4B JUMPI DUP1 DUP2 REVERT JUMPDEST POP CALLDATALOAD SWAP2 SWAP1 POP JUMP JUMPDEST PUSH1 0x0 DUP1 PUSH1 0x40 DUP4 DUP6 SUB SLT ISZERO PUSH2 0x1B64 JUMPI DUP1 DUP2 REVERT JUMPDEST DUP3 CALLDATALOAD SWAP2 POP PUSH2 0x1B74 PUSH1 0x20 DUP5 ADD PUSH2 0x1AB6 JUMP JUMPDEST SWAP1 POP SWAP3 POP SWAP3 SWAP1 POP JUMP JUMPDEST PUSH1 0x0 PUSH1 0x20 DUP3 DUP5 SUB SLT ISZERO PUSH2 0x1B8E JUMPI DUP1 DUP2 REVERT JUMPDEST DUP2 CALLDATALOAD PUSH1 0x1 PUSH1 0x1 PUSH1 0xE0 SHL SUB NOT DUP2 AND DUP2 EQ PUSH2 0x1B33 JUMPI DUP2 DUP3 REVERT JUMPDEST PUSH1 0x0 DUP1 PUSH1 0x20 DUP4 DUP6 SUB SLT ISZERO PUSH2 0x1BB7 JUMPI DUP2 DUP3 REVERT JUMPDEST DUP3 CALLDATALOAD PUSH8 0xFFFFFFFFFFFFFFFF DUP2 GT ISZERO PUSH2 0x1BCD JUMPI DUP3 DUP4 REVERT JUMPDEST PUSH2 0x1BD9 DUP6 DUP3 DUP7 ADD PUSH2 0x1AD2 JUMP JUMPDEST SWAP1 SWAP7 SWAP1 SWAP6 POP SWAP4 POP POP POP POP JUMP JUMPDEST PUSH1 0x0 DUP1 PUSH1 0x0 PUSH1 0x40 DUP5 DUP7 SUB SLT ISZERO PUSH2 0x1BF9 JUMPI DUP1 DUP2 REVERT JUMPDEST DUP4 CALLDATALOAD PUSH8 0xFFFFFFFFFFFFFFFF DUP2 GT ISZERO PUSH2 0x1C0F JUMPI DUP2 DUP3 REVERT JUMPDEST PUSH2 0x1C1B DUP7 DUP3 DUP8 ADD PUSH2 0x1AD2 JUMP JUMPDEST SWAP1 SWAP5 POP SWAP3 POP PUSH2 0x1C2E SWAP1 POP PUSH1 0x20 DUP6 ADD PUSH2 0x1AB6 JUMP JUMPDEST SWAP1 POP SWAP3 POP SWAP3 POP SWAP3 JUMP JUMPDEST PUSH1 0x0 DUP1 PUSH1 0x0 DUP1 PUSH1 0x0 PUSH1 0x80 DUP7 DUP9 SUB SLT ISZERO PUSH2 0x1C4E JUMPI DUP1 DUP2 REVERT JUMPDEST DUP6 CALLDATALOAD PUSH8 0xFFFFFFFFFFFFFFFF DUP2 GT ISZERO PUSH2 0x1C64 JUMPI DUP2 DUP3 REVERT JUMPDEST PUSH2 0x1C70 DUP9 DUP3 DUP10 ADD PUSH2 0x1AD2 JUMP JUMPDEST SWAP1 SWAP7 POP SWAP5 POP PUSH2 0x1C83 SWAP1 POP PUSH1 0x20 DUP8 ADD PUSH2 0x1AB6 JUMP JUMPDEST SWAP3 POP PUSH2 0x1C91 PUSH1 0x40 DUP8 ADD PUSH2 0x1AB6 JUMP JUMPDEST SWAP5 SWAP8 SWAP4 SWAP7 POP SWAP2 SWAP5 PUSH1 0x60 ADD CALLDATALOAD SWAP3 SWAP2 POP POP JUMP JUMPDEST PUSH1 0x0 DUP1 PUSH1 0x0 DUP1 PUSH1 0x60 DUP6 DUP8 SUB SLT ISZERO PUSH2 0x1CB7 JUMPI DUP4 DUP5 REVERT JUMPDEST DUP5 CALLDATALOAD PUSH8 0xFFFFFFFFFFFFFFFF DUP2 GT ISZERO PUSH2 0x1CCD JUMPI DUP5 DUP6 REVERT JUMPDEST PUSH2 0x1CD9 DUP8 DUP3 DUP9 ADD PUSH2 0x1AD2 JUMP JUMPDEST SWAP1 SWAP6 POP SWAP4 POP PUSH2 0x1CEC SWAP1 POP PUSH1 0x20 DUP7 ADD PUSH2 0x1AB6 JUMP JUMPDEST SWAP4 SWAP7 SWAP3 SWAP6 POP SWAP3 SWAP4 PUSH1 0x40 ADD CALLDATALOAD SWAP3 POP POP JUMP JUMPDEST PUSH1 0x0 DUP1 PUSH1 0x0 PUSH1 0x40 DUP5 DUP7 SUB SLT ISZERO PUSH2 0x1D10 JUMPI DUP3 DUP4 REVERT JUMPDEST DUP4 CALLDATALOAD PUSH8 0xFFFFFFFFFFFFFFFF DUP2 GT ISZERO PUSH2 0x1D26 JUMPI DUP4 DUP5 REVERT JUMPDEST PUSH2 0x1D32 DUP7 DUP3 DUP8 ADD PUSH2 0x1AD2 JUMP JUMPDEST SWAP1 SWAP8 SWAP1 SWAP7 POP PUSH1 0x20 SWAP6 SWAP1 SWAP6 ADD CALLDATALOAD SWAP5 SWAP4 POP POP POP POP JUMP JUMPDEST DUP2 DUP4 DUP3 CALLDATACOPY PUSH1 0x0 SWAP2 ADD SWAP1 DUP2 MSTORE SWAP2 SWAP1 POP JUMP JUMPDEST PUSH1 0x0 PUSH1 0x20 DUP1 DUP4 ADD DUP2 DUP5 MSTORE DUP1 DUP6 MLOAD DUP1 DUP4 MSTORE PUSH1 0x40 DUP7 ADD SWAP2 POP PUSH1 0x40 DUP2 PUSH1 0x5 SHL DUP8 ADD ADD SWAP3 POP DUP4 DUP8 ADD DUP6 JUMPDEST DUP3 DUP2 LT ISZERO PUSH2 0x1DE1 JUMPI DUP8 DUP6 SUB PUSH1 0x3F NOT ADD DUP5 MSTORE DUP2 MLOAD DUP1 MLOAD DUP1 DUP8 MSTORE DUP9 JUMPDEST DUP2 DUP2 LT ISZERO PUSH2 0x1DB1 JUMPI DUP3 DUP2 ADD DUP10 ADD MLOAD DUP9 DUP3 ADD DUP11 ADD MSTORE DUP9 ADD PUSH2 0x1D96 JUMP JUMPDEST DUP2 DUP2 GT ISZERO PUSH2 0x1DC1 JUMPI DUP10 DUP10 DUP4 DUP11 ADD ADD MSTORE JUMPDEST POP PUSH1 0x1F ADD PUSH1 0x1F NOT AND SWAP6 SWAP1 SWAP6 ADD DUP7 ADD SWAP5 POP SWAP3 DUP6 ADD SWAP3 SWAP1 DUP6 ADD SWAP1 PUSH1 0x1 ADD PUSH2 0x1D7C JUMP JUMPDEST POP SWAP3 SWAP8 SWAP7 POP POP POP POP POP POP POP JUMP JUMPDEST PUSH1 0x1 DUP2 DUP2 SHR SWAP1 DUP3 AND DUP1 PUSH2 0x1E02 JUMPI PUSH1 0x7F DUP3 AND SWAP2 POP JUMPDEST PUSH1 0x20 DUP3 LT DUP2 EQ ISZERO PUSH2 0x1E23 JUMPI PUSH4 0x4E487B71 PUSH1 0xE0 SHL PUSH1 0x0 MSTORE PUSH1 0x22 PUSH1 0x4 MSTORE PUSH1 0x24 PUSH1 0x0 REVERT JUMPDEST POP SWAP2 SWAP1 POP JUMP INVALID LOG2 PUSH5 0x6970667358 0x22 SLT KECCAK256 TIMESTAMP KECCAK256 0xE8 PUSH4 0x557F1F3 PUSH11 0xE77EB88B4ECBF5287D5DCF 0x49 0xEC 0x26 0xA9 DIV SWAP2 0xB1 0xAD 0xA8 MSTORE8 PUSH4 0xEC64736F PUSH13 0x63430008040033000000000000 ",
  "sha1": "b23b9361bcc82cd3b06c97de6477a7bb26235a80",
  "source": "pragma solidity 0.8.4;\n\n// SPDX-License-Identifier: MIT\n\nimport './standard/access/AccessControl.sol';\nimport './../interfaces/IRegistry.sol';\n\n\ncontract Registry is AccessControl, IRegistry{\n    struct Comp{\n        bool active;\n        address competitionAddress;\n        address vaultAddress;\n        bytes32 rulesLocation;\n    }\n\n    struct Ext{\n        bool active;\n        address extensionAddress;\n        bytes32 informationLocation;\n    }\n    address private _token;\n    mapping(string => Comp) private _competition;\n    mapping(string => Ext) private _extension;\n    string[] private _competitionNames;\n    string[] private _extensionNames;\n\n\n    constructor()\n    {\n        _setupRole(DEFAULT_ADMIN_ROLE, msg.sender);\n    }\n\n    function getCompetitionList()\n    view external override\n    returns (string[] memory competitionNames)\n    {\n        competitionNames = _competitionNames;\n    }\n\n    function getExtensionList()\n    view external override\n    returns (string[] memory extensionNames)\n    {\n        extensionNames = _extensionNames;\n    }\n\n    function getCompetitionActive(string calldata competitionName)\n    view external override\n    returns (bool active)\n    {\n        active = _competition[competitionName].active;\n    }\n\n    function getCompetitionAddress(string calldata competitionName)\n    view external override\n    returns (address competitionAddress)\n    {\n        competitionAddress = _competition[competitionName].competitionAddress;\n    }\n\n    function getCompetitionVault(string calldata competitionName)\n    view external override\n    returns (address vaultAddress)\n    {\n        vaultAddress = _competition[competitionName].vaultAddress;\n    }\n\n    function getCompetitionRulesLocation(string calldata competitionName)\n    view external override\n    returns (bytes32 rulesLocation)\n    {\n        rulesLocation = _competition[competitionName].rulesLocation;\n    }\n\n    function getTokenAddress()\n    view external override\n    returns (address token)\n    {\n        token = _token;\n    }\n    \n    function getExtensionAddress(string calldata extensionName)\n    view external override\n    returns (address extensionAddress)\n    {\n        extensionAddress = _extension[extensionName].extensionAddress;\n    }\n    \n    function getExtensionActive(string calldata extensionName)\n    view external override\n    returns (bool active)\n    {\n        active = _extension[extensionName].active;\n    }\n    \n    function getExtensionRulesLocation(string calldata extensionName)\n    view external override\n    returns (bytes32 informationLocation)\n    {\n        informationLocation = _extension[extensionName].informationLocation;\n    }\n\n    function registerNewCompetition(string calldata competitionName, address competitionAddress, address vaultAddress, bytes32 rulesLocation)\n    external override\n    {\n        require(hasRole(DEFAULT_ADMIN_ROLE, msg.sender), \"Registry - registerNewCompetition: Caller is unauthorized.\");\n        require(!_competition[competitionName].active, \"Registry - registerNewCompetition: Competition already exists.\");\n        _competition[competitionName] = Comp({active:true, competitionAddress:competitionAddress, vaultAddress: vaultAddress, rulesLocation:rulesLocation});\n        _competitionNames.push(competitionName);\n\n        emit NewCompetitionRegistered(competitionName, competitionAddress, vaultAddress, rulesLocation);\n    }\n\n    function toggleCompetitionActive(string calldata competitionName)\n    external override\n    {\n        require(hasRole(DEFAULT_ADMIN_ROLE, msg.sender), \"Registry - toggleCompetitionActive: Caller is unauthorized.\");\n        require(_competition[competitionName].competitionAddress != address(0), \"Registry - toggleCompetitionActive: Competition does not exist. Use function 'registerNewCompetition' instead.\");\n        _competition[competitionName].active = !_competition[competitionName].active;\n\n        emit CompetitionActiveToggled(competitionName);\n    }\n\n    function changeCompetitionVault(string calldata competitionName, address newVaultAddress)\n    external override\n    {\n        require(hasRole(DEFAULT_ADMIN_ROLE, msg.sender), \"Registry - changeCompetitionVault: Caller is unauthorized.\");\n        require(_competition[competitionName].competitionAddress != address(0), \"Registry - changeCompetitionVault: Competition does not exist. Use function 'registerNewCompetition' instead.\");\n        require(newVaultAddress != address(0), \"Registry - changeCompetitionVault: Cannot set to 0 address.\");\n        _competition[competitionName].vaultAddress = newVaultAddress;\n\n        emit CompetitionVaultAddressChanged(competitionName, newVaultAddress);\n    }\n\n    function changeCompetitionRulesLocation(string calldata competitionName, bytes32 newLocation)\n    external override\n    {\n        require(hasRole(DEFAULT_ADMIN_ROLE, msg.sender), \"Registry - changeCompetitionRulesLocation: Caller is unauthorized.\");\n        require(_competition[competitionName].competitionAddress != address(0), \"Registry - changeCompetitionRulesLocation: Competition does not exist. Use function 'registerNewCompetition' instead.\");\n        require(newLocation != bytes32(0), \"Registry - changeCompetitionRulesLocation: Cannot set to 0 address.\");\n        _competition[competitionName].rulesLocation = newLocation;\n\n        emit CompetitionRulesLocationChanged(competitionName, newLocation);\n    }\n\n    function changeTokenAddress(address newAddress)\n    external override\n    {\n        require(hasRole(DEFAULT_ADMIN_ROLE, msg.sender), \"Registry - changeTokenAddress: Caller is unauthorized.\");\n        require(newAddress != address(0), \"Registry - changeTokenAddress: Cannot set to 0 address.\");\n        _token = newAddress;\n\n        emit TokenAddressChanged(newAddress);\n    }\n\n    function registerNewExtension(string calldata extensionName,address extensionAddress, bytes32 informationLocation)\n    external override\n    {\n        require(hasRole(DEFAULT_ADMIN_ROLE, msg.sender), \"Registry - registerNewExtension: Caller is unauthorized.\");\n        require(!_extension[extensionName].active, \"Registry - registerNewExtension: Extension already exists.\");\n        _extension[extensionName] = Ext({active:true, extensionAddress:extensionAddress, informationLocation:informationLocation});\n        _extensionNames.push(extensionName);\n\n        emit NewExtensionRegistered(extensionName, extensionAddress, informationLocation);\n    }\n    \n    function toggleExtensionActive(string calldata extensionName)\n    external override\n    {\n        require(hasRole(DEFAULT_ADMIN_ROLE, msg.sender), \"Registry - toggleExtensionActive: Caller is unauthorized.\");\n        require(_extension[extensionName].extensionAddress != address(0), \"Registry - toggleExtensionActive: Extension does not exist. Use function 'registerNewExtension' instead.\");\n        _extension[extensionName].active = !_extension[extensionName].active;\n\n        emit ExtensionActiveToggled(extensionName);\n    }\n    \n    function changeExtensionInfoLocation(string calldata extensionName, bytes32 newLocation)\n    external override\n    {\n        require(hasRole(DEFAULT_ADMIN_ROLE, msg.sender), \"Registry - changeExtensionInfoLocation: Caller is unauthorized.\");\n        require(_extension[extensionName].extensionAddress != address(0), \"Registry - changeExtensionInfoLocation: Competition does not exist. Use function 'registerNewCompetition' instead.\");\n        require(newLocation != bytes32(0), \"Registry - changeExtensionInfoLocation: Cannot set to 0 address.\");\n        _extension[extensionName].informationLocation = newLocation;\n\n        emit ExtensionInfoLocationChanged(extensionName, newLocation);\n    }\n    \n    \n}\n\n\n\n\n\n",
  "sourcePath": "contracts/Registry.sol",
  "type": "contract"
}