{
  "abi": [
    {
      "inputs": [
        {
          "internalType": "uint256",
          "name": "stakeThreshold_",
          "type": "uint256"
        },
        {
          "internalType": "uint256",
          "name": "rewardsThreshold_",
          "type": "uint256"
        },
        {
          "internalType": "address",
          "name": "tokenAddress_",
          "type": "address"
        },
        {
          "internalType": "address",
          "name": "vaultAddress_",
          "type": "address"
        }
      ],
      "stateMutability": "nonpayable",
      "type": "constructor"
    },
    {
      "anonymous": false,
      "inputs": [
        {
          "indexed": true,
          "internalType": "uint32",
          "name": "challengeNumber",
          "type": "uint32"
        },
        {
          "indexed": true,
          "internalType": "uint256",
          "name": "itemNumber",
          "type": "uint256"
        }
      ],
      "name": "BatchInformationUpdated",
      "type": "event"
    },
    {
      "anonymous": false,
      "inputs": [
        {
          "indexed": true,
          "internalType": "uint32",
          "name": "challengeNumber",
          "type": "uint32"
        },
        {
          "indexed": true,
          "internalType": "uint256",
          "name": "totalChallengeAmount",
          "type": "uint256"
        },
        {
          "indexed": true,
          "internalType": "uint256",
          "name": "totalTournamentAmount",
          "type": "uint256"
        }
      ],
      "name": "ChallengeAndTournamentRewardsPaid",
      "type": "event"
    },
    {
      "anonymous": false,
      "inputs": [
        {
          "indexed": true,
          "internalType": "address",
          "name": "winner",
          "type": "address"
        },
        {
          "indexed": true,
          "internalType": "uint256",
          "name": "challengeAmount",
          "type": "uint256"
        },
        {
          "indexed": true,
          "internalType": "uint256",
          "name": "tournamentAmount",
          "type": "uint256"
        }
      ],
      "name": "ChallengeAndTournamentRewardsPayment",
      "type": "event"
    },
    {
      "anonymous": false,
      "inputs": [
        {
          "indexed": true,
          "internalType": "uint32",
          "name": "challengeNumber",
          "type": "uint32"
        }
      ],
      "name": "ChallengeAndTournamentScoresUpdated",
      "type": "event"
    },
    {
      "anonymous": false,
      "inputs": [
        {
          "indexed": true,
          "internalType": "uint32",
          "name": "challengeNumber",
          "type": "uint32"
        }
      ],
      "name": "ChallengeOpened",
      "type": "event"
    },
    {
      "anonymous": false,
      "inputs": [
        {
          "indexed": true,
          "internalType": "uint256",
          "name": "newPercentage",
          "type": "uint256"
        }
      ],
      "name": "ChallengeRewardsPercentageInWeiUpdated",
      "type": "event"
    },
    {
      "anonymous": false,
      "inputs": [
        {
          "indexed": true,
          "internalType": "uint32",
          "name": "challengeNumber",
          "type": "uint32"
        },
        {
          "indexed": true,
          "internalType": "bytes32",
          "name": "oldDatasetHash",
          "type": "bytes32"
        },
        {
          "indexed": true,
          "internalType": "bytes32",
          "name": "newDatasetHash",
          "type": "bytes32"
        }
      ],
      "name": "DatasetUpdated",
      "type": "event"
    },
    {
      "anonymous": false,
      "inputs": [
        {
          "indexed": true,
          "internalType": "uint32",
          "name": "challengeNumber",
          "type": "uint32"
        },
        {
          "indexed": true,
          "internalType": "bytes32",
          "name": "oldKeyHash",
          "type": "bytes32"
        },
        {
          "indexed": true,
          "internalType": "bytes32",
          "name": "newKeyHash",
          "type": "bytes32"
        }
      ],
      "name": "KeyUpdated",
      "type": "event"
    },
    {
      "anonymous": false,
      "inputs": [],
      "name": "MessageUpdated",
      "type": "event"
    },
    {
      "anonymous": false,
      "inputs": [
        {
          "indexed": true,
          "internalType": "uint256",
          "name": "remainder",
          "type": "uint256"
        }
      ],
      "name": "RemainderMovedToPool",
      "type": "event"
    },
    {
      "anonymous": false,
      "inputs": [
        {
          "indexed": true,
          "internalType": "uint32",
          "name": "challengeNumber",
          "type": "uint32"
        },
        {
          "indexed": true,
          "internalType": "bytes32",
          "name": "oldResultsHash",
          "type": "bytes32"
        },
        {
          "indexed": true,
          "internalType": "bytes32",
          "name": "newResultsHash",
          "type": "bytes32"
        }
      ],
      "name": "ResultsUpdated",
      "type": "event"
    },
    {
      "anonymous": false,
      "inputs": [
        {
          "indexed": true,
          "internalType": "uint256",
          "name": "newThreshold",
          "type": "uint256"
        }
      ],
      "name": "RewardsThresholdUpdated",
      "type": "event"
    },
    {
      "anonymous": false,
      "inputs": [
        {
          "indexed": true,
          "internalType": "bytes32",
          "name": "role",
          "type": "bytes32"
        },
        {
          "indexed": true,
          "internalType": "bytes32",
          "name": "previousAdminRole",
          "type": "bytes32"
        },
        {
          "indexed": true,
          "internalType": "bytes32",
          "name": "newAdminRole",
          "type": "bytes32"
        }
      ],
      "name": "RoleAdminChanged",
      "type": "event"
    },
    {
      "anonymous": false,
      "inputs": [
        {
          "indexed": true,
          "internalType": "bytes32",
          "name": "role",
          "type": "bytes32"
        },
        {
          "indexed": true,
          "internalType": "address",
          "name": "account",
          "type": "address"
        },
        {
          "indexed": true,
          "internalType": "address",
          "name": "sender",
          "type": "address"
        }
      ],
      "name": "RoleGranted",
      "type": "event"
    },
    {
      "anonymous": false,
      "inputs": [
        {
          "indexed": true,
          "internalType": "bytes32",
          "name": "role",
          "type": "bytes32"
        },
        {
          "indexed": true,
          "internalType": "address",
          "name": "account",
          "type": "address"
        },
        {
          "indexed": true,
          "internalType": "address",
          "name": "sender",
          "type": "address"
        }
      ],
      "name": "RoleRevoked",
      "type": "event"
    },
    {
      "anonymous": false,
      "inputs": [
        {
          "indexed": true,
          "internalType": "address",
          "name": "sponsorAddress",
          "type": "address"
        },
        {
          "indexed": true,
          "internalType": "uint256",
          "name": "sponsorAmount",
          "type": "uint256"
        },
        {
          "indexed": true,
          "internalType": "uint256",
          "name": "poolTotal",
          "type": "uint256"
        }
      ],
      "name": "Sponsor",
      "type": "event"
    },
    {
      "anonymous": false,
      "inputs": [
        {
          "indexed": true,
          "internalType": "address",
          "name": "sender",
          "type": "address"
        },
        {
          "indexed": true,
          "internalType": "uint256",
          "name": "amount",
          "type": "uint256"
        }
      ],
      "name": "StakeDecreased",
      "type": "event"
    },
    {
      "anonymous": false,
      "inputs": [
        {
          "indexed": true,
          "internalType": "address",
          "name": "sender",
          "type": "address"
        },
        {
          "indexed": true,
          "internalType": "uint256",
          "name": "amount",
          "type": "uint256"
        }
      ],
      "name": "StakeIncreased",
      "type": "event"
    },
    {
      "anonymous": false,
      "inputs": [
        {
          "indexed": true,
          "internalType": "uint256",
          "name": "newStakeThreshold",
          "type": "uint256"
        },
        {
          "indexed": true,
          "internalType": "address",
          "name": "adminAddress",
          "type": "address"
        }
      ],
      "name": "StakeThresholdUpdated",
      "type": "event"
    },
    {
      "anonymous": false,
      "inputs": [
        {
          "indexed": true,
          "internalType": "uint32",
          "name": "challengeNumber",
          "type": "uint32"
        },
        {
          "indexed": true,
          "internalType": "uint256",
          "name": "totalAmount",
          "type": "uint256"
        }
      ],
      "name": "StakingRewardsPaid",
      "type": "event"
    },
    {
      "anonymous": false,
      "inputs": [
        {
          "indexed": true,
          "internalType": "address",
          "name": "participant",
          "type": "address"
        },
        {
          "indexed": true,
          "internalType": "uint256",
          "name": "rewardAmount",
          "type": "uint256"
        }
      ],
      "name": "StakingRewardsPayment",
      "type": "event"
    },
    {
      "anonymous": false,
      "inputs": [
        {
          "indexed": true,
          "internalType": "uint32",
          "name": "challengeNumber",
          "type": "uint32"
        }
      ],
      "name": "SubmissionClosed",
      "type": "event"
    },
    {
      "anonymous": false,
      "inputs": [
        {
          "indexed": true,
          "internalType": "uint32",
          "name": "challengeNumber",
          "type": "uint32"
        },
        {
          "indexed": true,
          "internalType": "address",
          "name": "participantAddress",
          "type": "address"
        },
        {
          "indexed": true,
          "internalType": "bytes32",
          "name": "newSubmissionHash",
          "type": "bytes32"
        }
      ],
      "name": "SubmissionUpdated",
      "type": "event"
    },
    {
      "anonymous": false,
      "inputs": [
        {
          "indexed": true,
          "internalType": "uint256",
          "name": "newPercentage",
          "type": "uint256"
        }
      ],
      "name": "TournamentRewardsPercentageInWeiUpdated",
      "type": "event"
    },
    {
      "anonymous": false,
      "inputs": [
        {
          "indexed": true,
          "internalType": "address",
          "name": "newVaultAddress",
          "type": "address"
        }
      ],
      "name": "VaultAddressUpdated",
      "type": "event"
    },
    {
      "inputs": [],
      "name": "DEFAULT_ADMIN_ROLE",
      "outputs": [
        {
          "internalType": "bytes32",
          "name": "",
          "type": "bytes32"
        }
      ],
      "stateMutability": "view",
      "type": "function"
    },
    {
      "inputs": [
        {
          "internalType": "uint8",
          "name": "phase",
          "type": "uint8"
        }
      ],
      "name": "advanceToPhase",
      "outputs": [
        {
          "internalType": "bool",
          "name": "success",
          "type": "bool"
        }
      ],
      "stateMutability": "nonpayable",
      "type": "function"
    },
    {
      "inputs": [],
      "name": "closeSubmission",
      "outputs": [
        {
          "internalType": "bool",
          "name": "success",
          "type": "bool"
        }
      ],
      "stateMutability": "nonpayable",
      "type": "function"
    },
    {
      "inputs": [
        {
          "internalType": "address",
          "name": "participant",
          "type": "address"
        }
      ],
      "name": "computeStakingReward",
      "outputs": [
        {
          "internalType": "uint256",
          "name": "stakingReward",
          "type": "uint256"
        }
      ],
      "stateMutability": "view",
      "type": "function"
    },
    {
      "inputs": [
        {
          "internalType": "uint256",
          "name": "amountToken",
          "type": "uint256"
        }
      ],
      "name": "decreaseStake",
      "outputs": [
        {
          "internalType": "bool",
          "name": "success",
          "type": "bool"
        }
      ],
      "stateMutability": "nonpayable",
      "type": "function"
    },
    {
      "inputs": [
        {
          "internalType": "uint32",
          "name": "challengeNumber",
          "type": "uint32"
        },
        {
          "internalType": "address",
          "name": "participant",
          "type": "address"
        }
      ],
      "name": "getChallengeRewards",
      "outputs": [
        {
          "internalType": "uint256",
          "name": "challengeRewards",
          "type": "uint256"
        }
      ],
      "stateMutability": "view",
      "type": "function"
    },
    {
      "inputs": [
        {
          "internalType": "uint32",
          "name": "challengeNumberStart",
          "type": "uint32"
        },
        {
          "internalType": "uint32",
          "name": "challengeNumberEnd",
          "type": "uint32"
        },
        {
          "internalType": "address",
          "name": "participant",
          "type": "address"
        }
      ],
      "name": "getChallengeRewardsList",
      "outputs": [
        {
          "internalType": "uint256[]",
          "name": "",
          "type": "uint256[]"
        }
      ],
      "stateMutability": "view",
      "type": "function"
    },
    {
      "inputs": [],
      "name": "getChallengeRewardsPercentageInWei",
      "outputs": [
        {
          "internalType": "uint256",
          "name": "challengeRewardsPercentageInWei",
          "type": "uint256"
        }
      ],
      "stateMutability": "view",
      "type": "function"
    },
    {
      "inputs": [
        {
          "internalType": "uint32",
          "name": "challengeNumber",
          "type": "uint32"
        },
        {
          "internalType": "address",
          "name": "participant",
          "type": "address"
        }
      ],
      "name": "getChallengeScores",
      "outputs": [
        {
          "internalType": "uint256",
          "name": "challengeScores",
          "type": "uint256"
        }
      ],
      "stateMutability": "view",
      "type": "function"
    },
    {
      "inputs": [
        {
          "internalType": "uint32",
          "name": "challengeNumberStart",
          "type": "uint32"
        },
        {
          "internalType": "uint32",
          "name": "challengeNumberEnd",
          "type": "uint32"
        },
        {
          "internalType": "address",
          "name": "participant",
          "type": "address"
        }
      ],
      "name": "getChallengeScoresList",
      "outputs": [
        {
          "internalType": "uint256[]",
          "name": "",
          "type": "uint256[]"
        }
      ],
      "stateMutability": "view",
      "type": "function"
    },
    {
      "inputs": [],
      "name": "getCompetitionPool",
      "outputs": [
        {
          "internalType": "uint256",
          "name": "competitionPool",
          "type": "uint256"
        }
      ],
      "stateMutability": "view",
      "type": "function"
    },
    {
      "inputs": [],
      "name": "getCurrentChallengeRewardsBudget",
      "outputs": [
        {
          "internalType": "uint256",
          "name": "currentChallengeRewardsBudget",
          "type": "uint256"
        }
      ],
      "stateMutability": "view",
      "type": "function"
    },
    {
      "inputs": [],
      "name": "getCurrentStakingRewardsBudget",
      "outputs": [
        {
          "internalType": "uint256",
          "name": "currentStakingRewardsBudget",
          "type": "uint256"
        }
      ],
      "stateMutability": "view",
      "type": "function"
    },
    {
      "inputs": [],
      "name": "getCurrentTotalStaked",
      "outputs": [
        {
          "internalType": "uint256",
          "name": "currentTotalStaked",
          "type": "uint256"
        }
      ],
      "stateMutability": "view",
      "type": "function"
    },
    {
      "inputs": [],
      "name": "getCurrentTournamentRewardsBudget",
      "outputs": [
        {
          "internalType": "uint256",
          "name": "currentTournamentRewardsBudget",
          "type": "uint256"
        }
      ],
      "stateMutability": "view",
      "type": "function"
    },
    {
      "inputs": [
        {
          "internalType": "uint32",
          "name": "challengeNumber",
          "type": "uint32"
        }
      ],
      "name": "getDatasetHash",
      "outputs": [
        {
          "internalType": "bytes32",
          "name": "dataset",
          "type": "bytes32"
        }
      ],
      "stateMutability": "view",
      "type": "function"
    },
    {
      "inputs": [
        {
          "internalType": "uint32",
          "name": "challengeNumberStart",
          "type": "uint32"
        },
        {
          "internalType": "uint32",
          "name": "challengeNumberEnd",
          "type": "uint32"
        }
      ],
      "name": "getDatasetHashList",
      "outputs": [
        {
          "internalType": "bytes32[]",
          "name": "",
          "type": "bytes32[]"
        }
      ],
      "stateMutability": "view",
      "type": "function"
    },
    {
      "inputs": [
        {
          "internalType": "uint32",
          "name": "challengeNumber",
          "type": "uint32"
        },
        {
          "internalType": "uint256",
          "name": "index",
          "type": "uint256"
        }
      ],
      "name": "getDeadlines",
      "outputs": [
        {
          "internalType": "uint256",
          "name": "deadline",
          "type": "uint256"
        }
      ],
      "stateMutability": "view",
      "type": "function"
    },
    {
      "inputs": [
        {
          "internalType": "uint32",
          "name": "challengeNumber",
          "type": "uint32"
        },
        {
          "internalType": "address",
          "name": "participant",
          "type": "address"
        },
        {
          "internalType": "uint256",
          "name": "itemNumber",
          "type": "uint256"
        }
      ],
      "name": "getInformation",
      "outputs": [
        {
          "internalType": "int256",
          "name": "value",
          "type": "int256"
        }
      ],
      "stateMutability": "view",
      "type": "function"
    },
    {
      "inputs": [
        {
          "internalType": "uint32",
          "name": "challengeNumberStart",
          "type": "uint32"
        },
        {
          "internalType": "uint32",
          "name": "challengeNumberEnd",
          "type": "uint32"
        },
        {
          "internalType": "address",
          "name": "participant",
          "type": "address"
        },
        {
          "internalType": "uint256",
          "name": "itemNumber",
          "type": "uint256"
        }
      ],
      "name": "getInformationList",
      "outputs": [
        {
          "internalType": "int256[]",
          "name": "",
          "type": "int256[]"
        }
      ],
      "stateMutability": "view",
      "type": "function"
    },
    {
      "inputs": [
        {
          "internalType": "uint32",
          "name": "challengeNumber",
          "type": "uint32"
        }
      ],
      "name": "getKeyHash",
      "outputs": [
        {
          "internalType": "bytes32",
          "name": "key",
          "type": "bytes32"
        }
      ],
      "stateMutability": "view",
      "type": "function"
    },
    {
      "inputs": [
        {
          "internalType": "uint32",
          "name": "challengeNumberStart",
          "type": "uint32"
        },
        {
          "internalType": "uint32",
          "name": "challengeNumberEnd",
          "type": "uint32"
        }
      ],
      "name": "getKeyHashList",
      "outputs": [
        {
          "internalType": "bytes32[]",
          "name": "",
          "type": "bytes32[]"
        }
      ],
      "stateMutability": "view",
      "type": "function"
    },
    {
      "inputs": [],
      "name": "getLatestChallengeNumber",
      "outputs": [
        {
          "internalType": "uint32",
          "name": "latestChallengeNumber",
          "type": "uint32"
        }
      ],
      "stateMutability": "view",
      "type": "function"
    },
    {
      "inputs": [],
      "name": "getMessage",
      "outputs": [
        {
          "internalType": "string",
          "name": "message",
          "type": "string"
        }
      ],
      "stateMutability": "view",
      "type": "function"
    },
    {
      "inputs": [
        {
          "internalType": "uint32",
          "name": "challengeNumber",
          "type": "uint32"
        },
        {
          "internalType": "address",
          "name": "participant",
          "type": "address"
        }
      ],
      "name": "getOverallRewards",
      "outputs": [
        {
          "internalType": "uint256",
          "name": "overallRewards",
          "type": "uint256"
        }
      ],
      "stateMutability": "view",
      "type": "function"
    },
    {
      "inputs": [
        {
          "internalType": "uint32",
          "name": "challengeNumberStart",
          "type": "uint32"
        },
        {
          "internalType": "uint32",
          "name": "challengeNumberEnd",
          "type": "uint32"
        },
        {
          "internalType": "address",
          "name": "participant",
          "type": "address"
        }
      ],
      "name": "getOverallRewardsList",
      "outputs": [
        {
          "internalType": "uint256[]",
          "name": "",
          "type": "uint256[]"
        }
      ],
      "stateMutability": "view",
      "type": "function"
    },
    {
      "inputs": [
        {
          "internalType": "uint32",
          "name": "challengeNumber",
          "type": "uint32"
        }
      ],
      "name": "getPhase",
      "outputs": [
        {
          "internalType": "uint8",
          "name": "phase",
          "type": "uint8"
        }
      ],
      "stateMutability": "view",
      "type": "function"
    },
    {
      "inputs": [
        {
          "internalType": "uint32",
          "name": "challengeNumber",
          "type": "uint32"
        }
      ],
      "name": "getPrivateKeyHash",
      "outputs": [
        {
          "internalType": "bytes32",
          "name": "privateKey",
          "type": "bytes32"
        }
      ],
      "stateMutability": "view",
      "type": "function"
    },
    {
      "inputs": [],
      "name": "getRemainder",
      "outputs": [
        {
          "internalType": "uint256",
          "name": "remainder",
          "type": "uint256"
        }
      ],
      "stateMutability": "view",
      "type": "function"
    },
    {
      "inputs": [
        {
          "internalType": "uint32",
          "name": "challengeNumber",
          "type": "uint32"
        }
      ],
      "name": "getResultsHash",
      "outputs": [
        {
          "internalType": "bytes32",
          "name": "results",
          "type": "bytes32"
        }
      ],
      "stateMutability": "view",
      "type": "function"
    },
    {
      "inputs": [
        {
          "internalType": "uint32",
          "name": "challengeNumberStart",
          "type": "uint32"
        },
        {
          "internalType": "uint32",
          "name": "challengeNumberEnd",
          "type": "uint32"
        }
      ],
      "name": "getResultsHashList",
      "outputs": [
        {
          "internalType": "bytes32[]",
          "name": "",
          "type": "bytes32[]"
        }
      ],
      "stateMutability": "view",
      "type": "function"
    },
    {
      "inputs": [],
      "name": "getRewardsThreshold",
      "outputs": [
        {
          "internalType": "uint256",
          "name": "rewardsThreshold",
          "type": "uint256"
        }
      ],
      "stateMutability": "view",
      "type": "function"
    },
    {
      "inputs": [
        {
          "internalType": "bytes32",
          "name": "role",
          "type": "bytes32"
        }
      ],
      "name": "getRoleAdmin",
      "outputs": [
        {
          "internalType": "bytes32",
          "name": "",
          "type": "bytes32"
        }
      ],
      "stateMutability": "view",
      "type": "function"
    },
    {
      "inputs": [
        {
          "internalType": "address",
          "name": "participant",
          "type": "address"
        }
      ],
      "name": "getStake",
      "outputs": [
        {
          "internalType": "uint256",
          "name": "stake",
          "type": "uint256"
        }
      ],
      "stateMutability": "view",
      "type": "function"
    },
    {
      "inputs": [],
      "name": "getStakeThreshold",
      "outputs": [
        {
          "internalType": "uint256",
          "name": "stakeThreshold",
          "type": "uint256"
        }
      ],
      "stateMutability": "view",
      "type": "function"
    },
    {
      "inputs": [
        {
          "internalType": "uint32",
          "name": "challengeNumber",
          "type": "uint32"
        },
        {
          "internalType": "address",
          "name": "participant",
          "type": "address"
        }
      ],
      "name": "getStakedAmountForChallenge",
      "outputs": [
        {
          "internalType": "uint256",
          "name": "staked",
          "type": "uint256"
        }
      ],
      "stateMutability": "view",
      "type": "function"
    },
    {
      "inputs": [
        {
          "internalType": "uint32",
          "name": "challengeNumber",
          "type": "uint32"
        },
        {
          "internalType": "address",
          "name": "participant",
          "type": "address"
        }
      ],
      "name": "getStakingRewards",
      "outputs": [
        {
          "internalType": "uint256",
          "name": "stakingRewards",
          "type": "uint256"
        }
      ],
      "stateMutability": "view",
      "type": "function"
    },
    {
      "inputs": [
        {
          "internalType": "uint32",
          "name": "challengeNumberStart",
          "type": "uint32"
        },
        {
          "internalType": "uint32",
          "name": "challengeNumberEnd",
          "type": "uint32"
        },
        {
          "internalType": "address",
          "name": "participant",
          "type": "address"
        }
      ],
      "name": "getStakingRewardsList",
      "outputs": [
        {
          "internalType": "uint256[]",
          "name": "",
          "type": "uint256[]"
        }
      ],
      "stateMutability": "view",
      "type": "function"
    },
    {
      "inputs": [
        {
          "internalType": "uint32",
          "name": "challengeNumber",
          "type": "uint32"
        },
        {
          "internalType": "address",
          "name": "participant",
          "type": "address"
        }
      ],
      "name": "getSubmission",
      "outputs": [
        {
          "internalType": "bytes32",
          "name": "submissionHash",
          "type": "bytes32"
        }
      ],
      "stateMutability": "view",
      "type": "function"
    },
    {
      "inputs": [
        {
          "internalType": "uint32",
          "name": "challengeNumber",
          "type": "uint32"
        }
      ],
      "name": "getSubmissionCounter",
      "outputs": [
        {
          "internalType": "uint256",
          "name": "submissionCounter",
          "type": "uint256"
        }
      ],
      "stateMutability": "view",
      "type": "function"
    },
    {
      "inputs": [
        {
          "internalType": "uint32",
          "name": "challengeNumberStart",
          "type": "uint32"
        },
        {
          "internalType": "uint32",
          "name": "challengeNumberEnd",
          "type": "uint32"
        }
      ],
      "name": "getSubmissionCounterList",
      "outputs": [
        {
          "internalType": "uint256[]",
          "name": "",
          "type": "uint256[]"
        }
      ],
      "stateMutability": "view",
      "type": "function"
    },
    {
      "inputs": [
        {
          "internalType": "uint32",
          "name": "challengeNumberStart",
          "type": "uint32"
        },
        {
          "internalType": "uint32",
          "name": "challengeNumberEnd",
          "type": "uint32"
        },
        {
          "internalType": "address",
          "name": "participant",
          "type": "address"
        }
      ],
      "name": "getSubmissionList",
      "outputs": [
        {
          "internalType": "bytes32[]",
          "name": "",
          "type": "bytes32[]"
        }
      ],
      "stateMutability": "view",
      "type": "function"
    },
    {
      "inputs": [
        {
          "internalType": "uint32",
          "name": "challengeNumber",
          "type": "uint32"
        }
      ],
      "name": "getSubmitters",
      "outputs": [
        {
          "internalType": "address[]",
          "name": "submitters",
          "type": "address[]"
        }
      ],
      "stateMutability": "view",
      "type": "function"
    },
    {
      "inputs": [],
      "name": "getTokenAddress",
      "outputs": [
        {
          "internalType": "address",
          "name": "tokenAddress",
          "type": "address"
        }
      ],
      "stateMutability": "view",
      "type": "function"
    },
    {
      "inputs": [
        {
          "internalType": "uint32",
          "name": "challengeNumber",
          "type": "uint32"
        }
      ],
      "name": "getTotalStakesLockedForChallenge",
      "outputs": [
        {
          "internalType": "uint256",
          "name": "totalStakedForChallenge",
          "type": "uint256"
        }
      ],
      "stateMutability": "view",
      "type": "function"
    },
    {
      "inputs": [
        {
          "internalType": "uint32",
          "name": "challengeNumberStart",
          "type": "uint32"
        },
        {
          "internalType": "uint32",
          "name": "challengeNumberEnd",
          "type": "uint32"
        }
      ],
      "name": "getTotalStakesLockedForChallengeList",
      "outputs": [
        {
          "internalType": "uint256[]",
          "name": "",
          "type": "uint256[]"
        }
      ],
      "stateMutability": "view",
      "type": "function"
    },
    {
      "inputs": [
        {
          "internalType": "uint32",
          "name": "challengeNumber",
          "type": "uint32"
        },
        {
          "internalType": "address",
          "name": "participant",
          "type": "address"
        }
      ],
      "name": "getTournamentRewards",
      "outputs": [
        {
          "internalType": "uint256",
          "name": "tournamentRewards",
          "type": "uint256"
        }
      ],
      "stateMutability": "view",
      "type": "function"
    },
    {
      "inputs": [
        {
          "internalType": "uint32",
          "name": "challengeNumberStart",
          "type": "uint32"
        },
        {
          "internalType": "uint32",
          "name": "challengeNumberEnd",
          "type": "uint32"
        },
        {
          "internalType": "address",
          "name": "participant",
          "type": "address"
        }
      ],
      "name": "getTournamentRewardsList",
      "outputs": [
        {
          "internalType": "uint256[]",
          "name": "",
          "type": "uint256[]"
        }
      ],
      "stateMutability": "view",
      "type": "function"
    },
    {
      "inputs": [],
      "name": "getTournamentRewardsPercentageInWei",
      "outputs": [
        {
          "internalType": "uint256",
          "name": "tournamentRewardsPercentageInWei",
          "type": "uint256"
        }
      ],
      "stateMutability": "view",
      "type": "function"
    },
    {
      "inputs": [
        {
          "internalType": "uint32",
          "name": "challengeNumber",
          "type": "uint32"
        },
        {
          "internalType": "address",
          "name": "participant",
          "type": "address"
        }
      ],
      "name": "getTournamentScores",
      "outputs": [
        {
          "internalType": "uint256",
          "name": "tournamentScores",
          "type": "uint256"
        }
      ],
      "stateMutability": "view",
      "type": "function"
    },
    {
      "inputs": [
        {
          "internalType": "uint32",
          "name": "challengeNumberStart",
          "type": "uint32"
        },
        {
          "internalType": "uint32",
          "name": "challengeNumberEnd",
          "type": "uint32"
        },
        {
          "internalType": "address",
          "name": "participant",
          "type": "address"
        }
      ],
      "name": "getTournamentScoresList",
      "outputs": [
        {
          "internalType": "uint256[]",
          "name": "",
          "type": "uint256[]"
        }
      ],
      "stateMutability": "view",
      "type": "function"
    },
    {
      "inputs": [],
      "name": "getVaultAddress",
      "outputs": [
        {
          "internalType": "address",
          "name": "vaultAddress",
          "type": "address"
        }
      ],
      "stateMutability": "view",
      "type": "function"
    },
    {
      "inputs": [
        {
          "internalType": "bytes32",
          "name": "role",
          "type": "bytes32"
        },
        {
          "internalType": "address",
          "name": "account",
          "type": "address"
        }
      ],
      "name": "grantRole",
      "outputs": [],
      "stateMutability": "nonpayable",
      "type": "function"
    },
    {
      "inputs": [
        {
          "internalType": "bytes32",
          "name": "role",
          "type": "bytes32"
        },
        {
          "internalType": "address",
          "name": "account",
          "type": "address"
        }
      ],
      "name": "hasRole",
      "outputs": [
        {
          "internalType": "bool",
          "name": "",
          "type": "bool"
        }
      ],
      "stateMutability": "view",
      "type": "function"
    },
    {
      "inputs": [
        {
          "internalType": "uint256",
          "name": "amountToken",
          "type": "uint256"
        }
      ],
      "name": "increaseStake",
      "outputs": [
        {
          "internalType": "bool",
          "name": "success",
          "type": "bool"
        }
      ],
      "stateMutability": "nonpayable",
      "type": "function"
    },
    {
      "inputs": [],
      "name": "moveRemainderToPool",
      "outputs": [
        {
          "internalType": "bool",
          "name": "success",
          "type": "bool"
        }
      ],
      "stateMutability": "nonpayable",
      "type": "function"
    },
    {
      "inputs": [
        {
          "internalType": "bytes32",
          "name": "datasetHash",
          "type": "bytes32"
        },
        {
          "internalType": "bytes32",
          "name": "keyHash",
          "type": "bytes32"
        }
      ],
      "name": "openChallenge",
      "outputs": [
        {
          "internalType": "bool",
          "name": "success",
          "type": "bool"
        }
      ],
      "stateMutability": "nonpayable",
      "type": "function"
    },
    {
      "inputs": [
        {
          "internalType": "uint32",
          "name": "challengeNumber",
          "type": "uint32"
        },
        {
          "internalType": "address[]",
          "name": "winners",
          "type": "address[]"
        },
        {
          "internalType": "uint256[]",
          "name": "challengeRewards",
          "type": "uint256[]"
        },
        {
          "internalType": "uint256[]",
          "name": "tournamentRewards",
          "type": "uint256[]"
        }
      ],
      "name": "payChallengeAndTournamentRewards",
      "outputs": [
        {
          "internalType": "bool",
          "name": "success",
          "type": "bool"
        }
      ],
      "stateMutability": "nonpayable",
      "type": "function"
    },
    {
      "inputs": [
        {
          "internalType": "address[]",
          "name": "winners",
          "type": "address[]"
        },
        {
          "internalType": "uint256[]",
          "name": "challengeRewards",
          "type": "uint256[]"
        },
        {
          "internalType": "uint256[]",
          "name": "tournamentRewards",
          "type": "uint256[]"
        }
      ],
      "name": "payChallengeAndTournamentRewards",
      "outputs": [
        {
          "internalType": "bool",
          "name": "success",
          "type": "bool"
        }
      ],
      "stateMutability": "nonpayable",
      "type": "function"
    },
    {
      "inputs": [
        {
          "internalType": "uint32",
          "name": "challengeNumber",
          "type": "uint32"
        },
        {
          "internalType": "address[]",
          "name": "participants",
          "type": "address[]"
        },
        {
          "internalType": "uint256[]",
          "name": "rewards",
          "type": "uint256[]"
        }
      ],
      "name": "payStakingRewards",
      "outputs": [
        {
          "internalType": "bool",
          "name": "success",
          "type": "bool"
        }
      ],
      "stateMutability": "nonpayable",
      "type": "function"
    },
    {
      "inputs": [
        {
          "internalType": "address[]",
          "name": "participants",
          "type": "address[]"
        },
        {
          "internalType": "uint256[]",
          "name": "rewards",
          "type": "uint256[]"
        }
      ],
      "name": "payStakingRewards",
      "outputs": [
        {
          "internalType": "bool",
          "name": "success",
          "type": "bool"
        }
      ],
      "stateMutability": "nonpayable",
      "type": "function"
    },
    {
      "inputs": [
        {
          "internalType": "bytes32",
          "name": "role",
          "type": "bytes32"
        },
        {
          "internalType": "address",
          "name": "account",
          "type": "address"
        }
      ],
      "name": "renounceRole",
      "outputs": [],
      "stateMutability": "nonpayable",
      "type": "function"
    },
    {
      "inputs": [
        {
          "internalType": "bytes32",
          "name": "role",
          "type": "bytes32"
        },
        {
          "internalType": "address",
          "name": "account",
          "type": "address"
        }
      ],
      "name": "revokeRole",
      "outputs": [],
      "stateMutability": "nonpayable",
      "type": "function"
    },
    {
      "inputs": [
        {
          "internalType": "uint256",
          "name": "amountToken",
          "type": "uint256"
        }
      ],
      "name": "setStake",
      "outputs": [
        {
          "internalType": "bool",
          "name": "success",
          "type": "bool"
        }
      ],
      "stateMutability": "nonpayable",
      "type": "function"
    },
    {
      "inputs": [
        {
          "internalType": "uint256",
          "name": "amountToken",
          "type": "uint256"
        }
      ],
      "name": "sponsor",
      "outputs": [
        {
          "internalType": "bool",
          "name": "success",
          "type": "bool"
        }
      ],
      "stateMutability": "nonpayable",
      "type": "function"
    },
    {
      "inputs": [
        {
          "internalType": "bytes32",
          "name": "submissionHash",
          "type": "bytes32"
        }
      ],
      "name": "submitNewPredictions",
      "outputs": [
        {
          "internalType": "uint32",
          "name": "challengeNumber",
          "type": "uint32"
        }
      ],
      "stateMutability": "nonpayable",
      "type": "function"
    },
    {
      "inputs": [
        {
          "internalType": "bytes32",
          "name": "resultsHash",
          "type": "bytes32"
        }
      ],
      "name": "submitResults",
      "outputs": [
        {
          "internalType": "bool",
          "name": "success",
          "type": "bool"
        }
      ],
      "stateMutability": "nonpayable",
      "type": "function"
    },
    {
      "inputs": [
        {
          "internalType": "bytes4",
          "name": "interfaceId",
          "type": "bytes4"
        }
      ],
      "name": "supportsInterface",
      "outputs": [
        {
          "internalType": "bool",
          "name": "",
          "type": "bool"
        }
      ],
      "stateMutability": "view",
      "type": "function"
    },
    {
      "inputs": [
        {
          "internalType": "address[]",
          "name": "winners",
          "type": "address[]"
        },
        {
          "internalType": "uint256[]",
          "name": "challengeScores",
          "type": "uint256[]"
        },
        {
          "internalType": "uint256[]",
          "name": "tournamentScores",
          "type": "uint256[]"
        }
      ],
      "name": "updateChallengeAndTournamentScores",
      "outputs": [
        {
          "internalType": "bool",
          "name": "success",
          "type": "bool"
        }
      ],
      "stateMutability": "nonpayable",
      "type": "function"
    },
    {
      "inputs": [
        {
          "internalType": "uint32",
          "name": "challengeNumber",
          "type": "uint32"
        },
        {
          "internalType": "address[]",
          "name": "winners",
          "type": "address[]"
        },
        {
          "internalType": "uint256[]",
          "name": "challengeScores",
          "type": "uint256[]"
        },
        {
          "internalType": "uint256[]",
          "name": "tournamentScores",
          "type": "uint256[]"
        }
      ],
      "name": "updateChallengeAndTournamentScores",
      "outputs": [
        {
          "internalType": "bool",
          "name": "success",
          "type": "bool"
        }
      ],
      "stateMutability": "nonpayable",
      "type": "function"
    },
    {
      "inputs": [
        {
          "internalType": "uint256",
          "name": "newPercentage",
          "type": "uint256"
        }
      ],
      "name": "updateChallengeRewardsPercentageInWei",
      "outputs": [
        {
          "internalType": "bool",
          "name": "success",
          "type": "bool"
        }
      ],
      "stateMutability": "nonpayable",
      "type": "function"
    },
    {
      "inputs": [
        {
          "internalType": "bytes32",
          "name": "oldDatasetHash",
          "type": "bytes32"
        },
        {
          "internalType": "bytes32",
          "name": "newDatasetHash",
          "type": "bytes32"
        }
      ],
      "name": "updateDataset",
      "outputs": [
        {
          "internalType": "bool",
          "name": "success",
          "type": "bool"
        }
      ],
      "stateMutability": "nonpayable",
      "type": "function"
    },
    {
      "inputs": [
        {
          "internalType": "uint32",
          "name": "challengeNumber",
          "type": "uint32"
        },
        {
          "internalType": "uint256",
          "name": "index",
          "type": "uint256"
        },
        {
          "internalType": "uint256",
          "name": "timestamp",
          "type": "uint256"
        }
      ],
      "name": "updateDeadlines",
      "outputs": [
        {
          "internalType": "bool",
          "name": "success",
          "type": "bool"
        }
      ],
      "stateMutability": "nonpayable",
      "type": "function"
    },
    {
      "inputs": [
        {
          "internalType": "uint32",
          "name": "challengeNumber",
          "type": "uint32"
        },
        {
          "internalType": "address[]",
          "name": "participants",
          "type": "address[]"
        },
        {
          "internalType": "uint256",
          "name": "itemNumber",
          "type": "uint256"
        },
        {
          "internalType": "int256[]",
          "name": "values",
          "type": "int256[]"
        }
      ],
      "name": "updateInformationBatch",
      "outputs": [
        {
          "internalType": "bool",
          "name": "success",
          "type": "bool"
        }
      ],
      "stateMutability": "nonpayable",
      "type": "function"
    },
    {
      "inputs": [
        {
          "internalType": "bytes32",
          "name": "oldKeyHash",
          "type": "bytes32"
        },
        {
          "internalType": "bytes32",
          "name": "newKeyHash",
          "type": "bytes32"
        }
      ],
      "name": "updateKey",
      "outputs": [
        {
          "internalType": "bool",
          "name": "success",
          "type": "bool"
        }
      ],
      "stateMutability": "nonpayable",
      "type": "function"
    },
    {
      "inputs": [
        {
          "internalType": "string",
          "name": "newMessage",
          "type": "string"
        }
      ],
      "name": "updateMessage",
      "outputs": [
        {
          "internalType": "bool",
          "name": "success",
          "type": "bool"
        }
      ],
      "stateMutability": "nonpayable",
      "type": "function"
    },
    {
      "inputs": [
        {
          "internalType": "uint32",
          "name": "challengeNumber",
          "type": "uint32"
        },
        {
          "internalType": "bytes32",
          "name": "newKeyHash",
          "type": "bytes32"
        }
      ],
      "name": "updatePrivateKey",
      "outputs": [],
      "stateMutability": "nonpayable",
      "type": "function"
    },
    {
      "inputs": [
        {
          "internalType": "bytes32",
          "name": "oldResultsHash",
          "type": "bytes32"
        },
        {
          "internalType": "bytes32",
          "name": "newResultsHash",
          "type": "bytes32"
        }
      ],
      "name": "updateResults",
      "outputs": [
        {
          "internalType": "bool",
          "name": "success",
          "type": "bool"
        }
      ],
      "stateMutability": "nonpayable",
      "type": "function"
    },
    {
      "inputs": [
        {
          "internalType": "uint256",
          "name": "newThreshold",
          "type": "uint256"
        }
      ],
      "name": "updateRewardsThreshold",
      "outputs": [
        {
          "internalType": "bool",
          "name": "success",
          "type": "bool"
        }
      ],
      "stateMutability": "nonpayable",
      "type": "function"
    },
    {
      "inputs": [
        {
          "internalType": "uint256",
          "name": "newStakeThreshold",
          "type": "uint256"
        }
      ],
      "name": "updateStakeThreshold",
      "outputs": [
        {
          "internalType": "bool",
          "name": "success",
          "type": "bool"
        }
      ],
      "stateMutability": "nonpayable",
      "type": "function"
    },
    {
      "inputs": [
        {
          "internalType": "bytes32",
          "name": "oldSubmissionHash",
          "type": "bytes32"
        },
        {
          "internalType": "bytes32",
          "name": "newSubmissionHash",
          "type": "bytes32"
        }
      ],
      "name": "updateSubmission",
      "outputs": [
        {
          "internalType": "uint32",
          "name": "challengeNumber",
          "type": "uint32"
        }
      ],
      "stateMutability": "nonpayable",
      "type": "function"
    },
    {
      "inputs": [
        {
          "internalType": "uint256",
          "name": "newPercentage",
          "type": "uint256"
        }
      ],
      "name": "updateTournamentRewardsPercentageInWei",
      "outputs": [
        {
          "internalType": "bool",
          "name": "success",
          "type": "bool"
        }
      ],
      "stateMutability": "nonpayable",
      "type": "function"
    },
    {
      "inputs": [
        {
          "internalType": "address",
          "name": "newVaultAddress",
          "type": "address"
        }
      ],
      "name": "updateVaultAddress",
      "outputs": [
        {
          "internalType": "bool",
          "name": "success",
          "type": "bool"
        }
      ],
      "stateMutability": "nonpayable",
      "type": "function"
    }
  ],
  "bytecode": "60806040523480156200001157600080fd5b506040516200624b3803806200624b83398101604081905262000034916200024b565b6001600160a01b038216620000905760405162461bcd60e51b815260206004820152601760248201527f4e6f20746f6b656e206164647265737320666f756e642e00000000000000000060448201526064015b60405180910390fd5b6001600160a01b038116620000e85760405162461bcd60e51b815260206004820152601760248201527f4e6f207661756c74206164647265737320666f756e642e000000000000000000604482015260640162000087565b620000f56000336200017e565b6003939093556005918255600180546001600160a01b039283166001600160a01b0319909116179055600280546001600160c01b031916939091169290921791829055600160a01b90910463ffffffff166000908152600e6020526040902001805460ff19166004179055670429d069189e0000600a55670853a0d2313c0000600b5562000295565b6200018a82826200018e565b5050565b6000828152602081815260408083206001600160a01b038516845290915290205460ff166200018a576000828152602081815260408083206001600160a01b03851684529091529020805460ff19166001179055620001ea3390565b6001600160a01b0316816001600160a01b0316837f2f8788117e7eff1d82e926ec794901d17c78024a50270940304540a733656f0d60405160405180910390a45050565b80516001600160a01b03811681146200024657600080fd5b919050565b6000806000806080858703121562000261578384fd5b84519350602085015192506200027a604086016200022e565b91506200028a606086016200022e565b905092959194509250565b615fa680620002a56000396000f3fe608060405234801561001057600080fd5b50600436106104a15760003560e01c806380d042c81161026d578063c55e86b111610151578063dc0353c5116100ce578063e8b96de111610092578063e8b96de114610cc7578063eecfc33f14610cda578063eedad66b14610d03578063f109a62414610d16578063f7fb373d14610d1e578063ffc6ff1e14610d3157600080fd5b8063dc0353c514610bfc578063dc9f76eb14610c0f578063dec9bf2f14610c22578063e6184ab814610c35578063e7d5c4ea14610c7857600080fd5b8063d4f4b80611610115578063d4f4b80614610b83578063d547741f14610b8b578063d68a7c0014610b9e578063d885e39b14610ba6578063db5211d514610be957600080fd5b8063c55e86b114610b0c578063c8f971df14610b1f578063ce6d41de14610b48578063d2de2f8514610b5d578063d3d11c6214610b7057600080fd5b8063a217fddf116101ea578063b2ad7d95116101ae578063b2ad7d9514610a9a578063b360876814610aad578063b3e3f91014610ac0578063b6cce5e214610ad3578063b97a605c14610ae6578063b98130da14610af957600080fd5b8063a217fddf146109eb578063aa3c6e99146109f3578063aa658b6914610a06578063ad036ecd14610a49578063af976fec14610a5c57600080fd5b806393a9dac71161023157806393a9dac71461099757806397a9ff391461099f57806397d9abb8146109b25780639a9b7630146109c55780639f2492a2146109d857600080fd5b806380d042c8146109205780639044265a1461093357806391d1485414610953578063920920ba14610966578063934d90121461096e57600080fd5b80633cbcb53a1161039457806360cdb6cc11610311578063736d8c91116102d5578063736d8c911461085557806373af67451461087b5780637a3784301461088e5780637a766460146108d15780637bf68a3b146108fa5780637bfc90b21461090d57600080fd5b806360cdb6cc1461079b57806360efc6fe146107db57806365cacaa4146107ee5780636c981570146107ff578063707534621461084257600080fd5b8063572c686a11610358578063572c686a1461071957806357d0cf581461072c578063598a6f0a146107625780635e35d498146107755780635ef533291461078857600080fd5b80633cbcb53a146106745780633f230915146106b7578063403c4d91146106ca5780634169293b146106dd578063477da5cd1461070657600080fd5b80632cf5a52611610422578063343cb6be116103e6578063343cb6be1461061857806335d9db531461062057806336568abe1461063357806337d6b9971461064657806339e287771461064e57600080fd5b80632cf5a526146105c45780632d071f1a146105d75780632f2ff15d146105ea578063315c455e146105fd5780633228cf721461061057600080fd5b80631923be24116104695780631923be241461055e5780631e2ff71114610571578063248a9ca31461057957806325b067461461059c578063294f0a69146105a457600080fd5b806301ffc9a7146104a657806302881b52146104ce57806310fe9ae8146104fa57806315343c111461051f57806318829fc314610556575b600080fd5b6104b96104b4366004615905565b610d39565b60405190151581526020015b60405180910390f35b6104f86104dc366004615bb9565b63ffffffff9091166000908152600e6020526040902060030155565b005b6001546001600160a01b03165b6040516001600160a01b0390911681526020016104c5565b61054861052d3660046159b1565b63ffffffff166000908152600e602052604090206002015490565b6040519081526020016104c5565b600554610548565b6104b961056c36600461592d565b610d70565b600754610548565b6105486105873660046158a1565b60009081526020819052604090206001015490565b600654610548565b6105b76105b2366004615c3d565b610e2a565b6040516104c59190615d37565b6105b76105d2366004615c7f565b610f35565b6104b96105e5366004615be2565b611049565b6104f86105f83660046158b9565b6110eb565b6104b961060b3660046158a1565b61117a565b600954610548565b600354610548565b6104b961062e3660046158a1565b611186565b6104f86106413660046158b9565b611312565b6104b961138c565b61054861065c3660046159b1565b63ffffffff166000908152600e602052604090205490565b6105486106823660046159cb565b63ffffffff9091166000908152600e602090815260408083206001600160a01b03909416835260069093019052206003015490565b6104b96106c53660046158e4565b61164c565b6105b76106d8366004615c3d565b6117d6565b6105486106eb3660046159b1565b63ffffffff166000908152600e602052604090206003015490565b6105b7610714366004615c3d565b6118e9565b6104b96107273660046158a1565b6119eb565b61054861073a366004615bb9565b63ffffffff9091166000908152600e6020908152604080832093835260079093019052205490565b6104b9610770366004615aac565b611aa2565b6104b96107833660046158a1565b6121bf565b6104b96107963660046158a1565b61228c565b6105486107a93660046159cb565b63ffffffff9091166000908152600e602090815260408083206001600160a01b03909416835260069093019052205490565b6104b96107e93660046158e4565b612345565b6002546001600160a01b0316610507565b61054861080d3660046159cb565b63ffffffff9091166000908152600e602090815260408083206001600160a01b03909416835260069093019052206002015490565b6105b7610850366004615c14565b612670565b600254600160a01b900463ffffffff165b60405163ffffffff90911681526020016104c5565b6104b96108893660046158e4565b612763565b61054861089c3660046159cb565b63ffffffff9091166000908152600e602090815260408083206001600160a01b03909416835260069384019091529020015490565b6105486108df36600461576a565b6001600160a01b03166000908152600d602052604090205490565b61054861090836600461576a565b6128d4565b6104b961091b3660046158a1565b612924565b6105b761092e366004615c14565b6129f0565b6109466109413660046159b1565b612adb565b6040516104c59190615cea565b6104b96109613660046158b9565b612b51565b600b54610548565b61054861097c3660046159b1565b63ffffffff166000908152600e602052604090206004015490565b600a54610548565b6104b96109ad3660046157ec565b612b7a565b6105486109c03660046159cb565b612ba7565b6105b76109d3366004615c3d565b612bff565b6108666109e63660046158a1565b612d02565b610548600081565b6105b7610a01366004615c14565b612ded565b610548610a143660046159cb565b63ffffffff9091166000908152600e602090815260408083206001600160a01b03909416835260069093019052206004015490565b6105b7610a57366004615c3d565b612ed8565b610a88610a6a3660046159b1565b63ffffffff166000908152600e602052604090206005015460ff1690565b60405160ff90911681526020016104c5565b6104b9610aa8366004615a2f565b612fda565b6105b7610abb366004615c14565b613493565b6105b7610ace366004615c3d565b61357b565b6104b9610ae13660046158a1565b61367d565b6104b9610af4366004615b52565b613870565b6105b7610b07366004615c3d565b613b2f565b6104b9610b1a3660046158e4565b613c2e565b610548610b2d3660046159b1565b63ffffffff166000908152600e602052604090206008015490565b610b50613cad565b6040516104c59190615d6f565b6104b9610b6b36600461576a565b613d3f565b6104b9610b7e366004615784565b613e0e565b600454610548565b6104f8610b993660046158b9565b613e37565b600854610548565b610548610bb43660046159cb565b63ffffffff9091166000908152600e602090815260408083206001600160a01b03909416835260069093019052206005015490565b6104b9610bf73660046157ec565b613eb7565b6105b7610c0a366004615c14565b613ed9565b6104b9610c1d366004615cc9565b613fc4565b6104b9610c30366004615aac565b6141d0565b610548610c433660046159cb565b63ffffffff9091166000908152600e602090815260408083206001600160a01b03909416835260069093019052206001015490565b610548610c863660046159f4565b63ffffffff9092166000908152600e602090815260408083206001600160a01b03909416835260069093018152828220938252600790930190925290205490565b6104b9610cd53660046158a1565b61454e565b610548610ce83660046159b1565b63ffffffff166000908152600e602052604090206001015490565b6104b9610d113660046158a1565b614864565b610548614b69565b610866610d2c3660046158e4565b614c09565b6104b9614c81565b60006001600160e01b03198216637965db0b60e01b1480610d6a57506301ffc9a760e01b6001600160e01b03198316145b92915050565b6000610d7c8133612b51565b610dea5760405162461bcd60e51b815260206004820152603460248201527f436f6d7065746974696f6e202d207570646174654d6573736167653a2043616c6044820152733632b91034b9903ab730baba3437b934bd32b21760611b60648201526084015b60405180910390fd5b610df6600c8484615658565b50506040516001907f89dbe1e8a053a391becc713b9c088b57cf1855cf857803e49eaae2f8fbc3b1cd90600090a192915050565b6060600084610e3a856001615dda565b610e449190615e58565b63ffffffff166001600160401b03811115610e6f57634e487b7160e01b600052604160045260246000fd5b604051908082528060200260200182016040528015610e98578160200160208202803683370190505b509050845b8463ffffffff168163ffffffff1611610f2c5763ffffffff81166000908152600e602090815260408083206001600160a01b038816845260060190915290206005015482610eeb8884615e58565b63ffffffff1681518110610f0f57634e487b7160e01b600052603260045260246000fd5b602090810291909101015280610f2481615ef6565b915050610e9d565b50949350505050565b6060600085610f45866001615dda565b610f4f9190615e58565b63ffffffff166001600160401b03811115610f7a57634e487b7160e01b600052604160045260246000fd5b604051908082528060200260200182016040528015610fa3578160200160208202803683370190505b509050855b8563ffffffff168163ffffffff161161103f5763ffffffff81166000908152600e602090815260408083206001600160a01b0389168452600601825280832087845260070190915290205482610ffe8984615e58565b63ffffffff168151811061102257634e487b7160e01b600052603260045260246000fd5b60209081029190910101528061103781615ef6565b915050610fa8565b5095945050505050565b60006110558133612b51565b6110c05760405162461bcd60e51b815260206004820152603660248201527f436f6d7065746974696f6e202d20757064617465446561646c696e65733a204360448201527530b63632b91034b9903ab730baba3437b934bd32b21760511b6064820152608401610de1565b5063ffffffff9092166000908152600e60209081526040808320938352600790930190522055600190565b600082815260208190526040902060010154611108905b33612b51565b61116c5760405162461bcd60e51b815260206004820152602f60248201527f416363657373436f6e74726f6c3a2073656e646572206d75737420626520616e60448201526e0818591b5a5b881d1bc819dc985b9d608a1b6064820152608401610de1565b6111768282614dee565b5050565b6000610d6a8183614e72565b336000908152600d6020526040812054828114156112165760405162461bcd60e51b815260206004820152604160248201527f436f6d7065746974696f6e202d207365745374616b653a20596f75722073746160448201527f6b6520697320616c72656164792073657420746f207468697320616d6f756e746064820152601760f91b608482015260a401610de1565b808311156112965761122b610d118285615e41565b6112915760405162461bcd60e51b815260206004820152603160248201527f436f6d7065746974696f6e202d207365745374616b653a20436f756c64206e6f6044820152703a1034b731b932b0b9b29039ba30b5b29760791b6064820152608401610de1565b611309565b6112a3610cd58483615e41565b6113095760405162461bcd60e51b815260206004820152603160248201527f436f6d7065746974696f6e202d207365745374616b653a20436f756c64206e6f6044820152703a103232b1b932b0b9b29039ba30b5b29760791b6064820152608401610de1565b50600192915050565b6001600160a01b03811633146113825760405162461bcd60e51b815260206004820152602f60248201527f416363657373436f6e74726f6c3a2063616e206f6e6c792072656e6f756e636560448201526e103937b632b9903337b91039b2b63360891b6064820152608401610de1565b61117682826150ec565b60006113988133612b51565b6113f85760405162461bcd60e51b815260206004820152603a6024820152600080516020615f3183398151915260448201527f6c3a2043616c6c657220697320756e617574686f72697a65642e0000000000006064820152608401610de1565b600254600160a01b900463ffffffff166000908152600e602052604090206005015460ff166004146114a65760405162461bcd60e51b815260206004820152605f6024820152600080516020615f3183398151915260448201527f6c3a20504c65617365207761697420666f7220746865206368616c6c656e676560648201527f20746f20636f6d706c657465206265666f72652073706f6e736f72696e672e00608482015260a401610de1565b60006114b0614b69565b9050600081116115165760405162461bcd60e51b81526020600482015260386024820152600080516020615f3183398151915260448201527f6c3a204e6f2072656d61696e64657220746f206d6f76652e00000000000000006064820152608401610de1565b80600460008282546115289190615dc2565b90915550506001546040516370a0823160e01b81523060048201526001600160a01b03909116906370a082319060240160206040518083038186803b15801561157057600080fd5b505afa158015611584573d6000803e3d6000fd5b505050506040513d601f19601f820116820180604052508101906115a89190615999565b6006546004546115b89190615dc2565b146116195760405162461bcd60e51b815260206004820152603a6024820152600080516020615f3183398151915260448201527f6c3a204572726f7220696e20746f74616c2062616c616e63652e0000000000006064820152608401610de1565b6040516001925081907fda446d0471a795498335ed4bc219b34921a12ccb87136a9aa03964adc83eadf390600090a25090565b60006116588133612b51565b6116c15760405162461bcd60e51b815260206004820152603460248201527f436f6d7065746974696f6e202d20757064617465446174617365743a2043616c6044820152733632b91034b9903ab730baba3437b934bd32b21760611b6064820152608401610de1565b60025463ffffffff600160a01b909104166000818152600e602052604090206005015460ff166001146117505760405162461bcd60e51b815260206004820152603160248201527f436f6d7065746974696f6e202d20757064617465446174617365743a20436861604482015270363632b733b29034b99031b637b9b2b21760791b6064820152608401610de1565b836117c35760405162461bcd60e51b815260206004820152603c60248201527f436f6d7065746974696f6e202d20757064617465446174617365743a204d757360448201527f742068617665207072652d6578697374696e6720646174617365742e000000006064820152608401610de1565b6117ce818585615151565b949350505050565b60606000846117e6856001615dda565b6117f09190615e58565b63ffffffff166001600160401b0381111561181b57634e487b7160e01b600052604160045260246000fd5b604051908082528060200260200182016040528015611844578160200160208202803683370190505b509050845b8463ffffffff168163ffffffff1611610f2c5763ffffffff81166000908152600e602090815260408083206001600160a01b03881684526006019091529020600381015460029091015461189d9190615dc2565b826118a88884615e58565b63ffffffff16815181106118cc57634e487b7160e01b600052603260045260246000fd5b6020908102919091010152806118e181615ef6565b915050611849565b60606000846118f9856001615dda565b6119039190615e58565b63ffffffff166001600160401b0381111561192e57634e487b7160e01b600052604160045260246000fd5b604051908082528060200260200182016040528015611957578160200160208202803683370190505b509050845b8463ffffffff168163ffffffff1611610f2c5763ffffffff81166000908152600e602090815260408083206001600160a01b0388168452600601909152902060040154826119aa8884615e58565b63ffffffff16815181106119ce57634e487b7160e01b600052603260045260246000fd5b6020908102919091010152806119e381615ef6565b91505061195c565b60006119f78133612b51565b611a695760405162461bcd60e51b815260206004820152603d60248201527f436f6d7065746974696f6e202d2075706461746552657761726473546872657360448201527f686f6c643a2043616c6c657220697320756e617574686f72697a65642e0000006064820152608401610de1565b50600581905560405160019082907f73e002420a7defb91818836f9aaa83222b749a40c213c7c0fbccaacdd259e05290600090a2919050565b6000611aae8133612b51565b611b305760405162461bcd60e51b815260206004820152604760248201527f436f6d7065746974696f6e202d207061794368616c6c656e6765416e64546f7560448201527f726e616d656e74526577617264733a2043616c6c657220697320756e6175746860648201526637b934bd32b21760c91b608482015260a401610de1565b63ffffffff88166000908152600e6020526040902060050154600360ff9091161015611bde5760405162461bcd60e51b815260206004820152605160248201527f436f6d7065746974696f6e202d207061794368616c6c656e6765416e64546f7560448201527f726e616d656e74526577617264733a204368616c6c656e676520697320696e206064820152703ab732bc3832b1ba32b21039ba30ba329760791b608482015260a401610de1565b8584148015611bec57508582145b611c845760405162461bcd60e51b815260206004820152605c60248201527f436f6d7065746974696f6e202d207061794368616c6c656e6765416e64546f7560448201527f726e616d656e74526577617264733a204e756d626572206f662077696e6e657260648201527f7320616e6420726577617264732061726520646966666572656e742e00000000608482015260a401610de1565b60008060005b8881101561205857858582818110611cb257634e487b7160e01b600052603260045260246000fd5b90506020020135888883818110611cd957634e487b7160e01b600052603260045260246000fd5b90506020020135611cea9190615dc2565b600d60008c8c85818110611d0e57634e487b7160e01b600052603260045260246000fd5b9050602002016020810190611d23919061576a565b6001600160a01b03166001600160a01b031681526020019081526020016000206000828254611d529190615dc2565b9091555060009050888883818110611d7a57634e487b7160e01b600052603260045260246000fd5b905060200201351115611e7357878782818110611da757634e487b7160e01b600052603260045260246000fd5b9050602002013583611db99190615dc2565b9250878782818110611ddb57634e487b7160e01b600052603260045260246000fd5b90506020020135600e60008d63ffffffff1663ffffffff16815260200190815260200160002060060160008c8c85818110611e2657634e487b7160e01b600052603260045260246000fd5b9050602002016020810190611e3b919061576a565b6001600160a01b03166001600160a01b031681526020019081526020016000206003016000828254611e6d9190615dc2565b90915550505b6000868683818110611e9557634e487b7160e01b600052603260045260246000fd5b905060200201351115611f8e57858582818110611ec257634e487b7160e01b600052603260045260246000fd5b9050602002013582611ed49190615dc2565b9150858582818110611ef657634e487b7160e01b600052603260045260246000fd5b90506020020135600e60008d63ffffffff1663ffffffff16815260200190815260200160002060060160008c8c85818110611f4157634e487b7160e01b600052603260045260246000fd5b9050602002016020810190611f56919061576a565b6001600160a01b03166001600160a01b031681526020019081526020016000206004016000828254611f889190615dc2565b90915550505b858582818110611fae57634e487b7160e01b600052603260045260246000fd5b90506020020135888883818110611fd557634e487b7160e01b600052603260045260246000fd5b905060200201358b8b84818110611ffc57634e487b7160e01b600052603260045260246000fd5b9050602002016020810190612011919061576a565b6001600160a01b03167f36eff3adc849cc15fde4c14fc71a5734f103624673f2fe025a75944a2ed9795960405160405180910390a48061205081615edb565b915050611c8a565b506008548211156120c85760405162461bcd60e51b815260206004820152603460248201527f546f74616c207061796f75742073756d206d6f7265207468616e206368616c6c60448201527332b733b2903932bbb0b9323990313ab233b2ba1760611b6064820152608401610de1565b6009548111156121385760405162461bcd60e51b815260206004820152603560248201527f546f74616c207061796f75742073756d206d6f7265207468616e20746f75726e60448201527430b6b2b73a103932bbb0b9323990313ab233b2ba1760591b6064820152608401610de1565b6121428183615dc2565b600460008282546121539190615e41565b9091555061216390508183615dc2565b600660008282546121749190615dc2565b90915550600193505080828b63ffffffff167fbfaa8b04c474150acd696e3dcf684152dedbd48f4d7e3fc36ad41f2046de5b6c60405160405180910390a45050979650505050505050565b60006121cb8133612b51565b6122535760405162461bcd60e51b815260206004820152604d60248201527f436f6d7065746974696f6e202d20757064617465546f75726e616d656e74526560448201527f776172647350657263656e74616765496e5765693a2043616c6c65722069732060648201526c3ab730baba3437b934bd32b21760991b608482015260a401610de1565b50600b81905560405160019082907f211318e1b6942c96eaad65d5f6c4c520722236466093427de4dacb729bd36dfb90600090a2919050565b60006122988133612b51565b61230a5760405162461bcd60e51b815260206004820152603b60248201527f436f6d7065746974696f6e202d207570646174655374616b655468726573686f60448201527f6c643a2043616c6c657220697320756e617574686f72697a65642e00000000006064820152608401610de1565b506003819055604051600190339083907fc3dad8d972694b8a948b4205b1bb45cbb2c73729f86630689e1e41c36a2965fa90600090a3919050565b60006123518133612b51565b6123ba5760405162461bcd60e51b815260206004820152603460248201527f436f6d7065746974696f6e202d206f70656e4368616c6c656e67653a2043616c6044820152733632b91034b9903ab730baba3437b934bd32b21760611b6064820152608401610de1565b600254600160a01b900463ffffffff166000818152600e602052604090206005015460ff166004146124545760405162461bcd60e51b815260206004820152603a60248201527f436f6d7065746974696f6e202d206f70656e4368616c6c656e67653a2050726560448201527f76696f757320706861736520697320696e636f6d706c6574652e0000000000006064820152608401610de1565b60055460045410156124c05760405162461bcd60e51b815260206004820152602f60248201527f436f6d70657469746f6e202d206f70656e4368616c6c656e67653a204e6f742060448201526e32b737bab3b4103932bbb0b932399760891b6064820152608401610de1565b806124ca81615ef6565b63ffffffff81166000818152600e60205260408120600501805460ff1916600117905560028054600160a01b90930263ffffffff60a01b199093169290921790915590925061251c9150829086615151565b50612529816000856152b1565b5060025460408051630eecae2160e01b815290516000926001600160a01b031691630eecae2191600480830192602092919082900301818787803b15801561257057600080fd5b505af1158015612584573d6000803e3d6000fd5b505050506040513d601f19601f820116820180604052508101906125a89190615999565b905080156125c85780600460008282546125c29190615dc2565b90915550505b670de0b6b3a7640000600a546004546125e19190615e22565b6125eb9190615e02565b600855600b54600454670de0b6b3a76400009161260791615e22565b6126119190615e02565b60098190556008546004546126269190615e41565b6126309190615e41565b6007556040516001935063ffffffff8316907f9da6f4cd0f617f153c3ebc9840a08792cff9f0fd8c796ce09c5d2006f42da6d990600090a2505092915050565b6060600083612680846001615dda565b61268a9190615e58565b63ffffffff166001600160401b038111156126b557634e487b7160e01b600052604160045260246000fd5b6040519080825280602002602001820160405280156126de578160200160208202803683370190505b509050835b8363ffffffff168163ffffffff161161275b5763ffffffff81166000908152600e60205260409020600801548261271a8784615e58565b63ffffffff168151811061273e57634e487b7160e01b600052603260045260246000fd5b60209081029190910101528061275381615ef6565b9150506126e3565b509392505050565b600061276f8133612b51565b6127d45760405162461bcd60e51b815260206004820152603060248201527f436f6d7065746974696f6e202d207570646174654b65793a2043616c6c65722060448201526f34b9903ab730baba3437b934bd32b21760811b6064820152608401610de1565b60025463ffffffff600160a01b909104166000818152600e602052604090206005015460ff1660011461285f5760405162461bcd60e51b815260206004820152602d60248201527f436f6d7065746974696f6e202d207570646174654b65793a204368616c6c656e60448201526c33b29034b99031b637b9b2b21760991b6064820152608401610de1565b836128c95760405162461bcd60e51b815260206004820152603460248201527f436f6d7065746974696f6e202d207570646174654b65793a204d7573742068616044820152733b329038393296b2bc34b9ba34b7339035b2bc9760611b6064820152608401610de1565b6117ce8185856152b1565b600254600160a01b900463ffffffff166000908152600e60209081526040808320600401546001600160a01b0385168452600d90925282205460075461291a9190615e22565b610d6a9190615e02565b60006129308133612b51565b6129b75760405162461bcd60e51b815260206004820152604c60248201527f436f6d7065746974696f6e202d207570646174654368616c6c656e676552657760448201527f6172647350657263656e74616765496e5765693a2043616c6c6572206973207560648201526b3730baba3437b934bd32b21760a11b608482015260a401610de1565b50600a81905560405160019082907f94327140b3bb3bb989865fef53b345cd1ddd7991b30e3233137ab646448fbeb590600090a2919050565b6060600083612a00846001615dda565b612a0a9190615e58565b63ffffffff166001600160401b03811115612a3557634e487b7160e01b600052604160045260246000fd5b604051908082528060200260200182016040528015612a5e578160200160208202803683370190505b509050835b8363ffffffff168163ffffffff161161275b5763ffffffff81166000908152600e602052604090206004015482612a9a8784615e58565b63ffffffff1681518110612abe57634e487b7160e01b600052603260045260246000fd5b602090810291909101015280612ad381615ef6565b915050612a63565b63ffffffff81166000908152600e6020908152604091829020600801805483518184028101840190945280845260609392830182828015612b4557602002820191906000526020600020905b81546001600160a01b03168152600190910190602001808311612b27575b50505050509050919050565b6000918252602082815260408084206001600160a01b0393909316845291905290205460ff1690565b600254600090612b9c90600160a01b900463ffffffff168888888888886141d0565b979650505050505050565b63ffffffff82166000908152600e602090815260408083206001600160a01b03851684526006019091528120600481015460038201546002909201549091612bee91615dc2565b612bf89190615dc2565b9392505050565b6060600084612c0f856001615dda565b612c199190615e58565b63ffffffff166001600160401b03811115612c4457634e487b7160e01b600052604160045260246000fd5b604051908082528060200260200182016040528015612c6d578160200160208202803683370190505b509050845b8463ffffffff168163ffffffff1611610f2c5763ffffffff81166000908152600e602090815260408083206001600160a01b03881684526006908101909252909120015482612cc18884615e58565b63ffffffff1681518110612ce557634e487b7160e01b600052603260045260246000fd5b602090810291909101015280612cfa81615ef6565b915050612c72565b6000612d0e818361540d565b336000908152600d602052604090205460035491925090811015612d9a5760405162461bcd60e51b815260206004820152603d60248201527f436f6d7065746974696f6e202d207375626d69744e657750726564696374696f60448201527f6e733a205374616b652069732062656c6f77207468726573686f6c642e0000006064820152608401610de1565b63ffffffff82166000908152600e60209081526040808320600881018054600181810183559186528486200180546001600160a01b03191633908117909155855260069091019092529091200155919050565b6060600083612dfd846001615dda565b612e079190615e58565b63ffffffff166001600160401b03811115612e3257634e487b7160e01b600052604160045260246000fd5b604051908082528060200260200182016040528015612e5b578160200160208202803683370190505b509050835b8363ffffffff168163ffffffff161161275b5763ffffffff81166000908152600e602052604090206002015482612e978784615e58565b63ffffffff1681518110612ebb57634e487b7160e01b600052603260045260246000fd5b602090810291909101015280612ed081615ef6565b915050612e60565b6060600084612ee8856001615dda565b612ef29190615e58565b63ffffffff166001600160401b03811115612f1d57634e487b7160e01b600052604160045260246000fd5b604051908082528060200260200182016040528015612f46578160200160208202803683370190505b509050845b8463ffffffff168163ffffffff1611610f2c5763ffffffff81166000908152600e602090815260408083206001600160a01b038816845260060190915290206002015482612f998884615e58565b63ffffffff1681518110612fbd57634e487b7160e01b600052603260045260246000fd5b602090810291909101015280612fd281615ef6565b915050612f4b565b6000612fe68133612b51565b6130585760405162461bcd60e51b815260206004820152603860248201527f436f6d7065746974696f6e202d207061795374616b696e67526577617264733a60448201527f2043616c6c657220697320756e617574686f72697a65642e00000000000000006064820152608401610de1565b63ffffffff86166000908152600e602052604090206005015460ff166002146130f45760405162461bcd60e51b815260206004820152604260248201527f436f6d7065746974696f6e202d207061795374616b696e67526577617264733a60448201527f204368616c6c656e676520697320696e20756e65787065637465642073746174606482015261329760f11b608482015260a401610de1565b8382146131845760405162461bcd60e51b815260206004820152605260248201527f436f6d7065746974696f6e202d207061795374616b696e67526577617264733a60448201527f204e756d626572206f66207061727469636970616e747320616e6420726577616064820152713932399030b932903234b33332b932b73a1760711b608482015260a401610de1565b6000805b858110156133b4578484828181106131b057634e487b7160e01b600052603260045260246000fd5b90506020020135600d60008989858181106131db57634e487b7160e01b600052603260045260246000fd5b90506020020160208101906131f0919061576a565b6001600160a01b03166001600160a01b03168152602001908152602001600020600082825461321f9190615dc2565b90915550859050848281811061324557634e487b7160e01b600052603260045260246000fd5b90506020020135826132579190615dc2565b915084848281811061327957634e487b7160e01b600052603260045260246000fd5b90506020020135600e60008a63ffffffff1663ffffffff16815260200190815260200160002060060160008989858181106132c457634e487b7160e01b600052603260045260246000fd5b90506020020160208101906132d9919061576a565b6001600160a01b03166001600160a01b03168152602001908152602001600020600201600082825461330b9190615dc2565b90915550859050848281811061333157634e487b7160e01b600052603260045260246000fd5b9050602002013587878381811061335857634e487b7160e01b600052603260045260246000fd5b905060200201602081019061336d919061576a565b6001600160a01b03167f6132076a840070359367c4279185181db454eae48a2c6c661e56f50ff312e04460405160405180910390a3806133ac81615edb565b915050613188565b506007548111156134225760405162461bcd60e51b815260206004820152603260248201527f546f74616c207061796f75742073756d206d6f7265207468616e207374616b696044820152713733903932bbb0b9323990313ab233b2ba1760711b6064820152608401610de1565b80600460008282546134349190615e41565b92505081905550806006600082825461344d9190615dc2565b909155506001925050604051819063ffffffff8916907fc3168f2e7fdefcb5cb67cfb93778f32d4b25929f83d45e1bb44339f2161ba7f690600090a35095945050505050565b60606000836134a3846001615dda565b6134ad9190615e58565b63ffffffff166001600160401b038111156134d857634e487b7160e01b600052604160045260246000fd5b604051908082528060200260200182016040528015613501578160200160208202803683370190505b509050835b8363ffffffff168163ffffffff161161275b5763ffffffff81166000908152600e60205260409020548261353a8784615e58565b63ffffffff168151811061355e57634e487b7160e01b600052603260045260246000fd5b60209081029190910101528061357381615ef6565b915050613506565b606060008461358b856001615dda565b6135959190615e58565b63ffffffff166001600160401b038111156135c057634e487b7160e01b600052604160045260246000fd5b6040519080825280602002602001820160405280156135e9578160200160208202803683370190505b509050845b8463ffffffff168163ffffffff1611610f2c5763ffffffff81166000908152600e602090815260408083206001600160a01b03881684526006019091529020600301548261363c8884615e58565b63ffffffff168151811061366057634e487b7160e01b600052603260045260246000fd5b60209081029190910101528061367581615ef6565b9150506135ee565b600254600160a01b900463ffffffff166000908152600e602052604081206005015460ff166004146137335760405162461bcd60e51b815260206004820152605360248201527f436f6d7065746974696f6e202d2073706f6e736f723a20504c6561736520776160448201527f697420666f7220746865206368616c6c656e676520746f20636f6d706c657465606482015272103132b337b9329039b837b739b7b934b7339760691b608482015260a401610de1565b6001546040516323b872dd60e01b8152336004820152306024820152604481018490526001600160a01b03909116906323b872dd90606401602060405180830381600087803b15801561378557600080fd5b505af1158015613799573d6000803e3d6000fd5b505050506040513d601f19601f820116820180604052508101906137bd9190615881565b61381f5760405162461bcd60e51b815260206004820152602d60248201527f436f6d7065746974696f6e202d2073706f6e736f723a20546f6b656e2074726160448201526c3739b332b9103330b4b632b21760991b6064820152608401610de1565b60045461382c8382615dc2565b6004556001915061383d8382615dc2565b604051849033907f64939930c3fd0a1fe9e7fb9810272db7730a0f02b900972787bcb79fb6fd3d2d90600090a450919050565b600061387c8133612b51565b6138ee5760405162461bcd60e51b815260206004820152603d60248201527f436f6d7065746974696f6e202d20757064617465496e666f726d6174696f6e4260448201527f617463683a2043616c6c657220697320756e617574686f72697a65642e0000006064820152608401610de1565b63ffffffff87166000908152600e6020526040902060050154600360ff90911610156139925760405162461bcd60e51b815260206004820152604760248201527f436f6d7065746974696f6e202d20757064617465496e666f726d6174696f6e4260448201527f617463683a204368616c6c656e676520697320696e20756e65787065637465646064820152661039ba30ba329760c91b608482015260a401610de1565b848214613a265760405162461bcd60e51b815260206004820152605660248201527f436f6d7065746974696f6e202d20757064617465496e666f726d6174696f6e4260448201527f617463683a204e756d626572206f66207061727469636970616e747320616e64606482015275103b30b63ab2b99030b932903234b33332b932b73a1760511b608482015260a401610de1565b60005b85811015613aed57838382818110613a5157634e487b7160e01b600052603260045260246000fd5b90506020020135600e60008a63ffffffff1663ffffffff1681526020019081526020016000206006016000898985818110613a9c57634e487b7160e01b600052603260045260246000fd5b9050602002016020810190613ab1919061576a565b6001600160a01b031681526020808201929092526040908101600090812089825260070190925290205580613ae581615edb565b915050613a29565b5050604051600190849063ffffffff8916907fdfc0e8d429222115bcdeae8834d5fbcecc360f743768fc2a9693a30a379999e990600090a39695505050505050565b6060600084613b3f856001615dda565b613b499190615e58565b63ffffffff166001600160401b03811115613b7457634e487b7160e01b600052604160045260246000fd5b604051908082528060200260200182016040528015613b9d578160200160208202803683370190505b509050845b8463ffffffff168163ffffffff1611610f2c5763ffffffff81166000908152600e602090815260408083206001600160a01b038816845260060190915290205482613bed8884615e58565b63ffffffff1681518110613c1157634e487b7160e01b600052603260045260246000fd5b602090810291909101015280613c2681615ef6565b915050613ba2565b600082613ca35760405162461bcd60e51b815260206004820152603c60248201527f436f6d7065746974696f6e202d20757064617465526573756c74733a204d757360448201527f742068617665207072652d6578697374696e6720726573756c74732e000000006064820152608401610de1565b612bf88383614e72565b6060600c8054613cbc90615ea0565b80601f0160208091040260200160405190810160405280929190818152602001828054613ce890615ea0565b8015613d355780601f10613d0a57610100808354040283529160200191613d35565b820191906000526020600020905b815481529060010190602001808311613d1857829003601f168201915b5050505050905090565b6000613d4b8133612b51565b613dbd5760405162461bcd60e51b815260206004820152603960248201527f436f6d7065746974696f6e202d207570646174655661756c744164647265737360448201527f3a2043616c6c657220697320756e617574686f72697a65642e000000000000006064820152608401610de1565b50600280546001600160a01b0319166001600160a01b038316908117909155604051600191907f5e74f6697ae9d8e4ed8c4e8cb2f44acc9909529ce81812aab23103b3de223f6690600090a2919050565b600254600090613e2e90600160a01b900463ffffffff1686868686612fda565b95945050505050565b600082815260208190526040902060010154613e5290611102565b6113825760405162461bcd60e51b815260206004820152603060248201527f416363657373436f6e74726f6c3a2073656e646572206d75737420626520616e60448201526f2061646d696e20746f207265766f6b6560801b6064820152608401610de1565b600254600090612b9c90600160a01b900463ffffffff16888888888888611aa2565b6060600083613ee9846001615dda565b613ef39190615e58565b63ffffffff166001600160401b03811115613f1e57634e487b7160e01b600052604160045260246000fd5b604051908082528060200260200182016040528015613f47578160200160208202803683370190505b509050835b8363ffffffff168163ffffffff161161275b5763ffffffff81166000908152600e602052604090206001015482613f838784615e58565b63ffffffff1681518110613fa757634e487b7160e01b600052603260045260246000fd5b602090810291909101015280613fbc81615ef6565b915050613f4c565b6000613fd08133612b51565b61403a5760405162461bcd60e51b815260206004820152603560248201527f436f6d7065746974696f6e202d20616476616e6365546f50686173653a204361604482015274363632b91034b9903ab730baba3437b934bd32b21760591b6064820152608401610de1565b60028054600160a01b900463ffffffff169060ff8416118015614060575060058360ff16105b6140f85760405162461bcd60e51b815260206004820152605a60248201527f436f6d7065746974696f6e202d20616476616e6365546f50686173653a20596f60448201527f75206d6179206f6e6c79207573652074686973206d6574686f6420666f72206160648201527f6476616e63696e6720746f207068617365732033206f7220342e000000000000608482015260a401610de1565b63ffffffff81166000908152600e602052604090206005015460ff1661411f600185615e7d565b60ff16146141a35760405162461bcd60e51b815260206004820152604560248201527f436f6d7065746974696f6e202d20616476616e6365546f50686173653a20596f60448201527f75206d6179206f6e6c7920616476616e636520746f20746865206e65787420706064820152643430b9b29760d91b608482015260a401610de1565b63ffffffff166000908152600e60205260409020600501805460ff191660ff939093169290921790915590565b60006141dc8133612b51565b6142605760405162461bcd60e51b815260206004820152604960248201527f436f6d7065746974696f6e202d207570646174654368616c6c656e6765416e6460448201527f546f75726e616d656e7453636f7265733a2043616c6c657220697320756e61756064820152683a3437b934bd32b21760b91b608482015260a401610de1565b63ffffffff88166000908152600e6020526040902060050154600360ff90911610156143105760405162461bcd60e51b815260206004820152605360248201527f436f6d7065746974696f6e202d207570646174654368616c6c656e6765416e6460448201527f546f75726e616d656e7453636f7265733a204368616c6c656e6765206973206960648201527237103ab732bc3832b1ba32b21039ba30ba329760691b608482015260a401610de1565b858414801561431e57508582145b6143b65760405162461bcd60e51b815260206004820152605d60248201527f436f6d7065746974696f6e202d207570646174654368616c6c656e6765416e6460448201527f546f75726e616d656e7453636f7265733a204e756d626572206f662077696e6e60648201527f65727320616e642073636f7265732061726520646966666572656e742e000000608482015260a401610de1565b60005b8681101561450d578585828181106143e157634e487b7160e01b600052603260045260246000fd5b90506020020135600e60008b63ffffffff1663ffffffff16815260200190815260200160002060060160008a8a8581811061442c57634e487b7160e01b600052603260045260246000fd5b9050602002016020810190614441919061576a565b6001600160a01b0316815260208101919091526040016000206005015583838281811061447e57634e487b7160e01b600052603260045260246000fd5b90506020020135600e60008b63ffffffff1663ffffffff16815260200190815260200160002060060160008a8a858181106144c957634e487b7160e01b600052603260045260246000fd5b90506020020160208101906144de919061576a565b6001600160a01b031681526020810191909152604001600020600601558061450581615edb565b9150506143b9565b505060405160019063ffffffff8916907f6fa7224843e16ab8c76a13b984cfcf54de67707a118bf52ce93e0e5be358987190600090a2979650505050505050565b60028054600160a01b900463ffffffff166000818152600e6020526040812060050154909260ff90911614156146215760405162461bcd60e51b815260206004820152606660248201527f436f6d7065746974696f6e202d2064656372656173655374616b653a20506c6560448201527f617365207761697420666f7220746865207374616b696e6720706572696f642060648201527f746f20756e6c6f636b206265666f7265206d6f64696679696e6720796f75722060848201526539ba30b5b29760d11b60a482015260c401610de1565b63ffffffff81166000908152600e60209081526040808320338452600601909152902054156146ed5760405162461bcd60e51b815260206004820152606660248201527f436f6d7065746974696f6e202d2064656372656173655374616b653a20506c6560448201527f617365207761697420666f722074686973206368616c6c656e676520746f206260648201527f6520636f6d706c65746564206265666f7265206d616b696e672061646a75737460848201526536b2b73a399760d11b60a482015260c401610de1565b336000908152600d6020526040902054808411156147735760405162461bcd60e51b815260206004820152603f60248201527f436f6d7065746974696f6e202d2064656372656173655374616b653a20496e7360448201527f756666696369656e742066756e647320666f72207769746864726177616c2e006064820152608401610de1565b61477d8482615e41565b336000908152600d6020526040812091909155600680548692906147a2908490615e41565b909155505060015460405163a9059cbb60e01b8152336004820152602481018690526001600160a01b039091169063a9059cbb90604401602060405180830381600087803b1580156147f357600080fd5b505af1158015614807573d6000803e3d6000fd5b505050506040513d601f19601f8201168201806040525081019061482b9190615881565b5060405160019350849033907f700865370ffb2a65a2b0242e6a64b21ac907ed5ecd46c9cffc729c177b2b1c6990600090a35050919050565b60028054600160a01b900463ffffffff166000818152600e6020526040812060050154909260ff90911614156149375760405162461bcd60e51b815260206004820152606660248201527f436f6d7065746974696f6e202d20696e6372656173655374616b653a20506c6560448201527f617365207761697420666f7220746865207374616b696e6720706572696f642060648201527f746f20756e6c6f636b206265666f7265206d6f64696679696e6720796f75722060848201526539ba30b5b29760d11b60a482015260c401610de1565b63ffffffff81166000908152600e6020908152604080832033845260060190915290205415614a035760405162461bcd60e51b815260206004820152606660248201527f436f6d7065746974696f6e202d20696e6372656173655374616b653a20506c6560448201527f617365207761697420666f722074686973206368616c6c656e676520746f206260648201527f6520636f6d706c65746564206265666f7265206d616b696e672061646a75737460848201526536b2b73a399760d11b60a482015260c401610de1565b6001546040516323b872dd60e01b8152336004820152306024820152604481018590526001600160a01b03909116906323b872dd90606401602060405180830381600087803b158015614a5557600080fd5b505af1158015614a69573d6000803e3d6000fd5b505050506040513d601f19601f82011682018060405250810190614a8d9190615881565b614af55760405162461bcd60e51b815260206004820152603360248201527f436f6d7065746974696f6e202d20696e6372656173655374616b653a20546f6b60448201527232b7102a3930b739b332b9103330b4b632b21760691b6064820152608401610de1565b336000908152600d602052604081208054859290614b14908490615dc2565b925050819055508260066000828254614b2d9190615dc2565b909155505060405160019250839033907f8b0ed825817a2e696c9a931715af4609fc60e1701f09c89ee7645130e937eb2d90600090a350919050565b600480546006546001546040516370a0823160e01b815230948101949094526000936001600160a01b03909116906370a082319060240160206040518083038186803b158015614bb857600080fd5b505afa158015614bcc573d6000803e3d6000fd5b505050506040513d601f19601f82011682018060405250810190614bf09190615999565b614bfa9190615e41565b614c049190615e41565b905090565b600082614c775760405162461bcd60e51b81526020600482015260426024820152600080516020615f5183398151915260448201527f4d7573742068617665207072652d6578697374696e67207375626d697373696f606482015261371760f11b608482015260a401610de1565b612bf8838361540d565b6000614c8d8133612b51565b614cf85760405162461bcd60e51b815260206004820152603660248201527f436f6d7065746974696f6e202d20636c6f73655375626d697373696f6e3a204360448201527530b63632b91034b9903ab730baba3437b934bd32b21760511b6064820152608401610de1565b60025463ffffffff600160a01b909104166000818152600e602052604090206005015460ff16600114614d935760405162461bcd60e51b815260206004820152603d60248201527f436f6d7065746974696f6e202d20636c6f73655375626d697373696f6e3a204360448201527f68616c6c656e676520696e20756e65787065637465642073746174652e0000006064820152608401610de1565b63ffffffff81166000818152600e602052604080822060058101805460ff1916600217905560065460049091015551600194507faa5ebdc7900b87a79257aabbab219af255ada0be7148632ce5afcd622df7a88b9190a25090565b614df88282612b51565b611176576000828152602081815260408083206001600160a01b03851684529091529020805460ff19166001179055614e2e3390565b6001600160a01b0316816001600160a01b0316837f2f8788117e7eff1d82e926ec794901d17c78024a50270940304540a733656f0d60405160405180910390a45050565b6000614e7e8133612b51565b614ee75760405162461bcd60e51b815260206004820152603460248201527f436f6d7065746974696f6e202d20757064617465526573756c74733a2043616c6044820152733632b91034b9903ab730baba3437b934bd32b21760611b6064820152608401610de1565b81831415614f6e5760405162461bcd60e51b815260206004820152604860248201527f436f6d7065746974696f6e202d20757064617465526573756c74733a2043616e60448201527f6e6f74207570646174652077697468207468652073616d652068617368206173606482015267103132b337b9329760c11b608482015260a401610de1565b600254600160a01b900463ffffffff166000818152600e6020526040902060050154600360ff909116101561500b5760405162461bcd60e51b815260206004820152603b60248201527f436f6d7065746974696f6e202d20757064617465526573756c74733a2043686160448201527f6c6c656e676520696e20756e65787065637465642073746174652e00000000006064820152608401610de1565b63ffffffff81166000908152600e602052604090206001015484146150985760405162461bcd60e51b815260206004820152603c60248201527f436f6d7065746974696f6e202d20757064617465526573756c74733a20436c6160448201527f736820696e206578697374696e6720726573756c747320686173682e000000006064820152608401610de1565b63ffffffff81166000818152600e6020526040808220600190810187905590519094508592879290917f0fb7d772905d44c5fdd59d4ab87c7f40281e09f93e2e189d03737c6d82b154ea9190a45092915050565b6150f68282612b51565b15611176576000828152602081815260408083206001600160a01b0385168085529252808320805460ff1916905551339285917ff6391f5c32d9c69d2a47ea670b442974b53935d1edc7fd64eb21e047a839171b9190a45050565b6000818314156151da5760405162461bcd60e51b815260206004820152604860248201527f436f6d7065746974696f6e202d20757064617465446174617365743a2043616e60448201527f6e6f74207570646174652077697468207468652073616d652068617368206173606482015267103132b337b9329760c11b608482015260a401610de1565b63ffffffff84166000908152600e602052604090205483146152645760405162461bcd60e51b815260206004820152603d60248201527f436f6d7065746974696f6e202d20757064617465446174617365743a20496e6360448201527f6f7272656374206f6c642064617461736574207265666572656e63652e0000006064820152608401610de1565b5063ffffffff83166000818152600e602052604080822084905551600192849286927f0b4ad7e2453c3c06a28c5cfe29a3067c6edde6eb03be4df2a461f9d806cb747e9190a49392505050565b6000818314156153375760405162461bcd60e51b815260206004820152604560248201527f436f6d7065746974696f6e202d205f7570646174654b65793a2043616e6e6f7460448201527f207570646174652077697468207468652073616d6520686173682061732062656064820152643337b9329760d91b608482015260a401610de1565b63ffffffff84166000908152600e602052604090206002015483146153bd5760405162461bcd60e51b815260206004820152603660248201527f436f6d7065746974696f6e202d205f7570646174654b65793a20496e636f727260448201527532b1ba1037b6321035b2bc903932b332b932b731b29760511b6064820152608401610de1565b5063ffffffff83166000818152600e602052604080822060020184905551600192849286927f7a2b6b0f48d13449d72d8fd2c1fae94cd13c970cc0dc738abd0bae8d50ce81c69190a49392505050565b60025463ffffffff600160a01b909104166000818152600e602052604090206005015460ff166001146154965760405162461bcd60e51b815260206004820152603e6024820152600080516020615f5183398151915260448201527f4e6f7420617661696c61626c6520666f72207375626d697373696f6e732e00006064820152608401610de1565b816154f75760405162461bcd60e51b81526020600482015260396024820152600080516020615f5183398151915260448201527f43616e6e6f74207375626d697420656d70747920686173682e000000000000006064820152608401610de1565b8183141561556f5760405162461bcd60e51b815260206004820152604b6024820152600080516020615f5183398151915260448201527f43616e6e6f74207570646174652077697468207468652073616d65206861736860648201526a1030b9903132b337b9329760a91b608482015260a401610de1565b63ffffffff81166000908152600e6020908152604080832033845260060190915290205483146156005760405162461bcd60e51b81526020600482015260426024820152600080516020615f5183398151915260448201527f436c61736820696e206578697374696e67207375626d697373696f6e20686173606482015261341760f11b608482015260a401610de1565b63ffffffff81166000818152600e6020908152604080832033808552600690910190925280832086905551859391927f953e3b79bb71898776bb2ef8bb919748c883b8b27c42e334de1ecdbf79d472bb91a492915050565b82805461566490615ea0565b90600052602060002090601f01602090048101928261568657600085556156cc565b82601f1061569f5782800160ff198235161785556156cc565b828001600101855582156156cc579182015b828111156156cc5782358255916020019190600101906156b1565b506156d89291506156dc565b5090565b5b808211156156d857600081556001016156dd565b80356001600160a01b038116811461570857600080fd5b919050565b60008083601f84011261571e578182fd5b5081356001600160401b03811115615734578182fd5b6020830191508360208260051b850101111561574f57600080fd5b9250929050565b803563ffffffff8116811461570857600080fd5b60006020828403121561577b578081fd5b612bf8826156f1565b60008060008060408587031215615799578283fd5b84356001600160401b03808211156157af578485fd5b6157bb8883890161570d565b909650945060208701359150808211156157d3578384fd5b506157e08782880161570d565b95989497509550505050565b60008060008060008060608789031215615804578182fd5b86356001600160401b038082111561581a578384fd5b6158268a838b0161570d565b9098509650602089013591508082111561583e578384fd5b61584a8a838b0161570d565b90965094506040890135915080821115615862578384fd5b5061586f89828a0161570d565b979a9699509497509295939492505050565b600060208284031215615892578081fd5b81518015158114612bf8578182fd5b6000602082840312156158b2578081fd5b5035919050565b600080604083850312156158cb578182fd5b823591506158db602084016156f1565b90509250929050565b600080604083850312156158f6578182fd5b50508035926020909101359150565b600060208284031215615916578081fd5b81356001600160e01b031981168114612bf8578182fd5b6000806020838503121561593f578182fd5b82356001600160401b0380821115615955578384fd5b818501915085601f830112615968578384fd5b813581811115615976578485fd5b866020828501011115615987578485fd5b60209290920196919550909350505050565b6000602082840312156159aa578081fd5b5051919050565b6000602082840312156159c2578081fd5b612bf882615756565b600080604083850312156159dd578182fd5b6159e683615756565b91506158db602084016156f1565b600080600060608486031215615a08578081fd5b615a1184615756565b9250615a1f602085016156f1565b9150604084013590509250925092565b600080600080600060608688031215615a46578283fd5b615a4f86615756565b945060208601356001600160401b0380821115615a6a578485fd5b615a7689838a0161570d565b90965094506040880135915080821115615a8e578283fd5b50615a9b8882890161570d565b969995985093965092949392505050565b60008060008060008060006080888a031215615ac6578485fd5b615acf88615756565b965060208801356001600160401b0380821115615aea578687fd5b615af68b838c0161570d565b909850965060408a0135915080821115615b0e578283fd5b615b1a8b838c0161570d565b909650945060608a0135915080821115615b32578283fd5b50615b3f8a828b0161570d565b989b979a50959850939692959293505050565b60008060008060008060808789031215615b6a578384fd5b615b7387615756565b955060208701356001600160401b0380821115615b8e578586fd5b615b9a8a838b0161570d565b9097509550604089013594506060890135915080821115615862578384fd5b60008060408385031215615bcb578182fd5b615bd483615756565b946020939093013593505050565b600080600060608486031215615bf6578081fd5b615bff84615756565b95602085013595506040909401359392505050565b60008060408385031215615c26578182fd5b615c2f83615756565b91506158db60208401615756565b600080600060608486031215615c51578081fd5b615c5a84615756565b9250615c6860208501615756565b9150615c76604085016156f1565b90509250925092565b60008060008060808587031215615c94578182fd5b615c9d85615756565b9350615cab60208601615756565b9250615cb9604086016156f1565b9396929550929360600135925050565b600060208284031215615cda578081fd5b813560ff81168114612bf8578182fd5b6020808252825182820181905260009190848201906040850190845b81811015615d2b5783516001600160a01b031683529284019291840191600101615d06565b50909695505050505050565b6020808252825182820181905260009190848201906040850190845b81811015615d2b57835183529284019291840191600101615d53565b6000602080835283518082850152825b81811015615d9b57858101830151858201604001528201615d7f565b81811115615dac5783604083870101525b50601f01601f1916929092016040019392505050565b60008219821115615dd557615dd5615f1a565b500190565b600063ffffffff808316818516808303821115615df957615df9615f1a565b01949350505050565b600082615e1d57634e487b7160e01b81526012600452602481fd5b500490565b6000816000190483118215151615615e3c57615e3c615f1a565b500290565b600082821015615e5357615e53615f1a565b500390565b600063ffffffff83811690831681811015615e7557615e75615f1a565b039392505050565b600060ff821660ff841680821015615e9757615e97615f1a565b90039392505050565b600181811c90821680615eb457607f821691505b60208210811415615ed557634e487b7160e01b600052602260045260246000fd5b50919050565b6000600019821415615eef57615eef615f1a565b5060010190565b600063ffffffff80831681811415615f1057615f10615f1a565b6001019392505050565b634e487b7160e01b600052601160045260246000fdfe436f6d7065746974696f6e202d206d6f766552656d61696e646572546f506f6f436f6d7065746974696f6e202d207570646174655375626d697373696f6e3a20a264697066735822122091790095ccc0e19fed707f4e511935ae3e7b080b923f32024dcdf92f88648fa064736f6c63430008040033",
  "bytecodeSha1": "2552d014962266d3f36ee227262027a0f89c9467",
  "compiler": {
    "evm_version": "istanbul",
    "optimizer": {
      "enabled": true,
      "runs": 200
    },
    "version": "0.8.4+commit.c7e474f2"
  },
  "contractName": "Competition",
  "language": "Solidity",
  "natspec": {
    "author": "Rocket Capital Investment Pte Ltd",
    "details": "This contract manages registration and reward payouts for the RCI Tournament.IPFS hash format: Hash Identifier (2 bytes), Actual Hash (May eventually take on other formats but currently 32 bytes) ",
    "kind": "dev",
    "methods": {
      "advanceToPhase(uint8)": {
        "details": "Called only by an authorized admin to advance to the next phase.Due to the block gas limit rewards payments may need to be split up into multiple function calls.In other words, payStakingRewards and payChallengeAndTournamentRewards may need to be called multiple times to complete all required payments.This function is used to advance to phase 3 after staking rewards payments have complemted or to phase 4 after challenge and tournament rewards payments have completed.",
        "params": {
          "phase": "The phase to advance to."
        },
        "returns": {
          "success": "True if the operation completed successfully.*"
        }
      },
      "closeSubmission()": {
        "details": "Called only by authorized admin to stop allowing submissions for a particular challenge.",
        "returns": {
          "success": "True if the operation completed successfully.*"
        }
      },
      "computeStakingReward(address)": {
        "details": "Called by anyone to compute the staking reward allocation for this participant in the current challenge.",
        "params": {
          "participant": "Address of participant to compute for."
        },
        "returns": {
          "stakingReward": "Staking reward allocation for this participant in the current challenge.*"
        }
      },
      "decreaseStake(uint256)": {
        "details": "Called by anyone to decrease their stake.",
        "params": {
          "amountToken": "Number of tokens to withdraw."
        },
        "returns": {
          "success": "True if the operation completed successfully.*"
        }
      },
      "getChallengeRewards(uint32,address)": {
        "details": "Called by anyone to check the challenge rewards given to this participant in a particular challenge.",
        "params": {
          "challengeNumber": "Challenge to get the challenge rewards given of.",
          "participant": "Address of participant to check on."
        },
        "returns": {
          "challengeRewards": "Amount of challenge rewards given to this participant for this challenge.*"
        }
      },
      "getChallengeRewardsList(uint32,uint32,address)": {
        "details": "Called by anyone to obtain a list of historical challenge rewards given to this participant in the window [challengeNumberStart, challengeNumberEnd] inclusive.",
        "params": {
          "challengeNumberStart": "The last challenge in the window to get the challenge rewards of.",
          "participant": "Address of participant to check on."
        },
        "returns": {
          "_0": "List of challenge rewards given to this participant for challenges in the queried window.*"
        }
      },
      "getChallengeRewardsPercentageInWei()": {
        "details": "Called by anyone to check the percentage of the total competition reward pool allocated for the challenge reward for this challenge. ",
        "returns": {
          "challengeRewardsPercentageInWei": "Percentage for challenge reward budget in wei.*"
        }
      },
      "getCompetitionPool()": {
        "details": "Called by anyone to check amount pooled into this contract.",
        "returns": {
          "competitionPool": "Amount of tokens in the competition pool in wei.*"
        }
      },
      "getCurrentChallengeRewardsBudget()": {
        "details": "Called by anyone to check the challenge rewards budget for the current challenge.",
        "returns": {
          "currentChallengeRewardsBudget": "Budget for challenge rewards payment in wei.*"
        }
      },
      "getCurrentStakingRewardsBudget()": {
        "details": "Called by anyone to check the staking rewards budget allocation for the current challenge.",
        "returns": {
          "currentStakingRewardsBudget": "Budget for staking rewards in wei.*"
        }
      },
      "getCurrentTotalStaked()": {
        "details": "Called by anyone to check the current total amount staked.",
        "returns": {
          "currentTotalStaked": "Amount of tokens currently staked in wei.*"
        }
      },
      "getCurrentTournamentRewardsBudget()": {
        "details": "Called by anyone to check the tournament rewards budget for the current challenge.",
        "returns": {
          "currentTournamentRewardsBudget": "Budget for tournament rewards payment in wei.*"
        }
      },
      "getDatasetHash(uint32)": {
        "details": "Called by anyone to obtain the dataset hash for this particular challenge.",
        "params": {
          "challengeNumber": "The challenge to get the dataset hash of."
        },
        "returns": {
          "dataset": "IPFS hash where the dataset of this particular challenge is stored. This is the IPFS CID less the 1220 prefix.*"
        }
      },
      "getDatasetHashList(uint32,uint32)": {
        "details": "Called by anyone to obtain a list of historical dataset hashes in the window [challengeNumberStart, challengeNumberEnd] inclusive.",
        "params": {
          "challengeNumberStart": "The last challenge in the window to get the dataset hash of."
        },
        "returns": {
          "_0": "List of dataset IPFS hashes where the datasets of the challenges in the queried window are stored.*"
        }
      },
      "getDeadlines(uint32,uint256)": {
        "details": "Called by anyone to retrieve one of the deadlines for this challenge.",
        "params": {
          "challengeNumber": "Challenge to get the deadline of.",
          "index": "Index of the deadline to retrieve."
        },
        "returns": {
          "deadline": "Deadline in milliseconds.*"
        }
      },
      "getInformation(uint32,address,uint256)": {
        "details": "Called by anyone to check the additional information for this participant in a particular challenge.",
        "params": {
          "challengeNumber": "Challenge to get the additional information of.",
          "itemNumber": "Additional information item to check on.",
          "participant": "Address of participant to check on."
        },
        "returns": {
          "value": "Value of this additional information item for this participant for this challenge.*"
        }
      },
      "getInformationList(uint32,uint32,address,uint256)": {
        "details": "Called by anyone to obtain a list of historical additional information this participant in the window [challengeNumberStart, challengeNumberEnd] inclusive.",
        "params": {
          "challengeNumberStart": "The last challenge in the window to get the additional information of.",
          "itemNumber": "Additional information item to check on.",
          "participant": "Address of participant to check on."
        },
        "returns": {
          "_0": "List of additional information given to this participant for challenges in the queried window.*"
        }
      },
      "getKeyHash(uint32)": {
        "details": "Called by anyone to obtain the key hash for this particular challenge.",
        "params": {
          "challengeNumber": "The challenge to get the key hash of."
        },
        "returns": {
          "key": "IPFS hash where results of this particular challenge are stored. This is the IPFS CID less the 1220 prefix.*"
        }
      },
      "getKeyHashList(uint32,uint32)": {
        "details": "Called by anyone to obtain a list of historical public key hashes in the window [challengeNumberStart, challengeNumberEnd] inclusive.",
        "params": {
          "challengeNumberStart": "The last challenge in the window to get the public key hash of."
        },
        "returns": {
          "_0": "List of public key IPFS hashes where the public keys of the challenges in the queried window are stored.*"
        }
      },
      "getLatestChallengeNumber()": {
        "details": "Called by anyone to get the number of the latest challenge.As the challenge number begins from 1, this is also the total number of challenges created in this competition.",
        "returns": {
          "latestChallengeNumber": "Latest challenge created.*"
        }
      },
      "getMessage()": {
        "notice": "READ METHODS*"
      },
      "getOverallRewards(uint32,address)": {
        "details": "Called by anyone to check the overall rewards (staking + challenge + tournament rewards) given to this participant in a particular challenge.",
        "params": {
          "challengeNumber": "Challenge to get the overall rewards given of.",
          "participant": "Address of participant to check on."
        },
        "returns": {
          "overallRewards": "Amount of overall rewards given to this participant for this challenge.*"
        }
      },
      "getOverallRewardsList(uint32,uint32,address)": {
        "details": "Called by anyone to obtain a list of historical overall rewards given to this participant in the window [challengeNumberStart, challengeNumberEnd] inclusive.",
        "params": {
          "challengeNumberStart": "The last challenge in the window to get the overall rewards of.",
          "participant": "Address of participant to check on."
        },
        "returns": {
          "_0": "List of overall rewards given to this participant for challenges in the queried window.*"
        }
      },
      "getPhase(uint32)": {
        "details": "Called by anyone to obtain the phase number for this particular challenge.",
        "params": {
          "challengeNumber": "The challenge to get the phase of."
        },
        "returns": {
          "phase": "The phase that this challenge is in.*"
        }
      },
      "getRemainder()": {
        "details": "Called by anyone to check the amount of tokens that have been sent to this contract but are not recorded as a stake or as part of the competition rewards pool.",
        "returns": {
          "remainder": "The amount of tokens held by this contract that are not recorded as a stake or as part of the competition rewards pool.*"
        }
      },
      "getResultsHash(uint32)": {
        "details": "Called by anyone to obtain the results hash for this particular challenge.",
        "params": {
          "challengeNumber": "The challenge to get the results hash of."
        },
        "returns": {
          "results": "IPFS hash where results of this particular challenge are stored. This is the IPFS CID less the 1220 prefix.*"
        }
      },
      "getResultsHashList(uint32,uint32)": {
        "details": "Called by anyone to obtain a list of historical result hashes in the window [challengeNumberStart, challengeNumberEnd] inclusive.",
        "params": {
          "challengeNumberStart": "The last challenge in the window to get the result hash of."
        },
        "returns": {
          "_0": "List of result IPFS hashes where the results of the challenges in the queried window are stored.*"
        }
      },
      "getRewardsThreshold()": {
        "details": "Called by anyone to check minimum amount required to open a new challenge.",
        "returns": {
          "rewardsThreshold": "Amount of tokens in wei the competition pool must contain to open a new challenge.*"
        }
      },
      "getRoleAdmin(bytes32)": {
        "details": "Returns the admin role that controls `role`. See {grantRole} and {revokeRole}. To change a role's admin, use {_setRoleAdmin}."
      },
      "getStake(address)": {
        "details": "Called by anyone to obtain the stake amount in wei of a particular address.",
        "params": {
          "participant": "Address to query token balance of."
        },
        "returns": {
          "stake": "Token balance of given address in wei.*"
        }
      },
      "getStakeThreshold()": {
        "details": "Called by anyone to obtain the minimum amount of stake required to participate in the competition.",
        "returns": {
          "stakeThreshold": "Minimum stake amount in wei.*"
        }
      },
      "getStakedAmountForChallenge(uint32,address)": {
        "details": "Called by anyone to check the stakes locked for this participant in a particular challenge.",
        "params": {
          "challengeNumber": "Challenge to get the stakes locked of.",
          "participant": "Address of participant to check on."
        },
        "returns": {
          "staked": "Amount of tokens locked for this challenge for this participant.*"
        }
      },
      "getStakingRewards(uint32,address)": {
        "details": "Called by anyone to check the staking rewards given to this participant in a particular challenge.",
        "params": {
          "challengeNumber": "Challenge to get the staking rewards given of.",
          "participant": "Address of participant to check on."
        },
        "returns": {
          "stakingRewards": "Amount of staking rewards given to this participant for this challenge.*"
        }
      },
      "getStakingRewardsList(uint32,uint32,address)": {
        "details": "Called by anyone to obtain a list of historical staking rewards given to this participant in the window [challengeNumberStart, challengeNumberEnd] inclusive.",
        "params": {
          "challengeNumberStart": "The last challenge in the window to get the staking rewards of."
        },
        "returns": {
          "_0": "List of staking rewards given to this participant for challenges in the queried window.*"
        }
      },
      "getSubmission(uint32,address)": {
        "details": "Called by anyone to get submission hash of a participant for a challenge.",
        "params": {
          "challengeNumber": "Challenge index to check on.",
          "participant": "Address of participant to check on."
        },
        "returns": {
          "submissionHash": "IPFS reference hash of participant's prediction submission for this challenge. This is the IPFS CID less the 1220 prefix.*"
        }
      },
      "getSubmissionCounter(uint32)": {
        "details": "Called by anyone to obtain the number of submissions made for this particular challenge.",
        "params": {
          "challengeNumber": "The challenge to get the submission counter of."
        },
        "returns": {
          "submissionCounter": "Number of submissions made.*"
        }
      },
      "getSubmissionCounterList(uint32,uint32)": {
        "details": "Called by anyone to obtain a list of historical submission counters in the window [challengeNumberStart, challengeNumberEnd] inclusive.",
        "params": {
          "challengeNumberStart": "The last challenge in the window to get the submission counter of."
        },
        "returns": {
          "_0": "List of submission counters of challenges in the queried window.*"
        }
      },
      "getSubmissionList(uint32,uint32,address)": {
        "details": "Called by anyone to obtain a list of historical submission hashes for this participant in the window [challengeNumberStart, challengeNumberEnd] inclusive.",
        "params": {
          "challengeNumberStart": "The last challenge in the window to get the submission hash of.",
          "participant": "Address of participant to check on."
        },
        "returns": {
          "_0": "List of submission IPFS hashes where the submissions of this participant in the queried window are stored.*"
        }
      },
      "getSubmitters(uint32)": {
        "details": "Called by anyone to obtain the list of submitters for this particular challenge.Submitters refer to participants that have made submissions for this particular challenge.",
        "params": {
          "challengeNumber": "The challenge to get the submitters list of."
        },
        "returns": {
          "submitters": "List of submitter addresses.*"
        }
      },
      "getTokenAddress()": {
        "details": "Called by anyone to obtain the smart contract address of the ERC20 token used in this competition.",
        "returns": {
          "tokenAddress": "ERC20 Token smart contract address.*"
        }
      },
      "getTotalStakesLockedForChallenge(uint32)": {
        "details": "Called by anyone to check the total stakes locked for a particular challenge.",
        "params": {
          "challengeNumber": "Challenge to get the total stakes locked of."
        },
        "returns": {
          "totalStakedForChallenge": "Total amount of tokens locked for this challenge.*"
        }
      },
      "getTotalStakesLockedForChallengeList(uint32,uint32)": {
        "details": "Called by anyone to obtain a list of historical total stakes locked in the window [challengeNumberStart, challengeNumberEnd] inclusive.",
        "params": {
          "challengeNumberStart": "The last challenge in the window to get the total stakes locked of."
        },
        "returns": {
          "_0": "List of total stakes locked of challenges in the queried window.*"
        }
      },
      "getTournamentRewards(uint32,address)": {
        "details": "Called by anyone to check the tournament rewards given to this participant in a particular challenge.",
        "params": {
          "challengeNumber": "Challenge to get the tournament rewards given of.",
          "participant": "Address of participant to check on."
        },
        "returns": {
          "tournamentRewards": "Amount of tournament rewards given to this participant for this challenge.*"
        }
      },
      "getTournamentRewardsList(uint32,uint32,address)": {
        "details": "Called by anyone to obtain a list of historical tournament rewards given to this participant in the window [challengeNumberStart, challengeNumberEnd] inclusive.",
        "params": {
          "challengeNumberStart": "The last challenge in the window to get the tournament rewards of.",
          "participant": "Address of participant to check on."
        },
        "returns": {
          "_0": "List of tournament rewards given to this participant for challenges in the queried window.*"
        }
      },
      "getTournamentRewardsPercentageInWei()": {
        "details": "Called by anyone to check the percentage of the total competition reward pool allocated for the tournament reward for this challenge. ",
        "returns": {
          "tournamentRewardsPercentageInWei": "Percentage for tournament reward budget in wei.*"
        }
      },
      "getVaultAddress()": {
        "details": "Called by anyone to obtain the address of the vault contract.",
        "returns": {
          "vaultAddress": "Vault contract address.*"
        }
      },
      "grantRole(bytes32,address)": {
        "details": "Grants `role` to `account`. If `account` had not been already granted `role`, emits a {RoleGranted} event. Requirements: - the caller must have ``role``'s admin role."
      },
      "hasRole(bytes32,address)": {
        "details": "Returns `true` if `account` has been granted `role`."
      },
      "increaseStake(uint256)": {
        "details": "Called by anyone to increase their stake.This performs an ERC20 transfer so the msg sender will need to grant approval to this contract before calling this function.",
        "params": {
          "amountToken": "The amount to add to their stake."
        },
        "returns": {
          "success": "True if the operation completed successfully.*"
        }
      },
      "moveRemainderToPool()": {
        "details": "Called only by an authorized admin, to move any tokens sent to this contract without using the 'sponsor' or 'setStake'/'increaseStake' methods into the competition pool.",
        "returns": {
          "success": "True if the operation completed successfully.*"
        }
      },
      "openChallenge(bytes32,bytes32)": {
        "details": "Called only by authorized admin to start allowing staking for a new challenge.",
        "params": {
          "datasetHash": "IPFS reference hash where dataset for this challenge is stored. This is the IPFS CID less the 1220 prefix.",
          "keyHash": "IPFS reference hash where the key for this challenge is stored. This is the IPFS CID less the 1220 prefix."
        },
        "returns": {
          "success": "True if the operation completed successfully.*"
        }
      },
      "payChallengeAndTournamentRewards(address[],uint256[],uint256[])": {
        "details": "Called only by authorized admin to move rewards from the competition pool to the winners' competition internal balances based on results from the current challenge.Note that the size of the array parameters passed in to this function is limited by the block gas limit.This function allows for the payout to be split into chunks by calling it repeatedly.",
        "params": {
          "challengeRewards": "List of corresponding amount of tokens in wei won by each winner for the challenge rewards portion.",
          "tournamentRewards": "List of corresponding amount of tokens in wei won by each winner for the tournament rewards portion.",
          "winners": "List of winners' addresses."
        },
        "returns": {
          "success": "True if operation completes successfully.*"
        }
      },
      "payChallengeAndTournamentRewards(uint32,address[],uint256[],uint256[])": {
        "details": "Provides the same function as above but allows for challenge number to be specified.Note that the size of the array parameters passed in to this function is limited by the block gas limit.This function allows for the payout to be split into chunks by calling it repeatedly.",
        "params": {
          "challengeNumber": "Challenge to make rewards payment for.",
          "challengeRewards": "List of corresponding amount of tokens in wei won by each winner for the challenge rewards portion.",
          "tournamentRewards": "List of corresponding amount of tokens in wei won by each winner for the tournament rewards portion.",
          "winners": "List of winners' addresses."
        },
        "returns": {
          "success": "True if operation completes successfully.*"
        }
      },
      "payStakingRewards(address[],uint256[])": {
        "details": "Called only by authorized admin to move rewards from the competition pool to the participants' competition internal balances based on results from the current challenge.Note that the size of the array parameters passed in to this function is limited by the block gas limit.This function allows for the payout to be split into chunks by calling it repeatedly.",
        "params": {
          "participants": "List of participants' addresses.",
          "rewards": "List of corresponding amount of tokens in wei won by each winner."
        },
        "returns": {
          "success": "True if operation completes successfully.*"
        }
      },
      "payStakingRewards(uint32,address[],uint256[])": {
        "details": "Provides the same function as above but allows for challenge number to be specified.Note that the size of the array parameters passed in to this function is limited by the block gas limit.This function allows for the payout to be split into chunks by calling it repeatedly.",
        "params": {
          "challengeNumber": "Challenge to make rewards payment for.",
          "participants": "List of participants' addresses.",
          "rewards": "List of corresponding amount of tokens in wei won by each winner."
        },
        "returns": {
          "success": "True if operation completes successfully.*"
        }
      },
      "renounceRole(bytes32,address)": {
        "details": "Revokes `role` from the calling account. Roles are often managed via {grantRole} and {revokeRole}: this function's purpose is to provide a mechanism for accounts to lose their privileges if they are compromised (such as when a trusted device is misplaced). If the calling account had been granted `role`, emits a {RoleRevoked} event. Requirements: - the caller must be `account`."
      },
      "revokeRole(bytes32,address)": {
        "details": "Revokes `role` from `account`. If `account` had been granted `role`, emits a {RoleRevoked} event. Requirements: - the caller must have ``role``'s admin role."
      },
      "setStake(uint256)": {
        "notice": "PARTICIPANT WRITE METHODS*"
      },
      "sponsor(uint256)": {
        "details": "Called by a sponsor to send tokens to the contract's competition pool. This pool is used for payouts to challenge winners.This performs an ERC20 transfer so the msg sender will need to grant approval to this contract before calling this function.",
        "params": {
          "amountToken": "The amount to send to the the competition pool."
        },
        "returns": {
          "success": "True if the operation completed successfully.*"
        }
      },
      "submitNewPredictions(bytes32)": {
        "details": "Called by participant to make a new prediction submission for the current challenge.Will be successful if the participant's stake is above the staking threshold.",
        "params": {
          "submissionHash": "IPFS reference hash of submission. This is the IPFS CID less the 1220 prefix."
        },
        "returns": {
          "challengeNumber": "Challenge that this submission was made for.*"
        }
      },
      "submitResults(bytes32)": {
        "details": "Called only by authorized admin to submit the IPFS reference for the results of a particular challenge.",
        "params": {
          "resultsHash": "IPFS reference hash where results for this challenge are stored. This is the IPFS CID less the 1220 prefix."
        },
        "returns": {
          "success": "True if the operation completed successfully.*"
        }
      },
      "supportsInterface(bytes4)": {
        "details": "See {IERC165-supportsInterface}."
      },
      "updateChallengeRewardsPercentageInWei(uint256)": {
        "details": "Called only by authorized admin to update the percentage of the competition rewards pool allocated to the challenge rewards budget.",
        "params": {
          "newPercentage": "New percentage amount in wei."
        },
        "returns": {
          "success": "True if the operation completed successfully.*"
        }
      },
      "updateDataset(bytes32,bytes32)": {
        "details": "Called only by authorized admin to update the IPFS reference for the dataset of a particular challenge.",
        "params": {
          "newDatasetHash": "IPFS reference hash where new dataset for this challenge is stored. This is the IPFS CID less the 1220 prefix.",
          "oldDatasetHash": "IPFS reference hash where previous dataset for this challenge is stored. This is the IPFS CID less the 1220 prefix."
        },
        "returns": {
          "success": "True if the operation completed successfully.*"
        }
      },
      "updateDeadlines(uint32,uint256,uint256)": {
        "details": "Called only by authorized admin to update one of the deadlines for this challenge.",
        "params": {
          "challengeNumber": "Challenge to perform the update for.",
          "index": "Deadline index to update.",
          "timestamp": "Deadline timestamp in milliseconds."
        },
        "returns": {
          "success": "True if the operation completed successfully.*"
        }
      },
      "updateInformationBatch(uint32,address[],uint256,int256[])": {
        "details": "Called only by authorized admin to do a batch update of an additional information item for a list of participants for a given challenge.",
        "params": {
          "challengeNumber": "Challenge to update information for.",
          "itemNumber": "Item to update for.",
          "participants": "List of participant' addresses.",
          "values": "List of corresponding values to store."
        },
        "returns": {
          "success": "True if operation completes successfully.*"
        }
      },
      "updateKey(bytes32,bytes32)": {
        "details": "Called only by authorized admin to update the IPFS reference for the key of a particular challenge.",
        "params": {
          "newKeyHash": "IPFS reference hash where new key for this challenge is stored. This is the IPFS CID less the 1220 prefix.",
          "oldKeyHash": "IPFS reference hash where previous key for this challenge is stored. This is the IPFS CID less the 1220 prefix."
        },
        "returns": {
          "success": "True if the operation completed successfully.*"
        }
      },
      "updateMessage(string)": {
        "notice": "ORGANIZER WRITE METHODS*"
      },
      "updateResults(bytes32,bytes32)": {
        "details": "Called only by authorized admin to update the IPFS reference for the results of the current challenge.",
        "params": {
          "newResultsHash": "IPFS reference hash where new results for this challenge are stored. This is the IPFS CID less the 1220 prefix.",
          "oldResultsHash": "IPFS reference hash where previous results for this challenge are stored. This is the IPFS CID less the 1220 prefix."
        },
        "returns": {
          "success": "True if the operation completed successfully.*"
        }
      },
      "updateRewardsThreshold(uint256)": {
        "details": "Called only by authorized admin to update the minimum amount required in the competition rewards pool to open a new challenge.",
        "params": {
          "newThreshold": "New minimum amount for opening new challenge."
        },
        "returns": {
          "success": "True if the operation completed successfully.*"
        }
      },
      "updateStakeThreshold(uint256)": {
        "details": "Called only by authorized admin to update the minimum stake amount required to take part in the competition.",
        "params": {
          "newStakeThreshold": "New stake threshold amount in wei."
        },
        "returns": {
          "success": "True if the operation completed successfully.*"
        }
      },
      "updateSubmission(bytes32,bytes32)": {
        "details": "Called by participant to modify prediction submission for the current challenge.",
        "params": {
          "newSubmissionHash": "IPFS reference hash of new submission. This is the IPFS CID less the 1220 prefix.",
          "oldSubmissionHash": "IPFS reference hash of previous submission. This is the IPFS CID less the 1220 prefix."
        },
        "returns": {
          "challengeNumber": "Challenge that this submission was made for.*"
        }
      },
      "updateTournamentRewardsPercentageInWei(uint256)": {
        "details": "Called only by authorized admin to update the percentage of the competition rewards pool allocated to the tournament rewards budget.",
        "params": {
          "newPercentage": "New percentage amount in wei."
        },
        "returns": {
          "success": "True if the operation completed successfully.*"
        }
      },
      "updateVaultAddress(address)": {
        "details": "Called only by authorized admin to update the address of the vault this competition is linked to.",
        "params": {
          "newVaultAddress": "New vault address."
        },
        "returns": {
          "success": "True if the operation completed successfully.*"
        }
      }
    },
    "title": "RCI Tournament(Competition) Contract",
    "version": 1
  },
  "opcodes": "PUSH1 0x80 PUSH1 0x40 MSTORE CALLVALUE DUP1 ISZERO PUSH2 0x10 JUMPI PUSH1 0x0 DUP1 REVERT JUMPDEST POP PUSH1 0x4 CALLDATASIZE LT PUSH2 0x4A1 JUMPI PUSH1 0x0 CALLDATALOAD PUSH1 0xE0 SHR DUP1 PUSH4 0x80D042C8 GT PUSH2 0x26D JUMPI DUP1 PUSH4 0xC55E86B1 GT PUSH2 0x151 JUMPI DUP1 PUSH4 0xDC0353C5 GT PUSH2 0xCE JUMPI DUP1 PUSH4 0xE8B96DE1 GT PUSH2 0x92 JUMPI DUP1 PUSH4 0xE8B96DE1 EQ PUSH2 0xCC7 JUMPI DUP1 PUSH4 0xEECFC33F EQ PUSH2 0xCDA JUMPI DUP1 PUSH4 0xEEDAD66B EQ PUSH2 0xD03 JUMPI DUP1 PUSH4 0xF109A624 EQ PUSH2 0xD16 JUMPI DUP1 PUSH4 0xF7FB373D EQ PUSH2 0xD1E JUMPI DUP1 PUSH4 0xFFC6FF1E EQ PUSH2 0xD31 JUMPI PUSH1 0x0 DUP1 REVERT JUMPDEST DUP1 PUSH4 0xDC0353C5 EQ PUSH2 0xBFC JUMPI DUP1 PUSH4 0xDC9F76EB EQ PUSH2 0xC0F JUMPI DUP1 PUSH4 0xDEC9BF2F EQ PUSH2 0xC22 JUMPI DUP1 PUSH4 0xE6184AB8 EQ PUSH2 0xC35 JUMPI DUP1 PUSH4 0xE7D5C4EA EQ PUSH2 0xC78 JUMPI PUSH1 0x0 DUP1 REVERT JUMPDEST DUP1 PUSH4 0xD4F4B806 GT PUSH2 0x115 JUMPI DUP1 PUSH4 0xD4F4B806 EQ PUSH2 0xB83 JUMPI DUP1 PUSH4 0xD547741F EQ PUSH2 0xB8B JUMPI DUP1 PUSH4 0xD68A7C00 EQ PUSH2 0xB9E JUMPI DUP1 PUSH4 0xD885E39B EQ PUSH2 0xBA6 JUMPI DUP1 PUSH4 0xDB5211D5 EQ PUSH2 0xBE9 JUMPI PUSH1 0x0 DUP1 REVERT JUMPDEST DUP1 PUSH4 0xC55E86B1 EQ PUSH2 0xB0C JUMPI DUP1 PUSH4 0xC8F971DF EQ PUSH2 0xB1F JUMPI DUP1 PUSH4 0xCE6D41DE EQ PUSH2 0xB48 JUMPI DUP1 PUSH4 0xD2DE2F85 EQ PUSH2 0xB5D JUMPI DUP1 PUSH4 0xD3D11C62 EQ PUSH2 0xB70 JUMPI PUSH1 0x0 DUP1 REVERT JUMPDEST DUP1 PUSH4 0xA217FDDF GT PUSH2 0x1EA JUMPI DUP1 PUSH4 0xB2AD7D95 GT PUSH2 0x1AE JUMPI DUP1 PUSH4 0xB2AD7D95 EQ PUSH2 0xA9A JUMPI DUP1 PUSH4 0xB3608768 EQ PUSH2 0xAAD JUMPI DUP1 PUSH4 0xB3E3F910 EQ PUSH2 0xAC0 JUMPI DUP1 PUSH4 0xB6CCE5E2 EQ PUSH2 0xAD3 JUMPI DUP1 PUSH4 0xB97A605C EQ PUSH2 0xAE6 JUMPI DUP1 PUSH4 0xB98130DA EQ PUSH2 0xAF9 JUMPI PUSH1 0x0 DUP1 REVERT JUMPDEST DUP1 PUSH4 0xA217FDDF EQ PUSH2 0x9EB JUMPI DUP1 PUSH4 0xAA3C6E99 EQ PUSH2 0x9F3 JUMPI DUP1 PUSH4 0xAA658B69 EQ PUSH2 0xA06 JUMPI DUP1 PUSH4 0xAD036ECD EQ PUSH2 0xA49 JUMPI DUP1 PUSH4 0xAF976FEC EQ PUSH2 0xA5C JUMPI PUSH1 0x0 DUP1 REVERT JUMPDEST DUP1 PUSH4 0x93A9DAC7 GT PUSH2 0x231 JUMPI DUP1 PUSH4 0x93A9DAC7 EQ PUSH2 0x997 JUMPI DUP1 PUSH4 0x97A9FF39 EQ PUSH2 0x99F JUMPI DUP1 PUSH4 0x97D9ABB8 EQ PUSH2 0x9B2 JUMPI DUP1 PUSH4 0x9A9B7630 EQ PUSH2 0x9C5 JUMPI DUP1 PUSH4 0x9F2492A2 EQ PUSH2 0x9D8 JUMPI PUSH1 0x0 DUP1 REVERT JUMPDEST DUP1 PUSH4 0x80D042C8 EQ PUSH2 0x920 JUMPI DUP1 PUSH4 0x9044265A EQ PUSH2 0x933 JUMPI DUP1 PUSH4 0x91D14854 EQ PUSH2 0x953 JUMPI DUP1 PUSH4 0x920920BA EQ PUSH2 0x966 JUMPI DUP1 PUSH4 0x934D9012 EQ PUSH2 0x96E JUMPI PUSH1 0x0 DUP1 REVERT JUMPDEST DUP1 PUSH4 0x3CBCB53A GT PUSH2 0x394 JUMPI DUP1 PUSH4 0x60CDB6CC GT PUSH2 0x311 JUMPI DUP1 PUSH4 0x736D8C91 GT PUSH2 0x2D5 JUMPI DUP1 PUSH4 0x736D8C91 EQ PUSH2 0x855 JUMPI DUP1 PUSH4 0x73AF6745 EQ PUSH2 0x87B JUMPI DUP1 PUSH4 0x7A378430 EQ PUSH2 0x88E JUMPI DUP1 PUSH4 0x7A766460 EQ PUSH2 0x8D1 JUMPI DUP1 PUSH4 0x7BF68A3B EQ PUSH2 0x8FA JUMPI DUP1 PUSH4 0x7BFC90B2 EQ PUSH2 0x90D JUMPI PUSH1 0x0 DUP1 REVERT JUMPDEST DUP1 PUSH4 0x60CDB6CC EQ PUSH2 0x79B JUMPI DUP1 PUSH4 0x60EFC6FE EQ PUSH2 0x7DB JUMPI DUP1 PUSH4 0x65CACAA4 EQ PUSH2 0x7EE JUMPI DUP1 PUSH4 0x6C981570 EQ PUSH2 0x7FF JUMPI DUP1 PUSH4 0x70753462 EQ PUSH2 0x842 JUMPI PUSH1 0x0 DUP1 REVERT JUMPDEST DUP1 PUSH4 0x572C686A GT PUSH2 0x358 JUMPI DUP1 PUSH4 0x572C686A EQ PUSH2 0x719 JUMPI DUP1 PUSH4 0x57D0CF58 EQ PUSH2 0x72C JUMPI DUP1 PUSH4 0x598A6F0A EQ PUSH2 0x762 JUMPI DUP1 PUSH4 0x5E35D498 EQ PUSH2 0x775 JUMPI DUP1 PUSH4 0x5EF53329 EQ PUSH2 0x788 JUMPI PUSH1 0x0 DUP1 REVERT JUMPDEST DUP1 PUSH4 0x3CBCB53A EQ PUSH2 0x674 JUMPI DUP1 PUSH4 0x3F230915 EQ PUSH2 0x6B7 JUMPI DUP1 PUSH4 0x403C4D91 EQ PUSH2 0x6CA JUMPI DUP1 PUSH4 0x4169293B EQ PUSH2 0x6DD JUMPI DUP1 PUSH4 0x477DA5CD EQ PUSH2 0x706 JUMPI PUSH1 0x0 DUP1 REVERT JUMPDEST DUP1 PUSH4 0x2CF5A526 GT PUSH2 0x422 JUMPI DUP1 PUSH4 0x343CB6BE GT PUSH2 0x3E6 JUMPI DUP1 PUSH4 0x343CB6BE EQ PUSH2 0x618 JUMPI DUP1 PUSH4 0x35D9DB53 EQ PUSH2 0x620 JUMPI DUP1 PUSH4 0x36568ABE EQ PUSH2 0x633 JUMPI DUP1 PUSH4 0x37D6B997 EQ PUSH2 0x646 JUMPI DUP1 PUSH4 0x39E28777 EQ PUSH2 0x64E JUMPI PUSH1 0x0 DUP1 REVERT JUMPDEST DUP1 PUSH4 0x2CF5A526 EQ PUSH2 0x5C4 JUMPI DUP1 PUSH4 0x2D071F1A EQ PUSH2 0x5D7 JUMPI DUP1 PUSH4 0x2F2FF15D EQ PUSH2 0x5EA JUMPI DUP1 PUSH4 0x315C455E EQ PUSH2 0x5FD JUMPI DUP1 PUSH4 0x3228CF72 EQ PUSH2 0x610 JUMPI PUSH1 0x0 DUP1 REVERT JUMPDEST DUP1 PUSH4 0x1923BE24 GT PUSH2 0x469 JUMPI DUP1 PUSH4 0x1923BE24 EQ PUSH2 0x55E JUMPI DUP1 PUSH4 0x1E2FF711 EQ PUSH2 0x571 JUMPI DUP1 PUSH4 0x248A9CA3 EQ PUSH2 0x579 JUMPI DUP1 PUSH4 0x25B06746 EQ PUSH2 0x59C JUMPI DUP1 PUSH4 0x294F0A69 EQ PUSH2 0x5A4 JUMPI PUSH1 0x0 DUP1 REVERT JUMPDEST DUP1 PUSH4 0x1FFC9A7 EQ PUSH2 0x4A6 JUMPI DUP1 PUSH4 0x2881B52 EQ PUSH2 0x4CE JUMPI DUP1 PUSH4 0x10FE9AE8 EQ PUSH2 0x4FA JUMPI DUP1 PUSH4 0x15343C11 EQ PUSH2 0x51F JUMPI DUP1 PUSH4 0x18829FC3 EQ PUSH2 0x556 JUMPI JUMPDEST PUSH1 0x0 DUP1 REVERT JUMPDEST PUSH2 0x4B9 PUSH2 0x4B4 CALLDATASIZE PUSH1 0x4 PUSH2 0x5905 JUMP JUMPDEST PUSH2 0xD39 JUMP JUMPDEST PUSH1 0x40 MLOAD SWAP1 ISZERO ISZERO DUP2 MSTORE PUSH1 0x20 ADD JUMPDEST PUSH1 0x40 MLOAD DUP1 SWAP2 SUB SWAP1 RETURN JUMPDEST PUSH2 0x4F8 PUSH2 0x4DC CALLDATASIZE PUSH1 0x4 PUSH2 0x5BB9 JUMP JUMPDEST PUSH4 0xFFFFFFFF SWAP1 SWAP2 AND PUSH1 0x0 SWAP1 DUP2 MSTORE PUSH1 0xE PUSH1 0x20 MSTORE PUSH1 0x40 SWAP1 KECCAK256 PUSH1 0x3 ADD SSTORE JUMP JUMPDEST STOP JUMPDEST PUSH1 0x1 SLOAD PUSH1 0x1 PUSH1 0x1 PUSH1 0xA0 SHL SUB AND JUMPDEST PUSH1 0x40 MLOAD PUSH1 0x1 PUSH1 0x1 PUSH1 0xA0 SHL SUB SWAP1 SWAP2 AND DUP2 MSTORE PUSH1 0x20 ADD PUSH2 0x4C5 JUMP JUMPDEST PUSH2 0x548 PUSH2 0x52D CALLDATASIZE PUSH1 0x4 PUSH2 0x59B1 JUMP JUMPDEST PUSH4 0xFFFFFFFF AND PUSH1 0x0 SWAP1 DUP2 MSTORE PUSH1 0xE PUSH1 0x20 MSTORE PUSH1 0x40 SWAP1 KECCAK256 PUSH1 0x2 ADD SLOAD SWAP1 JUMP JUMPDEST PUSH1 0x40 MLOAD SWAP1 DUP2 MSTORE PUSH1 0x20 ADD PUSH2 0x4C5 JUMP JUMPDEST PUSH1 0x5 SLOAD PUSH2 0x548 JUMP JUMPDEST PUSH2 0x4B9 PUSH2 0x56C CALLDATASIZE PUSH1 0x4 PUSH2 0x592D JUMP JUMPDEST PUSH2 0xD70 JUMP JUMPDEST PUSH1 0x7 SLOAD PUSH2 0x548 JUMP JUMPDEST PUSH2 0x548 PUSH2 0x587 CALLDATASIZE PUSH1 0x4 PUSH2 0x58A1 JUMP JUMPDEST PUSH1 0x0 SWAP1 DUP2 MSTORE PUSH1 0x20 DUP2 SWAP1 MSTORE PUSH1 0x40 SWAP1 KECCAK256 PUSH1 0x1 ADD SLOAD SWAP1 JUMP JUMPDEST PUSH1 0x6 SLOAD PUSH2 0x548 JUMP JUMPDEST PUSH2 0x5B7 PUSH2 0x5B2 CALLDATASIZE PUSH1 0x4 PUSH2 0x5C3D JUMP JUMPDEST PUSH2 0xE2A JUMP JUMPDEST PUSH1 0x40 MLOAD PUSH2 0x4C5 SWAP2 SWAP1 PUSH2 0x5D37 JUMP JUMPDEST PUSH2 0x5B7 PUSH2 0x5D2 CALLDATASIZE PUSH1 0x4 PUSH2 0x5C7F JUMP JUMPDEST PUSH2 0xF35 JUMP JUMPDEST PUSH2 0x4B9 PUSH2 0x5E5 CALLDATASIZE PUSH1 0x4 PUSH2 0x5BE2 JUMP JUMPDEST PUSH2 0x1049 JUMP JUMPDEST PUSH2 0x4F8 PUSH2 0x5F8 CALLDATASIZE PUSH1 0x4 PUSH2 0x58B9 JUMP JUMPDEST PUSH2 0x10EB JUMP JUMPDEST PUSH2 0x4B9 PUSH2 0x60B CALLDATASIZE PUSH1 0x4 PUSH2 0x58A1 JUMP JUMPDEST PUSH2 0x117A JUMP JUMPDEST PUSH1 0x9 SLOAD PUSH2 0x548 JUMP JUMPDEST PUSH1 0x3 SLOAD PUSH2 0x548 JUMP JUMPDEST PUSH2 0x4B9 PUSH2 0x62E CALLDATASIZE PUSH1 0x4 PUSH2 0x58A1 JUMP JUMPDEST PUSH2 0x1186 JUMP JUMPDEST PUSH2 0x4F8 PUSH2 0x641 CALLDATASIZE PUSH1 0x4 PUSH2 0x58B9 JUMP JUMPDEST PUSH2 0x1312 JUMP JUMPDEST PUSH2 0x4B9 PUSH2 0x138C JUMP JUMPDEST PUSH2 0x548 PUSH2 0x65C CALLDATASIZE PUSH1 0x4 PUSH2 0x59B1 JUMP JUMPDEST PUSH4 0xFFFFFFFF AND PUSH1 0x0 SWAP1 DUP2 MSTORE PUSH1 0xE PUSH1 0x20 MSTORE PUSH1 0x40 SWAP1 KECCAK256 SLOAD SWAP1 JUMP JUMPDEST PUSH2 0x548 PUSH2 0x682 CALLDATASIZE PUSH1 0x4 PUSH2 0x59CB JUMP JUMPDEST PUSH4 0xFFFFFFFF SWAP1 SWAP2 AND PUSH1 0x0 SWAP1 DUP2 MSTORE PUSH1 0xE PUSH1 0x20 SWAP1 DUP2 MSTORE PUSH1 0x40 DUP1 DUP4 KECCAK256 PUSH1 0x1 PUSH1 0x1 PUSH1 0xA0 SHL SUB SWAP1 SWAP5 AND DUP4 MSTORE PUSH1 0x6 SWAP1 SWAP4 ADD SWAP1 MSTORE KECCAK256 PUSH1 0x3 ADD SLOAD SWAP1 JUMP JUMPDEST PUSH2 0x4B9 PUSH2 0x6C5 CALLDATASIZE PUSH1 0x4 PUSH2 0x58E4 JUMP JUMPDEST PUSH2 0x164C JUMP JUMPDEST PUSH2 0x5B7 PUSH2 0x6D8 CALLDATASIZE PUSH1 0x4 PUSH2 0x5C3D JUMP JUMPDEST PUSH2 0x17D6 JUMP JUMPDEST PUSH2 0x548 PUSH2 0x6EB CALLDATASIZE PUSH1 0x4 PUSH2 0x59B1 JUMP JUMPDEST PUSH4 0xFFFFFFFF AND PUSH1 0x0 SWAP1 DUP2 MSTORE PUSH1 0xE PUSH1 0x20 MSTORE PUSH1 0x40 SWAP1 KECCAK256 PUSH1 0x3 ADD SLOAD SWAP1 JUMP JUMPDEST PUSH2 0x5B7 PUSH2 0x714 CALLDATASIZE PUSH1 0x4 PUSH2 0x5C3D JUMP JUMPDEST PUSH2 0x18E9 JUMP JUMPDEST PUSH2 0x4B9 PUSH2 0x727 CALLDATASIZE PUSH1 0x4 PUSH2 0x58A1 JUMP JUMPDEST PUSH2 0x19EB JUMP JUMPDEST PUSH2 0x548 PUSH2 0x73A CALLDATASIZE PUSH1 0x4 PUSH2 0x5BB9 JUMP JUMPDEST PUSH4 0xFFFFFFFF SWAP1 SWAP2 AND PUSH1 0x0 SWAP1 DUP2 MSTORE PUSH1 0xE PUSH1 0x20 SWAP1 DUP2 MSTORE PUSH1 0x40 DUP1 DUP4 KECCAK256 SWAP4 DUP4 MSTORE PUSH1 0x7 SWAP1 SWAP4 ADD SWAP1 MSTORE KECCAK256 SLOAD SWAP1 JUMP JUMPDEST PUSH2 0x4B9 PUSH2 0x770 CALLDATASIZE PUSH1 0x4 PUSH2 0x5AAC JUMP JUMPDEST PUSH2 0x1AA2 JUMP JUMPDEST PUSH2 0x4B9 PUSH2 0x783 CALLDATASIZE PUSH1 0x4 PUSH2 0x58A1 JUMP JUMPDEST PUSH2 0x21BF JUMP JUMPDEST PUSH2 0x4B9 PUSH2 0x796 CALLDATASIZE PUSH1 0x4 PUSH2 0x58A1 JUMP JUMPDEST PUSH2 0x228C JUMP JUMPDEST PUSH2 0x548 PUSH2 0x7A9 CALLDATASIZE PUSH1 0x4 PUSH2 0x59CB JUMP JUMPDEST PUSH4 0xFFFFFFFF SWAP1 SWAP2 AND PUSH1 0x0 SWAP1 DUP2 MSTORE PUSH1 0xE PUSH1 0x20 SWAP1 DUP2 MSTORE PUSH1 0x40 DUP1 DUP4 KECCAK256 PUSH1 0x1 PUSH1 0x1 PUSH1 0xA0 SHL SUB SWAP1 SWAP5 AND DUP4 MSTORE PUSH1 0x6 SWAP1 SWAP4 ADD SWAP1 MSTORE KECCAK256 SLOAD SWAP1 JUMP JUMPDEST PUSH2 0x4B9 PUSH2 0x7E9 CALLDATASIZE PUSH1 0x4 PUSH2 0x58E4 JUMP JUMPDEST PUSH2 0x2345 JUMP JUMPDEST PUSH1 0x2 SLOAD PUSH1 0x1 PUSH1 0x1 PUSH1 0xA0 SHL SUB AND PUSH2 0x507 JUMP JUMPDEST PUSH2 0x548 PUSH2 0x80D CALLDATASIZE PUSH1 0x4 PUSH2 0x59CB JUMP JUMPDEST PUSH4 0xFFFFFFFF SWAP1 SWAP2 AND PUSH1 0x0 SWAP1 DUP2 MSTORE PUSH1 0xE PUSH1 0x20 SWAP1 DUP2 MSTORE PUSH1 0x40 DUP1 DUP4 KECCAK256 PUSH1 0x1 PUSH1 0x1 PUSH1 0xA0 SHL SUB SWAP1 SWAP5 AND DUP4 MSTORE PUSH1 0x6 SWAP1 SWAP4 ADD SWAP1 MSTORE KECCAK256 PUSH1 0x2 ADD SLOAD SWAP1 JUMP JUMPDEST PUSH2 0x5B7 PUSH2 0x850 CALLDATASIZE PUSH1 0x4 PUSH2 0x5C14 JUMP JUMPDEST PUSH2 0x2670 JUMP JUMPDEST PUSH1 0x2 SLOAD PUSH1 0x1 PUSH1 0xA0 SHL SWAP1 DIV PUSH4 0xFFFFFFFF AND JUMPDEST PUSH1 0x40 MLOAD PUSH4 0xFFFFFFFF SWAP1 SWAP2 AND DUP2 MSTORE PUSH1 0x20 ADD PUSH2 0x4C5 JUMP JUMPDEST PUSH2 0x4B9 PUSH2 0x889 CALLDATASIZE PUSH1 0x4 PUSH2 0x58E4 JUMP JUMPDEST PUSH2 0x2763 JUMP JUMPDEST PUSH2 0x548 PUSH2 0x89C CALLDATASIZE PUSH1 0x4 PUSH2 0x59CB JUMP JUMPDEST PUSH4 0xFFFFFFFF SWAP1 SWAP2 AND PUSH1 0x0 SWAP1 DUP2 MSTORE PUSH1 0xE PUSH1 0x20 SWAP1 DUP2 MSTORE PUSH1 0x40 DUP1 DUP4 KECCAK256 PUSH1 0x1 PUSH1 0x1 PUSH1 0xA0 SHL SUB SWAP1 SWAP5 AND DUP4 MSTORE PUSH1 0x6 SWAP4 DUP5 ADD SWAP1 SWAP2 MSTORE SWAP1 KECCAK256 ADD SLOAD SWAP1 JUMP JUMPDEST PUSH2 0x548 PUSH2 0x8DF CALLDATASIZE PUSH1 0x4 PUSH2 0x576A JUMP JUMPDEST PUSH1 0x1 PUSH1 0x1 PUSH1 0xA0 SHL SUB AND PUSH1 0x0 SWAP1 DUP2 MSTORE PUSH1 0xD PUSH1 0x20 MSTORE PUSH1 0x40 SWAP1 KECCAK256 SLOAD SWAP1 JUMP JUMPDEST PUSH2 0x548 PUSH2 0x908 CALLDATASIZE PUSH1 0x4 PUSH2 0x576A JUMP JUMPDEST PUSH2 0x28D4 JUMP JUMPDEST PUSH2 0x4B9 PUSH2 0x91B CALLDATASIZE PUSH1 0x4 PUSH2 0x58A1 JUMP JUMPDEST PUSH2 0x2924 JUMP JUMPDEST PUSH2 0x5B7 PUSH2 0x92E CALLDATASIZE PUSH1 0x4 PUSH2 0x5C14 JUMP JUMPDEST PUSH2 0x29F0 JUMP JUMPDEST PUSH2 0x946 PUSH2 0x941 CALLDATASIZE PUSH1 0x4 PUSH2 0x59B1 JUMP JUMPDEST PUSH2 0x2ADB JUMP JUMPDEST PUSH1 0x40 MLOAD PUSH2 0x4C5 SWAP2 SWAP1 PUSH2 0x5CEA JUMP JUMPDEST PUSH2 0x4B9 PUSH2 0x961 CALLDATASIZE PUSH1 0x4 PUSH2 0x58B9 JUMP JUMPDEST PUSH2 0x2B51 JUMP JUMPDEST PUSH1 0xB SLOAD PUSH2 0x548 JUMP JUMPDEST PUSH2 0x548 PUSH2 0x97C CALLDATASIZE PUSH1 0x4 PUSH2 0x59B1 JUMP JUMPDEST PUSH4 0xFFFFFFFF AND PUSH1 0x0 SWAP1 DUP2 MSTORE PUSH1 0xE PUSH1 0x20 MSTORE PUSH1 0x40 SWAP1 KECCAK256 PUSH1 0x4 ADD SLOAD SWAP1 JUMP JUMPDEST PUSH1 0xA SLOAD PUSH2 0x548 JUMP JUMPDEST PUSH2 0x4B9 PUSH2 0x9AD CALLDATASIZE PUSH1 0x4 PUSH2 0x57EC JUMP JUMPDEST PUSH2 0x2B7A JUMP JUMPDEST PUSH2 0x548 PUSH2 0x9C0 CALLDATASIZE PUSH1 0x4 PUSH2 0x59CB JUMP JUMPDEST PUSH2 0x2BA7 JUMP JUMPDEST PUSH2 0x5B7 PUSH2 0x9D3 CALLDATASIZE PUSH1 0x4 PUSH2 0x5C3D JUMP JUMPDEST PUSH2 0x2BFF JUMP JUMPDEST PUSH2 0x866 PUSH2 0x9E6 CALLDATASIZE PUSH1 0x4 PUSH2 0x58A1 JUMP JUMPDEST PUSH2 0x2D02 JUMP JUMPDEST PUSH2 0x548 PUSH1 0x0 DUP2 JUMP JUMPDEST PUSH2 0x5B7 PUSH2 0xA01 CALLDATASIZE PUSH1 0x4 PUSH2 0x5C14 JUMP JUMPDEST PUSH2 0x2DED JUMP JUMPDEST PUSH2 0x548 PUSH2 0xA14 CALLDATASIZE PUSH1 0x4 PUSH2 0x59CB JUMP JUMPDEST PUSH4 0xFFFFFFFF SWAP1 SWAP2 AND PUSH1 0x0 SWAP1 DUP2 MSTORE PUSH1 0xE PUSH1 0x20 SWAP1 DUP2 MSTORE PUSH1 0x40 DUP1 DUP4 KECCAK256 PUSH1 0x1 PUSH1 0x1 PUSH1 0xA0 SHL SUB SWAP1 SWAP5 AND DUP4 MSTORE PUSH1 0x6 SWAP1 SWAP4 ADD SWAP1 MSTORE KECCAK256 PUSH1 0x4 ADD SLOAD SWAP1 JUMP JUMPDEST PUSH2 0x5B7 PUSH2 0xA57 CALLDATASIZE PUSH1 0x4 PUSH2 0x5C3D JUMP JUMPDEST PUSH2 0x2ED8 JUMP JUMPDEST PUSH2 0xA88 PUSH2 0xA6A CALLDATASIZE PUSH1 0x4 PUSH2 0x59B1 JUMP JUMPDEST PUSH4 0xFFFFFFFF AND PUSH1 0x0 SWAP1 DUP2 MSTORE PUSH1 0xE PUSH1 0x20 MSTORE PUSH1 0x40 SWAP1 KECCAK256 PUSH1 0x5 ADD SLOAD PUSH1 0xFF AND SWAP1 JUMP JUMPDEST PUSH1 0x40 MLOAD PUSH1 0xFF SWAP1 SWAP2 AND DUP2 MSTORE PUSH1 0x20 ADD PUSH2 0x4C5 JUMP JUMPDEST PUSH2 0x4B9 PUSH2 0xAA8 CALLDATASIZE PUSH1 0x4 PUSH2 0x5A2F JUMP JUMPDEST PUSH2 0x2FDA JUMP JUMPDEST PUSH2 0x5B7 PUSH2 0xABB CALLDATASIZE PUSH1 0x4 PUSH2 0x5C14 JUMP JUMPDEST PUSH2 0x3493 JUMP JUMPDEST PUSH2 0x5B7 PUSH2 0xACE CALLDATASIZE PUSH1 0x4 PUSH2 0x5C3D JUMP JUMPDEST PUSH2 0x357B JUMP JUMPDEST PUSH2 0x4B9 PUSH2 0xAE1 CALLDATASIZE PUSH1 0x4 PUSH2 0x58A1 JUMP JUMPDEST PUSH2 0x367D JUMP JUMPDEST PUSH2 0x4B9 PUSH2 0xAF4 CALLDATASIZE PUSH1 0x4 PUSH2 0x5B52 JUMP JUMPDEST PUSH2 0x3870 JUMP JUMPDEST PUSH2 0x5B7 PUSH2 0xB07 CALLDATASIZE PUSH1 0x4 PUSH2 0x5C3D JUMP JUMPDEST PUSH2 0x3B2F JUMP JUMPDEST PUSH2 0x4B9 PUSH2 0xB1A CALLDATASIZE PUSH1 0x4 PUSH2 0x58E4 JUMP JUMPDEST PUSH2 0x3C2E JUMP JUMPDEST PUSH2 0x548 PUSH2 0xB2D CALLDATASIZE PUSH1 0x4 PUSH2 0x59B1 JUMP JUMPDEST PUSH4 0xFFFFFFFF AND PUSH1 0x0 SWAP1 DUP2 MSTORE PUSH1 0xE PUSH1 0x20 MSTORE PUSH1 0x40 SWAP1 KECCAK256 PUSH1 0x8 ADD SLOAD SWAP1 JUMP JUMPDEST PUSH2 0xB50 PUSH2 0x3CAD JUMP JUMPDEST PUSH1 0x40 MLOAD PUSH2 0x4C5 SWAP2 SWAP1 PUSH2 0x5D6F JUMP JUMPDEST PUSH2 0x4B9 PUSH2 0xB6B CALLDATASIZE PUSH1 0x4 PUSH2 0x576A JUMP JUMPDEST PUSH2 0x3D3F JUMP JUMPDEST PUSH2 0x4B9 PUSH2 0xB7E CALLDATASIZE PUSH1 0x4 PUSH2 0x5784 JUMP JUMPDEST PUSH2 0x3E0E JUMP JUMPDEST PUSH1 0x4 SLOAD PUSH2 0x548 JUMP JUMPDEST PUSH2 0x4F8 PUSH2 0xB99 CALLDATASIZE PUSH1 0x4 PUSH2 0x58B9 JUMP JUMPDEST PUSH2 0x3E37 JUMP JUMPDEST PUSH1 0x8 SLOAD PUSH2 0x548 JUMP JUMPDEST PUSH2 0x548 PUSH2 0xBB4 CALLDATASIZE PUSH1 0x4 PUSH2 0x59CB JUMP JUMPDEST PUSH4 0xFFFFFFFF SWAP1 SWAP2 AND PUSH1 0x0 SWAP1 DUP2 MSTORE PUSH1 0xE PUSH1 0x20 SWAP1 DUP2 MSTORE PUSH1 0x40 DUP1 DUP4 KECCAK256 PUSH1 0x1 PUSH1 0x1 PUSH1 0xA0 SHL SUB SWAP1 SWAP5 AND DUP4 MSTORE PUSH1 0x6 SWAP1 SWAP4 ADD SWAP1 MSTORE KECCAK256 PUSH1 0x5 ADD SLOAD SWAP1 JUMP JUMPDEST PUSH2 0x4B9 PUSH2 0xBF7 CALLDATASIZE PUSH1 0x4 PUSH2 0x57EC JUMP JUMPDEST PUSH2 0x3EB7 JUMP JUMPDEST PUSH2 0x5B7 PUSH2 0xC0A CALLDATASIZE PUSH1 0x4 PUSH2 0x5C14 JUMP JUMPDEST PUSH2 0x3ED9 JUMP JUMPDEST PUSH2 0x4B9 PUSH2 0xC1D CALLDATASIZE PUSH1 0x4 PUSH2 0x5CC9 JUMP JUMPDEST PUSH2 0x3FC4 JUMP JUMPDEST PUSH2 0x4B9 PUSH2 0xC30 CALLDATASIZE PUSH1 0x4 PUSH2 0x5AAC JUMP JUMPDEST PUSH2 0x41D0 JUMP JUMPDEST PUSH2 0x548 PUSH2 0xC43 CALLDATASIZE PUSH1 0x4 PUSH2 0x59CB JUMP JUMPDEST PUSH4 0xFFFFFFFF SWAP1 SWAP2 AND PUSH1 0x0 SWAP1 DUP2 MSTORE PUSH1 0xE PUSH1 0x20 SWAP1 DUP2 MSTORE PUSH1 0x40 DUP1 DUP4 KECCAK256 PUSH1 0x1 PUSH1 0x1 PUSH1 0xA0 SHL SUB SWAP1 SWAP5 AND DUP4 MSTORE PUSH1 0x6 SWAP1 SWAP4 ADD SWAP1 MSTORE KECCAK256 PUSH1 0x1 ADD SLOAD SWAP1 JUMP JUMPDEST PUSH2 0x548 PUSH2 0xC86 CALLDATASIZE PUSH1 0x4 PUSH2 0x59F4 JUMP JUMPDEST PUSH4 0xFFFFFFFF SWAP1 SWAP3 AND PUSH1 0x0 SWAP1 DUP2 MSTORE PUSH1 0xE PUSH1 0x20 SWAP1 DUP2 MSTORE PUSH1 0x40 DUP1 DUP4 KECCAK256 PUSH1 0x1 PUSH1 0x1 PUSH1 0xA0 SHL SUB SWAP1 SWAP5 AND DUP4 MSTORE PUSH1 0x6 SWAP1 SWAP4 ADD DUP2 MSTORE DUP3 DUP3 KECCAK256 SWAP4 DUP3 MSTORE PUSH1 0x7 SWAP1 SWAP4 ADD SWAP1 SWAP3 MSTORE SWAP1 KECCAK256 SLOAD SWAP1 JUMP JUMPDEST PUSH2 0x4B9 PUSH2 0xCD5 CALLDATASIZE PUSH1 0x4 PUSH2 0x58A1 JUMP JUMPDEST PUSH2 0x454E JUMP JUMPDEST PUSH2 0x548 PUSH2 0xCE8 CALLDATASIZE PUSH1 0x4 PUSH2 0x59B1 JUMP JUMPDEST PUSH4 0xFFFFFFFF AND PUSH1 0x0 SWAP1 DUP2 MSTORE PUSH1 0xE PUSH1 0x20 MSTORE PUSH1 0x40 SWAP1 KECCAK256 PUSH1 0x1 ADD SLOAD SWAP1 JUMP JUMPDEST PUSH2 0x4B9 PUSH2 0xD11 CALLDATASIZE PUSH1 0x4 PUSH2 0x58A1 JUMP JUMPDEST PUSH2 0x4864 JUMP JUMPDEST PUSH2 0x548 PUSH2 0x4B69 JUMP JUMPDEST PUSH2 0x866 PUSH2 0xD2C CALLDATASIZE PUSH1 0x4 PUSH2 0x58E4 JUMP JUMPDEST PUSH2 0x4C09 JUMP JUMPDEST PUSH2 0x4B9 PUSH2 0x4C81 JUMP JUMPDEST PUSH1 0x0 PUSH1 0x1 PUSH1 0x1 PUSH1 0xE0 SHL SUB NOT DUP3 AND PUSH4 0x7965DB0B PUSH1 0xE0 SHL EQ DUP1 PUSH2 0xD6A JUMPI POP PUSH4 0x1FFC9A7 PUSH1 0xE0 SHL PUSH1 0x1 PUSH1 0x1 PUSH1 0xE0 SHL SUB NOT DUP4 AND EQ JUMPDEST SWAP3 SWAP2 POP POP JUMP JUMPDEST PUSH1 0x0 PUSH2 0xD7C DUP2 CALLER PUSH2 0x2B51 JUMP JUMPDEST PUSH2 0xDEA JUMPI PUSH1 0x40 MLOAD PUSH3 0x461BCD PUSH1 0xE5 SHL DUP2 MSTORE PUSH1 0x20 PUSH1 0x4 DUP3 ADD MSTORE PUSH1 0x34 PUSH1 0x24 DUP3 ADD MSTORE PUSH32 0x436F6D7065746974696F6E202D207570646174654D6573736167653A2043616C PUSH1 0x44 DUP3 ADD MSTORE PUSH20 0x3632B91034B9903AB730BABA3437B934BD32B217 PUSH1 0x61 SHL PUSH1 0x64 DUP3 ADD MSTORE PUSH1 0x84 ADD JUMPDEST PUSH1 0x40 MLOAD DUP1 SWAP2 SUB SWAP1 REVERT JUMPDEST PUSH2 0xDF6 PUSH1 0xC DUP5 DUP5 PUSH2 0x5658 JUMP JUMPDEST POP POP PUSH1 0x40 MLOAD PUSH1 0x1 SWAP1 PUSH32 0x89DBE1E8A053A391BECC713B9C088B57CF1855CF857803E49EAAE2F8FBC3B1CD SWAP1 PUSH1 0x0 SWAP1 LOG1 SWAP3 SWAP2 POP POP JUMP JUMPDEST PUSH1 0x60 PUSH1 0x0 DUP5 PUSH2 0xE3A DUP6 PUSH1 0x1 PUSH2 0x5DDA JUMP JUMPDEST PUSH2 0xE44 SWAP2 SWAP1 PUSH2 0x5E58 JUMP JUMPDEST PUSH4 0xFFFFFFFF AND PUSH1 0x1 PUSH1 0x1 PUSH1 0x40 SHL SUB DUP2 GT ISZERO PUSH2 0xE6F JUMPI PUSH4 0x4E487B71 PUSH1 0xE0 SHL PUSH1 0x0 MSTORE PUSH1 0x41 PUSH1 0x4 MSTORE PUSH1 0x24 PUSH1 0x0 REVERT JUMPDEST PUSH1 0x40 MLOAD SWAP1 DUP1 DUP3 MSTORE DUP1 PUSH1 0x20 MUL PUSH1 0x20 ADD DUP3 ADD PUSH1 0x40 MSTORE DUP1 ISZERO PUSH2 0xE98 JUMPI DUP2 PUSH1 0x20 ADD PUSH1 0x20 DUP3 MUL DUP1 CALLDATASIZE DUP4 CALLDATACOPY ADD SWAP1 POP JUMPDEST POP SWAP1 POP DUP5 JUMPDEST DUP5 PUSH4 0xFFFFFFFF AND DUP2 PUSH4 0xFFFFFFFF AND GT PUSH2 0xF2C JUMPI PUSH4 0xFFFFFFFF DUP2 AND PUSH1 0x0 SWAP1 DUP2 MSTORE PUSH1 0xE PUSH1 0x20 SWAP1 DUP2 MSTORE PUSH1 0x40 DUP1 DUP4 KECCAK256 PUSH1 0x1 PUSH1 0x1 PUSH1 0xA0 SHL SUB DUP9 AND DUP5 MSTORE PUSH1 0x6 ADD SWAP1 SWAP2 MSTORE SWAP1 KECCAK256 PUSH1 0x5 ADD SLOAD DUP3 PUSH2 0xEEB DUP9 DUP5 PUSH2 0x5E58 JUMP JUMPDEST PUSH4 0xFFFFFFFF AND DUP2 MLOAD DUP2 LT PUSH2 0xF0F JUMPI PUSH4 0x4E487B71 PUSH1 0xE0 SHL PUSH1 0x0 MSTORE PUSH1 0x32 PUSH1 0x4 MSTORE PUSH1 0x24 PUSH1 0x0 REVERT JUMPDEST PUSH1 0x20 SWAP1 DUP2 MUL SWAP2 SWAP1 SWAP2 ADD ADD MSTORE DUP1 PUSH2 0xF24 DUP2 PUSH2 0x5EF6 JUMP JUMPDEST SWAP2 POP POP PUSH2 0xE9D JUMP JUMPDEST POP SWAP5 SWAP4 POP POP POP POP JUMP JUMPDEST PUSH1 0x60 PUSH1 0x0 DUP6 PUSH2 0xF45 DUP7 PUSH1 0x1 PUSH2 0x5DDA JUMP JUMPDEST PUSH2 0xF4F SWAP2 SWAP1 PUSH2 0x5E58 JUMP JUMPDEST PUSH4 0xFFFFFFFF AND PUSH1 0x1 PUSH1 0x1 PUSH1 0x40 SHL SUB DUP2 GT ISZERO PUSH2 0xF7A JUMPI PUSH4 0x4E487B71 PUSH1 0xE0 SHL PUSH1 0x0 MSTORE PUSH1 0x41 PUSH1 0x4 MSTORE PUSH1 0x24 PUSH1 0x0 REVERT JUMPDEST PUSH1 0x40 MLOAD SWAP1 DUP1 DUP3 MSTORE DUP1 PUSH1 0x20 MUL PUSH1 0x20 ADD DUP3 ADD PUSH1 0x40 MSTORE DUP1 ISZERO PUSH2 0xFA3 JUMPI DUP2 PUSH1 0x20 ADD PUSH1 0x20 DUP3 MUL DUP1 CALLDATASIZE DUP4 CALLDATACOPY ADD SWAP1 POP JUMPDEST POP SWAP1 POP DUP6 JUMPDEST DUP6 PUSH4 0xFFFFFFFF AND DUP2 PUSH4 0xFFFFFFFF AND GT PUSH2 0x103F JUMPI PUSH4 0xFFFFFFFF DUP2 AND PUSH1 0x0 SWAP1 DUP2 MSTORE PUSH1 0xE PUSH1 0x20 SWAP1 DUP2 MSTORE PUSH1 0x40 DUP1 DUP4 KECCAK256 PUSH1 0x1 PUSH1 0x1 PUSH1 0xA0 SHL SUB DUP10 AND DUP5 MSTORE PUSH1 0x6 ADD DUP3 MSTORE DUP1 DUP4 KECCAK256 DUP8 DUP5 MSTORE PUSH1 0x7 ADD SWAP1 SWAP2 MSTORE SWAP1 KECCAK256 SLOAD DUP3 PUSH2 0xFFE DUP10 DUP5 PUSH2 0x5E58 JUMP JUMPDEST PUSH4 0xFFFFFFFF AND DUP2 MLOAD DUP2 LT PUSH2 0x1022 JUMPI PUSH4 0x4E487B71 PUSH1 0xE0 SHL PUSH1 0x0 MSTORE PUSH1 0x32 PUSH1 0x4 MSTORE PUSH1 0x24 PUSH1 0x0 REVERT JUMPDEST PUSH1 0x20 SWAP1 DUP2 MUL SWAP2 SWAP1 SWAP2 ADD ADD MSTORE DUP1 PUSH2 0x1037 DUP2 PUSH2 0x5EF6 JUMP JUMPDEST SWAP2 POP POP PUSH2 0xFA8 JUMP JUMPDEST POP SWAP6 SWAP5 POP POP POP POP POP JUMP JUMPDEST PUSH1 0x0 PUSH2 0x1055 DUP2 CALLER PUSH2 0x2B51 JUMP JUMPDEST PUSH2 0x10C0 JUMPI PUSH1 0x40 MLOAD PUSH3 0x461BCD PUSH1 0xE5 SHL DUP2 MSTORE PUSH1 0x20 PUSH1 0x4 DUP3 ADD MSTORE PUSH1 0x36 PUSH1 0x24 DUP3 ADD MSTORE PUSH32 0x436F6D7065746974696F6E202D20757064617465446561646C696E65733A2043 PUSH1 0x44 DUP3 ADD MSTORE PUSH22 0x30B63632B91034B9903AB730BABA3437B934BD32B217 PUSH1 0x51 SHL PUSH1 0x64 DUP3 ADD MSTORE PUSH1 0x84 ADD PUSH2 0xDE1 JUMP JUMPDEST POP PUSH4 0xFFFFFFFF SWAP1 SWAP3 AND PUSH1 0x0 SWAP1 DUP2 MSTORE PUSH1 0xE PUSH1 0x20 SWAP1 DUP2 MSTORE PUSH1 0x40 DUP1 DUP4 KECCAK256 SWAP4 DUP4 MSTORE PUSH1 0x7 SWAP1 SWAP4 ADD SWAP1 MSTORE KECCAK256 SSTORE PUSH1 0x1 SWAP1 JUMP JUMPDEST PUSH1 0x0 DUP3 DUP2 MSTORE PUSH1 0x20 DUP2 SWAP1 MSTORE PUSH1 0x40 SWAP1 KECCAK256 PUSH1 0x1 ADD SLOAD PUSH2 0x1108 SWAP1 JUMPDEST CALLER PUSH2 0x2B51 JUMP JUMPDEST PUSH2 0x116C JUMPI PUSH1 0x40 MLOAD PUSH3 0x461BCD PUSH1 0xE5 SHL DUP2 MSTORE PUSH1 0x20 PUSH1 0x4 DUP3 ADD MSTORE PUSH1 0x2F PUSH1 0x24 DUP3 ADD MSTORE PUSH32 0x416363657373436F6E74726F6C3A2073656E646572206D75737420626520616E PUSH1 0x44 DUP3 ADD MSTORE PUSH15 0x818591B5A5B881D1BC819DC985B9D PUSH1 0x8A SHL PUSH1 0x64 DUP3 ADD MSTORE PUSH1 0x84 ADD PUSH2 0xDE1 JUMP JUMPDEST PUSH2 0x1176 DUP3 DUP3 PUSH2 0x4DEE JUMP JUMPDEST POP POP JUMP JUMPDEST PUSH1 0x0 PUSH2 0xD6A DUP2 DUP4 PUSH2 0x4E72 JUMP JUMPDEST CALLER PUSH1 0x0 SWAP1 DUP2 MSTORE PUSH1 0xD PUSH1 0x20 MSTORE PUSH1 0x40 DUP2 KECCAK256 SLOAD DUP3 DUP2 EQ ISZERO PUSH2 0x1216 JUMPI PUSH1 0x40 MLOAD PUSH3 0x461BCD PUSH1 0xE5 SHL DUP2 MSTORE PUSH1 0x20 PUSH1 0x4 DUP3 ADD MSTORE PUSH1 0x41 PUSH1 0x24 DUP3 ADD MSTORE PUSH32 0x436F6D7065746974696F6E202D207365745374616B653A20596F757220737461 PUSH1 0x44 DUP3 ADD MSTORE PUSH32 0x6B6520697320616C72656164792073657420746F207468697320616D6F756E74 PUSH1 0x64 DUP3 ADD MSTORE PUSH1 0x17 PUSH1 0xF9 SHL PUSH1 0x84 DUP3 ADD MSTORE PUSH1 0xA4 ADD PUSH2 0xDE1 JUMP JUMPDEST DUP1 DUP4 GT ISZERO PUSH2 0x1296 JUMPI PUSH2 0x122B PUSH2 0xD11 DUP3 DUP6 PUSH2 0x5E41 JUMP JUMPDEST PUSH2 0x1291 JUMPI PUSH1 0x40 MLOAD PUSH3 0x461BCD PUSH1 0xE5 SHL DUP2 MSTORE PUSH1 0x20 PUSH1 0x4 DUP3 ADD MSTORE PUSH1 0x31 PUSH1 0x24 DUP3 ADD MSTORE PUSH32 0x436F6D7065746974696F6E202D207365745374616B653A20436F756C64206E6F PUSH1 0x44 DUP3 ADD MSTORE PUSH17 0x3A1034B731B932B0B9B29039BA30B5B297 PUSH1 0x79 SHL PUSH1 0x64 DUP3 ADD MSTORE PUSH1 0x84 ADD PUSH2 0xDE1 JUMP JUMPDEST PUSH2 0x1309 JUMP JUMPDEST PUSH2 0x12A3 PUSH2 0xCD5 DUP5 DUP4 PUSH2 0x5E41 JUMP JUMPDEST PUSH2 0x1309 JUMPI PUSH1 0x40 MLOAD PUSH3 0x461BCD PUSH1 0xE5 SHL DUP2 MSTORE PUSH1 0x20 PUSH1 0x4 DUP3 ADD MSTORE PUSH1 0x31 PUSH1 0x24 DUP3 ADD MSTORE PUSH32 0x436F6D7065746974696F6E202D207365745374616B653A20436F756C64206E6F PUSH1 0x44 DUP3 ADD MSTORE PUSH17 0x3A103232B1B932B0B9B29039BA30B5B297 PUSH1 0x79 SHL PUSH1 0x64 DUP3 ADD MSTORE PUSH1 0x84 ADD PUSH2 0xDE1 JUMP JUMPDEST POP PUSH1 0x1 SWAP3 SWAP2 POP POP JUMP JUMPDEST PUSH1 0x1 PUSH1 0x1 PUSH1 0xA0 SHL SUB DUP2 AND CALLER EQ PUSH2 0x1382 JUMPI PUSH1 0x40 MLOAD PUSH3 0x461BCD PUSH1 0xE5 SHL DUP2 MSTORE PUSH1 0x20 PUSH1 0x4 DUP3 ADD MSTORE PUSH1 0x2F PUSH1 0x24 DUP3 ADD MSTORE PUSH32 0x416363657373436F6E74726F6C3A2063616E206F6E6C792072656E6F756E6365 PUSH1 0x44 DUP3 ADD MSTORE PUSH15 0x103937B632B9903337B91039B2B633 PUSH1 0x89 SHL PUSH1 0x64 DUP3 ADD MSTORE PUSH1 0x84 ADD PUSH2 0xDE1 JUMP JUMPDEST PUSH2 0x1176 DUP3 DUP3 PUSH2 0x50EC JUMP JUMPDEST PUSH1 0x0 PUSH2 0x1398 DUP2 CALLER PUSH2 0x2B51 JUMP JUMPDEST PUSH2 0x13F8 JUMPI PUSH1 0x40 MLOAD PUSH3 0x461BCD PUSH1 0xE5 SHL DUP2 MSTORE PUSH1 0x20 PUSH1 0x4 DUP3 ADD MSTORE PUSH1 0x3A PUSH1 0x24 DUP3 ADD MSTORE PUSH1 0x0 DUP1 MLOAD PUSH1 0x20 PUSH2 0x5F31 DUP4 CODECOPY DUP2 MLOAD SWAP2 MSTORE PUSH1 0x44 DUP3 ADD MSTORE PUSH32 0x6C3A2043616C6C657220697320756E617574686F72697A65642E000000000000 PUSH1 0x64 DUP3 ADD MSTORE PUSH1 0x84 ADD PUSH2 0xDE1 JUMP JUMPDEST PUSH1 0x2 SLOAD PUSH1 0x1 PUSH1 0xA0 SHL SWAP1 DIV PUSH4 0xFFFFFFFF AND PUSH1 0x0 SWAP1 DUP2 MSTORE PUSH1 0xE PUSH1 0x20 MSTORE PUSH1 0x40 SWAP1 KECCAK256 PUSH1 0x5 ADD SLOAD PUSH1 0xFF AND PUSH1 0x4 EQ PUSH2 0x14A6 JUMPI PUSH1 0x40 MLOAD PUSH3 0x461BCD PUSH1 0xE5 SHL DUP2 MSTORE PUSH1 0x20 PUSH1 0x4 DUP3 ADD MSTORE PUSH1 0x5F PUSH1 0x24 DUP3 ADD MSTORE PUSH1 0x0 DUP1 MLOAD PUSH1 0x20 PUSH2 0x5F31 DUP4 CODECOPY DUP2 MLOAD SWAP2 MSTORE PUSH1 0x44 DUP3 ADD MSTORE PUSH32 0x6C3A20504C65617365207761697420666F7220746865206368616C6C656E6765 PUSH1 0x64 DUP3 ADD MSTORE PUSH32 0x20746F20636F6D706C657465206265666F72652073706F6E736F72696E672E00 PUSH1 0x84 DUP3 ADD MSTORE PUSH1 0xA4 ADD PUSH2 0xDE1 JUMP JUMPDEST PUSH1 0x0 PUSH2 0x14B0 PUSH2 0x4B69 JUMP JUMPDEST SWAP1 POP PUSH1 0x0 DUP2 GT PUSH2 0x1516 JUMPI PUSH1 0x40 MLOAD PUSH3 0x461BCD PUSH1 0xE5 SHL DUP2 MSTORE PUSH1 0x20 PUSH1 0x4 DUP3 ADD MSTORE PUSH1 0x38 PUSH1 0x24 DUP3 ADD MSTORE PUSH1 0x0 DUP1 MLOAD PUSH1 0x20 PUSH2 0x5F31 DUP4 CODECOPY DUP2 MLOAD SWAP2 MSTORE PUSH1 0x44 DUP3 ADD MSTORE PUSH32 0x6C3A204E6F2072656D61696E64657220746F206D6F76652E0000000000000000 PUSH1 0x64 DUP3 ADD MSTORE PUSH1 0x84 ADD PUSH2 0xDE1 JUMP JUMPDEST DUP1 PUSH1 0x4 PUSH1 0x0 DUP3 DUP3 SLOAD PUSH2 0x1528 SWAP2 SWAP1 PUSH2 0x5DC2 JUMP JUMPDEST SWAP1 SWAP2 SSTORE POP POP PUSH1 0x1 SLOAD PUSH1 0x40 MLOAD PUSH4 0x70A08231 PUSH1 0xE0 SHL DUP2 MSTORE ADDRESS PUSH1 0x4 DUP3 ADD MSTORE PUSH1 0x1 PUSH1 0x1 PUSH1 0xA0 SHL SUB SWAP1 SWAP2 AND SWAP1 PUSH4 0x70A08231 SWAP1 PUSH1 0x24 ADD PUSH1 0x20 PUSH1 0x40 MLOAD DUP1 DUP4 SUB DUP2 DUP7 DUP1 EXTCODESIZE ISZERO DUP1 ISZERO PUSH2 0x1570 JUMPI PUSH1 0x0 DUP1 REVERT JUMPDEST POP GAS STATICCALL ISZERO DUP1 ISZERO PUSH2 0x1584 JUMPI RETURNDATASIZE PUSH1 0x0 DUP1 RETURNDATACOPY RETURNDATASIZE PUSH1 0x0 REVERT JUMPDEST POP POP POP POP PUSH1 0x40 MLOAD RETURNDATASIZE PUSH1 0x1F NOT PUSH1 0x1F DUP3 ADD AND DUP3 ADD DUP1 PUSH1 0x40 MSTORE POP DUP2 ADD SWAP1 PUSH2 0x15A8 SWAP2 SWAP1 PUSH2 0x5999 JUMP JUMPDEST PUSH1 0x6 SLOAD PUSH1 0x4 SLOAD PUSH2 0x15B8 SWAP2 SWAP1 PUSH2 0x5DC2 JUMP JUMPDEST EQ PUSH2 0x1619 JUMPI PUSH1 0x40 MLOAD PUSH3 0x461BCD PUSH1 0xE5 SHL DUP2 MSTORE PUSH1 0x20 PUSH1 0x4 DUP3 ADD MSTORE PUSH1 0x3A PUSH1 0x24 DUP3 ADD MSTORE PUSH1 0x0 DUP1 MLOAD PUSH1 0x20 PUSH2 0x5F31 DUP4 CODECOPY DUP2 MLOAD SWAP2 MSTORE PUSH1 0x44 DUP3 ADD MSTORE PUSH32 0x6C3A204572726F7220696E20746F74616C2062616C616E63652E000000000000 PUSH1 0x64 DUP3 ADD MSTORE PUSH1 0x84 ADD PUSH2 0xDE1 JUMP JUMPDEST PUSH1 0x40 MLOAD PUSH1 0x1 SWAP3 POP DUP2 SWAP1 PUSH32 0xDA446D0471A795498335ED4BC219B34921A12CCB87136A9AA03964ADC83EADF3 SWAP1 PUSH1 0x0 SWAP1 LOG2 POP SWAP1 JUMP JUMPDEST PUSH1 0x0 PUSH2 0x1658 DUP2 CALLER PUSH2 0x2B51 JUMP JUMPDEST PUSH2 0x16C1 JUMPI PUSH1 0x40 MLOAD PUSH3 0x461BCD PUSH1 0xE5 SHL DUP2 MSTORE PUSH1 0x20 PUSH1 0x4 DUP3 ADD MSTORE PUSH1 0x34 PUSH1 0x24 DUP3 ADD MSTORE PUSH32 0x436F6D7065746974696F6E202D20757064617465446174617365743A2043616C PUSH1 0x44 DUP3 ADD MSTORE PUSH20 0x3632B91034B9903AB730BABA3437B934BD32B217 PUSH1 0x61 SHL PUSH1 0x64 DUP3 ADD MSTORE PUSH1 0x84 ADD PUSH2 0xDE1 JUMP JUMPDEST PUSH1 0x2 SLOAD PUSH4 0xFFFFFFFF PUSH1 0x1 PUSH1 0xA0 SHL SWAP1 SWAP2 DIV AND PUSH1 0x0 DUP2 DUP2 MSTORE PUSH1 0xE PUSH1 0x20 MSTORE PUSH1 0x40 SWAP1 KECCAK256 PUSH1 0x5 ADD SLOAD PUSH1 0xFF AND PUSH1 0x1 EQ PUSH2 0x1750 JUMPI PUSH1 0x40 MLOAD PUSH3 0x461BCD PUSH1 0xE5 SHL DUP2 MSTORE PUSH1 0x20 PUSH1 0x4 DUP3 ADD MSTORE PUSH1 0x31 PUSH1 0x24 DUP3 ADD MSTORE PUSH32 0x436F6D7065746974696F6E202D20757064617465446174617365743A20436861 PUSH1 0x44 DUP3 ADD MSTORE PUSH17 0x363632B733B29034B99031B637B9B2B217 PUSH1 0x79 SHL PUSH1 0x64 DUP3 ADD MSTORE PUSH1 0x84 ADD PUSH2 0xDE1 JUMP JUMPDEST DUP4 PUSH2 0x17C3 JUMPI PUSH1 0x40 MLOAD PUSH3 0x461BCD PUSH1 0xE5 SHL DUP2 MSTORE PUSH1 0x20 PUSH1 0x4 DUP3 ADD MSTORE PUSH1 0x3C PUSH1 0x24 DUP3 ADD MSTORE PUSH32 0x436F6D7065746974696F6E202D20757064617465446174617365743A204D7573 PUSH1 0x44 DUP3 ADD MSTORE PUSH32 0x742068617665207072652D6578697374696E6720646174617365742E00000000 PUSH1 0x64 DUP3 ADD MSTORE PUSH1 0x84 ADD PUSH2 0xDE1 JUMP JUMPDEST PUSH2 0x17CE DUP2 DUP6 DUP6 PUSH2 0x5151 JUMP JUMPDEST SWAP5 SWAP4 POP POP POP POP JUMP JUMPDEST PUSH1 0x60 PUSH1 0x0 DUP5 PUSH2 0x17E6 DUP6 PUSH1 0x1 PUSH2 0x5DDA JUMP JUMPDEST PUSH2 0x17F0 SWAP2 SWAP1 PUSH2 0x5E58 JUMP JUMPDEST PUSH4 0xFFFFFFFF AND PUSH1 0x1 PUSH1 0x1 PUSH1 0x40 SHL SUB DUP2 GT ISZERO PUSH2 0x181B JUMPI PUSH4 0x4E487B71 PUSH1 0xE0 SHL PUSH1 0x0 MSTORE PUSH1 0x41 PUSH1 0x4 MSTORE PUSH1 0x24 PUSH1 0x0 REVERT JUMPDEST PUSH1 0x40 MLOAD SWAP1 DUP1 DUP3 MSTORE DUP1 PUSH1 0x20 MUL PUSH1 0x20 ADD DUP3 ADD PUSH1 0x40 MSTORE DUP1 ISZERO PUSH2 0x1844 JUMPI DUP2 PUSH1 0x20 ADD PUSH1 0x20 DUP3 MUL DUP1 CALLDATASIZE DUP4 CALLDATACOPY ADD SWAP1 POP JUMPDEST POP SWAP1 POP DUP5 JUMPDEST DUP5 PUSH4 0xFFFFFFFF AND DUP2 PUSH4 0xFFFFFFFF AND GT PUSH2 0xF2C JUMPI PUSH4 0xFFFFFFFF DUP2 AND PUSH1 0x0 SWAP1 DUP2 MSTORE PUSH1 0xE PUSH1 0x20 SWAP1 DUP2 MSTORE PUSH1 0x40 DUP1 DUP4 KECCAK256 PUSH1 0x1 PUSH1 0x1 PUSH1 0xA0 SHL SUB DUP9 AND DUP5 MSTORE PUSH1 0x6 ADD SWAP1 SWAP2 MSTORE SWAP1 KECCAK256 PUSH1 0x3 DUP2 ADD SLOAD PUSH1 0x2 SWAP1 SWAP2 ADD SLOAD PUSH2 0x189D SWAP2 SWAP1 PUSH2 0x5DC2 JUMP JUMPDEST DUP3 PUSH2 0x18A8 DUP9 DUP5 PUSH2 0x5E58 JUMP JUMPDEST PUSH4 0xFFFFFFFF AND DUP2 MLOAD DUP2 LT PUSH2 0x18CC JUMPI PUSH4 0x4E487B71 PUSH1 0xE0 SHL PUSH1 0x0 MSTORE PUSH1 0x32 PUSH1 0x4 MSTORE PUSH1 0x24 PUSH1 0x0 REVERT JUMPDEST PUSH1 0x20 SWAP1 DUP2 MUL SWAP2 SWAP1 SWAP2 ADD ADD MSTORE DUP1 PUSH2 0x18E1 DUP2 PUSH2 0x5EF6 JUMP JUMPDEST SWAP2 POP POP PUSH2 0x1849 JUMP JUMPDEST PUSH1 0x60 PUSH1 0x0 DUP5 PUSH2 0x18F9 DUP6 PUSH1 0x1 PUSH2 0x5DDA JUMP JUMPDEST PUSH2 0x1903 SWAP2 SWAP1 PUSH2 0x5E58 JUMP JUMPDEST PUSH4 0xFFFFFFFF AND PUSH1 0x1 PUSH1 0x1 PUSH1 0x40 SHL SUB DUP2 GT ISZERO PUSH2 0x192E JUMPI PUSH4 0x4E487B71 PUSH1 0xE0 SHL PUSH1 0x0 MSTORE PUSH1 0x41 PUSH1 0x4 MSTORE PUSH1 0x24 PUSH1 0x0 REVERT JUMPDEST PUSH1 0x40 MLOAD SWAP1 DUP1 DUP3 MSTORE DUP1 PUSH1 0x20 MUL PUSH1 0x20 ADD DUP3 ADD PUSH1 0x40 MSTORE DUP1 ISZERO PUSH2 0x1957 JUMPI DUP2 PUSH1 0x20 ADD PUSH1 0x20 DUP3 MUL DUP1 CALLDATASIZE DUP4 CALLDATACOPY ADD SWAP1 POP JUMPDEST POP SWAP1 POP DUP5 JUMPDEST DUP5 PUSH4 0xFFFFFFFF AND DUP2 PUSH4 0xFFFFFFFF AND GT PUSH2 0xF2C JUMPI PUSH4 0xFFFFFFFF DUP2 AND PUSH1 0x0 SWAP1 DUP2 MSTORE PUSH1 0xE PUSH1 0x20 SWAP1 DUP2 MSTORE PUSH1 0x40 DUP1 DUP4 KECCAK256 PUSH1 0x1 PUSH1 0x1 PUSH1 0xA0 SHL SUB DUP9 AND DUP5 MSTORE PUSH1 0x6 ADD SWAP1 SWAP2 MSTORE SWAP1 KECCAK256 PUSH1 0x4 ADD SLOAD DUP3 PUSH2 0x19AA DUP9 DUP5 PUSH2 0x5E58 JUMP JUMPDEST PUSH4 0xFFFFFFFF AND DUP2 MLOAD DUP2 LT PUSH2 0x19CE JUMPI PUSH4 0x4E487B71 PUSH1 0xE0 SHL PUSH1 0x0 MSTORE PUSH1 0x32 PUSH1 0x4 MSTORE PUSH1 0x24 PUSH1 0x0 REVERT JUMPDEST PUSH1 0x20 SWAP1 DUP2 MUL SWAP2 SWAP1 SWAP2 ADD ADD MSTORE DUP1 PUSH2 0x19E3 DUP2 PUSH2 0x5EF6 JUMP JUMPDEST SWAP2 POP POP PUSH2 0x195C JUMP JUMPDEST PUSH1 0x0 PUSH2 0x19F7 DUP2 CALLER PUSH2 0x2B51 JUMP JUMPDEST PUSH2 0x1A69 JUMPI PUSH1 0x40 MLOAD PUSH3 0x461BCD PUSH1 0xE5 SHL DUP2 MSTORE PUSH1 0x20 PUSH1 0x4 DUP3 ADD MSTORE PUSH1 0x3D PUSH1 0x24 DUP3 ADD MSTORE PUSH32 0x436F6D7065746974696F6E202D20757064617465526577617264735468726573 PUSH1 0x44 DUP3 ADD MSTORE PUSH32 0x686F6C643A2043616C6C657220697320756E617574686F72697A65642E000000 PUSH1 0x64 DUP3 ADD MSTORE PUSH1 0x84 ADD PUSH2 0xDE1 JUMP JUMPDEST POP PUSH1 0x5 DUP2 SWAP1 SSTORE PUSH1 0x40 MLOAD PUSH1 0x1 SWAP1 DUP3 SWAP1 PUSH32 0x73E002420A7DEFB91818836F9AAA83222B749A40C213C7C0FBCCAACDD259E052 SWAP1 PUSH1 0x0 SWAP1 LOG2 SWAP2 SWAP1 POP JUMP JUMPDEST PUSH1 0x0 PUSH2 0x1AAE DUP2 CALLER PUSH2 0x2B51 JUMP JUMPDEST PUSH2 0x1B30 JUMPI PUSH1 0x40 MLOAD PUSH3 0x461BCD PUSH1 0xE5 SHL DUP2 MSTORE PUSH1 0x20 PUSH1 0x4 DUP3 ADD MSTORE PUSH1 0x47 PUSH1 0x24 DUP3 ADD MSTORE PUSH32 0x436F6D7065746974696F6E202D207061794368616C6C656E6765416E64546F75 PUSH1 0x44 DUP3 ADD MSTORE PUSH32 0x726E616D656E74526577617264733A2043616C6C657220697320756E61757468 PUSH1 0x64 DUP3 ADD MSTORE PUSH7 0x37B934BD32B217 PUSH1 0xC9 SHL PUSH1 0x84 DUP3 ADD MSTORE PUSH1 0xA4 ADD PUSH2 0xDE1 JUMP JUMPDEST PUSH4 0xFFFFFFFF DUP9 AND PUSH1 0x0 SWAP1 DUP2 MSTORE PUSH1 0xE PUSH1 0x20 MSTORE PUSH1 0x40 SWAP1 KECCAK256 PUSH1 0x5 ADD SLOAD PUSH1 0x3 PUSH1 0xFF SWAP1 SWAP2 AND LT ISZERO PUSH2 0x1BDE JUMPI PUSH1 0x40 MLOAD PUSH3 0x461BCD PUSH1 0xE5 SHL DUP2 MSTORE PUSH1 0x20 PUSH1 0x4 DUP3 ADD MSTORE PUSH1 0x51 PUSH1 0x24 DUP3 ADD MSTORE PUSH32 0x436F6D7065746974696F6E202D207061794368616C6C656E6765416E64546F75 PUSH1 0x44 DUP3 ADD MSTORE PUSH32 0x726E616D656E74526577617264733A204368616C6C656E676520697320696E20 PUSH1 0x64 DUP3 ADD MSTORE PUSH17 0x3AB732BC3832B1BA32B21039BA30BA3297 PUSH1 0x79 SHL PUSH1 0x84 DUP3 ADD MSTORE PUSH1 0xA4 ADD PUSH2 0xDE1 JUMP JUMPDEST DUP6 DUP5 EQ DUP1 ISZERO PUSH2 0x1BEC JUMPI POP DUP6 DUP3 EQ JUMPDEST PUSH2 0x1C84 JUMPI PUSH1 0x40 MLOAD PUSH3 0x461BCD PUSH1 0xE5 SHL DUP2 MSTORE PUSH1 0x20 PUSH1 0x4 DUP3 ADD MSTORE PUSH1 0x5C PUSH1 0x24 DUP3 ADD MSTORE PUSH32 0x436F6D7065746974696F6E202D207061794368616C6C656E6765416E64546F75 PUSH1 0x44 DUP3 ADD MSTORE PUSH32 0x726E616D656E74526577617264733A204E756D626572206F662077696E6E6572 PUSH1 0x64 DUP3 ADD MSTORE PUSH32 0x7320616E6420726577617264732061726520646966666572656E742E00000000 PUSH1 0x84 DUP3 ADD MSTORE PUSH1 0xA4 ADD PUSH2 0xDE1 JUMP JUMPDEST PUSH1 0x0 DUP1 PUSH1 0x0 JUMPDEST DUP9 DUP2 LT ISZERO PUSH2 0x2058 JUMPI DUP6 DUP6 DUP3 DUP2 DUP2 LT PUSH2 0x1CB2 JUMPI PUSH4 0x4E487B71 PUSH1 0xE0 SHL PUSH1 0x0 MSTORE PUSH1 0x32 PUSH1 0x4 MSTORE PUSH1 0x24 PUSH1 0x0 REVERT JUMPDEST SWAP1 POP PUSH1 0x20 MUL ADD CALLDATALOAD DUP9 DUP9 DUP4 DUP2 DUP2 LT PUSH2 0x1CD9 JUMPI PUSH4 0x4E487B71 PUSH1 0xE0 SHL PUSH1 0x0 MSTORE PUSH1 0x32 PUSH1 0x4 MSTORE PUSH1 0x24 PUSH1 0x0 REVERT JUMPDEST SWAP1 POP PUSH1 0x20 MUL ADD CALLDATALOAD PUSH2 0x1CEA SWAP2 SWAP1 PUSH2 0x5DC2 JUMP JUMPDEST PUSH1 0xD PUSH1 0x0 DUP13 DUP13 DUP6 DUP2 DUP2 LT PUSH2 0x1D0E JUMPI PUSH4 0x4E487B71 PUSH1 0xE0 SHL PUSH1 0x0 MSTORE PUSH1 0x32 PUSH1 0x4 MSTORE PUSH1 0x24 PUSH1 0x0 REVERT JUMPDEST SWAP1 POP PUSH1 0x20 MUL ADD PUSH1 0x20 DUP2 ADD SWAP1 PUSH2 0x1D23 SWAP2 SWAP1 PUSH2 0x576A JUMP JUMPDEST PUSH1 0x1 PUSH1 0x1 PUSH1 0xA0 SHL SUB AND PUSH1 0x1 PUSH1 0x1 PUSH1 0xA0 SHL SUB AND DUP2 MSTORE PUSH1 0x20 ADD SWAP1 DUP2 MSTORE PUSH1 0x20 ADD PUSH1 0x0 KECCAK256 PUSH1 0x0 DUP3 DUP3 SLOAD PUSH2 0x1D52 SWAP2 SWAP1 PUSH2 0x5DC2 JUMP JUMPDEST SWAP1 SWAP2 SSTORE POP PUSH1 0x0 SWAP1 POP DUP9 DUP9 DUP4 DUP2 DUP2 LT PUSH2 0x1D7A JUMPI PUSH4 0x4E487B71 PUSH1 0xE0 SHL PUSH1 0x0 MSTORE PUSH1 0x32 PUSH1 0x4 MSTORE PUSH1 0x24 PUSH1 0x0 REVERT JUMPDEST SWAP1 POP PUSH1 0x20 MUL ADD CALLDATALOAD GT ISZERO PUSH2 0x1E73 JUMPI DUP8 DUP8 DUP3 DUP2 DUP2 LT PUSH2 0x1DA7 JUMPI PUSH4 0x4E487B71 PUSH1 0xE0 SHL PUSH1 0x0 MSTORE PUSH1 0x32 PUSH1 0x4 MSTORE PUSH1 0x24 PUSH1 0x0 REVERT JUMPDEST SWAP1 POP PUSH1 0x20 MUL ADD CALLDATALOAD DUP4 PUSH2 0x1DB9 SWAP2 SWAP1 PUSH2 0x5DC2 JUMP JUMPDEST SWAP3 POP DUP8 DUP8 DUP3 DUP2 DUP2 LT PUSH2 0x1DDB JUMPI PUSH4 0x4E487B71 PUSH1 0xE0 SHL PUSH1 0x0 MSTORE PUSH1 0x32 PUSH1 0x4 MSTORE PUSH1 0x24 PUSH1 0x0 REVERT JUMPDEST SWAP1 POP PUSH1 0x20 MUL ADD CALLDATALOAD PUSH1 0xE PUSH1 0x0 DUP14 PUSH4 0xFFFFFFFF AND PUSH4 0xFFFFFFFF AND DUP2 MSTORE PUSH1 0x20 ADD SWAP1 DUP2 MSTORE PUSH1 0x20 ADD PUSH1 0x0 KECCAK256 PUSH1 0x6 ADD PUSH1 0x0 DUP13 DUP13 DUP6 DUP2 DUP2 LT PUSH2 0x1E26 JUMPI PUSH4 0x4E487B71 PUSH1 0xE0 SHL PUSH1 0x0 MSTORE PUSH1 0x32 PUSH1 0x4 MSTORE PUSH1 0x24 PUSH1 0x0 REVERT JUMPDEST SWAP1 POP PUSH1 0x20 MUL ADD PUSH1 0x20 DUP2 ADD SWAP1 PUSH2 0x1E3B SWAP2 SWAP1 PUSH2 0x576A JUMP JUMPDEST PUSH1 0x1 PUSH1 0x1 PUSH1 0xA0 SHL SUB AND PUSH1 0x1 PUSH1 0x1 PUSH1 0xA0 SHL SUB AND DUP2 MSTORE PUSH1 0x20 ADD SWAP1 DUP2 MSTORE PUSH1 0x20 ADD PUSH1 0x0 KECCAK256 PUSH1 0x3 ADD PUSH1 0x0 DUP3 DUP3 SLOAD PUSH2 0x1E6D SWAP2 SWAP1 PUSH2 0x5DC2 JUMP JUMPDEST SWAP1 SWAP2 SSTORE POP POP JUMPDEST PUSH1 0x0 DUP7 DUP7 DUP4 DUP2 DUP2 LT PUSH2 0x1E95 JUMPI PUSH4 0x4E487B71 PUSH1 0xE0 SHL PUSH1 0x0 MSTORE PUSH1 0x32 PUSH1 0x4 MSTORE PUSH1 0x24 PUSH1 0x0 REVERT JUMPDEST SWAP1 POP PUSH1 0x20 MUL ADD CALLDATALOAD GT ISZERO PUSH2 0x1F8E JUMPI DUP6 DUP6 DUP3 DUP2 DUP2 LT PUSH2 0x1EC2 JUMPI PUSH4 0x4E487B71 PUSH1 0xE0 SHL PUSH1 0x0 MSTORE PUSH1 0x32 PUSH1 0x4 MSTORE PUSH1 0x24 PUSH1 0x0 REVERT JUMPDEST SWAP1 POP PUSH1 0x20 MUL ADD CALLDATALOAD DUP3 PUSH2 0x1ED4 SWAP2 SWAP1 PUSH2 0x5DC2 JUMP JUMPDEST SWAP2 POP DUP6 DUP6 DUP3 DUP2 DUP2 LT PUSH2 0x1EF6 JUMPI PUSH4 0x4E487B71 PUSH1 0xE0 SHL PUSH1 0x0 MSTORE PUSH1 0x32 PUSH1 0x4 MSTORE PUSH1 0x24 PUSH1 0x0 REVERT JUMPDEST SWAP1 POP PUSH1 0x20 MUL ADD CALLDATALOAD PUSH1 0xE PUSH1 0x0 DUP14 PUSH4 0xFFFFFFFF AND PUSH4 0xFFFFFFFF AND DUP2 MSTORE PUSH1 0x20 ADD SWAP1 DUP2 MSTORE PUSH1 0x20 ADD PUSH1 0x0 KECCAK256 PUSH1 0x6 ADD PUSH1 0x0 DUP13 DUP13 DUP6 DUP2 DUP2 LT PUSH2 0x1F41 JUMPI PUSH4 0x4E487B71 PUSH1 0xE0 SHL PUSH1 0x0 MSTORE PUSH1 0x32 PUSH1 0x4 MSTORE PUSH1 0x24 PUSH1 0x0 REVERT JUMPDEST SWAP1 POP PUSH1 0x20 MUL ADD PUSH1 0x20 DUP2 ADD SWAP1 PUSH2 0x1F56 SWAP2 SWAP1 PUSH2 0x576A JUMP JUMPDEST PUSH1 0x1 PUSH1 0x1 PUSH1 0xA0 SHL SUB AND PUSH1 0x1 PUSH1 0x1 PUSH1 0xA0 SHL SUB AND DUP2 MSTORE PUSH1 0x20 ADD SWAP1 DUP2 MSTORE PUSH1 0x20 ADD PUSH1 0x0 KECCAK256 PUSH1 0x4 ADD PUSH1 0x0 DUP3 DUP3 SLOAD PUSH2 0x1F88 SWAP2 SWAP1 PUSH2 0x5DC2 JUMP JUMPDEST SWAP1 SWAP2 SSTORE POP POP JUMPDEST DUP6 DUP6 DUP3 DUP2 DUP2 LT PUSH2 0x1FAE JUMPI PUSH4 0x4E487B71 PUSH1 0xE0 SHL PUSH1 0x0 MSTORE PUSH1 0x32 PUSH1 0x4 MSTORE PUSH1 0x24 PUSH1 0x0 REVERT JUMPDEST SWAP1 POP PUSH1 0x20 MUL ADD CALLDATALOAD DUP9 DUP9 DUP4 DUP2 DUP2 LT PUSH2 0x1FD5 JUMPI PUSH4 0x4E487B71 PUSH1 0xE0 SHL PUSH1 0x0 MSTORE PUSH1 0x32 PUSH1 0x4 MSTORE PUSH1 0x24 PUSH1 0x0 REVERT JUMPDEST SWAP1 POP PUSH1 0x20 MUL ADD CALLDATALOAD DUP12 DUP12 DUP5 DUP2 DUP2 LT PUSH2 0x1FFC JUMPI PUSH4 0x4E487B71 PUSH1 0xE0 SHL PUSH1 0x0 MSTORE PUSH1 0x32 PUSH1 0x4 MSTORE PUSH1 0x24 PUSH1 0x0 REVERT JUMPDEST SWAP1 POP PUSH1 0x20 MUL ADD PUSH1 0x20 DUP2 ADD SWAP1 PUSH2 0x2011 SWAP2 SWAP1 PUSH2 0x576A JUMP JUMPDEST PUSH1 0x1 PUSH1 0x1 PUSH1 0xA0 SHL SUB AND PUSH32 0x36EFF3ADC849CC15FDE4C14FC71A5734F103624673F2FE025A75944A2ED97959 PUSH1 0x40 MLOAD PUSH1 0x40 MLOAD DUP1 SWAP2 SUB SWAP1 LOG4 DUP1 PUSH2 0x2050 DUP2 PUSH2 0x5EDB JUMP JUMPDEST SWAP2 POP POP PUSH2 0x1C8A JUMP JUMPDEST POP PUSH1 0x8 SLOAD DUP3 GT ISZERO PUSH2 0x20C8 JUMPI PUSH1 0x40 MLOAD PUSH3 0x461BCD PUSH1 0xE5 SHL DUP2 MSTORE PUSH1 0x20 PUSH1 0x4 DUP3 ADD MSTORE PUSH1 0x34 PUSH1 0x24 DUP3 ADD MSTORE PUSH32 0x546F74616C207061796F75742073756D206D6F7265207468616E206368616C6C PUSH1 0x44 DUP3 ADD MSTORE PUSH20 0x32B733B2903932BBB0B9323990313AB233B2BA17 PUSH1 0x61 SHL PUSH1 0x64 DUP3 ADD MSTORE PUSH1 0x84 ADD PUSH2 0xDE1 JUMP JUMPDEST PUSH1 0x9 SLOAD DUP2 GT ISZERO PUSH2 0x2138 JUMPI PUSH1 0x40 MLOAD PUSH3 0x461BCD PUSH1 0xE5 SHL DUP2 MSTORE PUSH1 0x20 PUSH1 0x4 DUP3 ADD MSTORE PUSH1 0x35 PUSH1 0x24 DUP3 ADD MSTORE PUSH32 0x546F74616C207061796F75742073756D206D6F7265207468616E20746F75726E PUSH1 0x44 DUP3 ADD MSTORE PUSH21 0x30B6B2B73A103932BBB0B9323990313AB233B2BA17 PUSH1 0x59 SHL PUSH1 0x64 DUP3 ADD MSTORE PUSH1 0x84 ADD PUSH2 0xDE1 JUMP JUMPDEST PUSH2 0x2142 DUP2 DUP4 PUSH2 0x5DC2 JUMP JUMPDEST PUSH1 0x4 PUSH1 0x0 DUP3 DUP3 SLOAD PUSH2 0x2153 SWAP2 SWAP1 PUSH2 0x5E41 JUMP JUMPDEST SWAP1 SWAP2 SSTORE POP PUSH2 0x2163 SWAP1 POP DUP2 DUP4 PUSH2 0x5DC2 JUMP JUMPDEST PUSH1 0x6 PUSH1 0x0 DUP3 DUP3 SLOAD PUSH2 0x2174 SWAP2 SWAP1 PUSH2 0x5DC2 JUMP JUMPDEST SWAP1 SWAP2 SSTORE POP PUSH1 0x1 SWAP4 POP POP DUP1 DUP3 DUP12 PUSH4 0xFFFFFFFF AND PUSH32 0xBFAA8B04C474150ACD696E3DCF684152DEDBD48F4D7E3FC36AD41F2046DE5B6C PUSH1 0x40 MLOAD PUSH1 0x40 MLOAD DUP1 SWAP2 SUB SWAP1 LOG4 POP POP SWAP8 SWAP7 POP POP POP POP POP POP POP JUMP JUMPDEST PUSH1 0x0 PUSH2 0x21CB DUP2 CALLER PUSH2 0x2B51 JUMP JUMPDEST PUSH2 0x2253 JUMPI PUSH1 0x40 MLOAD PUSH3 0x461BCD PUSH1 0xE5 SHL DUP2 MSTORE PUSH1 0x20 PUSH1 0x4 DUP3 ADD MSTORE PUSH1 0x4D PUSH1 0x24 DUP3 ADD MSTORE PUSH32 0x436F6D7065746974696F6E202D20757064617465546F75726E616D656E745265 PUSH1 0x44 DUP3 ADD MSTORE PUSH32 0x776172647350657263656E74616765496E5765693A2043616C6C657220697320 PUSH1 0x64 DUP3 ADD MSTORE PUSH13 0x3AB730BABA3437B934BD32B217 PUSH1 0x99 SHL PUSH1 0x84 DUP3 ADD MSTORE PUSH1 0xA4 ADD PUSH2 0xDE1 JUMP JUMPDEST POP PUSH1 0xB DUP2 SWAP1 SSTORE PUSH1 0x40 MLOAD PUSH1 0x1 SWAP1 DUP3 SWAP1 PUSH32 0x211318E1B6942C96EAAD65D5F6C4C520722236466093427DE4DACB729BD36DFB SWAP1 PUSH1 0x0 SWAP1 LOG2 SWAP2 SWAP1 POP JUMP JUMPDEST PUSH1 0x0 PUSH2 0x2298 DUP2 CALLER PUSH2 0x2B51 JUMP JUMPDEST PUSH2 0x230A JUMPI PUSH1 0x40 MLOAD PUSH3 0x461BCD PUSH1 0xE5 SHL DUP2 MSTORE PUSH1 0x20 PUSH1 0x4 DUP3 ADD MSTORE PUSH1 0x3B PUSH1 0x24 DUP3 ADD MSTORE PUSH32 0x436F6D7065746974696F6E202D207570646174655374616B655468726573686F PUSH1 0x44 DUP3 ADD MSTORE PUSH32 0x6C643A2043616C6C657220697320756E617574686F72697A65642E0000000000 PUSH1 0x64 DUP3 ADD MSTORE PUSH1 0x84 ADD PUSH2 0xDE1 JUMP JUMPDEST POP PUSH1 0x3 DUP2 SWAP1 SSTORE PUSH1 0x40 MLOAD PUSH1 0x1 SWAP1 CALLER SWAP1 DUP4 SWAP1 PUSH32 0xC3DAD8D972694B8A948B4205B1BB45CBB2C73729F86630689E1E41C36A2965FA SWAP1 PUSH1 0x0 SWAP1 LOG3 SWAP2 SWAP1 POP JUMP JUMPDEST PUSH1 0x0 PUSH2 0x2351 DUP2 CALLER PUSH2 0x2B51 JUMP JUMPDEST PUSH2 0x23BA JUMPI PUSH1 0x40 MLOAD PUSH3 0x461BCD PUSH1 0xE5 SHL DUP2 MSTORE PUSH1 0x20 PUSH1 0x4 DUP3 ADD MSTORE PUSH1 0x34 PUSH1 0x24 DUP3 ADD MSTORE PUSH32 0x436F6D7065746974696F6E202D206F70656E4368616C6C656E67653A2043616C PUSH1 0x44 DUP3 ADD MSTORE PUSH20 0x3632B91034B9903AB730BABA3437B934BD32B217 PUSH1 0x61 SHL PUSH1 0x64 DUP3 ADD MSTORE PUSH1 0x84 ADD PUSH2 0xDE1 JUMP JUMPDEST PUSH1 0x2 SLOAD PUSH1 0x1 PUSH1 0xA0 SHL SWAP1 DIV PUSH4 0xFFFFFFFF AND PUSH1 0x0 DUP2 DUP2 MSTORE PUSH1 0xE PUSH1 0x20 MSTORE PUSH1 0x40 SWAP1 KECCAK256 PUSH1 0x5 ADD SLOAD PUSH1 0xFF AND PUSH1 0x4 EQ PUSH2 0x2454 JUMPI PUSH1 0x40 MLOAD PUSH3 0x461BCD PUSH1 0xE5 SHL DUP2 MSTORE PUSH1 0x20 PUSH1 0x4 DUP3 ADD MSTORE PUSH1 0x3A PUSH1 0x24 DUP3 ADD MSTORE PUSH32 0x436F6D7065746974696F6E202D206F70656E4368616C6C656E67653A20507265 PUSH1 0x44 DUP3 ADD MSTORE PUSH32 0x76696F757320706861736520697320696E636F6D706C6574652E000000000000 PUSH1 0x64 DUP3 ADD MSTORE PUSH1 0x84 ADD PUSH2 0xDE1 JUMP JUMPDEST PUSH1 0x5 SLOAD PUSH1 0x4 SLOAD LT ISZERO PUSH2 0x24C0 JUMPI PUSH1 0x40 MLOAD PUSH3 0x461BCD PUSH1 0xE5 SHL DUP2 MSTORE PUSH1 0x20 PUSH1 0x4 DUP3 ADD MSTORE PUSH1 0x2F PUSH1 0x24 DUP3 ADD MSTORE PUSH32 0x436F6D70657469746F6E202D206F70656E4368616C6C656E67653A204E6F7420 PUSH1 0x44 DUP3 ADD MSTORE PUSH15 0x32B737BAB3B4103932BBB0B9323997 PUSH1 0x89 SHL PUSH1 0x64 DUP3 ADD MSTORE PUSH1 0x84 ADD PUSH2 0xDE1 JUMP JUMPDEST DUP1 PUSH2 0x24CA DUP2 PUSH2 0x5EF6 JUMP JUMPDEST PUSH4 0xFFFFFFFF DUP2 AND PUSH1 0x0 DUP2 DUP2 MSTORE PUSH1 0xE PUSH1 0x20 MSTORE PUSH1 0x40 DUP2 KECCAK256 PUSH1 0x5 ADD DUP1 SLOAD PUSH1 0xFF NOT AND PUSH1 0x1 OR SWAP1 SSTORE PUSH1 0x2 DUP1 SLOAD PUSH1 0x1 PUSH1 0xA0 SHL SWAP1 SWAP4 MUL PUSH4 0xFFFFFFFF PUSH1 0xA0 SHL NOT SWAP1 SWAP4 AND SWAP3 SWAP1 SWAP3 OR SWAP1 SWAP2 SSTORE SWAP1 SWAP3 POP PUSH2 0x251C SWAP2 POP DUP3 SWAP1 DUP7 PUSH2 0x5151 JUMP JUMPDEST POP PUSH2 0x2529 DUP2 PUSH1 0x0 DUP6 PUSH2 0x52B1 JUMP JUMPDEST POP PUSH1 0x2 SLOAD PUSH1 0x40 DUP1 MLOAD PUSH4 0xEECAE21 PUSH1 0xE0 SHL DUP2 MSTORE SWAP1 MLOAD PUSH1 0x0 SWAP3 PUSH1 0x1 PUSH1 0x1 PUSH1 0xA0 SHL SUB AND SWAP2 PUSH4 0xEECAE21 SWAP2 PUSH1 0x4 DUP1 DUP4 ADD SWAP3 PUSH1 0x20 SWAP3 SWAP2 SWAP1 DUP3 SWAP1 SUB ADD DUP2 DUP8 DUP8 DUP1 EXTCODESIZE ISZERO DUP1 ISZERO PUSH2 0x2570 JUMPI PUSH1 0x0 DUP1 REVERT JUMPDEST POP GAS CALL ISZERO DUP1 ISZERO PUSH2 0x2584 JUMPI RETURNDATASIZE PUSH1 0x0 DUP1 RETURNDATACOPY RETURNDATASIZE PUSH1 0x0 REVERT JUMPDEST POP POP POP POP PUSH1 0x40 MLOAD RETURNDATASIZE PUSH1 0x1F NOT PUSH1 0x1F DUP3 ADD AND DUP3 ADD DUP1 PUSH1 0x40 MSTORE POP DUP2 ADD SWAP1 PUSH2 0x25A8 SWAP2 SWAP1 PUSH2 0x5999 JUMP JUMPDEST SWAP1 POP DUP1 ISZERO PUSH2 0x25C8 JUMPI DUP1 PUSH1 0x4 PUSH1 0x0 DUP3 DUP3 SLOAD PUSH2 0x25C2 SWAP2 SWAP1 PUSH2 0x5DC2 JUMP JUMPDEST SWAP1 SWAP2 SSTORE POP POP JUMPDEST PUSH8 0xDE0B6B3A7640000 PUSH1 0xA SLOAD PUSH1 0x4 SLOAD PUSH2 0x25E1 SWAP2 SWAP1 PUSH2 0x5E22 JUMP JUMPDEST PUSH2 0x25EB SWAP2 SWAP1 PUSH2 0x5E02 JUMP JUMPDEST PUSH1 0x8 SSTORE PUSH1 0xB SLOAD PUSH1 0x4 SLOAD PUSH8 0xDE0B6B3A7640000 SWAP2 PUSH2 0x2607 SWAP2 PUSH2 0x5E22 JUMP JUMPDEST PUSH2 0x2611 SWAP2 SWAP1 PUSH2 0x5E02 JUMP JUMPDEST PUSH1 0x9 DUP2 SWAP1 SSTORE PUSH1 0x8 SLOAD PUSH1 0x4 SLOAD PUSH2 0x2626 SWAP2 SWAP1 PUSH2 0x5E41 JUMP JUMPDEST PUSH2 0x2630 SWAP2 SWAP1 PUSH2 0x5E41 JUMP JUMPDEST PUSH1 0x7 SSTORE PUSH1 0x40 MLOAD PUSH1 0x1 SWAP4 POP PUSH4 0xFFFFFFFF DUP4 AND SWAP1 PUSH32 0x9DA6F4CD0F617F153C3EBC9840A08792CFF9F0FD8C796CE09C5D2006F42DA6D9 SWAP1 PUSH1 0x0 SWAP1 LOG2 POP POP SWAP3 SWAP2 POP POP JUMP JUMPDEST PUSH1 0x60 PUSH1 0x0 DUP4 PUSH2 0x2680 DUP5 PUSH1 0x1 PUSH2 0x5DDA JUMP JUMPDEST PUSH2 0x268A SWAP2 SWAP1 PUSH2 0x5E58 JUMP JUMPDEST PUSH4 0xFFFFFFFF AND PUSH1 0x1 PUSH1 0x1 PUSH1 0x40 SHL SUB DUP2 GT ISZERO PUSH2 0x26B5 JUMPI PUSH4 0x4E487B71 PUSH1 0xE0 SHL PUSH1 0x0 MSTORE PUSH1 0x41 PUSH1 0x4 MSTORE PUSH1 0x24 PUSH1 0x0 REVERT JUMPDEST PUSH1 0x40 MLOAD SWAP1 DUP1 DUP3 MSTORE DUP1 PUSH1 0x20 MUL PUSH1 0x20 ADD DUP3 ADD PUSH1 0x40 MSTORE DUP1 ISZERO PUSH2 0x26DE JUMPI DUP2 PUSH1 0x20 ADD PUSH1 0x20 DUP3 MUL DUP1 CALLDATASIZE DUP4 CALLDATACOPY ADD SWAP1 POP JUMPDEST POP SWAP1 POP DUP4 JUMPDEST DUP4 PUSH4 0xFFFFFFFF AND DUP2 PUSH4 0xFFFFFFFF AND GT PUSH2 0x275B JUMPI PUSH4 0xFFFFFFFF DUP2 AND PUSH1 0x0 SWAP1 DUP2 MSTORE PUSH1 0xE PUSH1 0x20 MSTORE PUSH1 0x40 SWAP1 KECCAK256 PUSH1 0x8 ADD SLOAD DUP3 PUSH2 0x271A DUP8 DUP5 PUSH2 0x5E58 JUMP JUMPDEST PUSH4 0xFFFFFFFF AND DUP2 MLOAD DUP2 LT PUSH2 0x273E JUMPI PUSH4 0x4E487B71 PUSH1 0xE0 SHL PUSH1 0x0 MSTORE PUSH1 0x32 PUSH1 0x4 MSTORE PUSH1 0x24 PUSH1 0x0 REVERT JUMPDEST PUSH1 0x20 SWAP1 DUP2 MUL SWAP2 SWAP1 SWAP2 ADD ADD MSTORE DUP1 PUSH2 0x2753 DUP2 PUSH2 0x5EF6 JUMP JUMPDEST SWAP2 POP POP PUSH2 0x26E3 JUMP JUMPDEST POP SWAP4 SWAP3 POP POP POP JUMP JUMPDEST PUSH1 0x0 PUSH2 0x276F DUP2 CALLER PUSH2 0x2B51 JUMP JUMPDEST PUSH2 0x27D4 JUMPI PUSH1 0x40 MLOAD PUSH3 0x461BCD PUSH1 0xE5 SHL DUP2 MSTORE PUSH1 0x20 PUSH1 0x4 DUP3 ADD MSTORE PUSH1 0x30 PUSH1 0x24 DUP3 ADD MSTORE PUSH32 0x436F6D7065746974696F6E202D207570646174654B65793A2043616C6C657220 PUSH1 0x44 DUP3 ADD MSTORE PUSH16 0x34B9903AB730BABA3437B934BD32B217 PUSH1 0x81 SHL PUSH1 0x64 DUP3 ADD MSTORE PUSH1 0x84 ADD PUSH2 0xDE1 JUMP JUMPDEST PUSH1 0x2 SLOAD PUSH4 0xFFFFFFFF PUSH1 0x1 PUSH1 0xA0 SHL SWAP1 SWAP2 DIV AND PUSH1 0x0 DUP2 DUP2 MSTORE PUSH1 0xE PUSH1 0x20 MSTORE PUSH1 0x40 SWAP1 KECCAK256 PUSH1 0x5 ADD SLOAD PUSH1 0xFF AND PUSH1 0x1 EQ PUSH2 0x285F JUMPI PUSH1 0x40 MLOAD PUSH3 0x461BCD PUSH1 0xE5 SHL DUP2 MSTORE PUSH1 0x20 PUSH1 0x4 DUP3 ADD MSTORE PUSH1 0x2D PUSH1 0x24 DUP3 ADD MSTORE PUSH32 0x436F6D7065746974696F6E202D207570646174654B65793A204368616C6C656E PUSH1 0x44 DUP3 ADD MSTORE PUSH13 0x33B29034B99031B637B9B2B217 PUSH1 0x99 SHL PUSH1 0x64 DUP3 ADD MSTORE PUSH1 0x84 ADD PUSH2 0xDE1 JUMP JUMPDEST DUP4 PUSH2 0x28C9 JUMPI PUSH1 0x40 MLOAD PUSH3 0x461BCD PUSH1 0xE5 SHL DUP2 MSTORE PUSH1 0x20 PUSH1 0x4 DUP3 ADD MSTORE PUSH1 0x34 PUSH1 0x24 DUP3 ADD MSTORE PUSH32 0x436F6D7065746974696F6E202D207570646174654B65793A204D757374206861 PUSH1 0x44 DUP3 ADD MSTORE PUSH20 0x3B329038393296B2BC34B9BA34B7339035B2BC97 PUSH1 0x61 SHL PUSH1 0x64 DUP3 ADD MSTORE PUSH1 0x84 ADD PUSH2 0xDE1 JUMP JUMPDEST PUSH2 0x17CE DUP2 DUP6 DUP6 PUSH2 0x52B1 JUMP JUMPDEST PUSH1 0x2 SLOAD PUSH1 0x1 PUSH1 0xA0 SHL SWAP1 DIV PUSH4 0xFFFFFFFF AND PUSH1 0x0 SWAP1 DUP2 MSTORE PUSH1 0xE PUSH1 0x20 SWAP1 DUP2 MSTORE PUSH1 0x40 DUP1 DUP4 KECCAK256 PUSH1 0x4 ADD SLOAD PUSH1 0x1 PUSH1 0x1 PUSH1 0xA0 SHL SUB DUP6 AND DUP5 MSTORE PUSH1 0xD SWAP1 SWAP3 MSTORE DUP3 KECCAK256 SLOAD PUSH1 0x7 SLOAD PUSH2 0x291A SWAP2 SWAP1 PUSH2 0x5E22 JUMP JUMPDEST PUSH2 0xD6A SWAP2 SWAP1 PUSH2 0x5E02 JUMP JUMPDEST PUSH1 0x0 PUSH2 0x2930 DUP2 CALLER PUSH2 0x2B51 JUMP JUMPDEST PUSH2 0x29B7 JUMPI PUSH1 0x40 MLOAD PUSH3 0x461BCD PUSH1 0xE5 SHL DUP2 MSTORE PUSH1 0x20 PUSH1 0x4 DUP3 ADD MSTORE PUSH1 0x4C PUSH1 0x24 DUP3 ADD MSTORE PUSH32 0x436F6D7065746974696F6E202D207570646174654368616C6C656E6765526577 PUSH1 0x44 DUP3 ADD MSTORE PUSH32 0x6172647350657263656E74616765496E5765693A2043616C6C65722069732075 PUSH1 0x64 DUP3 ADD MSTORE PUSH12 0x3730BABA3437B934BD32B217 PUSH1 0xA1 SHL PUSH1 0x84 DUP3 ADD MSTORE PUSH1 0xA4 ADD PUSH2 0xDE1 JUMP JUMPDEST POP PUSH1 0xA DUP2 SWAP1 SSTORE PUSH1 0x40 MLOAD PUSH1 0x1 SWAP1 DUP3 SWAP1 PUSH32 0x94327140B3BB3BB989865FEF53B345CD1DDD7991B30E3233137AB646448FBEB5 SWAP1 PUSH1 0x0 SWAP1 LOG2 SWAP2 SWAP1 POP JUMP JUMPDEST PUSH1 0x60 PUSH1 0x0 DUP4 PUSH2 0x2A00 DUP5 PUSH1 0x1 PUSH2 0x5DDA JUMP JUMPDEST PUSH2 0x2A0A SWAP2 SWAP1 PUSH2 0x5E58 JUMP JUMPDEST PUSH4 0xFFFFFFFF AND PUSH1 0x1 PUSH1 0x1 PUSH1 0x40 SHL SUB DUP2 GT ISZERO PUSH2 0x2A35 JUMPI PUSH4 0x4E487B71 PUSH1 0xE0 SHL PUSH1 0x0 MSTORE PUSH1 0x41 PUSH1 0x4 MSTORE PUSH1 0x24 PUSH1 0x0 REVERT JUMPDEST PUSH1 0x40 MLOAD SWAP1 DUP1 DUP3 MSTORE DUP1 PUSH1 0x20 MUL PUSH1 0x20 ADD DUP3 ADD PUSH1 0x40 MSTORE DUP1 ISZERO PUSH2 0x2A5E JUMPI DUP2 PUSH1 0x20 ADD PUSH1 0x20 DUP3 MUL DUP1 CALLDATASIZE DUP4 CALLDATACOPY ADD SWAP1 POP JUMPDEST POP SWAP1 POP DUP4 JUMPDEST DUP4 PUSH4 0xFFFFFFFF AND DUP2 PUSH4 0xFFFFFFFF AND GT PUSH2 0x275B JUMPI PUSH4 0xFFFFFFFF DUP2 AND PUSH1 0x0 SWAP1 DUP2 MSTORE PUSH1 0xE PUSH1 0x20 MSTORE PUSH1 0x40 SWAP1 KECCAK256 PUSH1 0x4 ADD SLOAD DUP3 PUSH2 0x2A9A DUP8 DUP5 PUSH2 0x5E58 JUMP JUMPDEST PUSH4 0xFFFFFFFF AND DUP2 MLOAD DUP2 LT PUSH2 0x2ABE JUMPI PUSH4 0x4E487B71 PUSH1 0xE0 SHL PUSH1 0x0 MSTORE PUSH1 0x32 PUSH1 0x4 MSTORE PUSH1 0x24 PUSH1 0x0 REVERT JUMPDEST PUSH1 0x20 SWAP1 DUP2 MUL SWAP2 SWAP1 SWAP2 ADD ADD MSTORE DUP1 PUSH2 0x2AD3 DUP2 PUSH2 0x5EF6 JUMP JUMPDEST SWAP2 POP POP PUSH2 0x2A63 JUMP JUMPDEST PUSH4 0xFFFFFFFF DUP2 AND PUSH1 0x0 SWAP1 DUP2 MSTORE PUSH1 0xE PUSH1 0x20 SWAP1 DUP2 MSTORE PUSH1 0x40 SWAP2 DUP3 SWAP1 KECCAK256 PUSH1 0x8 ADD DUP1 SLOAD DUP4 MLOAD DUP2 DUP5 MUL DUP2 ADD DUP5 ADD SWAP1 SWAP5 MSTORE DUP1 DUP5 MSTORE PUSH1 0x60 SWAP4 SWAP3 DUP4 ADD DUP3 DUP3 DUP1 ISZERO PUSH2 0x2B45 JUMPI PUSH1 0x20 MUL DUP3 ADD SWAP2 SWAP1 PUSH1 0x0 MSTORE PUSH1 0x20 PUSH1 0x0 KECCAK256 SWAP1 JUMPDEST DUP2 SLOAD PUSH1 0x1 PUSH1 0x1 PUSH1 0xA0 SHL SUB AND DUP2 MSTORE PUSH1 0x1 SWAP1 SWAP2 ADD SWAP1 PUSH1 0x20 ADD DUP1 DUP4 GT PUSH2 0x2B27 JUMPI JUMPDEST POP POP POP POP POP SWAP1 POP SWAP2 SWAP1 POP JUMP JUMPDEST PUSH1 0x0 SWAP2 DUP3 MSTORE PUSH1 0x20 DUP3 DUP2 MSTORE PUSH1 0x40 DUP1 DUP5 KECCAK256 PUSH1 0x1 PUSH1 0x1 PUSH1 0xA0 SHL SUB SWAP4 SWAP1 SWAP4 AND DUP5 MSTORE SWAP2 SWAP1 MSTORE SWAP1 KECCAK256 SLOAD PUSH1 0xFF AND SWAP1 JUMP JUMPDEST PUSH1 0x2 SLOAD PUSH1 0x0 SWAP1 PUSH2 0x2B9C SWAP1 PUSH1 0x1 PUSH1 0xA0 SHL SWAP1 DIV PUSH4 0xFFFFFFFF AND DUP9 DUP9 DUP9 DUP9 DUP9 DUP9 PUSH2 0x41D0 JUMP JUMPDEST SWAP8 SWAP7 POP POP POP POP POP POP POP JUMP JUMPDEST PUSH4 0xFFFFFFFF DUP3 AND PUSH1 0x0 SWAP1 DUP2 MSTORE PUSH1 0xE PUSH1 0x20 SWAP1 DUP2 MSTORE PUSH1 0x40 DUP1 DUP4 KECCAK256 PUSH1 0x1 PUSH1 0x1 PUSH1 0xA0 SHL SUB DUP6 AND DUP5 MSTORE PUSH1 0x6 ADD SWAP1 SWAP2 MSTORE DUP2 KECCAK256 PUSH1 0x4 DUP2 ADD SLOAD PUSH1 0x3 DUP3 ADD SLOAD PUSH1 0x2 SWAP1 SWAP3 ADD SLOAD SWAP1 SWAP2 PUSH2 0x2BEE SWAP2 PUSH2 0x5DC2 JUMP JUMPDEST PUSH2 0x2BF8 SWAP2 SWAP1 PUSH2 0x5DC2 JUMP JUMPDEST SWAP4 SWAP3 POP POP POP JUMP JUMPDEST PUSH1 0x60 PUSH1 0x0 DUP5 PUSH2 0x2C0F DUP6 PUSH1 0x1 PUSH2 0x5DDA JUMP JUMPDEST PUSH2 0x2C19 SWAP2 SWAP1 PUSH2 0x5E58 JUMP JUMPDEST PUSH4 0xFFFFFFFF AND PUSH1 0x1 PUSH1 0x1 PUSH1 0x40 SHL SUB DUP2 GT ISZERO PUSH2 0x2C44 JUMPI PUSH4 0x4E487B71 PUSH1 0xE0 SHL PUSH1 0x0 MSTORE PUSH1 0x41 PUSH1 0x4 MSTORE PUSH1 0x24 PUSH1 0x0 REVERT JUMPDEST PUSH1 0x40 MLOAD SWAP1 DUP1 DUP3 MSTORE DUP1 PUSH1 0x20 MUL PUSH1 0x20 ADD DUP3 ADD PUSH1 0x40 MSTORE DUP1 ISZERO PUSH2 0x2C6D JUMPI DUP2 PUSH1 0x20 ADD PUSH1 0x20 DUP3 MUL DUP1 CALLDATASIZE DUP4 CALLDATACOPY ADD SWAP1 POP JUMPDEST POP SWAP1 POP DUP5 JUMPDEST DUP5 PUSH4 0xFFFFFFFF AND DUP2 PUSH4 0xFFFFFFFF AND GT PUSH2 0xF2C JUMPI PUSH4 0xFFFFFFFF DUP2 AND PUSH1 0x0 SWAP1 DUP2 MSTORE PUSH1 0xE PUSH1 0x20 SWAP1 DUP2 MSTORE PUSH1 0x40 DUP1 DUP4 KECCAK256 PUSH1 0x1 PUSH1 0x1 PUSH1 0xA0 SHL SUB DUP9 AND DUP5 MSTORE PUSH1 0x6 SWAP1 DUP2 ADD SWAP1 SWAP3 MSTORE SWAP1 SWAP2 KECCAK256 ADD SLOAD DUP3 PUSH2 0x2CC1 DUP9 DUP5 PUSH2 0x5E58 JUMP JUMPDEST PUSH4 0xFFFFFFFF AND DUP2 MLOAD DUP2 LT PUSH2 0x2CE5 JUMPI PUSH4 0x4E487B71 PUSH1 0xE0 SHL PUSH1 0x0 MSTORE PUSH1 0x32 PUSH1 0x4 MSTORE PUSH1 0x24 PUSH1 0x0 REVERT JUMPDEST PUSH1 0x20 SWAP1 DUP2 MUL SWAP2 SWAP1 SWAP2 ADD ADD MSTORE DUP1 PUSH2 0x2CFA DUP2 PUSH2 0x5EF6 JUMP JUMPDEST SWAP2 POP POP PUSH2 0x2C72 JUMP JUMPDEST PUSH1 0x0 PUSH2 0x2D0E DUP2 DUP4 PUSH2 0x540D JUMP JUMPDEST CALLER PUSH1 0x0 SWAP1 DUP2 MSTORE PUSH1 0xD PUSH1 0x20 MSTORE PUSH1 0x40 SWAP1 KECCAK256 SLOAD PUSH1 0x3 SLOAD SWAP2 SWAP3 POP SWAP1 DUP2 LT ISZERO PUSH2 0x2D9A JUMPI PUSH1 0x40 MLOAD PUSH3 0x461BCD PUSH1 0xE5 SHL DUP2 MSTORE PUSH1 0x20 PUSH1 0x4 DUP3 ADD MSTORE PUSH1 0x3D PUSH1 0x24 DUP3 ADD MSTORE PUSH32 0x436F6D7065746974696F6E202D207375626D69744E657750726564696374696F PUSH1 0x44 DUP3 ADD MSTORE PUSH32 0x6E733A205374616B652069732062656C6F77207468726573686F6C642E000000 PUSH1 0x64 DUP3 ADD MSTORE PUSH1 0x84 ADD PUSH2 0xDE1 JUMP JUMPDEST PUSH4 0xFFFFFFFF DUP3 AND PUSH1 0x0 SWAP1 DUP2 MSTORE PUSH1 0xE PUSH1 0x20 SWAP1 DUP2 MSTORE PUSH1 0x40 DUP1 DUP4 KECCAK256 PUSH1 0x8 DUP2 ADD DUP1 SLOAD PUSH1 0x1 DUP2 DUP2 ADD DUP4 SSTORE SWAP2 DUP7 MSTORE DUP5 DUP7 KECCAK256 ADD DUP1 SLOAD PUSH1 0x1 PUSH1 0x1 PUSH1 0xA0 SHL SUB NOT AND CALLER SWAP1 DUP2 OR SWAP1 SWAP2 SSTORE DUP6 MSTORE PUSH1 0x6 SWAP1 SWAP2 ADD SWAP1 SWAP3 MSTORE SWAP1 SWAP2 KECCAK256 ADD SSTORE SWAP2 SWAP1 POP JUMP JUMPDEST PUSH1 0x60 PUSH1 0x0 DUP4 PUSH2 0x2DFD DUP5 PUSH1 0x1 PUSH2 0x5DDA JUMP JUMPDEST PUSH2 0x2E07 SWAP2 SWAP1 PUSH2 0x5E58 JUMP JUMPDEST PUSH4 0xFFFFFFFF AND PUSH1 0x1 PUSH1 0x1 PUSH1 0x40 SHL SUB DUP2 GT ISZERO PUSH2 0x2E32 JUMPI PUSH4 0x4E487B71 PUSH1 0xE0 SHL PUSH1 0x0 MSTORE PUSH1 0x41 PUSH1 0x4 MSTORE PUSH1 0x24 PUSH1 0x0 REVERT JUMPDEST PUSH1 0x40 MLOAD SWAP1 DUP1 DUP3 MSTORE DUP1 PUSH1 0x20 MUL PUSH1 0x20 ADD DUP3 ADD PUSH1 0x40 MSTORE DUP1 ISZERO PUSH2 0x2E5B JUMPI DUP2 PUSH1 0x20 ADD PUSH1 0x20 DUP3 MUL DUP1 CALLDATASIZE DUP4 CALLDATACOPY ADD SWAP1 POP JUMPDEST POP SWAP1 POP DUP4 JUMPDEST DUP4 PUSH4 0xFFFFFFFF AND DUP2 PUSH4 0xFFFFFFFF AND GT PUSH2 0x275B JUMPI PUSH4 0xFFFFFFFF DUP2 AND PUSH1 0x0 SWAP1 DUP2 MSTORE PUSH1 0xE PUSH1 0x20 MSTORE PUSH1 0x40 SWAP1 KECCAK256 PUSH1 0x2 ADD SLOAD DUP3 PUSH2 0x2E97 DUP8 DUP5 PUSH2 0x5E58 JUMP JUMPDEST PUSH4 0xFFFFFFFF AND DUP2 MLOAD DUP2 LT PUSH2 0x2EBB JUMPI PUSH4 0x4E487B71 PUSH1 0xE0 SHL PUSH1 0x0 MSTORE PUSH1 0x32 PUSH1 0x4 MSTORE PUSH1 0x24 PUSH1 0x0 REVERT JUMPDEST PUSH1 0x20 SWAP1 DUP2 MUL SWAP2 SWAP1 SWAP2 ADD ADD MSTORE DUP1 PUSH2 0x2ED0 DUP2 PUSH2 0x5EF6 JUMP JUMPDEST SWAP2 POP POP PUSH2 0x2E60 JUMP JUMPDEST PUSH1 0x60 PUSH1 0x0 DUP5 PUSH2 0x2EE8 DUP6 PUSH1 0x1 PUSH2 0x5DDA JUMP JUMPDEST PUSH2 0x2EF2 SWAP2 SWAP1 PUSH2 0x5E58 JUMP JUMPDEST PUSH4 0xFFFFFFFF AND PUSH1 0x1 PUSH1 0x1 PUSH1 0x40 SHL SUB DUP2 GT ISZERO PUSH2 0x2F1D JUMPI PUSH4 0x4E487B71 PUSH1 0xE0 SHL PUSH1 0x0 MSTORE PUSH1 0x41 PUSH1 0x4 MSTORE PUSH1 0x24 PUSH1 0x0 REVERT JUMPDEST PUSH1 0x40 MLOAD SWAP1 DUP1 DUP3 MSTORE DUP1 PUSH1 0x20 MUL PUSH1 0x20 ADD DUP3 ADD PUSH1 0x40 MSTORE DUP1 ISZERO PUSH2 0x2F46 JUMPI DUP2 PUSH1 0x20 ADD PUSH1 0x20 DUP3 MUL DUP1 CALLDATASIZE DUP4 CALLDATACOPY ADD SWAP1 POP JUMPDEST POP SWAP1 POP DUP5 JUMPDEST DUP5 PUSH4 0xFFFFFFFF AND DUP2 PUSH4 0xFFFFFFFF AND GT PUSH2 0xF2C JUMPI PUSH4 0xFFFFFFFF DUP2 AND PUSH1 0x0 SWAP1 DUP2 MSTORE PUSH1 0xE PUSH1 0x20 SWAP1 DUP2 MSTORE PUSH1 0x40 DUP1 DUP4 KECCAK256 PUSH1 0x1 PUSH1 0x1 PUSH1 0xA0 SHL SUB DUP9 AND DUP5 MSTORE PUSH1 0x6 ADD SWAP1 SWAP2 MSTORE SWAP1 KECCAK256 PUSH1 0x2 ADD SLOAD DUP3 PUSH2 0x2F99 DUP9 DUP5 PUSH2 0x5E58 JUMP JUMPDEST PUSH4 0xFFFFFFFF AND DUP2 MLOAD DUP2 LT PUSH2 0x2FBD JUMPI PUSH4 0x4E487B71 PUSH1 0xE0 SHL PUSH1 0x0 MSTORE PUSH1 0x32 PUSH1 0x4 MSTORE PUSH1 0x24 PUSH1 0x0 REVERT JUMPDEST PUSH1 0x20 SWAP1 DUP2 MUL SWAP2 SWAP1 SWAP2 ADD ADD MSTORE DUP1 PUSH2 0x2FD2 DUP2 PUSH2 0x5EF6 JUMP JUMPDEST SWAP2 POP POP PUSH2 0x2F4B JUMP JUMPDEST PUSH1 0x0 PUSH2 0x2FE6 DUP2 CALLER PUSH2 0x2B51 JUMP JUMPDEST PUSH2 0x3058 JUMPI PUSH1 0x40 MLOAD PUSH3 0x461BCD PUSH1 0xE5 SHL DUP2 MSTORE PUSH1 0x20 PUSH1 0x4 DUP3 ADD MSTORE PUSH1 0x38 PUSH1 0x24 DUP3 ADD MSTORE PUSH32 0x436F6D7065746974696F6E202D207061795374616B696E67526577617264733A PUSH1 0x44 DUP3 ADD MSTORE PUSH32 0x2043616C6C657220697320756E617574686F72697A65642E0000000000000000 PUSH1 0x64 DUP3 ADD MSTORE PUSH1 0x84 ADD PUSH2 0xDE1 JUMP JUMPDEST PUSH4 0xFFFFFFFF DUP7 AND PUSH1 0x0 SWAP1 DUP2 MSTORE PUSH1 0xE PUSH1 0x20 MSTORE PUSH1 0x40 SWAP1 KECCAK256 PUSH1 0x5 ADD SLOAD PUSH1 0xFF AND PUSH1 0x2 EQ PUSH2 0x30F4 JUMPI PUSH1 0x40 MLOAD PUSH3 0x461BCD PUSH1 0xE5 SHL DUP2 MSTORE PUSH1 0x20 PUSH1 0x4 DUP3 ADD MSTORE PUSH1 0x42 PUSH1 0x24 DUP3 ADD MSTORE PUSH32 0x436F6D7065746974696F6E202D207061795374616B696E67526577617264733A PUSH1 0x44 DUP3 ADD MSTORE PUSH32 0x204368616C6C656E676520697320696E20756E65787065637465642073746174 PUSH1 0x64 DUP3 ADD MSTORE PUSH2 0x3297 PUSH1 0xF1 SHL PUSH1 0x84 DUP3 ADD MSTORE PUSH1 0xA4 ADD PUSH2 0xDE1 JUMP JUMPDEST DUP4 DUP3 EQ PUSH2 0x3184 JUMPI PUSH1 0x40 MLOAD PUSH3 0x461BCD PUSH1 0xE5 SHL DUP2 MSTORE PUSH1 0x20 PUSH1 0x4 DUP3 ADD MSTORE PUSH1 0x52 PUSH1 0x24 DUP3 ADD MSTORE PUSH32 0x436F6D7065746974696F6E202D207061795374616B696E67526577617264733A PUSH1 0x44 DUP3 ADD MSTORE PUSH32 0x204E756D626572206F66207061727469636970616E747320616E642072657761 PUSH1 0x64 DUP3 ADD MSTORE PUSH18 0x3932399030B932903234B33332B932B73A17 PUSH1 0x71 SHL PUSH1 0x84 DUP3 ADD MSTORE PUSH1 0xA4 ADD PUSH2 0xDE1 JUMP JUMPDEST PUSH1 0x0 DUP1 JUMPDEST DUP6 DUP2 LT ISZERO PUSH2 0x33B4 JUMPI DUP5 DUP5 DUP3 DUP2 DUP2 LT PUSH2 0x31B0 JUMPI PUSH4 0x4E487B71 PUSH1 0xE0 SHL PUSH1 0x0 MSTORE PUSH1 0x32 PUSH1 0x4 MSTORE PUSH1 0x24 PUSH1 0x0 REVERT JUMPDEST SWAP1 POP PUSH1 0x20 MUL ADD CALLDATALOAD PUSH1 0xD PUSH1 0x0 DUP10 DUP10 DUP6 DUP2 DUP2 LT PUSH2 0x31DB JUMPI PUSH4 0x4E487B71 PUSH1 0xE0 SHL PUSH1 0x0 MSTORE PUSH1 0x32 PUSH1 0x4 MSTORE PUSH1 0x24 PUSH1 0x0 REVERT JUMPDEST SWAP1 POP PUSH1 0x20 MUL ADD PUSH1 0x20 DUP2 ADD SWAP1 PUSH2 0x31F0 SWAP2 SWAP1 PUSH2 0x576A JUMP JUMPDEST PUSH1 0x1 PUSH1 0x1 PUSH1 0xA0 SHL SUB AND PUSH1 0x1 PUSH1 0x1 PUSH1 0xA0 SHL SUB AND DUP2 MSTORE PUSH1 0x20 ADD SWAP1 DUP2 MSTORE PUSH1 0x20 ADD PUSH1 0x0 KECCAK256 PUSH1 0x0 DUP3 DUP3 SLOAD PUSH2 0x321F SWAP2 SWAP1 PUSH2 0x5DC2 JUMP JUMPDEST SWAP1 SWAP2 SSTORE POP DUP6 SWAP1 POP DUP5 DUP3 DUP2 DUP2 LT PUSH2 0x3245 JUMPI PUSH4 0x4E487B71 PUSH1 0xE0 SHL PUSH1 0x0 MSTORE PUSH1 0x32 PUSH1 0x4 MSTORE PUSH1 0x24 PUSH1 0x0 REVERT JUMPDEST SWAP1 POP PUSH1 0x20 MUL ADD CALLDATALOAD DUP3 PUSH2 0x3257 SWAP2 SWAP1 PUSH2 0x5DC2 JUMP JUMPDEST SWAP2 POP DUP5 DUP5 DUP3 DUP2 DUP2 LT PUSH2 0x3279 JUMPI PUSH4 0x4E487B71 PUSH1 0xE0 SHL PUSH1 0x0 MSTORE PUSH1 0x32 PUSH1 0x4 MSTORE PUSH1 0x24 PUSH1 0x0 REVERT JUMPDEST SWAP1 POP PUSH1 0x20 MUL ADD CALLDATALOAD PUSH1 0xE PUSH1 0x0 DUP11 PUSH4 0xFFFFFFFF AND PUSH4 0xFFFFFFFF AND DUP2 MSTORE PUSH1 0x20 ADD SWAP1 DUP2 MSTORE PUSH1 0x20 ADD PUSH1 0x0 KECCAK256 PUSH1 0x6 ADD PUSH1 0x0 DUP10 DUP10 DUP6 DUP2 DUP2 LT PUSH2 0x32C4 JUMPI PUSH4 0x4E487B71 PUSH1 0xE0 SHL PUSH1 0x0 MSTORE PUSH1 0x32 PUSH1 0x4 MSTORE PUSH1 0x24 PUSH1 0x0 REVERT JUMPDEST SWAP1 POP PUSH1 0x20 MUL ADD PUSH1 0x20 DUP2 ADD SWAP1 PUSH2 0x32D9 SWAP2 SWAP1 PUSH2 0x576A JUMP JUMPDEST PUSH1 0x1 PUSH1 0x1 PUSH1 0xA0 SHL SUB AND PUSH1 0x1 PUSH1 0x1 PUSH1 0xA0 SHL SUB AND DUP2 MSTORE PUSH1 0x20 ADD SWAP1 DUP2 MSTORE PUSH1 0x20 ADD PUSH1 0x0 KECCAK256 PUSH1 0x2 ADD PUSH1 0x0 DUP3 DUP3 SLOAD PUSH2 0x330B SWAP2 SWAP1 PUSH2 0x5DC2 JUMP JUMPDEST SWAP1 SWAP2 SSTORE POP DUP6 SWAP1 POP DUP5 DUP3 DUP2 DUP2 LT PUSH2 0x3331 JUMPI PUSH4 0x4E487B71 PUSH1 0xE0 SHL PUSH1 0x0 MSTORE PUSH1 0x32 PUSH1 0x4 MSTORE PUSH1 0x24 PUSH1 0x0 REVERT JUMPDEST SWAP1 POP PUSH1 0x20 MUL ADD CALLDATALOAD DUP8 DUP8 DUP4 DUP2 DUP2 LT PUSH2 0x3358 JUMPI PUSH4 0x4E487B71 PUSH1 0xE0 SHL PUSH1 0x0 MSTORE PUSH1 0x32 PUSH1 0x4 MSTORE PUSH1 0x24 PUSH1 0x0 REVERT JUMPDEST SWAP1 POP PUSH1 0x20 MUL ADD PUSH1 0x20 DUP2 ADD SWAP1 PUSH2 0x336D SWAP2 SWAP1 PUSH2 0x576A JUMP JUMPDEST PUSH1 0x1 PUSH1 0x1 PUSH1 0xA0 SHL SUB AND PUSH32 0x6132076A840070359367C4279185181DB454EAE48A2C6C661E56F50FF312E044 PUSH1 0x40 MLOAD PUSH1 0x40 MLOAD DUP1 SWAP2 SUB SWAP1 LOG3 DUP1 PUSH2 0x33AC DUP2 PUSH2 0x5EDB JUMP JUMPDEST SWAP2 POP POP PUSH2 0x3188 JUMP JUMPDEST POP PUSH1 0x7 SLOAD DUP2 GT ISZERO PUSH2 0x3422 JUMPI PUSH1 0x40 MLOAD PUSH3 0x461BCD PUSH1 0xE5 SHL DUP2 MSTORE PUSH1 0x20 PUSH1 0x4 DUP3 ADD MSTORE PUSH1 0x32 PUSH1 0x24 DUP3 ADD MSTORE PUSH32 0x546F74616C207061796F75742073756D206D6F7265207468616E207374616B69 PUSH1 0x44 DUP3 ADD MSTORE PUSH18 0x3733903932BBB0B9323990313AB233B2BA17 PUSH1 0x71 SHL PUSH1 0x64 DUP3 ADD MSTORE PUSH1 0x84 ADD PUSH2 0xDE1 JUMP JUMPDEST DUP1 PUSH1 0x4 PUSH1 0x0 DUP3 DUP3 SLOAD PUSH2 0x3434 SWAP2 SWAP1 PUSH2 0x5E41 JUMP JUMPDEST SWAP3 POP POP DUP2 SWAP1 SSTORE POP DUP1 PUSH1 0x6 PUSH1 0x0 DUP3 DUP3 SLOAD PUSH2 0x344D SWAP2 SWAP1 PUSH2 0x5DC2 JUMP JUMPDEST SWAP1 SWAP2 SSTORE POP PUSH1 0x1 SWAP3 POP POP PUSH1 0x40 MLOAD DUP2 SWAP1 PUSH4 0xFFFFFFFF DUP10 AND SWAP1 PUSH32 0xC3168F2E7FDEFCB5CB67CFB93778F32D4B25929F83D45E1BB44339F2161BA7F6 SWAP1 PUSH1 0x0 SWAP1 LOG3 POP SWAP6 SWAP5 POP POP POP POP POP JUMP JUMPDEST PUSH1 0x60 PUSH1 0x0 DUP4 PUSH2 0x34A3 DUP5 PUSH1 0x1 PUSH2 0x5DDA JUMP JUMPDEST PUSH2 0x34AD SWAP2 SWAP1 PUSH2 0x5E58 JUMP JUMPDEST PUSH4 0xFFFFFFFF AND PUSH1 0x1 PUSH1 0x1 PUSH1 0x40 SHL SUB DUP2 GT ISZERO PUSH2 0x34D8 JUMPI PUSH4 0x4E487B71 PUSH1 0xE0 SHL PUSH1 0x0 MSTORE PUSH1 0x41 PUSH1 0x4 MSTORE PUSH1 0x24 PUSH1 0x0 REVERT JUMPDEST PUSH1 0x40 MLOAD SWAP1 DUP1 DUP3 MSTORE DUP1 PUSH1 0x20 MUL PUSH1 0x20 ADD DUP3 ADD PUSH1 0x40 MSTORE DUP1 ISZERO PUSH2 0x3501 JUMPI DUP2 PUSH1 0x20 ADD PUSH1 0x20 DUP3 MUL DUP1 CALLDATASIZE DUP4 CALLDATACOPY ADD SWAP1 POP JUMPDEST POP SWAP1 POP DUP4 JUMPDEST DUP4 PUSH4 0xFFFFFFFF AND DUP2 PUSH4 0xFFFFFFFF AND GT PUSH2 0x275B JUMPI PUSH4 0xFFFFFFFF DUP2 AND PUSH1 0x0 SWAP1 DUP2 MSTORE PUSH1 0xE PUSH1 0x20 MSTORE PUSH1 0x40 SWAP1 KECCAK256 SLOAD DUP3 PUSH2 0x353A DUP8 DUP5 PUSH2 0x5E58 JUMP JUMPDEST PUSH4 0xFFFFFFFF AND DUP2 MLOAD DUP2 LT PUSH2 0x355E JUMPI PUSH4 0x4E487B71 PUSH1 0xE0 SHL PUSH1 0x0 MSTORE PUSH1 0x32 PUSH1 0x4 MSTORE PUSH1 0x24 PUSH1 0x0 REVERT JUMPDEST PUSH1 0x20 SWAP1 DUP2 MUL SWAP2 SWAP1 SWAP2 ADD ADD MSTORE DUP1 PUSH2 0x3573 DUP2 PUSH2 0x5EF6 JUMP JUMPDEST SWAP2 POP POP PUSH2 0x3506 JUMP JUMPDEST PUSH1 0x60 PUSH1 0x0 DUP5 PUSH2 0x358B DUP6 PUSH1 0x1 PUSH2 0x5DDA JUMP JUMPDEST PUSH2 0x3595 SWAP2 SWAP1 PUSH2 0x5E58 JUMP JUMPDEST PUSH4 0xFFFFFFFF AND PUSH1 0x1 PUSH1 0x1 PUSH1 0x40 SHL SUB DUP2 GT ISZERO PUSH2 0x35C0 JUMPI PUSH4 0x4E487B71 PUSH1 0xE0 SHL PUSH1 0x0 MSTORE PUSH1 0x41 PUSH1 0x4 MSTORE PUSH1 0x24 PUSH1 0x0 REVERT JUMPDEST PUSH1 0x40 MLOAD SWAP1 DUP1 DUP3 MSTORE DUP1 PUSH1 0x20 MUL PUSH1 0x20 ADD DUP3 ADD PUSH1 0x40 MSTORE DUP1 ISZERO PUSH2 0x35E9 JUMPI DUP2 PUSH1 0x20 ADD PUSH1 0x20 DUP3 MUL DUP1 CALLDATASIZE DUP4 CALLDATACOPY ADD SWAP1 POP JUMPDEST POP SWAP1 POP DUP5 JUMPDEST DUP5 PUSH4 0xFFFFFFFF AND DUP2 PUSH4 0xFFFFFFFF AND GT PUSH2 0xF2C JUMPI PUSH4 0xFFFFFFFF DUP2 AND PUSH1 0x0 SWAP1 DUP2 MSTORE PUSH1 0xE PUSH1 0x20 SWAP1 DUP2 MSTORE PUSH1 0x40 DUP1 DUP4 KECCAK256 PUSH1 0x1 PUSH1 0x1 PUSH1 0xA0 SHL SUB DUP9 AND DUP5 MSTORE PUSH1 0x6 ADD SWAP1 SWAP2 MSTORE SWAP1 KECCAK256 PUSH1 0x3 ADD SLOAD DUP3 PUSH2 0x363C DUP9 DUP5 PUSH2 0x5E58 JUMP JUMPDEST PUSH4 0xFFFFFFFF AND DUP2 MLOAD DUP2 LT PUSH2 0x3660 JUMPI PUSH4 0x4E487B71 PUSH1 0xE0 SHL PUSH1 0x0 MSTORE PUSH1 0x32 PUSH1 0x4 MSTORE PUSH1 0x24 PUSH1 0x0 REVERT JUMPDEST PUSH1 0x20 SWAP1 DUP2 MUL SWAP2 SWAP1 SWAP2 ADD ADD MSTORE DUP1 PUSH2 0x3675 DUP2 PUSH2 0x5EF6 JUMP JUMPDEST SWAP2 POP POP PUSH2 0x35EE JUMP JUMPDEST PUSH1 0x2 SLOAD PUSH1 0x1 PUSH1 0xA0 SHL SWAP1 DIV PUSH4 0xFFFFFFFF AND PUSH1 0x0 SWAP1 DUP2 MSTORE PUSH1 0xE PUSH1 0x20 MSTORE PUSH1 0x40 DUP2 KECCAK256 PUSH1 0x5 ADD SLOAD PUSH1 0xFF AND PUSH1 0x4 EQ PUSH2 0x3733 JUMPI PUSH1 0x40 MLOAD PUSH3 0x461BCD PUSH1 0xE5 SHL DUP2 MSTORE PUSH1 0x20 PUSH1 0x4 DUP3 ADD MSTORE PUSH1 0x53 PUSH1 0x24 DUP3 ADD MSTORE PUSH32 0x436F6D7065746974696F6E202D2073706F6E736F723A20504C65617365207761 PUSH1 0x44 DUP3 ADD MSTORE PUSH32 0x697420666F7220746865206368616C6C656E676520746F20636F6D706C657465 PUSH1 0x64 DUP3 ADD MSTORE PUSH19 0x103132B337B9329039B837B739B7B934B73397 PUSH1 0x69 SHL PUSH1 0x84 DUP3 ADD MSTORE PUSH1 0xA4 ADD PUSH2 0xDE1 JUMP JUMPDEST PUSH1 0x1 SLOAD PUSH1 0x40 MLOAD PUSH4 0x23B872DD PUSH1 0xE0 SHL DUP2 MSTORE CALLER PUSH1 0x4 DUP3 ADD MSTORE ADDRESS PUSH1 0x24 DUP3 ADD MSTORE PUSH1 0x44 DUP2 ADD DUP5 SWAP1 MSTORE PUSH1 0x1 PUSH1 0x1 PUSH1 0xA0 SHL SUB SWAP1 SWAP2 AND SWAP1 PUSH4 0x23B872DD SWAP1 PUSH1 0x64 ADD PUSH1 0x20 PUSH1 0x40 MLOAD DUP1 DUP4 SUB DUP2 PUSH1 0x0 DUP8 DUP1 EXTCODESIZE ISZERO DUP1 ISZERO PUSH2 0x3785 JUMPI PUSH1 0x0 DUP1 REVERT JUMPDEST POP GAS CALL ISZERO DUP1 ISZERO PUSH2 0x3799 JUMPI RETURNDATASIZE PUSH1 0x0 DUP1 RETURNDATACOPY RETURNDATASIZE PUSH1 0x0 REVERT JUMPDEST POP POP POP POP PUSH1 0x40 MLOAD RETURNDATASIZE PUSH1 0x1F NOT PUSH1 0x1F DUP3 ADD AND DUP3 ADD DUP1 PUSH1 0x40 MSTORE POP DUP2 ADD SWAP1 PUSH2 0x37BD SWAP2 SWAP1 PUSH2 0x5881 JUMP JUMPDEST PUSH2 0x381F JUMPI PUSH1 0x40 MLOAD PUSH3 0x461BCD PUSH1 0xE5 SHL DUP2 MSTORE PUSH1 0x20 PUSH1 0x4 DUP3 ADD MSTORE PUSH1 0x2D PUSH1 0x24 DUP3 ADD MSTORE PUSH32 0x436F6D7065746974696F6E202D2073706F6E736F723A20546F6B656E20747261 PUSH1 0x44 DUP3 ADD MSTORE PUSH13 0x3739B332B9103330B4B632B217 PUSH1 0x99 SHL PUSH1 0x64 DUP3 ADD MSTORE PUSH1 0x84 ADD PUSH2 0xDE1 JUMP JUMPDEST PUSH1 0x4 SLOAD PUSH2 0x382C DUP4 DUP3 PUSH2 0x5DC2 JUMP JUMPDEST PUSH1 0x4 SSTORE PUSH1 0x1 SWAP2 POP PUSH2 0x383D DUP4 DUP3 PUSH2 0x5DC2 JUMP JUMPDEST PUSH1 0x40 MLOAD DUP5 SWAP1 CALLER SWAP1 PUSH32 0x64939930C3FD0A1FE9E7FB9810272DB7730A0F02B900972787BCB79FB6FD3D2D SWAP1 PUSH1 0x0 SWAP1 LOG4 POP SWAP2 SWAP1 POP JUMP JUMPDEST PUSH1 0x0 PUSH2 0x387C DUP2 CALLER PUSH2 0x2B51 JUMP JUMPDEST PUSH2 0x38EE JUMPI PUSH1 0x40 MLOAD PUSH3 0x461BCD PUSH1 0xE5 SHL DUP2 MSTORE PUSH1 0x20 PUSH1 0x4 DUP3 ADD MSTORE PUSH1 0x3D PUSH1 0x24 DUP3 ADD MSTORE PUSH32 0x436F6D7065746974696F6E202D20757064617465496E666F726D6174696F6E42 PUSH1 0x44 DUP3 ADD MSTORE PUSH32 0x617463683A2043616C6C657220697320756E617574686F72697A65642E000000 PUSH1 0x64 DUP3 ADD MSTORE PUSH1 0x84 ADD PUSH2 0xDE1 JUMP JUMPDEST PUSH4 0xFFFFFFFF DUP8 AND PUSH1 0x0 SWAP1 DUP2 MSTORE PUSH1 0xE PUSH1 0x20 MSTORE PUSH1 0x40 SWAP1 KECCAK256 PUSH1 0x5 ADD SLOAD PUSH1 0x3 PUSH1 0xFF SWAP1 SWAP2 AND LT ISZERO PUSH2 0x3992 JUMPI PUSH1 0x40 MLOAD PUSH3 0x461BCD PUSH1 0xE5 SHL DUP2 MSTORE PUSH1 0x20 PUSH1 0x4 DUP3 ADD MSTORE PUSH1 0x47 PUSH1 0x24 DUP3 ADD MSTORE PUSH32 0x436F6D7065746974696F6E202D20757064617465496E666F726D6174696F6E42 PUSH1 0x44 DUP3 ADD MSTORE PUSH32 0x617463683A204368616C6C656E676520697320696E20756E6578706563746564 PUSH1 0x64 DUP3 ADD MSTORE PUSH7 0x1039BA30BA3297 PUSH1 0xC9 SHL PUSH1 0x84 DUP3 ADD MSTORE PUSH1 0xA4 ADD PUSH2 0xDE1 JUMP JUMPDEST DUP5 DUP3 EQ PUSH2 0x3A26 JUMPI PUSH1 0x40 MLOAD PUSH3 0x461BCD PUSH1 0xE5 SHL DUP2 MSTORE PUSH1 0x20 PUSH1 0x4 DUP3 ADD MSTORE PUSH1 0x56 PUSH1 0x24 DUP3 ADD MSTORE PUSH32 0x436F6D7065746974696F6E202D20757064617465496E666F726D6174696F6E42 PUSH1 0x44 DUP3 ADD MSTORE PUSH32 0x617463683A204E756D626572206F66207061727469636970616E747320616E64 PUSH1 0x64 DUP3 ADD MSTORE PUSH22 0x103B30B63AB2B99030B932903234B33332B932B73A17 PUSH1 0x51 SHL PUSH1 0x84 DUP3 ADD MSTORE PUSH1 0xA4 ADD PUSH2 0xDE1 JUMP JUMPDEST PUSH1 0x0 JUMPDEST DUP6 DUP2 LT ISZERO PUSH2 0x3AED JUMPI DUP4 DUP4 DUP3 DUP2 DUP2 LT PUSH2 0x3A51 JUMPI PUSH4 0x4E487B71 PUSH1 0xE0 SHL PUSH1 0x0 MSTORE PUSH1 0x32 PUSH1 0x4 MSTORE PUSH1 0x24 PUSH1 0x0 REVERT JUMPDEST SWAP1 POP PUSH1 0x20 MUL ADD CALLDATALOAD PUSH1 0xE PUSH1 0x0 DUP11 PUSH4 0xFFFFFFFF AND PUSH4 0xFFFFFFFF AND DUP2 MSTORE PUSH1 0x20 ADD SWAP1 DUP2 MSTORE PUSH1 0x20 ADD PUSH1 0x0 KECCAK256 PUSH1 0x6 ADD PUSH1 0x0 DUP10 DUP10 DUP6 DUP2 DUP2 LT PUSH2 0x3A9C JUMPI PUSH4 0x4E487B71 PUSH1 0xE0 SHL PUSH1 0x0 MSTORE PUSH1 0x32 PUSH1 0x4 MSTORE PUSH1 0x24 PUSH1 0x0 REVERT JUMPDEST SWAP1 POP PUSH1 0x20 MUL ADD PUSH1 0x20 DUP2 ADD SWAP1 PUSH2 0x3AB1 SWAP2 SWAP1 PUSH2 0x576A JUMP JUMPDEST PUSH1 0x1 PUSH1 0x1 PUSH1 0xA0 SHL SUB AND DUP2 MSTORE PUSH1 0x20 DUP1 DUP3 ADD SWAP3 SWAP1 SWAP3 MSTORE PUSH1 0x40 SWAP1 DUP2 ADD PUSH1 0x0 SWAP1 DUP2 KECCAK256 DUP10 DUP3 MSTORE PUSH1 0x7 ADD SWAP1 SWAP3 MSTORE SWAP1 KECCAK256 SSTORE DUP1 PUSH2 0x3AE5 DUP2 PUSH2 0x5EDB JUMP JUMPDEST SWAP2 POP POP PUSH2 0x3A29 JUMP JUMPDEST POP POP PUSH1 0x40 MLOAD PUSH1 0x1 SWAP1 DUP5 SWAP1 PUSH4 0xFFFFFFFF DUP10 AND SWAP1 PUSH32 0xDFC0E8D429222115BCDEAE8834D5FBCECC360F743768FC2A9693A30A379999E9 SWAP1 PUSH1 0x0 SWAP1 LOG3 SWAP7 SWAP6 POP POP POP POP POP POP JUMP JUMPDEST PUSH1 0x60 PUSH1 0x0 DUP5 PUSH2 0x3B3F DUP6 PUSH1 0x1 PUSH2 0x5DDA JUMP JUMPDEST PUSH2 0x3B49 SWAP2 SWAP1 PUSH2 0x5E58 JUMP JUMPDEST PUSH4 0xFFFFFFFF AND PUSH1 0x1 PUSH1 0x1 PUSH1 0x40 SHL SUB DUP2 GT ISZERO PUSH2 0x3B74 JUMPI PUSH4 0x4E487B71 PUSH1 0xE0 SHL PUSH1 0x0 MSTORE PUSH1 0x41 PUSH1 0x4 MSTORE PUSH1 0x24 PUSH1 0x0 REVERT JUMPDEST PUSH1 0x40 MLOAD SWAP1 DUP1 DUP3 MSTORE DUP1 PUSH1 0x20 MUL PUSH1 0x20 ADD DUP3 ADD PUSH1 0x40 MSTORE DUP1 ISZERO PUSH2 0x3B9D JUMPI DUP2 PUSH1 0x20 ADD PUSH1 0x20 DUP3 MUL DUP1 CALLDATASIZE DUP4 CALLDATACOPY ADD SWAP1 POP JUMPDEST POP SWAP1 POP DUP5 JUMPDEST DUP5 PUSH4 0xFFFFFFFF AND DUP2 PUSH4 0xFFFFFFFF AND GT PUSH2 0xF2C JUMPI PUSH4 0xFFFFFFFF DUP2 AND PUSH1 0x0 SWAP1 DUP2 MSTORE PUSH1 0xE PUSH1 0x20 SWAP1 DUP2 MSTORE PUSH1 0x40 DUP1 DUP4 KECCAK256 PUSH1 0x1 PUSH1 0x1 PUSH1 0xA0 SHL SUB DUP9 AND DUP5 MSTORE PUSH1 0x6 ADD SWAP1 SWAP2 MSTORE SWAP1 KECCAK256 SLOAD DUP3 PUSH2 0x3BED DUP9 DUP5 PUSH2 0x5E58 JUMP JUMPDEST PUSH4 0xFFFFFFFF AND DUP2 MLOAD DUP2 LT PUSH2 0x3C11 JUMPI PUSH4 0x4E487B71 PUSH1 0xE0 SHL PUSH1 0x0 MSTORE PUSH1 0x32 PUSH1 0x4 MSTORE PUSH1 0x24 PUSH1 0x0 REVERT JUMPDEST PUSH1 0x20 SWAP1 DUP2 MUL SWAP2 SWAP1 SWAP2 ADD ADD MSTORE DUP1 PUSH2 0x3C26 DUP2 PUSH2 0x5EF6 JUMP JUMPDEST SWAP2 POP POP PUSH2 0x3BA2 JUMP JUMPDEST PUSH1 0x0 DUP3 PUSH2 0x3CA3 JUMPI PUSH1 0x40 MLOAD PUSH3 0x461BCD PUSH1 0xE5 SHL DUP2 MSTORE PUSH1 0x20 PUSH1 0x4 DUP3 ADD MSTORE PUSH1 0x3C PUSH1 0x24 DUP3 ADD MSTORE PUSH32 0x436F6D7065746974696F6E202D20757064617465526573756C74733A204D7573 PUSH1 0x44 DUP3 ADD MSTORE PUSH32 0x742068617665207072652D6578697374696E6720726573756C74732E00000000 PUSH1 0x64 DUP3 ADD MSTORE PUSH1 0x84 ADD PUSH2 0xDE1 JUMP JUMPDEST PUSH2 0x2BF8 DUP4 DUP4 PUSH2 0x4E72 JUMP JUMPDEST PUSH1 0x60 PUSH1 0xC DUP1 SLOAD PUSH2 0x3CBC SWAP1 PUSH2 0x5EA0 JUMP JUMPDEST DUP1 PUSH1 0x1F ADD PUSH1 0x20 DUP1 SWAP2 DIV MUL PUSH1 0x20 ADD PUSH1 0x40 MLOAD SWAP1 DUP2 ADD PUSH1 0x40 MSTORE DUP1 SWAP3 SWAP2 SWAP1 DUP2 DUP2 MSTORE PUSH1 0x20 ADD DUP3 DUP1 SLOAD PUSH2 0x3CE8 SWAP1 PUSH2 0x5EA0 JUMP JUMPDEST DUP1 ISZERO PUSH2 0x3D35 JUMPI DUP1 PUSH1 0x1F LT PUSH2 0x3D0A JUMPI PUSH2 0x100 DUP1 DUP4 SLOAD DIV MUL DUP4 MSTORE SWAP2 PUSH1 0x20 ADD SWAP2 PUSH2 0x3D35 JUMP JUMPDEST DUP3 ADD SWAP2 SWAP1 PUSH1 0x0 MSTORE PUSH1 0x20 PUSH1 0x0 KECCAK256 SWAP1 JUMPDEST DUP2 SLOAD DUP2 MSTORE SWAP1 PUSH1 0x1 ADD SWAP1 PUSH1 0x20 ADD DUP1 DUP4 GT PUSH2 0x3D18 JUMPI DUP3 SWAP1 SUB PUSH1 0x1F AND DUP3 ADD SWAP2 JUMPDEST POP POP POP POP POP SWAP1 POP SWAP1 JUMP JUMPDEST PUSH1 0x0 PUSH2 0x3D4B DUP2 CALLER PUSH2 0x2B51 JUMP JUMPDEST PUSH2 0x3DBD JUMPI PUSH1 0x40 MLOAD PUSH3 0x461BCD PUSH1 0xE5 SHL DUP2 MSTORE PUSH1 0x20 PUSH1 0x4 DUP3 ADD MSTORE PUSH1 0x39 PUSH1 0x24 DUP3 ADD MSTORE PUSH32 0x436F6D7065746974696F6E202D207570646174655661756C7441646472657373 PUSH1 0x44 DUP3 ADD MSTORE PUSH32 0x3A2043616C6C657220697320756E617574686F72697A65642E00000000000000 PUSH1 0x64 DUP3 ADD MSTORE PUSH1 0x84 ADD PUSH2 0xDE1 JUMP JUMPDEST POP PUSH1 0x2 DUP1 SLOAD PUSH1 0x1 PUSH1 0x1 PUSH1 0xA0 SHL SUB NOT AND PUSH1 0x1 PUSH1 0x1 PUSH1 0xA0 SHL SUB DUP4 AND SWAP1 DUP2 OR SWAP1 SWAP2 SSTORE PUSH1 0x40 MLOAD PUSH1 0x1 SWAP2 SWAP1 PUSH32 0x5E74F6697AE9D8E4ED8C4E8CB2F44ACC9909529CE81812AAB23103B3DE223F66 SWAP1 PUSH1 0x0 SWAP1 LOG2 SWAP2 SWAP1 POP JUMP JUMPDEST PUSH1 0x2 SLOAD PUSH1 0x0 SWAP1 PUSH2 0x3E2E SWAP1 PUSH1 0x1 PUSH1 0xA0 SHL SWAP1 DIV PUSH4 0xFFFFFFFF AND DUP7 DUP7 DUP7 DUP7 PUSH2 0x2FDA JUMP JUMPDEST SWAP6 SWAP5 POP POP POP POP POP JUMP JUMPDEST PUSH1 0x0 DUP3 DUP2 MSTORE PUSH1 0x20 DUP2 SWAP1 MSTORE PUSH1 0x40 SWAP1 KECCAK256 PUSH1 0x1 ADD SLOAD PUSH2 0x3E52 SWAP1 PUSH2 0x1102 JUMP JUMPDEST PUSH2 0x1382 JUMPI PUSH1 0x40 MLOAD PUSH3 0x461BCD PUSH1 0xE5 SHL DUP2 MSTORE PUSH1 0x20 PUSH1 0x4 DUP3 ADD MSTORE PUSH1 0x30 PUSH1 0x24 DUP3 ADD MSTORE PUSH32 0x416363657373436F6E74726F6C3A2073656E646572206D75737420626520616E PUSH1 0x44 DUP3 ADD MSTORE PUSH16 0x2061646D696E20746F207265766F6B65 PUSH1 0x80 SHL PUSH1 0x64 DUP3 ADD MSTORE PUSH1 0x84 ADD PUSH2 0xDE1 JUMP JUMPDEST PUSH1 0x2 SLOAD PUSH1 0x0 SWAP1 PUSH2 0x2B9C SWAP1 PUSH1 0x1 PUSH1 0xA0 SHL SWAP1 DIV PUSH4 0xFFFFFFFF AND DUP9 DUP9 DUP9 DUP9 DUP9 DUP9 PUSH2 0x1AA2 JUMP JUMPDEST PUSH1 0x60 PUSH1 0x0 DUP4 PUSH2 0x3EE9 DUP5 PUSH1 0x1 PUSH2 0x5DDA JUMP JUMPDEST PUSH2 0x3EF3 SWAP2 SWAP1 PUSH2 0x5E58 JUMP JUMPDEST PUSH4 0xFFFFFFFF AND PUSH1 0x1 PUSH1 0x1 PUSH1 0x40 SHL SUB DUP2 GT ISZERO PUSH2 0x3F1E JUMPI PUSH4 0x4E487B71 PUSH1 0xE0 SHL PUSH1 0x0 MSTORE PUSH1 0x41 PUSH1 0x4 MSTORE PUSH1 0x24 PUSH1 0x0 REVERT JUMPDEST PUSH1 0x40 MLOAD SWAP1 DUP1 DUP3 MSTORE DUP1 PUSH1 0x20 MUL PUSH1 0x20 ADD DUP3 ADD PUSH1 0x40 MSTORE DUP1 ISZERO PUSH2 0x3F47 JUMPI DUP2 PUSH1 0x20 ADD PUSH1 0x20 DUP3 MUL DUP1 CALLDATASIZE DUP4 CALLDATACOPY ADD SWAP1 POP JUMPDEST POP SWAP1 POP DUP4 JUMPDEST DUP4 PUSH4 0xFFFFFFFF AND DUP2 PUSH4 0xFFFFFFFF AND GT PUSH2 0x275B JUMPI PUSH4 0xFFFFFFFF DUP2 AND PUSH1 0x0 SWAP1 DUP2 MSTORE PUSH1 0xE PUSH1 0x20 MSTORE PUSH1 0x40 SWAP1 KECCAK256 PUSH1 0x1 ADD SLOAD DUP3 PUSH2 0x3F83 DUP8 DUP5 PUSH2 0x5E58 JUMP JUMPDEST PUSH4 0xFFFFFFFF AND DUP2 MLOAD DUP2 LT PUSH2 0x3FA7 JUMPI PUSH4 0x4E487B71 PUSH1 0xE0 SHL PUSH1 0x0 MSTORE PUSH1 0x32 PUSH1 0x4 MSTORE PUSH1 0x24 PUSH1 0x0 REVERT JUMPDEST PUSH1 0x20 SWAP1 DUP2 MUL SWAP2 SWAP1 SWAP2 ADD ADD MSTORE DUP1 PUSH2 0x3FBC DUP2 PUSH2 0x5EF6 JUMP JUMPDEST SWAP2 POP POP PUSH2 0x3F4C JUMP JUMPDEST PUSH1 0x0 PUSH2 0x3FD0 DUP2 CALLER PUSH2 0x2B51 JUMP JUMPDEST PUSH2 0x403A JUMPI PUSH1 0x40 MLOAD PUSH3 0x461BCD PUSH1 0xE5 SHL DUP2 MSTORE PUSH1 0x20 PUSH1 0x4 DUP3 ADD MSTORE PUSH1 0x35 PUSH1 0x24 DUP3 ADD MSTORE PUSH32 0x436F6D7065746974696F6E202D20616476616E6365546F50686173653A204361 PUSH1 0x44 DUP3 ADD MSTORE PUSH21 0x363632B91034B9903AB730BABA3437B934BD32B217 PUSH1 0x59 SHL PUSH1 0x64 DUP3 ADD MSTORE PUSH1 0x84 ADD PUSH2 0xDE1 JUMP JUMPDEST PUSH1 0x2 DUP1 SLOAD PUSH1 0x1 PUSH1 0xA0 SHL SWAP1 DIV PUSH4 0xFFFFFFFF AND SWAP1 PUSH1 0xFF DUP5 AND GT DUP1 ISZERO PUSH2 0x4060 JUMPI POP PUSH1 0x5 DUP4 PUSH1 0xFF AND LT JUMPDEST PUSH2 0x40F8 JUMPI PUSH1 0x40 MLOAD PUSH3 0x461BCD PUSH1 0xE5 SHL DUP2 MSTORE PUSH1 0x20 PUSH1 0x4 DUP3 ADD MSTORE PUSH1 0x5A PUSH1 0x24 DUP3 ADD MSTORE PUSH32 0x436F6D7065746974696F6E202D20616476616E6365546F50686173653A20596F PUSH1 0x44 DUP3 ADD MSTORE PUSH32 0x75206D6179206F6E6C79207573652074686973206D6574686F6420666F722061 PUSH1 0x64 DUP3 ADD MSTORE PUSH32 0x6476616E63696E6720746F207068617365732033206F7220342E000000000000 PUSH1 0x84 DUP3 ADD MSTORE PUSH1 0xA4 ADD PUSH2 0xDE1 JUMP JUMPDEST PUSH4 0xFFFFFFFF DUP2 AND PUSH1 0x0 SWAP1 DUP2 MSTORE PUSH1 0xE PUSH1 0x20 MSTORE PUSH1 0x40 SWAP1 KECCAK256 PUSH1 0x5 ADD SLOAD PUSH1 0xFF AND PUSH2 0x411F PUSH1 0x1 DUP6 PUSH2 0x5E7D JUMP JUMPDEST PUSH1 0xFF AND EQ PUSH2 0x41A3 JUMPI PUSH1 0x40 MLOAD PUSH3 0x461BCD PUSH1 0xE5 SHL DUP2 MSTORE PUSH1 0x20 PUSH1 0x4 DUP3 ADD MSTORE PUSH1 0x45 PUSH1 0x24 DUP3 ADD MSTORE PUSH32 0x436F6D7065746974696F6E202D20616476616E6365546F50686173653A20596F PUSH1 0x44 DUP3 ADD MSTORE PUSH32 0x75206D6179206F6E6C7920616476616E636520746F20746865206E6578742070 PUSH1 0x64 DUP3 ADD MSTORE PUSH5 0x3430B9B297 PUSH1 0xD9 SHL PUSH1 0x84 DUP3 ADD MSTORE PUSH1 0xA4 ADD PUSH2 0xDE1 JUMP JUMPDEST PUSH4 0xFFFFFFFF AND PUSH1 0x0 SWAP1 DUP2 MSTORE PUSH1 0xE PUSH1 0x20 MSTORE PUSH1 0x40 SWAP1 KECCAK256 PUSH1 0x5 ADD DUP1 SLOAD PUSH1 0xFF NOT AND PUSH1 0xFF SWAP4 SWAP1 SWAP4 AND SWAP3 SWAP1 SWAP3 OR SWAP1 SWAP2 SSTORE SWAP1 JUMP JUMPDEST PUSH1 0x0 PUSH2 0x41DC DUP2 CALLER PUSH2 0x2B51 JUMP JUMPDEST PUSH2 0x4260 JUMPI PUSH1 0x40 MLOAD PUSH3 0x461BCD PUSH1 0xE5 SHL DUP2 MSTORE PUSH1 0x20 PUSH1 0x4 DUP3 ADD MSTORE PUSH1 0x49 PUSH1 0x24 DUP3 ADD MSTORE PUSH32 0x436F6D7065746974696F6E202D207570646174654368616C6C656E6765416E64 PUSH1 0x44 DUP3 ADD MSTORE PUSH32 0x546F75726E616D656E7453636F7265733A2043616C6C657220697320756E6175 PUSH1 0x64 DUP3 ADD MSTORE PUSH9 0x3A3437B934BD32B217 PUSH1 0xB9 SHL PUSH1 0x84 DUP3 ADD MSTORE PUSH1 0xA4 ADD PUSH2 0xDE1 JUMP JUMPDEST PUSH4 0xFFFFFFFF DUP9 AND PUSH1 0x0 SWAP1 DUP2 MSTORE PUSH1 0xE PUSH1 0x20 MSTORE PUSH1 0x40 SWAP1 KECCAK256 PUSH1 0x5 ADD SLOAD PUSH1 0x3 PUSH1 0xFF SWAP1 SWAP2 AND LT ISZERO PUSH2 0x4310 JUMPI PUSH1 0x40 MLOAD PUSH3 0x461BCD PUSH1 0xE5 SHL DUP2 MSTORE PUSH1 0x20 PUSH1 0x4 DUP3 ADD MSTORE PUSH1 0x53 PUSH1 0x24 DUP3 ADD MSTORE PUSH32 0x436F6D7065746974696F6E202D207570646174654368616C6C656E6765416E64 PUSH1 0x44 DUP3 ADD MSTORE PUSH32 0x546F75726E616D656E7453636F7265733A204368616C6C656E67652069732069 PUSH1 0x64 DUP3 ADD MSTORE PUSH19 0x37103AB732BC3832B1BA32B21039BA30BA3297 PUSH1 0x69 SHL PUSH1 0x84 DUP3 ADD MSTORE PUSH1 0xA4 ADD PUSH2 0xDE1 JUMP JUMPDEST DUP6 DUP5 EQ DUP1 ISZERO PUSH2 0x431E JUMPI POP DUP6 DUP3 EQ JUMPDEST PUSH2 0x43B6 JUMPI PUSH1 0x40 MLOAD PUSH3 0x461BCD PUSH1 0xE5 SHL DUP2 MSTORE PUSH1 0x20 PUSH1 0x4 DUP3 ADD MSTORE PUSH1 0x5D PUSH1 0x24 DUP3 ADD MSTORE PUSH32 0x436F6D7065746974696F6E202D207570646174654368616C6C656E6765416E64 PUSH1 0x44 DUP3 ADD MSTORE PUSH32 0x546F75726E616D656E7453636F7265733A204E756D626572206F662077696E6E PUSH1 0x64 DUP3 ADD MSTORE PUSH32 0x65727320616E642073636F7265732061726520646966666572656E742E000000 PUSH1 0x84 DUP3 ADD MSTORE PUSH1 0xA4 ADD PUSH2 0xDE1 JUMP JUMPDEST PUSH1 0x0 JUMPDEST DUP7 DUP2 LT ISZERO PUSH2 0x450D JUMPI DUP6 DUP6 DUP3 DUP2 DUP2 LT PUSH2 0x43E1 JUMPI PUSH4 0x4E487B71 PUSH1 0xE0 SHL PUSH1 0x0 MSTORE PUSH1 0x32 PUSH1 0x4 MSTORE PUSH1 0x24 PUSH1 0x0 REVERT JUMPDEST SWAP1 POP PUSH1 0x20 MUL ADD CALLDATALOAD PUSH1 0xE PUSH1 0x0 DUP12 PUSH4 0xFFFFFFFF AND PUSH4 0xFFFFFFFF AND DUP2 MSTORE PUSH1 0x20 ADD SWAP1 DUP2 MSTORE PUSH1 0x20 ADD PUSH1 0x0 KECCAK256 PUSH1 0x6 ADD PUSH1 0x0 DUP11 DUP11 DUP6 DUP2 DUP2 LT PUSH2 0x442C JUMPI PUSH4 0x4E487B71 PUSH1 0xE0 SHL PUSH1 0x0 MSTORE PUSH1 0x32 PUSH1 0x4 MSTORE PUSH1 0x24 PUSH1 0x0 REVERT JUMPDEST SWAP1 POP PUSH1 0x20 MUL ADD PUSH1 0x20 DUP2 ADD SWAP1 PUSH2 0x4441 SWAP2 SWAP1 PUSH2 0x576A JUMP JUMPDEST PUSH1 0x1 PUSH1 0x1 PUSH1 0xA0 SHL SUB AND DUP2 MSTORE PUSH1 0x20 DUP2 ADD SWAP2 SWAP1 SWAP2 MSTORE PUSH1 0x40 ADD PUSH1 0x0 KECCAK256 PUSH1 0x5 ADD SSTORE DUP4 DUP4 DUP3 DUP2 DUP2 LT PUSH2 0x447E JUMPI PUSH4 0x4E487B71 PUSH1 0xE0 SHL PUSH1 0x0 MSTORE PUSH1 0x32 PUSH1 0x4 MSTORE PUSH1 0x24 PUSH1 0x0 REVERT JUMPDEST SWAP1 POP PUSH1 0x20 MUL ADD CALLDATALOAD PUSH1 0xE PUSH1 0x0 DUP12 PUSH4 0xFFFFFFFF AND PUSH4 0xFFFFFFFF AND DUP2 MSTORE PUSH1 0x20 ADD SWAP1 DUP2 MSTORE PUSH1 0x20 ADD PUSH1 0x0 KECCAK256 PUSH1 0x6 ADD PUSH1 0x0 DUP11 DUP11 DUP6 DUP2 DUP2 LT PUSH2 0x44C9 JUMPI PUSH4 0x4E487B71 PUSH1 0xE0 SHL PUSH1 0x0 MSTORE PUSH1 0x32 PUSH1 0x4 MSTORE PUSH1 0x24 PUSH1 0x0 REVERT JUMPDEST SWAP1 POP PUSH1 0x20 MUL ADD PUSH1 0x20 DUP2 ADD SWAP1 PUSH2 0x44DE SWAP2 SWAP1 PUSH2 0x576A JUMP JUMPDEST PUSH1 0x1 PUSH1 0x1 PUSH1 0xA0 SHL SUB AND DUP2 MSTORE PUSH1 0x20 DUP2 ADD SWAP2 SWAP1 SWAP2 MSTORE PUSH1 0x40 ADD PUSH1 0x0 KECCAK256 PUSH1 0x6 ADD SSTORE DUP1 PUSH2 0x4505 DUP2 PUSH2 0x5EDB JUMP JUMPDEST SWAP2 POP POP PUSH2 0x43B9 JUMP JUMPDEST POP POP PUSH1 0x40 MLOAD PUSH1 0x1 SWAP1 PUSH4 0xFFFFFFFF DUP10 AND SWAP1 PUSH32 0x6FA7224843E16AB8C76A13B984CFCF54DE67707A118BF52CE93E0E5BE3589871 SWAP1 PUSH1 0x0 SWAP1 LOG2 SWAP8 SWAP7 POP POP POP POP POP POP POP JUMP JUMPDEST PUSH1 0x2 DUP1 SLOAD PUSH1 0x1 PUSH1 0xA0 SHL SWAP1 DIV PUSH4 0xFFFFFFFF AND PUSH1 0x0 DUP2 DUP2 MSTORE PUSH1 0xE PUSH1 0x20 MSTORE PUSH1 0x40 DUP2 KECCAK256 PUSH1 0x5 ADD SLOAD SWAP1 SWAP3 PUSH1 0xFF SWAP1 SWAP2 AND EQ ISZERO PUSH2 0x4621 JUMPI PUSH1 0x40 MLOAD PUSH3 0x461BCD PUSH1 0xE5 SHL DUP2 MSTORE PUSH1 0x20 PUSH1 0x4 DUP3 ADD MSTORE PUSH1 0x66 PUSH1 0x24 DUP3 ADD MSTORE PUSH32 0x436F6D7065746974696F6E202D2064656372656173655374616B653A20506C65 PUSH1 0x44 DUP3 ADD MSTORE PUSH32 0x617365207761697420666F7220746865207374616B696E6720706572696F6420 PUSH1 0x64 DUP3 ADD MSTORE PUSH32 0x746F20756E6C6F636B206265666F7265206D6F64696679696E6720796F757220 PUSH1 0x84 DUP3 ADD MSTORE PUSH6 0x39BA30B5B297 PUSH1 0xD1 SHL PUSH1 0xA4 DUP3 ADD MSTORE PUSH1 0xC4 ADD PUSH2 0xDE1 JUMP JUMPDEST PUSH4 0xFFFFFFFF DUP2 AND PUSH1 0x0 SWAP1 DUP2 MSTORE PUSH1 0xE PUSH1 0x20 SWAP1 DUP2 MSTORE PUSH1 0x40 DUP1 DUP4 KECCAK256 CALLER DUP5 MSTORE PUSH1 0x6 ADD SWAP1 SWAP2 MSTORE SWAP1 KECCAK256 SLOAD ISZERO PUSH2 0x46ED JUMPI PUSH1 0x40 MLOAD PUSH3 0x461BCD PUSH1 0xE5 SHL DUP2 MSTORE PUSH1 0x20 PUSH1 0x4 DUP3 ADD MSTORE PUSH1 0x66 PUSH1 0x24 DUP3 ADD MSTORE PUSH32 0x436F6D7065746974696F6E202D2064656372656173655374616B653A20506C65 PUSH1 0x44 DUP3 ADD MSTORE PUSH32 0x617365207761697420666F722074686973206368616C6C656E676520746F2062 PUSH1 0x64 DUP3 ADD MSTORE PUSH32 0x6520636F6D706C65746564206265666F7265206D616B696E672061646A757374 PUSH1 0x84 DUP3 ADD MSTORE PUSH6 0x36B2B73A3997 PUSH1 0xD1 SHL PUSH1 0xA4 DUP3 ADD MSTORE PUSH1 0xC4 ADD PUSH2 0xDE1 JUMP JUMPDEST CALLER PUSH1 0x0 SWAP1 DUP2 MSTORE PUSH1 0xD PUSH1 0x20 MSTORE PUSH1 0x40 SWAP1 KECCAK256 SLOAD DUP1 DUP5 GT ISZERO PUSH2 0x4773 JUMPI PUSH1 0x40 MLOAD PUSH3 0x461BCD PUSH1 0xE5 SHL DUP2 MSTORE PUSH1 0x20 PUSH1 0x4 DUP3 ADD MSTORE PUSH1 0x3F PUSH1 0x24 DUP3 ADD MSTORE PUSH32 0x436F6D7065746974696F6E202D2064656372656173655374616B653A20496E73 PUSH1 0x44 DUP3 ADD MSTORE PUSH32 0x756666696369656E742066756E647320666F72207769746864726177616C2E00 PUSH1 0x64 DUP3 ADD MSTORE PUSH1 0x84 ADD PUSH2 0xDE1 JUMP JUMPDEST PUSH2 0x477D DUP5 DUP3 PUSH2 0x5E41 JUMP JUMPDEST CALLER PUSH1 0x0 SWAP1 DUP2 MSTORE PUSH1 0xD PUSH1 0x20 MSTORE PUSH1 0x40 DUP2 KECCAK256 SWAP2 SWAP1 SWAP2 SSTORE PUSH1 0x6 DUP1 SLOAD DUP7 SWAP3 SWAP1 PUSH2 0x47A2 SWAP1 DUP5 SWAP1 PUSH2 0x5E41 JUMP JUMPDEST SWAP1 SWAP2 SSTORE POP POP PUSH1 0x1 SLOAD PUSH1 0x40 MLOAD PUSH4 0xA9059CBB PUSH1 0xE0 SHL DUP2 MSTORE CALLER PUSH1 0x4 DUP3 ADD MSTORE PUSH1 0x24 DUP2 ADD DUP7 SWAP1 MSTORE PUSH1 0x1 PUSH1 0x1 PUSH1 0xA0 SHL SUB SWAP1 SWAP2 AND SWAP1 PUSH4 0xA9059CBB SWAP1 PUSH1 0x44 ADD PUSH1 0x20 PUSH1 0x40 MLOAD DUP1 DUP4 SUB DUP2 PUSH1 0x0 DUP8 DUP1 EXTCODESIZE ISZERO DUP1 ISZERO PUSH2 0x47F3 JUMPI PUSH1 0x0 DUP1 REVERT JUMPDEST POP GAS CALL ISZERO DUP1 ISZERO PUSH2 0x4807 JUMPI RETURNDATASIZE PUSH1 0x0 DUP1 RETURNDATACOPY RETURNDATASIZE PUSH1 0x0 REVERT JUMPDEST POP POP POP POP PUSH1 0x40 MLOAD RETURNDATASIZE PUSH1 0x1F NOT PUSH1 0x1F DUP3 ADD AND DUP3 ADD DUP1 PUSH1 0x40 MSTORE POP DUP2 ADD SWAP1 PUSH2 0x482B SWAP2 SWAP1 PUSH2 0x5881 JUMP JUMPDEST POP PUSH1 0x40 MLOAD PUSH1 0x1 SWAP4 POP DUP5 SWAP1 CALLER SWAP1 PUSH32 0x700865370FFB2A65A2B0242E6A64B21AC907ED5ECD46C9CFFC729C177B2B1C69 SWAP1 PUSH1 0x0 SWAP1 LOG3 POP POP SWAP2 SWAP1 POP JUMP JUMPDEST PUSH1 0x2 DUP1 SLOAD PUSH1 0x1 PUSH1 0xA0 SHL SWAP1 DIV PUSH4 0xFFFFFFFF AND PUSH1 0x0 DUP2 DUP2 MSTORE PUSH1 0xE PUSH1 0x20 MSTORE PUSH1 0x40 DUP2 KECCAK256 PUSH1 0x5 ADD SLOAD SWAP1 SWAP3 PUSH1 0xFF SWAP1 SWAP2 AND EQ ISZERO PUSH2 0x4937 JUMPI PUSH1 0x40 MLOAD PUSH3 0x461BCD PUSH1 0xE5 SHL DUP2 MSTORE PUSH1 0x20 PUSH1 0x4 DUP3 ADD MSTORE PUSH1 0x66 PUSH1 0x24 DUP3 ADD MSTORE PUSH32 0x436F6D7065746974696F6E202D20696E6372656173655374616B653A20506C65 PUSH1 0x44 DUP3 ADD MSTORE PUSH32 0x617365207761697420666F7220746865207374616B696E6720706572696F6420 PUSH1 0x64 DUP3 ADD MSTORE PUSH32 0x746F20756E6C6F636B206265666F7265206D6F64696679696E6720796F757220 PUSH1 0x84 DUP3 ADD MSTORE PUSH6 0x39BA30B5B297 PUSH1 0xD1 SHL PUSH1 0xA4 DUP3 ADD MSTORE PUSH1 0xC4 ADD PUSH2 0xDE1 JUMP JUMPDEST PUSH4 0xFFFFFFFF DUP2 AND PUSH1 0x0 SWAP1 DUP2 MSTORE PUSH1 0xE PUSH1 0x20 SWAP1 DUP2 MSTORE PUSH1 0x40 DUP1 DUP4 KECCAK256 CALLER DUP5 MSTORE PUSH1 0x6 ADD SWAP1 SWAP2 MSTORE SWAP1 KECCAK256 SLOAD ISZERO PUSH2 0x4A03 JUMPI PUSH1 0x40 MLOAD PUSH3 0x461BCD PUSH1 0xE5 SHL DUP2 MSTORE PUSH1 0x20 PUSH1 0x4 DUP3 ADD MSTORE PUSH1 0x66 PUSH1 0x24 DUP3 ADD MSTORE PUSH32 0x436F6D7065746974696F6E202D20696E6372656173655374616B653A20506C65 PUSH1 0x44 DUP3 ADD MSTORE PUSH32 0x617365207761697420666F722074686973206368616C6C656E676520746F2062 PUSH1 0x64 DUP3 ADD MSTORE PUSH32 0x6520636F6D706C65746564206265666F7265206D616B696E672061646A757374 PUSH1 0x84 DUP3 ADD MSTORE PUSH6 0x36B2B73A3997 PUSH1 0xD1 SHL PUSH1 0xA4 DUP3 ADD MSTORE PUSH1 0xC4 ADD PUSH2 0xDE1 JUMP JUMPDEST PUSH1 0x1 SLOAD PUSH1 0x40 MLOAD PUSH4 0x23B872DD PUSH1 0xE0 SHL DUP2 MSTORE CALLER PUSH1 0x4 DUP3 ADD MSTORE ADDRESS PUSH1 0x24 DUP3 ADD MSTORE PUSH1 0x44 DUP2 ADD DUP6 SWAP1 MSTORE PUSH1 0x1 PUSH1 0x1 PUSH1 0xA0 SHL SUB SWAP1 SWAP2 AND SWAP1 PUSH4 0x23B872DD SWAP1 PUSH1 0x64 ADD PUSH1 0x20 PUSH1 0x40 MLOAD DUP1 DUP4 SUB DUP2 PUSH1 0x0 DUP8 DUP1 EXTCODESIZE ISZERO DUP1 ISZERO PUSH2 0x4A55 JUMPI PUSH1 0x0 DUP1 REVERT JUMPDEST POP GAS CALL ISZERO DUP1 ISZERO PUSH2 0x4A69 JUMPI RETURNDATASIZE PUSH1 0x0 DUP1 RETURNDATACOPY RETURNDATASIZE PUSH1 0x0 REVERT JUMPDEST POP POP POP POP PUSH1 0x40 MLOAD RETURNDATASIZE PUSH1 0x1F NOT PUSH1 0x1F DUP3 ADD AND DUP3 ADD DUP1 PUSH1 0x40 MSTORE POP DUP2 ADD SWAP1 PUSH2 0x4A8D SWAP2 SWAP1 PUSH2 0x5881 JUMP JUMPDEST PUSH2 0x4AF5 JUMPI PUSH1 0x40 MLOAD PUSH3 0x461BCD PUSH1 0xE5 SHL DUP2 MSTORE PUSH1 0x20 PUSH1 0x4 DUP3 ADD MSTORE PUSH1 0x33 PUSH1 0x24 DUP3 ADD MSTORE PUSH32 0x436F6D7065746974696F6E202D20696E6372656173655374616B653A20546F6B PUSH1 0x44 DUP3 ADD MSTORE PUSH19 0x32B7102A3930B739B332B9103330B4B632B217 PUSH1 0x69 SHL PUSH1 0x64 DUP3 ADD MSTORE PUSH1 0x84 ADD PUSH2 0xDE1 JUMP JUMPDEST CALLER PUSH1 0x0 SWAP1 DUP2 MSTORE PUSH1 0xD PUSH1 0x20 MSTORE PUSH1 0x40 DUP2 KECCAK256 DUP1 SLOAD DUP6 SWAP3 SWAP1 PUSH2 0x4B14 SWAP1 DUP5 SWAP1 PUSH2 0x5DC2 JUMP JUMPDEST SWAP3 POP POP DUP2 SWAP1 SSTORE POP DUP3 PUSH1 0x6 PUSH1 0x0 DUP3 DUP3 SLOAD PUSH2 0x4B2D SWAP2 SWAP1 PUSH2 0x5DC2 JUMP JUMPDEST SWAP1 SWAP2 SSTORE POP POP PUSH1 0x40 MLOAD PUSH1 0x1 SWAP3 POP DUP4 SWAP1 CALLER SWAP1 PUSH32 0x8B0ED825817A2E696C9A931715AF4609FC60E1701F09C89EE7645130E937EB2D SWAP1 PUSH1 0x0 SWAP1 LOG3 POP SWAP2 SWAP1 POP JUMP JUMPDEST PUSH1 0x4 DUP1 SLOAD PUSH1 0x6 SLOAD PUSH1 0x1 SLOAD PUSH1 0x40 MLOAD PUSH4 0x70A08231 PUSH1 0xE0 SHL DUP2 MSTORE ADDRESS SWAP5 DUP2 ADD SWAP5 SWAP1 SWAP5 MSTORE PUSH1 0x0 SWAP4 PUSH1 0x1 PUSH1 0x1 PUSH1 0xA0 SHL SUB SWAP1 SWAP2 AND SWAP1 PUSH4 0x70A08231 SWAP1 PUSH1 0x24 ADD PUSH1 0x20 PUSH1 0x40 MLOAD DUP1 DUP4 SUB DUP2 DUP7 DUP1 EXTCODESIZE ISZERO DUP1 ISZERO PUSH2 0x4BB8 JUMPI PUSH1 0x0 DUP1 REVERT JUMPDEST POP GAS STATICCALL ISZERO DUP1 ISZERO PUSH2 0x4BCC JUMPI RETURNDATASIZE PUSH1 0x0 DUP1 RETURNDATACOPY RETURNDATASIZE PUSH1 0x0 REVERT JUMPDEST POP POP POP POP PUSH1 0x40 MLOAD RETURNDATASIZE PUSH1 0x1F NOT PUSH1 0x1F DUP3 ADD AND DUP3 ADD DUP1 PUSH1 0x40 MSTORE POP DUP2 ADD SWAP1 PUSH2 0x4BF0 SWAP2 SWAP1 PUSH2 0x5999 JUMP JUMPDEST PUSH2 0x4BFA SWAP2 SWAP1 PUSH2 0x5E41 JUMP JUMPDEST PUSH2 0x4C04 SWAP2 SWAP1 PUSH2 0x5E41 JUMP JUMPDEST SWAP1 POP SWAP1 JUMP JUMPDEST PUSH1 0x0 DUP3 PUSH2 0x4C77 JUMPI PUSH1 0x40 MLOAD PUSH3 0x461BCD PUSH1 0xE5 SHL DUP2 MSTORE PUSH1 0x20 PUSH1 0x4 DUP3 ADD MSTORE PUSH1 0x42 PUSH1 0x24 DUP3 ADD MSTORE PUSH1 0x0 DUP1 MLOAD PUSH1 0x20 PUSH2 0x5F51 DUP4 CODECOPY DUP2 MLOAD SWAP2 MSTORE PUSH1 0x44 DUP3 ADD MSTORE PUSH32 0x4D7573742068617665207072652D6578697374696E67207375626D697373696F PUSH1 0x64 DUP3 ADD MSTORE PUSH2 0x3717 PUSH1 0xF1 SHL PUSH1 0x84 DUP3 ADD MSTORE PUSH1 0xA4 ADD PUSH2 0xDE1 JUMP JUMPDEST PUSH2 0x2BF8 DUP4 DUP4 PUSH2 0x540D JUMP JUMPDEST PUSH1 0x0 PUSH2 0x4C8D DUP2 CALLER PUSH2 0x2B51 JUMP JUMPDEST PUSH2 0x4CF8 JUMPI PUSH1 0x40 MLOAD PUSH3 0x461BCD PUSH1 0xE5 SHL DUP2 MSTORE PUSH1 0x20 PUSH1 0x4 DUP3 ADD MSTORE PUSH1 0x36 PUSH1 0x24 DUP3 ADD MSTORE PUSH32 0x436F6D7065746974696F6E202D20636C6F73655375626D697373696F6E3A2043 PUSH1 0x44 DUP3 ADD MSTORE PUSH22 0x30B63632B91034B9903AB730BABA3437B934BD32B217 PUSH1 0x51 SHL PUSH1 0x64 DUP3 ADD MSTORE PUSH1 0x84 ADD PUSH2 0xDE1 JUMP JUMPDEST PUSH1 0x2 SLOAD PUSH4 0xFFFFFFFF PUSH1 0x1 PUSH1 0xA0 SHL SWAP1 SWAP2 DIV AND PUSH1 0x0 DUP2 DUP2 MSTORE PUSH1 0xE PUSH1 0x20 MSTORE PUSH1 0x40 SWAP1 KECCAK256 PUSH1 0x5 ADD SLOAD PUSH1 0xFF AND PUSH1 0x1 EQ PUSH2 0x4D93 JUMPI PUSH1 0x40 MLOAD PUSH3 0x461BCD PUSH1 0xE5 SHL DUP2 MSTORE PUSH1 0x20 PUSH1 0x4 DUP3 ADD MSTORE PUSH1 0x3D PUSH1 0x24 DUP3 ADD MSTORE PUSH32 0x436F6D7065746974696F6E202D20636C6F73655375626D697373696F6E3A2043 PUSH1 0x44 DUP3 ADD MSTORE PUSH32 0x68616C6C656E676520696E20756E65787065637465642073746174652E000000 PUSH1 0x64 DUP3 ADD MSTORE PUSH1 0x84 ADD PUSH2 0xDE1 JUMP JUMPDEST PUSH4 0xFFFFFFFF DUP2 AND PUSH1 0x0 DUP2 DUP2 MSTORE PUSH1 0xE PUSH1 0x20 MSTORE PUSH1 0x40 DUP1 DUP3 KECCAK256 PUSH1 0x5 DUP2 ADD DUP1 SLOAD PUSH1 0xFF NOT AND PUSH1 0x2 OR SWAP1 SSTORE PUSH1 0x6 SLOAD PUSH1 0x4 SWAP1 SWAP2 ADD SSTORE MLOAD PUSH1 0x1 SWAP5 POP PUSH32 0xAA5EBDC7900B87A79257AABBAB219AF255ADA0BE7148632CE5AFCD622DF7A88B SWAP2 SWAP1 LOG2 POP SWAP1 JUMP JUMPDEST PUSH2 0x4DF8 DUP3 DUP3 PUSH2 0x2B51 JUMP JUMPDEST PUSH2 0x1176 JUMPI PUSH1 0x0 DUP3 DUP2 MSTORE PUSH1 0x20 DUP2 DUP2 MSTORE PUSH1 0x40 DUP1 DUP4 KECCAK256 PUSH1 0x1 PUSH1 0x1 PUSH1 0xA0 SHL SUB DUP6 AND DUP5 MSTORE SWAP1 SWAP2 MSTORE SWAP1 KECCAK256 DUP1 SLOAD PUSH1 0xFF NOT AND PUSH1 0x1 OR SWAP1 SSTORE PUSH2 0x4E2E CALLER SWAP1 JUMP JUMPDEST PUSH1 0x1 PUSH1 0x1 PUSH1 0xA0 SHL SUB AND DUP2 PUSH1 0x1 PUSH1 0x1 PUSH1 0xA0 SHL SUB AND DUP4 PUSH32 0x2F8788117E7EFF1D82E926EC794901D17C78024A50270940304540A733656F0D PUSH1 0x40 MLOAD PUSH1 0x40 MLOAD DUP1 SWAP2 SUB SWAP1 LOG4 POP POP JUMP JUMPDEST PUSH1 0x0 PUSH2 0x4E7E DUP2 CALLER PUSH2 0x2B51 JUMP JUMPDEST PUSH2 0x4EE7 JUMPI PUSH1 0x40 MLOAD PUSH3 0x461BCD PUSH1 0xE5 SHL DUP2 MSTORE PUSH1 0x20 PUSH1 0x4 DUP3 ADD MSTORE PUSH1 0x34 PUSH1 0x24 DUP3 ADD MSTORE PUSH32 0x436F6D7065746974696F6E202D20757064617465526573756C74733A2043616C PUSH1 0x44 DUP3 ADD MSTORE PUSH20 0x3632B91034B9903AB730BABA3437B934BD32B217 PUSH1 0x61 SHL PUSH1 0x64 DUP3 ADD MSTORE PUSH1 0x84 ADD PUSH2 0xDE1 JUMP JUMPDEST DUP2 DUP4 EQ ISZERO PUSH2 0x4F6E JUMPI PUSH1 0x40 MLOAD PUSH3 0x461BCD PUSH1 0xE5 SHL DUP2 MSTORE PUSH1 0x20 PUSH1 0x4 DUP3 ADD MSTORE PUSH1 0x48 PUSH1 0x24 DUP3 ADD MSTORE PUSH32 0x436F6D7065746974696F6E202D20757064617465526573756C74733A2043616E PUSH1 0x44 DUP3 ADD MSTORE PUSH32 0x6E6F74207570646174652077697468207468652073616D652068617368206173 PUSH1 0x64 DUP3 ADD MSTORE PUSH8 0x103132B337B93297 PUSH1 0xC1 SHL PUSH1 0x84 DUP3 ADD MSTORE PUSH1 0xA4 ADD PUSH2 0xDE1 JUMP JUMPDEST PUSH1 0x2 SLOAD PUSH1 0x1 PUSH1 0xA0 SHL SWAP1 DIV PUSH4 0xFFFFFFFF AND PUSH1 0x0 DUP2 DUP2 MSTORE PUSH1 0xE PUSH1 0x20 MSTORE PUSH1 0x40 SWAP1 KECCAK256 PUSH1 0x5 ADD SLOAD PUSH1 0x3 PUSH1 0xFF SWAP1 SWAP2 AND LT ISZERO PUSH2 0x500B JUMPI PUSH1 0x40 MLOAD PUSH3 0x461BCD PUSH1 0xE5 SHL DUP2 MSTORE PUSH1 0x20 PUSH1 0x4 DUP3 ADD MSTORE PUSH1 0x3B PUSH1 0x24 DUP3 ADD MSTORE PUSH32 0x436F6D7065746974696F6E202D20757064617465526573756C74733A20436861 PUSH1 0x44 DUP3 ADD MSTORE PUSH32 0x6C6C656E676520696E20756E65787065637465642073746174652E0000000000 PUSH1 0x64 DUP3 ADD MSTORE PUSH1 0x84 ADD PUSH2 0xDE1 JUMP JUMPDEST PUSH4 0xFFFFFFFF DUP2 AND PUSH1 0x0 SWAP1 DUP2 MSTORE PUSH1 0xE PUSH1 0x20 MSTORE PUSH1 0x40 SWAP1 KECCAK256 PUSH1 0x1 ADD SLOAD DUP5 EQ PUSH2 0x5098 JUMPI PUSH1 0x40 MLOAD PUSH3 0x461BCD PUSH1 0xE5 SHL DUP2 MSTORE PUSH1 0x20 PUSH1 0x4 DUP3 ADD MSTORE PUSH1 0x3C PUSH1 0x24 DUP3 ADD MSTORE PUSH32 0x436F6D7065746974696F6E202D20757064617465526573756C74733A20436C61 PUSH1 0x44 DUP3 ADD MSTORE PUSH32 0x736820696E206578697374696E6720726573756C747320686173682E00000000 PUSH1 0x64 DUP3 ADD MSTORE PUSH1 0x84 ADD PUSH2 0xDE1 JUMP JUMPDEST PUSH4 0xFFFFFFFF DUP2 AND PUSH1 0x0 DUP2 DUP2 MSTORE PUSH1 0xE PUSH1 0x20 MSTORE PUSH1 0x40 DUP1 DUP3 KECCAK256 PUSH1 0x1 SWAP1 DUP2 ADD DUP8 SWAP1 SSTORE SWAP1 MLOAD SWAP1 SWAP5 POP DUP6 SWAP3 DUP8 SWAP3 SWAP1 SWAP2 PUSH32 0xFB7D772905D44C5FDD59D4AB87C7F40281E09F93E2E189D03737C6D82B154EA SWAP2 SWAP1 LOG4 POP SWAP3 SWAP2 POP POP JUMP JUMPDEST PUSH2 0x50F6 DUP3 DUP3 PUSH2 0x2B51 JUMP JUMPDEST ISZERO PUSH2 0x1176 JUMPI PUSH1 0x0 DUP3 DUP2 MSTORE PUSH1 0x20 DUP2 DUP2 MSTORE PUSH1 0x40 DUP1 DUP4 KECCAK256 PUSH1 0x1 PUSH1 0x1 PUSH1 0xA0 SHL SUB DUP6 AND DUP1 DUP6 MSTORE SWAP3 MSTORE DUP1 DUP4 KECCAK256 DUP1 SLOAD PUSH1 0xFF NOT AND SWAP1 SSTORE MLOAD CALLER SWAP3 DUP6 SWAP2 PUSH32 0xF6391F5C32D9C69D2A47EA670B442974B53935D1EDC7FD64EB21E047A839171B SWAP2 SWAP1 LOG4 POP POP JUMP JUMPDEST PUSH1 0x0 DUP2 DUP4 EQ ISZERO PUSH2 0x51DA JUMPI PUSH1 0x40 MLOAD PUSH3 0x461BCD PUSH1 0xE5 SHL DUP2 MSTORE PUSH1 0x20 PUSH1 0x4 DUP3 ADD MSTORE PUSH1 0x48 PUSH1 0x24 DUP3 ADD MSTORE PUSH32 0x436F6D7065746974696F6E202D20757064617465446174617365743A2043616E PUSH1 0x44 DUP3 ADD MSTORE PUSH32 0x6E6F74207570646174652077697468207468652073616D652068617368206173 PUSH1 0x64 DUP3 ADD MSTORE PUSH8 0x103132B337B93297 PUSH1 0xC1 SHL PUSH1 0x84 DUP3 ADD MSTORE PUSH1 0xA4 ADD PUSH2 0xDE1 JUMP JUMPDEST PUSH4 0xFFFFFFFF DUP5 AND PUSH1 0x0 SWAP1 DUP2 MSTORE PUSH1 0xE PUSH1 0x20 MSTORE PUSH1 0x40 SWAP1 KECCAK256 SLOAD DUP4 EQ PUSH2 0x5264 JUMPI PUSH1 0x40 MLOAD PUSH3 0x461BCD PUSH1 0xE5 SHL DUP2 MSTORE PUSH1 0x20 PUSH1 0x4 DUP3 ADD MSTORE PUSH1 0x3D PUSH1 0x24 DUP3 ADD MSTORE PUSH32 0x436F6D7065746974696F6E202D20757064617465446174617365743A20496E63 PUSH1 0x44 DUP3 ADD MSTORE PUSH32 0x6F7272656374206F6C642064617461736574207265666572656E63652E000000 PUSH1 0x64 DUP3 ADD MSTORE PUSH1 0x84 ADD PUSH2 0xDE1 JUMP JUMPDEST POP PUSH4 0xFFFFFFFF DUP4 AND PUSH1 0x0 DUP2 DUP2 MSTORE PUSH1 0xE PUSH1 0x20 MSTORE PUSH1 0x40 DUP1 DUP3 KECCAK256 DUP5 SWAP1 SSTORE MLOAD PUSH1 0x1 SWAP3 DUP5 SWAP3 DUP7 SWAP3 PUSH32 0xB4AD7E2453C3C06A28C5CFE29A3067C6EDDE6EB03BE4DF2A461F9D806CB747E SWAP2 SWAP1 LOG4 SWAP4 SWAP3 POP POP POP JUMP JUMPDEST PUSH1 0x0 DUP2 DUP4 EQ ISZERO PUSH2 0x5337 JUMPI PUSH1 0x40 MLOAD PUSH3 0x461BCD PUSH1 0xE5 SHL DUP2 MSTORE PUSH1 0x20 PUSH1 0x4 DUP3 ADD MSTORE PUSH1 0x45 PUSH1 0x24 DUP3 ADD MSTORE PUSH32 0x436F6D7065746974696F6E202D205F7570646174654B65793A2043616E6E6F74 PUSH1 0x44 DUP3 ADD MSTORE PUSH32 0x207570646174652077697468207468652073616D652068617368206173206265 PUSH1 0x64 DUP3 ADD MSTORE PUSH5 0x3337B93297 PUSH1 0xD9 SHL PUSH1 0x84 DUP3 ADD MSTORE PUSH1 0xA4 ADD PUSH2 0xDE1 JUMP JUMPDEST PUSH4 0xFFFFFFFF DUP5 AND PUSH1 0x0 SWAP1 DUP2 MSTORE PUSH1 0xE PUSH1 0x20 MSTORE PUSH1 0x40 SWAP1 KECCAK256 PUSH1 0x2 ADD SLOAD DUP4 EQ PUSH2 0x53BD JUMPI PUSH1 0x40 MLOAD PUSH3 0x461BCD PUSH1 0xE5 SHL DUP2 MSTORE PUSH1 0x20 PUSH1 0x4 DUP3 ADD MSTORE PUSH1 0x36 PUSH1 0x24 DUP3 ADD MSTORE PUSH32 0x436F6D7065746974696F6E202D205F7570646174654B65793A20496E636F7272 PUSH1 0x44 DUP3 ADD MSTORE PUSH22 0x32B1BA1037B6321035B2BC903932B332B932B731B297 PUSH1 0x51 SHL PUSH1 0x64 DUP3 ADD MSTORE PUSH1 0x84 ADD PUSH2 0xDE1 JUMP JUMPDEST POP PUSH4 0xFFFFFFFF DUP4 AND PUSH1 0x0 DUP2 DUP2 MSTORE PUSH1 0xE PUSH1 0x20 MSTORE PUSH1 0x40 DUP1 DUP3 KECCAK256 PUSH1 0x2 ADD DUP5 SWAP1 SSTORE MLOAD PUSH1 0x1 SWAP3 DUP5 SWAP3 DUP7 SWAP3 PUSH32 0x7A2B6B0F48D13449D72D8FD2C1FAE94CD13C970CC0DC738ABD0BAE8D50CE81C6 SWAP2 SWAP1 LOG4 SWAP4 SWAP3 POP POP POP JUMP JUMPDEST PUSH1 0x2 SLOAD PUSH4 0xFFFFFFFF PUSH1 0x1 PUSH1 0xA0 SHL SWAP1 SWAP2 DIV AND PUSH1 0x0 DUP2 DUP2 MSTORE PUSH1 0xE PUSH1 0x20 MSTORE PUSH1 0x40 SWAP1 KECCAK256 PUSH1 0x5 ADD SLOAD PUSH1 0xFF AND PUSH1 0x1 EQ PUSH2 0x5496 JUMPI PUSH1 0x40 MLOAD PUSH3 0x461BCD PUSH1 0xE5 SHL DUP2 MSTORE PUSH1 0x20 PUSH1 0x4 DUP3 ADD MSTORE PUSH1 0x3E PUSH1 0x24 DUP3 ADD MSTORE PUSH1 0x0 DUP1 MLOAD PUSH1 0x20 PUSH2 0x5F51 DUP4 CODECOPY DUP2 MLOAD SWAP2 MSTORE PUSH1 0x44 DUP3 ADD MSTORE PUSH32 0x4E6F7420617661696C61626C6520666F72207375626D697373696F6E732E0000 PUSH1 0x64 DUP3 ADD MSTORE PUSH1 0x84 ADD PUSH2 0xDE1 JUMP JUMPDEST DUP2 PUSH2 0x54F7 JUMPI PUSH1 0x40 MLOAD PUSH3 0x461BCD PUSH1 0xE5 SHL DUP2 MSTORE PUSH1 0x20 PUSH1 0x4 DUP3 ADD MSTORE PUSH1 0x39 PUSH1 0x24 DUP3 ADD MSTORE PUSH1 0x0 DUP1 MLOAD PUSH1 0x20 PUSH2 0x5F51 DUP4 CODECOPY DUP2 MLOAD SWAP2 MSTORE PUSH1 0x44 DUP3 ADD MSTORE PUSH32 0x43616E6E6F74207375626D697420656D70747920686173682E00000000000000 PUSH1 0x64 DUP3 ADD MSTORE PUSH1 0x84 ADD PUSH2 0xDE1 JUMP JUMPDEST DUP2 DUP4 EQ ISZERO PUSH2 0x556F JUMPI PUSH1 0x40 MLOAD PUSH3 0x461BCD PUSH1 0xE5 SHL DUP2 MSTORE PUSH1 0x20 PUSH1 0x4 DUP3 ADD MSTORE PUSH1 0x4B PUSH1 0x24 DUP3 ADD MSTORE PUSH1 0x0 DUP1 MLOAD PUSH1 0x20 PUSH2 0x5F51 DUP4 CODECOPY DUP2 MLOAD SWAP2 MSTORE PUSH1 0x44 DUP3 ADD MSTORE PUSH32 0x43616E6E6F74207570646174652077697468207468652073616D652068617368 PUSH1 0x64 DUP3 ADD MSTORE PUSH11 0x1030B9903132B337B93297 PUSH1 0xA9 SHL PUSH1 0x84 DUP3 ADD MSTORE PUSH1 0xA4 ADD PUSH2 0xDE1 JUMP JUMPDEST PUSH4 0xFFFFFFFF DUP2 AND PUSH1 0x0 SWAP1 DUP2 MSTORE PUSH1 0xE PUSH1 0x20 SWAP1 DUP2 MSTORE PUSH1 0x40 DUP1 DUP4 KECCAK256 CALLER DUP5 MSTORE PUSH1 0x6 ADD SWAP1 SWAP2 MSTORE SWAP1 KECCAK256 SLOAD DUP4 EQ PUSH2 0x5600 JUMPI PUSH1 0x40 MLOAD PUSH3 0x461BCD PUSH1 0xE5 SHL DUP2 MSTORE PUSH1 0x20 PUSH1 0x4 DUP3 ADD MSTORE PUSH1 0x42 PUSH1 0x24 DUP3 ADD MSTORE PUSH1 0x0 DUP1 MLOAD PUSH1 0x20 PUSH2 0x5F51 DUP4 CODECOPY DUP2 MLOAD SWAP2 MSTORE PUSH1 0x44 DUP3 ADD MSTORE PUSH32 0x436C61736820696E206578697374696E67207375626D697373696F6E20686173 PUSH1 0x64 DUP3 ADD MSTORE PUSH2 0x3417 PUSH1 0xF1 SHL PUSH1 0x84 DUP3 ADD MSTORE PUSH1 0xA4 ADD PUSH2 0xDE1 JUMP JUMPDEST PUSH4 0xFFFFFFFF DUP2 AND PUSH1 0x0 DUP2 DUP2 MSTORE PUSH1 0xE PUSH1 0x20 SWAP1 DUP2 MSTORE PUSH1 0x40 DUP1 DUP4 KECCAK256 CALLER DUP1 DUP6 MSTORE PUSH1 0x6 SWAP1 SWAP2 ADD SWAP1 SWAP3 MSTORE DUP1 DUP4 KECCAK256 DUP7 SWAP1 SSTORE MLOAD DUP6 SWAP4 SWAP2 SWAP3 PUSH32 0x953E3B79BB71898776BB2EF8BB919748C883B8B27C42E334DE1ECDBF79D472BB SWAP2 LOG4 SWAP3 SWAP2 POP POP JUMP JUMPDEST DUP3 DUP1 SLOAD PUSH2 0x5664 SWAP1 PUSH2 0x5EA0 JUMP JUMPDEST SWAP1 PUSH1 0x0 MSTORE PUSH1 0x20 PUSH1 0x0 KECCAK256 SWAP1 PUSH1 0x1F ADD PUSH1 0x20 SWAP1 DIV DUP2 ADD SWAP3 DUP3 PUSH2 0x5686 JUMPI PUSH1 0x0 DUP6 SSTORE PUSH2 0x56CC JUMP JUMPDEST DUP3 PUSH1 0x1F LT PUSH2 0x569F JUMPI DUP3 DUP1 ADD PUSH1 0xFF NOT DUP3 CALLDATALOAD AND OR DUP6 SSTORE PUSH2 0x56CC JUMP JUMPDEST DUP3 DUP1 ADD PUSH1 0x1 ADD DUP6 SSTORE DUP3 ISZERO PUSH2 0x56CC JUMPI SWAP2 DUP3 ADD JUMPDEST DUP3 DUP2 GT ISZERO PUSH2 0x56CC JUMPI DUP3 CALLDATALOAD DUP3 SSTORE SWAP2 PUSH1 0x20 ADD SWAP2 SWAP1 PUSH1 0x1 ADD SWAP1 PUSH2 0x56B1 JUMP JUMPDEST POP PUSH2 0x56D8 SWAP3 SWAP2 POP PUSH2 0x56DC JUMP JUMPDEST POP SWAP1 JUMP JUMPDEST JUMPDEST DUP1 DUP3 GT ISZERO PUSH2 0x56D8 JUMPI PUSH1 0x0 DUP2 SSTORE PUSH1 0x1 ADD PUSH2 0x56DD JUMP JUMPDEST DUP1 CALLDATALOAD PUSH1 0x1 PUSH1 0x1 PUSH1 0xA0 SHL SUB DUP2 AND DUP2 EQ PUSH2 0x5708 JUMPI PUSH1 0x0 DUP1 REVERT JUMPDEST SWAP2 SWAP1 POP JUMP JUMPDEST PUSH1 0x0 DUP1 DUP4 PUSH1 0x1F DUP5 ADD SLT PUSH2 0x571E JUMPI DUP2 DUP3 REVERT JUMPDEST POP DUP2 CALLDATALOAD PUSH1 0x1 PUSH1 0x1 PUSH1 0x40 SHL SUB DUP2 GT ISZERO PUSH2 0x5734 JUMPI DUP2 DUP3 REVERT JUMPDEST PUSH1 0x20 DUP4 ADD SWAP2 POP DUP4 PUSH1 0x20 DUP3 PUSH1 0x5 SHL DUP6 ADD ADD GT ISZERO PUSH2 0x574F JUMPI PUSH1 0x0 DUP1 REVERT JUMPDEST SWAP3 POP SWAP3 SWAP1 POP JUMP JUMPDEST DUP1 CALLDATALOAD PUSH4 0xFFFFFFFF DUP2 AND DUP2 EQ PUSH2 0x5708 JUMPI PUSH1 0x0 DUP1 REVERT JUMPDEST PUSH1 0x0 PUSH1 0x20 DUP3 DUP5 SUB SLT ISZERO PUSH2 0x577B JUMPI DUP1 DUP2 REVERT JUMPDEST PUSH2 0x2BF8 DUP3 PUSH2 0x56F1 JUMP JUMPDEST PUSH1 0x0 DUP1 PUSH1 0x0 DUP1 PUSH1 0x40 DUP6 DUP8 SUB SLT ISZERO PUSH2 0x5799 JUMPI DUP3 DUP4 REVERT JUMPDEST DUP5 CALLDATALOAD PUSH1 0x1 PUSH1 0x1 PUSH1 0x40 SHL SUB DUP1 DUP3 GT ISZERO PUSH2 0x57AF JUMPI DUP5 DUP6 REVERT JUMPDEST PUSH2 0x57BB DUP9 DUP4 DUP10 ADD PUSH2 0x570D JUMP JUMPDEST SWAP1 SWAP7 POP SWAP5 POP PUSH1 0x20 DUP8 ADD CALLDATALOAD SWAP2 POP DUP1 DUP3 GT ISZERO PUSH2 0x57D3 JUMPI DUP4 DUP5 REVERT JUMPDEST POP PUSH2 0x57E0 DUP8 DUP3 DUP9 ADD PUSH2 0x570D JUMP JUMPDEST SWAP6 SWAP9 SWAP5 SWAP8 POP SWAP6 POP POP POP POP JUMP JUMPDEST PUSH1 0x0 DUP1 PUSH1 0x0 DUP1 PUSH1 0x0 DUP1 PUSH1 0x60 DUP8 DUP10 SUB SLT ISZERO PUSH2 0x5804 JUMPI DUP2 DUP3 REVERT JUMPDEST DUP7 CALLDATALOAD PUSH1 0x1 PUSH1 0x1 PUSH1 0x40 SHL SUB DUP1 DUP3 GT ISZERO PUSH2 0x581A JUMPI DUP4 DUP5 REVERT JUMPDEST PUSH2 0x5826 DUP11 DUP4 DUP12 ADD PUSH2 0x570D JUMP JUMPDEST SWAP1 SWAP9 POP SWAP7 POP PUSH1 0x20 DUP10 ADD CALLDATALOAD SWAP2 POP DUP1 DUP3 GT ISZERO PUSH2 0x583E JUMPI DUP4 DUP5 REVERT JUMPDEST PUSH2 0x584A DUP11 DUP4 DUP12 ADD PUSH2 0x570D JUMP JUMPDEST SWAP1 SWAP7 POP SWAP5 POP PUSH1 0x40 DUP10 ADD CALLDATALOAD SWAP2 POP DUP1 DUP3 GT ISZERO PUSH2 0x5862 JUMPI DUP4 DUP5 REVERT JUMPDEST POP PUSH2 0x586F DUP10 DUP3 DUP11 ADD PUSH2 0x570D JUMP JUMPDEST SWAP8 SWAP11 SWAP7 SWAP10 POP SWAP5 SWAP8 POP SWAP3 SWAP6 SWAP4 SWAP5 SWAP3 POP POP POP JUMP JUMPDEST PUSH1 0x0 PUSH1 0x20 DUP3 DUP5 SUB SLT ISZERO PUSH2 0x5892 JUMPI DUP1 DUP2 REVERT JUMPDEST DUP2 MLOAD DUP1 ISZERO ISZERO DUP2 EQ PUSH2 0x2BF8 JUMPI DUP2 DUP3 REVERT JUMPDEST PUSH1 0x0 PUSH1 0x20 DUP3 DUP5 SUB SLT ISZERO PUSH2 0x58B2 JUMPI DUP1 DUP2 REVERT JUMPDEST POP CALLDATALOAD SWAP2 SWAP1 POP JUMP JUMPDEST PUSH1 0x0 DUP1 PUSH1 0x40 DUP4 DUP6 SUB SLT ISZERO PUSH2 0x58CB JUMPI DUP2 DUP3 REVERT JUMPDEST DUP3 CALLDATALOAD SWAP2 POP PUSH2 0x58DB PUSH1 0x20 DUP5 ADD PUSH2 0x56F1 JUMP JUMPDEST SWAP1 POP SWAP3 POP SWAP3 SWAP1 POP JUMP JUMPDEST PUSH1 0x0 DUP1 PUSH1 0x40 DUP4 DUP6 SUB SLT ISZERO PUSH2 0x58F6 JUMPI DUP2 DUP3 REVERT JUMPDEST POP POP DUP1 CALLDATALOAD SWAP3 PUSH1 0x20 SWAP1 SWAP2 ADD CALLDATALOAD SWAP2 POP JUMP JUMPDEST PUSH1 0x0 PUSH1 0x20 DUP3 DUP5 SUB SLT ISZERO PUSH2 0x5916 JUMPI DUP1 DUP2 REVERT JUMPDEST DUP2 CALLDATALOAD PUSH1 0x1 PUSH1 0x1 PUSH1 0xE0 SHL SUB NOT DUP2 AND DUP2 EQ PUSH2 0x2BF8 JUMPI DUP2 DUP3 REVERT JUMPDEST PUSH1 0x0 DUP1 PUSH1 0x20 DUP4 DUP6 SUB SLT ISZERO PUSH2 0x593F JUMPI DUP2 DUP3 REVERT JUMPDEST DUP3 CALLDATALOAD PUSH1 0x1 PUSH1 0x1 PUSH1 0x40 SHL SUB DUP1 DUP3 GT ISZERO PUSH2 0x5955 JUMPI DUP4 DUP5 REVERT JUMPDEST DUP2 DUP6 ADD SWAP2 POP DUP6 PUSH1 0x1F DUP4 ADD SLT PUSH2 0x5968 JUMPI DUP4 DUP5 REVERT JUMPDEST DUP2 CALLDATALOAD DUP2 DUP2 GT ISZERO PUSH2 0x5976 JUMPI DUP5 DUP6 REVERT JUMPDEST DUP7 PUSH1 0x20 DUP3 DUP6 ADD ADD GT ISZERO PUSH2 0x5987 JUMPI DUP5 DUP6 REVERT JUMPDEST PUSH1 0x20 SWAP3 SWAP1 SWAP3 ADD SWAP7 SWAP2 SWAP6 POP SWAP1 SWAP4 POP POP POP POP JUMP JUMPDEST PUSH1 0x0 PUSH1 0x20 DUP3 DUP5 SUB SLT ISZERO PUSH2 0x59AA JUMPI DUP1 DUP2 REVERT JUMPDEST POP MLOAD SWAP2 SWAP1 POP JUMP JUMPDEST PUSH1 0x0 PUSH1 0x20 DUP3 DUP5 SUB SLT ISZERO PUSH2 0x59C2 JUMPI DUP1 DUP2 REVERT JUMPDEST PUSH2 0x2BF8 DUP3 PUSH2 0x5756 JUMP JUMPDEST PUSH1 0x0 DUP1 PUSH1 0x40 DUP4 DUP6 SUB SLT ISZERO PUSH2 0x59DD JUMPI DUP2 DUP3 REVERT JUMPDEST PUSH2 0x59E6 DUP4 PUSH2 0x5756 JUMP JUMPDEST SWAP2 POP PUSH2 0x58DB PUSH1 0x20 DUP5 ADD PUSH2 0x56F1 JUMP JUMPDEST PUSH1 0x0 DUP1 PUSH1 0x0 PUSH1 0x60 DUP5 DUP7 SUB SLT ISZERO PUSH2 0x5A08 JUMPI DUP1 DUP2 REVERT JUMPDEST PUSH2 0x5A11 DUP5 PUSH2 0x5756 JUMP JUMPDEST SWAP3 POP PUSH2 0x5A1F PUSH1 0x20 DUP6 ADD PUSH2 0x56F1 JUMP JUMPDEST SWAP2 POP PUSH1 0x40 DUP5 ADD CALLDATALOAD SWAP1 POP SWAP3 POP SWAP3 POP SWAP3 JUMP JUMPDEST PUSH1 0x0 DUP1 PUSH1 0x0 DUP1 PUSH1 0x0 PUSH1 0x60 DUP7 DUP9 SUB SLT ISZERO PUSH2 0x5A46 JUMPI DUP3 DUP4 REVERT JUMPDEST PUSH2 0x5A4F DUP7 PUSH2 0x5756 JUMP JUMPDEST SWAP5 POP PUSH1 0x20 DUP7 ADD CALLDATALOAD PUSH1 0x1 PUSH1 0x1 PUSH1 0x40 SHL SUB DUP1 DUP3 GT ISZERO PUSH2 0x5A6A JUMPI DUP5 DUP6 REVERT JUMPDEST PUSH2 0x5A76 DUP10 DUP4 DUP11 ADD PUSH2 0x570D JUMP JUMPDEST SWAP1 SWAP7 POP SWAP5 POP PUSH1 0x40 DUP9 ADD CALLDATALOAD SWAP2 POP DUP1 DUP3 GT ISZERO PUSH2 0x5A8E JUMPI DUP3 DUP4 REVERT JUMPDEST POP PUSH2 0x5A9B DUP9 DUP3 DUP10 ADD PUSH2 0x570D JUMP JUMPDEST SWAP7 SWAP10 SWAP6 SWAP9 POP SWAP4 SWAP7 POP SWAP3 SWAP5 SWAP4 SWAP3 POP POP POP JUMP JUMPDEST PUSH1 0x0 DUP1 PUSH1 0x0 DUP1 PUSH1 0x0 DUP1 PUSH1 0x0 PUSH1 0x80 DUP9 DUP11 SUB SLT ISZERO PUSH2 0x5AC6 JUMPI DUP5 DUP6 REVERT JUMPDEST PUSH2 0x5ACF DUP9 PUSH2 0x5756 JUMP JUMPDEST SWAP7 POP PUSH1 0x20 DUP9 ADD CALLDATALOAD PUSH1 0x1 PUSH1 0x1 PUSH1 0x40 SHL SUB DUP1 DUP3 GT ISZERO PUSH2 0x5AEA JUMPI DUP7 DUP8 REVERT JUMPDEST PUSH2 0x5AF6 DUP12 DUP4 DUP13 ADD PUSH2 0x570D JUMP JUMPDEST SWAP1 SWAP9 POP SWAP7 POP PUSH1 0x40 DUP11 ADD CALLDATALOAD SWAP2 POP DUP1 DUP3 GT ISZERO PUSH2 0x5B0E JUMPI DUP3 DUP4 REVERT JUMPDEST PUSH2 0x5B1A DUP12 DUP4 DUP13 ADD PUSH2 0x570D JUMP JUMPDEST SWAP1 SWAP7 POP SWAP5 POP PUSH1 0x60 DUP11 ADD CALLDATALOAD SWAP2 POP DUP1 DUP3 GT ISZERO PUSH2 0x5B32 JUMPI DUP3 DUP4 REVERT JUMPDEST POP PUSH2 0x5B3F DUP11 DUP3 DUP12 ADD PUSH2 0x570D JUMP JUMPDEST SWAP9 SWAP12 SWAP8 SWAP11 POP SWAP6 SWAP9 POP SWAP4 SWAP7 SWAP3 SWAP6 SWAP3 SWAP4 POP POP POP JUMP JUMPDEST PUSH1 0x0 DUP1 PUSH1 0x0 DUP1 PUSH1 0x0 DUP1 PUSH1 0x80 DUP8 DUP10 SUB SLT ISZERO PUSH2 0x5B6A JUMPI DUP4 DUP5 REVERT JUMPDEST PUSH2 0x5B73 DUP8 PUSH2 0x5756 JUMP JUMPDEST SWAP6 POP PUSH1 0x20 DUP8 ADD CALLDATALOAD PUSH1 0x1 PUSH1 0x1 PUSH1 0x40 SHL SUB DUP1 DUP3 GT ISZERO PUSH2 0x5B8E JUMPI DUP6 DUP7 REVERT JUMPDEST PUSH2 0x5B9A DUP11 DUP4 DUP12 ADD PUSH2 0x570D JUMP JUMPDEST SWAP1 SWAP8 POP SWAP6 POP PUSH1 0x40 DUP10 ADD CALLDATALOAD SWAP5 POP PUSH1 0x60 DUP10 ADD CALLDATALOAD SWAP2 POP DUP1 DUP3 GT ISZERO PUSH2 0x5862 JUMPI DUP4 DUP5 REVERT JUMPDEST PUSH1 0x0 DUP1 PUSH1 0x40 DUP4 DUP6 SUB SLT ISZERO PUSH2 0x5BCB JUMPI DUP2 DUP3 REVERT JUMPDEST PUSH2 0x5BD4 DUP4 PUSH2 0x5756 JUMP JUMPDEST SWAP5 PUSH1 0x20 SWAP4 SWAP1 SWAP4 ADD CALLDATALOAD SWAP4 POP POP POP JUMP JUMPDEST PUSH1 0x0 DUP1 PUSH1 0x0 PUSH1 0x60 DUP5 DUP7 SUB SLT ISZERO PUSH2 0x5BF6 JUMPI DUP1 DUP2 REVERT JUMPDEST PUSH2 0x5BFF DUP5 PUSH2 0x5756 JUMP JUMPDEST SWAP6 PUSH1 0x20 DUP6 ADD CALLDATALOAD SWAP6 POP PUSH1 0x40 SWAP1 SWAP5 ADD CALLDATALOAD SWAP4 SWAP3 POP POP POP JUMP JUMPDEST PUSH1 0x0 DUP1 PUSH1 0x40 DUP4 DUP6 SUB SLT ISZERO PUSH2 0x5C26 JUMPI DUP2 DUP3 REVERT JUMPDEST PUSH2 0x5C2F DUP4 PUSH2 0x5756 JUMP JUMPDEST SWAP2 POP PUSH2 0x58DB PUSH1 0x20 DUP5 ADD PUSH2 0x5756 JUMP JUMPDEST PUSH1 0x0 DUP1 PUSH1 0x0 PUSH1 0x60 DUP5 DUP7 SUB SLT ISZERO PUSH2 0x5C51 JUMPI DUP1 DUP2 REVERT JUMPDEST PUSH2 0x5C5A DUP5 PUSH2 0x5756 JUMP JUMPDEST SWAP3 POP PUSH2 0x5C68 PUSH1 0x20 DUP6 ADD PUSH2 0x5756 JUMP JUMPDEST SWAP2 POP PUSH2 0x5C76 PUSH1 0x40 DUP6 ADD PUSH2 0x56F1 JUMP JUMPDEST SWAP1 POP SWAP3 POP SWAP3 POP SWAP3 JUMP JUMPDEST PUSH1 0x0 DUP1 PUSH1 0x0 DUP1 PUSH1 0x80 DUP6 DUP8 SUB SLT ISZERO PUSH2 0x5C94 JUMPI DUP2 DUP3 REVERT JUMPDEST PUSH2 0x5C9D DUP6 PUSH2 0x5756 JUMP JUMPDEST SWAP4 POP PUSH2 0x5CAB PUSH1 0x20 DUP7 ADD PUSH2 0x5756 JUMP JUMPDEST SWAP3 POP PUSH2 0x5CB9 PUSH1 0x40 DUP7 ADD PUSH2 0x56F1 JUMP JUMPDEST SWAP4 SWAP7 SWAP3 SWAP6 POP SWAP3 SWAP4 PUSH1 0x60 ADD CALLDATALOAD SWAP3 POP POP JUMP JUMPDEST PUSH1 0x0 PUSH1 0x20 DUP3 DUP5 SUB SLT ISZERO PUSH2 0x5CDA JUMPI DUP1 DUP2 REVERT JUMPDEST DUP2 CALLDATALOAD PUSH1 0xFF DUP2 AND DUP2 EQ PUSH2 0x2BF8 JUMPI DUP2 DUP3 REVERT JUMPDEST PUSH1 0x20 DUP1 DUP3 MSTORE DUP3 MLOAD DUP3 DUP3 ADD DUP2 SWAP1 MSTORE PUSH1 0x0 SWAP2 SWAP1 DUP5 DUP3 ADD SWAP1 PUSH1 0x40 DUP6 ADD SWAP1 DUP5 JUMPDEST DUP2 DUP2 LT ISZERO PUSH2 0x5D2B JUMPI DUP4 MLOAD PUSH1 0x1 PUSH1 0x1 PUSH1 0xA0 SHL SUB AND DUP4 MSTORE SWAP3 DUP5 ADD SWAP3 SWAP2 DUP5 ADD SWAP2 PUSH1 0x1 ADD PUSH2 0x5D06 JUMP JUMPDEST POP SWAP1 SWAP7 SWAP6 POP POP POP POP POP POP JUMP JUMPDEST PUSH1 0x20 DUP1 DUP3 MSTORE DUP3 MLOAD DUP3 DUP3 ADD DUP2 SWAP1 MSTORE PUSH1 0x0 SWAP2 SWAP1 DUP5 DUP3 ADD SWAP1 PUSH1 0x40 DUP6 ADD SWAP1 DUP5 JUMPDEST DUP2 DUP2 LT ISZERO PUSH2 0x5D2B JUMPI DUP4 MLOAD DUP4 MSTORE SWAP3 DUP5 ADD SWAP3 SWAP2 DUP5 ADD SWAP2 PUSH1 0x1 ADD PUSH2 0x5D53 JUMP JUMPDEST PUSH1 0x0 PUSH1 0x20 DUP1 DUP4 MSTORE DUP4 MLOAD DUP1 DUP3 DUP6 ADD MSTORE DUP3 JUMPDEST DUP2 DUP2 LT ISZERO PUSH2 0x5D9B JUMPI DUP6 DUP2 ADD DUP4 ADD MLOAD DUP6 DUP3 ADD PUSH1 0x40 ADD MSTORE DUP3 ADD PUSH2 0x5D7F JUMP JUMPDEST DUP2 DUP2 GT ISZERO PUSH2 0x5DAC JUMPI DUP4 PUSH1 0x40 DUP4 DUP8 ADD ADD MSTORE JUMPDEST POP PUSH1 0x1F ADD PUSH1 0x1F NOT AND SWAP3 SWAP1 SWAP3 ADD PUSH1 0x40 ADD SWAP4 SWAP3 POP POP POP JUMP JUMPDEST PUSH1 0x0 DUP3 NOT DUP3 GT ISZERO PUSH2 0x5DD5 JUMPI PUSH2 0x5DD5 PUSH2 0x5F1A JUMP JUMPDEST POP ADD SWAP1 JUMP JUMPDEST PUSH1 0x0 PUSH4 0xFFFFFFFF DUP1 DUP4 AND DUP2 DUP6 AND DUP1 DUP4 SUB DUP3 GT ISZERO PUSH2 0x5DF9 JUMPI PUSH2 0x5DF9 PUSH2 0x5F1A JUMP JUMPDEST ADD SWAP5 SWAP4 POP POP POP POP JUMP JUMPDEST PUSH1 0x0 DUP3 PUSH2 0x5E1D JUMPI PUSH4 0x4E487B71 PUSH1 0xE0 SHL DUP2 MSTORE PUSH1 0x12 PUSH1 0x4 MSTORE PUSH1 0x24 DUP2 REVERT JUMPDEST POP DIV SWAP1 JUMP JUMPDEST PUSH1 0x0 DUP2 PUSH1 0x0 NOT DIV DUP4 GT DUP3 ISZERO ISZERO AND ISZERO PUSH2 0x5E3C JUMPI PUSH2 0x5E3C PUSH2 0x5F1A JUMP JUMPDEST POP MUL SWAP1 JUMP JUMPDEST PUSH1 0x0 DUP3 DUP3 LT ISZERO PUSH2 0x5E53 JUMPI PUSH2 0x5E53 PUSH2 0x5F1A JUMP JUMPDEST POP SUB SWAP1 JUMP JUMPDEST PUSH1 0x0 PUSH4 0xFFFFFFFF DUP4 DUP2 AND SWAP1 DUP4 AND DUP2 DUP2 LT ISZERO PUSH2 0x5E75 JUMPI PUSH2 0x5E75 PUSH2 0x5F1A JUMP JUMPDEST SUB SWAP4 SWAP3 POP POP POP JUMP JUMPDEST PUSH1 0x0 PUSH1 0xFF DUP3 AND PUSH1 0xFF DUP5 AND DUP1 DUP3 LT ISZERO PUSH2 0x5E97 JUMPI PUSH2 0x5E97 PUSH2 0x5F1A JUMP JUMPDEST SWAP1 SUB SWAP4 SWAP3 POP POP POP JUMP JUMPDEST PUSH1 0x1 DUP2 DUP2 SHR SWAP1 DUP3 AND DUP1 PUSH2 0x5EB4 JUMPI PUSH1 0x7F DUP3 AND SWAP2 POP JUMPDEST PUSH1 0x20 DUP3 LT DUP2 EQ ISZERO PUSH2 0x5ED5 JUMPI PUSH4 0x4E487B71 PUSH1 0xE0 SHL PUSH1 0x0 MSTORE PUSH1 0x22 PUSH1 0x4 MSTORE PUSH1 0x24 PUSH1 0x0 REVERT JUMPDEST POP SWAP2 SWAP1 POP JUMP JUMPDEST PUSH1 0x0 PUSH1 0x0 NOT DUP3 EQ ISZERO PUSH2 0x5EEF JUMPI PUSH2 0x5EEF PUSH2 0x5F1A JUMP JUMPDEST POP PUSH1 0x1 ADD SWAP1 JUMP JUMPDEST PUSH1 0x0 PUSH4 0xFFFFFFFF DUP1 DUP4 AND DUP2 DUP2 EQ ISZERO PUSH2 0x5F10 JUMPI PUSH2 0x5F10 PUSH2 0x5F1A JUMP JUMPDEST PUSH1 0x1 ADD SWAP4 SWAP3 POP POP POP JUMP JUMPDEST PUSH4 0x4E487B71 PUSH1 0xE0 SHL PUSH1 0x0 MSTORE PUSH1 0x11 PUSH1 0x4 MSTORE PUSH1 0x24 PUSH1 0x0 REVERT INVALID NUMBER PUSH16 0x6D7065746974696F6E202D206D6F7665 MSTORE PUSH6 0x6D61696E6465 PUSH19 0x546F506F6F436F6D7065746974696F6E202D20 PUSH22 0x70646174655375626D697373696F6E3A20A264697066 PUSH20 0x5822122091790095CCC0E19FED707F4E511935AE RETURNDATACOPY PUSH28 0x80B923F32024DCDF92F88648FA064736F6C63430008040033000000 ",
  "sha1": "69f04cf29d48aa934f024b09dd4133be8d98a3d9",
  "source": "pragma solidity 0.8.4;\n\n// SPDX-License-Identifier: MIT\n\nimport './../interfaces/ICompetition.sol';\nimport './standard/access/AccessControl.sol';\nimport '../interfaces/IToken.sol';\nimport '../interfaces/IVault.sol';\nimport '../interfaces/IRegistry.sol';\n\n/**\n * @title RCI Tournament(Competition) Contract\n * @author Rocket Capital Investment Pte Ltd\n * @dev This contract manages registration and reward payouts for the RCI Tournament.\n * @dev IPFS hash format: Hash Identifier (2 bytes), Actual Hash (May eventually take on other formats but currently 32 bytes)\n * \n */\ncontract Competition is AccessControl, ICompetition {\n\n    struct Information{\n        bytes32 submission;\n        uint256 staked;\n        uint256 stakingRewards;\n        uint256 challengeRewards;\n        uint256 tournamentRewards;\n        uint256 challengeScores;\n        uint256 tournamentScores;\n        mapping(uint256 => int) info; // 1: rank, 2: reputation, 3: scores\n    }\n\n    struct Challenge{\n        bytes32 dataset;\n        bytes32 results;\n        bytes32 key;\n        bytes32 privateKey;\n        uint256 totalStakedForChallenge;\n        uint8 phase; \n        // 0: closed, 1: staking and submissions open. 2: pay out staking rewards\n        // 3: pay out challenge rewards 4: completed\n        mapping(address => Information) submitterInfo;\n        mapping(uint256 => uint256) deadlines;\n        address[] submitters;\n    }\n\n    IToken private _token;\n    IVault private _vault;\n    uint32 private _challengeCounter;\n    uint256 private _stakeThreshold;\n    uint256 private _competitionPool;\n    uint256 private _rewardsThreshold;\n    uint256 private _currentTotalStaked;\n    uint256 private _currentStakingRewardsBudget;\n    uint256 private _currentChallengeRewardsBudget;\n    uint256 private _currentTournamentRewardsBudget;\n    uint256 private _challengeRewardsPercentageInWei;\n    uint256 private _tournamentRewardsPercentageInWei;\n    string private _message;\n    mapping(address => uint256) private _stakes;\n    mapping(uint32 => Challenge) private _challenges;\n\n    /*\n    * @param duration_ The number of phases per challenge.\n    * @param fee_ The initial registration fee in Token wei.\n    * @param token_address_ The address of the ERC20 token contract.\n    */\n    constructor(uint256 stakeThreshold_, uint256 rewardsThreshold_, address tokenAddress_, address vaultAddress_){\n        require(tokenAddress_ != address(0), \"No token address found.\");\n        require(vaultAddress_ != address(0), \"No vault address found.\");\n\n        _setupRole(DEFAULT_ADMIN_ROLE, msg.sender);\n        _stakeThreshold = stakeThreshold_;\n        _rewardsThreshold = rewardsThreshold_;\n        _token = IToken(tokenAddress_);\n        _vault = IVault(vaultAddress_);\n        _challengeCounter = 0;\n        _challenges[_challengeCounter].phase = 4;\n        _challengeRewardsPercentageInWei = 30e16;\n        _tournamentRewardsPercentageInWei = 60e16;\n    }\n\n    /**\n    READ METHODS\n    **/\n\n    function getMessage()\n    view external override\n    returns (string memory message)\n    {\n        message = _message;\n    }\n\n    function getCompetitionPool()\n    view external override\n    returns (uint256 competitionPool)\n    {\n        competitionPool = _competitionPool;\n    }\n\n    function getRewardsThreshold()\n    view external override\n    returns (uint256 rewardsThreshold)\n    {\n        rewardsThreshold = _rewardsThreshold;\n    }\n\n    function getCurrentTotalStaked()\n    view external override\n    returns (uint256 currentTotalStaked)\n    {\n        currentTotalStaked = _currentTotalStaked;\n    }\n\n    function getCurrentStakingRewardsBudget()\n    view external override\n    returns (uint256 currentStakingRewardsBudget)\n    {\n        currentStakingRewardsBudget = _currentStakingRewardsBudget;\n    }\n\n    function getCurrentChallengeRewardsBudget()\n    view external override\n    returns (uint256 currentChallengeRewardsBudget)\n    {\n        currentChallengeRewardsBudget = _currentChallengeRewardsBudget;\n    }\n    \n    function getCurrentTournamentRewardsBudget()\n    view external override\n    returns (uint256 currentTournamentRewardsBudget)\n    {\n        currentTournamentRewardsBudget = _currentTournamentRewardsBudget;\n    }\n\n    function getChallengeRewardsPercentageInWei()\n    view external override\n    returns (uint256 challengeRewardsPercentageInWei)\n    {\n        challengeRewardsPercentageInWei = _challengeRewardsPercentageInWei;\n    }\n\n    function getTournamentRewardsPercentageInWei()\n    view external override\n    returns (uint256 tournamentRewardsPercentageInWei)\n    {\n        tournamentRewardsPercentageInWei = _tournamentRewardsPercentageInWei;\n    }\n\n    function getLatestChallengeNumber()\n    view external override\n    returns (uint32 latestChallengeNumber)\n    {\n        latestChallengeNumber = _challengeCounter;\n    }\n\n    function getDatasetHash(uint32 challengeNumber)\n    view external override\n    returns (bytes32 dataset)\n    {\n        dataset = _challenges[challengeNumber].dataset;\n    }\n\n    function getDatasetHashList(uint32 challengeNumberStart, uint32 challengeNumberEnd)\n    view external override\n    returns (bytes32[] memory)\n    {\n        bytes32[] memory datasetList = new bytes32[](1 + challengeNumberEnd - challengeNumberStart);\n\n        for (uint32 i = challengeNumberStart; i <= challengeNumberEnd; i++)\n        {\n            datasetList[i - challengeNumberStart] = _challenges[i].dataset;\n        }\n\n        return datasetList;\n    }\n\n    function getResultsHash(uint32 challengeNumber)\n    view external override\n    returns (bytes32 results)\n    {\n        results = _challenges[challengeNumber].results;\n    }\n\n    function getResultsHashList(uint32 challengeNumberStart, uint32 challengeNumberEnd)\n    view external override\n    returns (bytes32[] memory)\n    {\n        bytes32[] memory resultsList = new bytes32[](1 + challengeNumberEnd - challengeNumberStart);\n        for (uint32 i = challengeNumberStart; i <= challengeNumberEnd; i++)\n        {\n            resultsList[i - challengeNumberStart] = _challenges[i].results;\n        }\n\n        return resultsList;\n    }\n\n    function getKeyHash(uint32 challengeNumber)\n    view external override\n    returns (bytes32 key)\n    {\n        key = _challenges[challengeNumber].key;\n    }\n\n    function getPrivateKeyHash(uint32 challengeNumber)\n    view external override\n    returns (bytes32 privateKey)\n    {\n        privateKey = _challenges[challengeNumber].privateKey;\n    }\n\n    function getKeyHashList(uint32 challengeNumberStart, uint32 challengeNumberEnd)\n    view external override\n    returns (bytes32[] memory)\n    {\n        bytes32[] memory keyList = new bytes32[](1 + challengeNumberEnd - challengeNumberStart);\n        for (uint32 i = challengeNumberStart; i <= challengeNumberEnd; i++)\n        {\n            keyList[i - challengeNumberStart] = _challenges[i].key;\n        }\n\n        return keyList;\n    }\n\n    function getSubmissionCounter(uint32 challengeNumber)\n    view external override\n    returns (uint256 submissionCounter)\n    {\n        submissionCounter = _challenges[challengeNumber].submitters.length;\n    }\n\n    function getSubmissionCounterList(uint32 challengeNumberStart, uint32 challengeNumberEnd)\n    view external override\n    returns (uint256[] memory)\n    {\n        uint256[] memory submissionCounterList = new uint256[](1 + challengeNumberEnd - challengeNumberStart);\n        for (uint32 i = challengeNumberStart; i <= challengeNumberEnd; i++)\n        {\n            submissionCounterList[i - challengeNumberStart] = _challenges[i].submitters.length;\n        }\n\n        return submissionCounterList;\n    }\n\n    function getSubmitters(uint32 challengeNumber)\n    view external override\n    returns (address[] memory submitters)\n    {\n        submitters = _challenges[challengeNumber].submitters;\n    }\n\n    function getPhase(uint32 challengeNumber)\n    view external override\n    returns (uint8 phase)\n    {\n        phase = _challenges[challengeNumber].phase;\n    }\n\n//    function getPhaseList(uint32 challengeNumberStart, uint32 challengeNumberEnd)\n//    view external override\n//    returns (uint8[] memory)\n//    {\n//        uint8[] memory phaseList = new uint8[](1 + challengeNumberEnd - challengeNumberStart);\n//        for (uint32 i = challengeNumberStart; i <= challengeNumberEnd; i++)\n//        {\n//            phaseList[i - challengeNumberStart] = _challenges[i].phase;\n//        }\n//\n//        return phaseList;\n//    }\n\n    function getStakeThreshold()\n    view external override\n    returns (uint256 stakeThreshold)\n    {\n        stakeThreshold = _stakeThreshold;\n    }\n\n    function getStake(address participant)\n    view external override\n    returns (uint256 stake)\n    {\n        stake = _stakes[participant];\n    }\n\n    function getTokenAddress()\n    view external override\n    returns (address tokenAddress)\n    {\n        tokenAddress = address(_token);\n    }\n\n    function getVaultAddress()\n    view external override\n    returns (address vaultAddress)\n    {\n        vaultAddress = address(_vault);\n    }\n\n    function getSubmission(uint32 challengeNumber, address participant)\n    view external override\n    returns (bytes32 submissionHash)\n    {\n        submissionHash = _challenges[challengeNumber].submitterInfo[participant].submission;\n    }\n\n    function getSubmissionList(uint32 challengeNumberStart, uint32 challengeNumberEnd, address participant)\n    view external override\n    returns (bytes32[] memory)\n    {\n        bytes32[] memory submissionList = new bytes32[](1 + challengeNumberEnd - challengeNumberStart);\n        for (uint32 i = challengeNumberStart; i <= challengeNumberEnd; i++)\n        {\n            submissionList[i - challengeNumberStart] = _challenges[i].submitterInfo[participant].submission;\n        }\n\n        return submissionList;\n    }\n\n    function getTotalStakesLockedForChallenge(uint32 challengeNumber)\n    view external override\n    returns (uint256 totalStakedForChallenge)\n    {\n        totalStakedForChallenge = _challenges[challengeNumber].totalStakedForChallenge;\n    }\n\n    function getTotalStakesLockedForChallengeList(uint32 challengeNumberStart, uint32 challengeNumberEnd)\n    view external override\n    returns (uint256[] memory)\n    {\n        uint256[] memory totalStakesLockedForChallengeList = new uint256[](1 + challengeNumberEnd - challengeNumberStart);\n        for (uint32 i = challengeNumberStart; i <= challengeNumberEnd; i++)\n        {\n            totalStakesLockedForChallengeList[i - challengeNumberStart] = _challenges[i].totalStakedForChallenge;\n        }\n\n        return totalStakesLockedForChallengeList;\n    }\n\n    function getStakedAmountForChallenge(uint32 challengeNumber, address participant)\n    view external override\n    returns (uint256 staked)\n    {\n        staked = _challenges[challengeNumber].submitterInfo[participant].staked;\n    }\n\n//    function getStakedAmountForChallengeList(uint32 challengeNumberStart, uint32 challengeNumberEnd, address participant)\n//    view external override\n//    returns (uint256[] memory)\n//    {\n//        uint256[] memory stakedAmountForChallengeList = new uint256[](1 + challengeNumberEnd - challengeNumberStart);\n//        for (uint32 i = challengeNumberStart; i <= challengeNumberEnd; i++)\n//        {\n//            stakedAmountForChallengeList[i - challengeNumberStart] = _challenges[i].submitterInfo[participant].staked;\n//        }\n//\n//        return stakedAmountForChallengeList;\n//    }\n\n    function getStakingRewards(uint32 challengeNumber, address participant)\n    view external override\n    returns (uint256 stakingRewards)\n    {\n        stakingRewards = _challenges[challengeNumber].submitterInfo[participant].stakingRewards;\n    }\n\n    function getStakingRewardsList(uint32 challengeNumberStart, uint32 challengeNumberEnd, address participant)\n    view external override\n    returns (uint256[] memory)\n    {\n        uint256[] memory stakingRewardsList = new uint256[](1 + challengeNumberEnd - challengeNumberStart);\n        for (uint32 i = challengeNumberStart; i <= challengeNumberEnd; i++)\n        {\n            stakingRewardsList[i - challengeNumberStart] = _challenges[i].submitterInfo[participant].stakingRewards;\n        }\n\n        return stakingRewardsList;\n    }\n\n    function getChallengeRewards(uint32 challengeNumber, address participant)\n    view external override\n    returns (uint256 challengeRewards)\n    {\n        challengeRewards = _challenges[challengeNumber].submitterInfo[participant].challengeRewards;\n    }\n\n    function getChallengeRewardsList(uint32 challengeNumberStart, uint32 challengeNumberEnd, address participant)\n    view external override\n    returns (uint256[] memory)\n    {\n        uint256[] memory challengeRewardsList = new uint256[](1 + challengeNumberEnd - challengeNumberStart);\n        for (uint32 i = challengeNumberStart; i <= challengeNumberEnd; i++)\n        {\n            challengeRewardsList[i - challengeNumberStart] = _challenges[i].submitterInfo[participant].challengeRewards;\n        }\n\n        return challengeRewardsList;\n    }\n    \n    function getTournamentRewards(uint32 challengeNumber, address participant)\n    view external override\n    returns (uint256 tournamentRewards)\n    {\n        tournamentRewards = _challenges[challengeNumber].submitterInfo[participant].tournamentRewards;\n    }\n\n    function getTournamentRewardsList(uint32 challengeNumberStart, uint32 challengeNumberEnd, address participant)\n    view external override\n    returns (uint256[] memory)\n    {\n        uint256[] memory tournamentRewardsList = new uint256[](1 + challengeNumberEnd - challengeNumberStart);\n        for (uint32 i = challengeNumberStart; i <= challengeNumberEnd; i++)\n        {\n            tournamentRewardsList[i - challengeNumberStart] = _challenges[i].submitterInfo[participant].tournamentRewards;\n        }\n\n        return tournamentRewardsList;\n    }\n\n    function getOverallRewards(uint32 challengeNumber, address participant)\n    view external override\n    returns (uint256 overallRewards)\n    {\n        overallRewards =\n        _challenges[challengeNumber].submitterInfo[participant].stakingRewards\n        + _challenges[challengeNumber].submitterInfo[participant].challengeRewards\n        + _challenges[challengeNumber].submitterInfo[participant].tournamentRewards;\n    }\n\n    function getOverallRewardsList(uint32 challengeNumberStart, uint32 challengeNumberEnd, address participant)\n    view external override\n    returns (uint256[] memory)\n    {\n        uint256[] memory overallRewardsList = new uint256[](1 + challengeNumberEnd - challengeNumberStart);\n        for (uint32 i = challengeNumberStart; i <= challengeNumberEnd; i++)\n        {\n            overallRewardsList[i - challengeNumberStart] = _challenges[i].submitterInfo[participant].stakingRewards + _challenges[i].submitterInfo[participant].challengeRewards;\n        }\n\n        return overallRewardsList;\n    }\n    \n    function getChallengeScores(uint32 challengeNumber, address participant)\n    view external override\n    returns (uint256 challengeScores)\n    {\n        challengeScores = _challenges[challengeNumber].submitterInfo[participant].challengeScores;\n    }\n\n    function getChallengeScoresList(uint32 challengeNumberStart, uint32 challengeNumberEnd, address participant)\n    view external override\n    returns (uint256[] memory)\n    {\n        uint256[] memory challengeScoresList = new uint256[](1 + challengeNumberEnd - challengeNumberStart);\n        for (uint32 i = challengeNumberStart; i <= challengeNumberEnd; i++)\n        {\n            challengeScoresList[i - challengeNumberStart] = _challenges[i].submitterInfo[participant].challengeScores;\n        }\n\n        return challengeScoresList;\n    }\n    \n    function getTournamentScores(uint32 challengeNumber, address participant)\n    view external override\n    returns (uint256 tournamentScores)\n    {\n        tournamentScores = _challenges[challengeNumber].submitterInfo[participant].tournamentScores;\n    }\n\n    function getTournamentScoresList(uint32 challengeNumberStart, uint32 challengeNumberEnd, address participant)\n    view external override\n    returns (uint256[] memory)\n    {\n        uint256[] memory tournamentScoresList = new uint256[](1 + challengeNumberEnd - challengeNumberStart);\n        for (uint32 i = challengeNumberStart; i <= challengeNumberEnd; i++)\n        {\n            tournamentScoresList[i - challengeNumberStart] = _challenges[i].submitterInfo[participant].tournamentScores;\n        }\n\n        return tournamentScoresList;\n    }\n\n    function getInformation(uint32 challengeNumber, address participant, uint256 itemNumber)\n    view external override\n    returns (int value)\n    {\n        value = _challenges[challengeNumber].submitterInfo[participant].info[itemNumber];\n    }\n\n    function getInformationList(uint32 challengeNumberStart, uint32 challengeNumberEnd, address participant, uint256 itemNumber)\n    view external override\n    returns (int[] memory)\n    {\n        int[] memory valueList = new int[](1 + challengeNumberEnd - challengeNumberStart);\n        for (uint32 i = challengeNumberStart; i <= challengeNumberEnd; i++)\n        {\n            valueList[i - challengeNumberStart] = _challenges[i].submitterInfo[participant].info[itemNumber];\n        }\n\n        return valueList;\n    }\n\n    function getDeadlines(uint32 challengeNumber, uint256 index)\n    external view override\n    returns (uint256 deadline)\n    {\n        deadline = _challenges[challengeNumber].deadlines[index];\n    }\n\n    function getRemainder()\n    public view override\n    returns (uint256 remainder)\n    {\n        remainder = _token.balanceOf(address(this)) - _currentTotalStaked - _competitionPool;\n    }\n\n    function computeStakingReward(address participant)\n    view external override\n    returns (uint256 stakingReward)\n    {\n        stakingReward = _currentStakingRewardsBudget * _stakes[participant] / _challenges[_challengeCounter].totalStakedForChallenge;\n    }\n\n    /**\n    PARTICIPANT WRITE METHODS\n    **/\n\n    function setStake(uint256 amountToken)\n    external override\n    returns (bool success)\n    {\n        uint256 currentStake = _stakes[msg.sender];\n        require(currentStake != amountToken, \"Competition - setStake: Your stake is already set to this amount.\");\n        if (amountToken > currentStake){\n            require(increaseStake(amountToken - currentStake), \"Competition - setStake: Could not increase stake.\");\n        } else{\n            require(decreaseStake(currentStake - amountToken), \"Competition - setStake: Could not decrease stake.\");\n        }\n        success = true;\n    }\n\n    function increaseStake(uint256 amountToken)\n    public override\n    returns (bool success)\n    {\n        uint32 challengeNumber = _challengeCounter;\n        require(_challenges[challengeNumber].phase != 2, \"Competition - increaseStake: Please wait for the staking period to unlock before modifying your stake.\");\n        require(_challenges[challengeNumber].submitterInfo[msg.sender].submission == bytes32(0), \"Competition - increaseStake: Please wait for this challenge to be completed before making adjustments.\");\n        require(_token.transferFrom(msg.sender, address(this), amountToken), \"Competition - increaseStake: Token Transfer failed.\");\n        _stakes[msg.sender] += amountToken;\n        _currentTotalStaked += amountToken;\n        success = true;\n\n        emit StakeIncreased(msg.sender, amountToken);\n    }\n\n    function decreaseStake(uint256 amountToken)\n    public override\n    returns (bool success)\n    {\n        uint32 challengeNumber = _challengeCounter;\n        require(_challenges[_challengeCounter].phase != 2, \"Competition - decreaseStake: Please wait for the staking period to unlock before modifying your stake.\");\n        require(_challenges[challengeNumber].submitterInfo[msg.sender].submission == bytes32(0), \"Competition - decreaseStake: Please wait for this challenge to be completed before making adjustments.\");\n        uint256 currentBal = _stakes[msg.sender];\n        require(amountToken <= currentBal, \"Competition - decreaseStake: Insufficient funds for withdrawal.\");\n        _stakes[msg.sender] = currentBal - amountToken;\n        _currentTotalStaked -= amountToken;\n        _token.transfer(msg.sender, amountToken);\n        success = true;\n\n        emit StakeDecreased(msg.sender, amountToken);\n    }\n\n    function submitNewPredictions(bytes32 submissionHash)\n    external override\n    returns (uint32 challengeNumber)\n    {\n        challengeNumber = _updateSubmission(bytes32(0), submissionHash);\n        uint256 currentStake = _stakes[msg.sender];\n        require(currentStake >= _stakeThreshold, \"Competition - submitNewPredictions: Stake is below threshold.\");\n        _challenges[challengeNumber].submitters.push(msg.sender);\n        _challenges[challengeNumber].submitterInfo[msg.sender].staked = currentStake;\n    }\n\n    function updateSubmission(bytes32 oldSubmissionHash, bytes32 newSubmissionHash)\n    public override\n    returns (uint32 challengeNumber)\n    {\n        require(oldSubmissionHash != bytes32(0), \"Competition - updateSubmission: Must have pre-existing submission.\");\n        challengeNumber = _updateSubmission(oldSubmissionHash, newSubmissionHash);\n    }\n\n    function _updateSubmission(bytes32 oldSubmissionHash, bytes32 newSubmissionHash)\n    private\n    returns (uint32 challengeNumber)\n    {\n        challengeNumber = _challengeCounter;\n        require(_challenges[challengeNumber].phase == 1, \"Competition - updateSubmission: Not available for submissions.\");\n        require(newSubmissionHash != bytes32(0), \"Competition - updateSubmission: Cannot submit empty hash.\");\n        require(oldSubmissionHash != newSubmissionHash, \"Competition - updateSubmission: Cannot update with the same hash as before.\");\n        require(_challenges[challengeNumber].submitterInfo[msg.sender].submission == oldSubmissionHash,\n                \"Competition - updateSubmission: Clash in existing submission hash.\");\n        _challenges[challengeNumber].submitterInfo[msg.sender].submission = newSubmissionHash;\n\n        emit SubmissionUpdated(challengeNumber, msg.sender, newSubmissionHash);\n    }\n\n    /**\n    ORGANIZER WRITE METHODS\n    **/\n    function updateMessage(string calldata newMessage)\n    external override\n    returns (bool success)\n    {\n        require(hasRole(DEFAULT_ADMIN_ROLE, msg.sender), \"Competition - updateMessage: Caller is unauthorized.\");\n        _message = newMessage;\n        success = true;\n\n        emit MessageUpdated();\n    }\n\n    function updateDeadlines(uint32 challengeNumber, uint256 index, uint256 timestamp)\n    external override\n    returns (bool success)\n    {\n        require(hasRole(DEFAULT_ADMIN_ROLE, msg.sender), \"Competition - updateDeadlines: Caller is unauthorized.\");\n         _challenges[challengeNumber].deadlines[index] = timestamp;\n        success = true;\n    }\n\n    function updateRewardsThreshold(uint256 newThreshold)\n    external override\n    returns (bool success)\n    {\n        require(hasRole(DEFAULT_ADMIN_ROLE, msg.sender), \"Competition - updateRewardsThreshold: Caller is unauthorized.\");\n        _rewardsThreshold = newThreshold;\n        success = true;\n\n        emit RewardsThresholdUpdated(newThreshold);\n    }\n\n    function updateVaultAddress(address newVaultAddress)\n    external override\n    returns (bool success)\n    {\n        require(hasRole(DEFAULT_ADMIN_ROLE, msg.sender), \"Competition - updateVaultAddress: Caller is unauthorized.\");\n        _vault = IVault(newVaultAddress);\n        success = true;\n\n        emit VaultAddressUpdated(newVaultAddress);\n    }\n\n    function updateStakeThreshold(uint256 newStakeThreshold)\n    external override\n    returns (bool success)\n    {\n        require(hasRole(DEFAULT_ADMIN_ROLE, msg.sender), \"Competition - updateStakeThreshold: Caller is unauthorized.\");\n        _stakeThreshold = newStakeThreshold;\n        success = true;\n\n        emit StakeThresholdUpdated(newStakeThreshold, msg.sender);\n    }\n\n    function updateChallengeRewardsPercentageInWei(uint256 newPercentage)\n    external override\n    returns (bool success)\n    {\n        require(hasRole(DEFAULT_ADMIN_ROLE, msg.sender), \"Competition - updateChallengeRewardsPercentageInWei: Caller is unauthorized.\");\n        _challengeRewardsPercentageInWei = newPercentage;\n        success = true;\n\n        emit ChallengeRewardsPercentageInWeiUpdated(newPercentage);\n    }\n    \n    function updateTournamentRewardsPercentageInWei(uint256 newPercentage)\n    external override\n    returns (bool success)\n    {\n        require(hasRole(DEFAULT_ADMIN_ROLE, msg.sender), \"Competition - updateTournamentRewardsPercentageInWei: Caller is unauthorized.\");\n        _tournamentRewardsPercentageInWei = newPercentage;\n        success = true;\n\n        emit TournamentRewardsPercentageInWeiUpdated(newPercentage);\n    }\n\n    function openChallenge(bytes32 datasetHash, bytes32 keyHash)\n    external override\n    returns (bool success)\n    {\n        require(hasRole(DEFAULT_ADMIN_ROLE, msg.sender), \"Competition - openChallenge: Caller is unauthorized.\");\n        uint32 challengeNumber = _challengeCounter;\n        require(_challenges[challengeNumber].phase == 4, \"Competition - openChallenge: Previous phase is incomplete.\");\n        require(_competitionPool >= _rewardsThreshold, \"Competiton - openChallenge: Not enough rewards.\");\n\n        challengeNumber++;\n\n        _challenges[challengeNumber].phase = 1;\n        _challengeCounter = challengeNumber;\n\n        _updateDataset(challengeNumber, bytes32(0), datasetHash);\n        _updateKey(challengeNumber, bytes32(0), keyHash);\n\n        uint256 drawAmount = _vault.draw();\n        if (drawAmount > 0){\n            _competitionPool += drawAmount;\n        }\n\n        _currentChallengeRewardsBudget = _competitionPool * _challengeRewardsPercentageInWei/(1e18);\n        _currentTournamentRewardsBudget = _competitionPool * _tournamentRewardsPercentageInWei/(1e18);\n        _currentStakingRewardsBudget = _competitionPool - _currentChallengeRewardsBudget - _currentTournamentRewardsBudget;\n        success = true;\n\n        emit ChallengeOpened(challengeNumber);\n    }\n\n    function updateDataset(bytes32 oldDatasetHash, bytes32 newDatasetHash)\n    external override\n    returns (bool success)\n    {\n        require(hasRole(DEFAULT_ADMIN_ROLE, msg.sender), \"Competition - updateDataset: Caller is unauthorized.\");\n        uint32 challengeNumber = _challengeCounter;\n        require(_challenges[challengeNumber].phase == 1, \"Competition - updateDataset: Challenge is closed.\");\n        require(oldDatasetHash != bytes32(0), \"Competition - updateDataset: Must have pre-existing dataset.\");\n        success = _updateDataset(challengeNumber, oldDatasetHash, newDatasetHash);\n    }\n\n    function updateKey(bytes32 oldKeyHash, bytes32 newKeyHash)\n    external override\n    returns (bool success)\n    {\n        require(hasRole(DEFAULT_ADMIN_ROLE, msg.sender), \"Competition - updateKey: Caller is unauthorized.\");\n        uint32 challengeNumber = _challengeCounter;\n        require(_challenges[challengeNumber].phase == 1, \"Competition - updateKey: Challenge is closed.\");\n        require(oldKeyHash != bytes32(0), \"Competition - updateKey: Must have pre-existing key.\");\n        success = _updateKey(challengeNumber, oldKeyHash, newKeyHash);\n    }\n\n    function _updateDataset(uint32 challengeNumber, bytes32 oldDatasetHash, bytes32 newDatasetHash)\n    private\n    returns (bool success)\n    {\n        require(oldDatasetHash != newDatasetHash, \"Competition - updateDataset: Cannot update with the same hash as before.\");\n        require(_challenges[challengeNumber].dataset == oldDatasetHash, \"Competition - updateDataset: Incorrect old dataset reference.\");\n        _challenges[challengeNumber].dataset = newDatasetHash;\n        success = true;\n\n        emit DatasetUpdated(challengeNumber, oldDatasetHash, newDatasetHash);\n    }\n\n    function _updateKey(uint32 challengeNumber, bytes32 oldKeyHash, bytes32 newKeyHash)\n    private\n    returns (bool success)\n    {\n        require(oldKeyHash != newKeyHash, \"Competition - _updateKey: Cannot update with the same hash as before.\");\n        require(_challenges[challengeNumber].key == oldKeyHash, \"Competition - _updateKey: Incorrect old key reference.\");\n        _challenges[challengeNumber].key = newKeyHash;\n        success = true;\n\n        emit KeyUpdated(challengeNumber, oldKeyHash, newKeyHash);\n    }\n\n    function updatePrivateKey(uint32 challengeNumber, bytes32 newKeyHash)\n    external override\n    {\n        _challenges[challengeNumber].privateKey = newKeyHash;\n    }\n\n    function closeSubmission()\n    external override\n    returns (bool success)\n    {\n        require(hasRole(DEFAULT_ADMIN_ROLE, msg.sender), \"Competition - closeSubmission: Caller is unauthorized.\");\n        uint32 challengeNumber = _challengeCounter;\n        require(_challenges[challengeNumber].phase == 1, \"Competition - closeSubmission: Challenge in unexpected state.\");\n        _challenges[challengeNumber].phase = 2;\n        _challenges[challengeNumber].totalStakedForChallenge = _currentTotalStaked;\n        success = true;\n\n        emit SubmissionClosed(challengeNumber);\n    }\n\n    function submitResults(bytes32 resultsHash)\n    external override\n    returns (bool success)\n    {\n        success = _updateResults(bytes32(0), resultsHash);\n    }\n\n    function updateResults(bytes32 oldResultsHash, bytes32 newResultsHash)\n    public override\n    returns (bool success)\n    {\n\n        require(oldResultsHash != bytes32(0), \"Competition - updateResults: Must have pre-existing results.\");\n        success = _updateResults(oldResultsHash, newResultsHash);\n    }\n\n    function _updateResults(bytes32 oldResultsHash, bytes32 newResultsHash)\n    private\n    returns (bool success)\n    {\n        require(hasRole(DEFAULT_ADMIN_ROLE, msg.sender), \"Competition - updateResults: Caller is unauthorized.\");\n        require(oldResultsHash != newResultsHash, \"Competition - updateResults: Cannot update with the same hash as before.\");\n        uint32 challengeNumber = _challengeCounter;\n        require(_challenges[challengeNumber].phase >= 3, \"Competition - updateResults: Challenge in unexpected state.\");\n        require(_challenges[challengeNumber].results == oldResultsHash, \"Competition - updateResults: Clash in existing results hash.\");\n        _challenges[challengeNumber].results = newResultsHash;\n        success = true;\n\n        emit ResultsUpdated(challengeNumber, oldResultsHash, newResultsHash);\n    }\n    \n    function payStakingRewards(address[] calldata participants, uint256[] calldata rewards)\n    external override\n    returns (bool success)\n    {\n        success = payStakingRewards(_challengeCounter, participants, rewards);\n    }\n\n    function payStakingRewards(uint32 challengeNumber, address[] calldata participants, uint256[] calldata rewards)\n    public override\n    returns (bool success)\n    {\n        require(hasRole(DEFAULT_ADMIN_ROLE, msg.sender), \"Competition - payStakingRewards: Caller is unauthorized.\");\n        require(_challenges[challengeNumber].phase == 2, \"Competition - payStakingRewards: Challenge is in unexpected state.\");\n        require(participants.length == rewards.length, \"Competition - payStakingRewards: Number of participants and rewards are different.\");\n        uint256 totalAmount;\n        for (uint i = 0; i < participants.length; i++)\n        {\n            // read directly from the list since the list is already in memory(calldata), and to avoid stack too deep errors.\n            _stakes[participants[i]] += rewards[i];\n            totalAmount += rewards[i];\n            _challenges[challengeNumber].submitterInfo[participants[i]].stakingRewards += rewards[i];\n            emit StakingRewardsPayment(participants[i], rewards[i]);\n        }\n        if (totalAmount > _currentStakingRewardsBudget) {\n            revert('Total payout sum more than staking rewards budget.');\n        }\n        else {\n            _competitionPool -= totalAmount;\n            _currentTotalStaked += totalAmount;\n            success = true;\n        }\n\n        emit StakingRewardsPaid(challengeNumber, totalAmount);\n    }\n\n    function payChallengeAndTournamentRewards(address[] calldata winners, uint256[] calldata challengeRewards, uint256[] calldata tournamentRewards)\n    external override\n    returns (bool success)\n    {\n        success = payChallengeAndTournamentRewards(_challengeCounter, winners, challengeRewards, tournamentRewards);\n    }\n\n    function payChallengeAndTournamentRewards(uint32 challengeNumber, address[] calldata winners, uint256[] calldata challengeRewards, uint256[] calldata tournamentRewards)\n    public override\n    returns (bool success)\n    {\n        require(hasRole(DEFAULT_ADMIN_ROLE, msg.sender), \"Competition - payChallengeAndTournamentRewards: Caller is unauthorized.\");\n        require(_challenges[challengeNumber].phase >= 3, \"Competition - payChallengeAndTournamentRewards: Challenge is in unexpected state.\");\n        require((winners.length == challengeRewards.length) && (winners.length == tournamentRewards.length), \"Competition - payChallengeAndTournamentRewards: Number of winners and rewards are different.\");\n        uint256 totalChallengeAmount;\n        uint256 totalTournamentAmount;\n        for (uint i = 0; i < winners.length; i++)\n        {\n                        // read directly from the list since the list is already in memory(calldata), and to avoid stack too deep errors.\n            _stakes[winners[i]] += challengeRewards[i] + tournamentRewards[i];\n\n            if (challengeRewards[i] > 0){\n                totalChallengeAmount += challengeRewards[i];\n                _challenges[challengeNumber].submitterInfo[winners[i]].challengeRewards += challengeRewards[i];\n            }\n\n            if (tournamentRewards[i] > 0){\n                totalTournamentAmount += tournamentRewards[i];\n                _challenges[challengeNumber].submitterInfo[winners[i]].tournamentRewards += tournamentRewards[i];\n            }\n            emit ChallengeAndTournamentRewardsPayment(winners[i], challengeRewards[i], tournamentRewards[i]);\n        }\n\n        if (totalChallengeAmount > _currentChallengeRewardsBudget)\n            revert('Total payout sum more than challenge rewards budget.');\n        if (totalTournamentAmount > _currentTournamentRewardsBudget) {\n            revert('Total payout sum more than tournament rewards budget.');\n        }\n        else {\n            _competitionPool -= totalChallengeAmount + totalTournamentAmount;\n            _currentTotalStaked += totalChallengeAmount + totalTournamentAmount;\n            success = true;\n        }\n\n        emit ChallengeAndTournamentRewardsPaid(challengeNumber, totalChallengeAmount, totalTournamentAmount);\n    }\n\n    function updateChallengeAndTournamentScores(address[] calldata winners, uint256[] calldata challengeScores, uint256[] calldata tournamentScores)\n    external override\n    returns (bool success)\n    {\n        success = updateChallengeAndTournamentScores(_challengeCounter, winners, challengeScores, tournamentScores);\n    }\n\n    function updateChallengeAndTournamentScores(uint32 challengeNumber, address[] calldata winners, uint256[] calldata challengeScores, uint256[] calldata tournamentScores)\n    public override\n    returns (bool success)\n    {\n        require(hasRole(DEFAULT_ADMIN_ROLE, msg.sender), \"Competition - updateChallengeAndTournamentScores: Caller is unauthorized.\");\n        require(_challenges[challengeNumber].phase >= 3, \"Competition - updateChallengeAndTournamentScores: Challenge is in unexpected state.\");\n        require((winners.length == challengeScores.length) && (winners.length == tournamentScores.length), \"Competition - updateChallengeAndTournamentScores: Number of winners and scores are different.\");\n\n        for (uint i = 0; i < winners.length; i++)\n        {\n                        // read directly from the list since the list is already in memory(calldata), and to avoid stack too deep errors.\n\n            _challenges[challengeNumber].submitterInfo[winners[i]].challengeScores = challengeScores[i];\n            _challenges[challengeNumber].submitterInfo[winners[i]].tournamentScores = tournamentScores[i];\n        }\n\n        success = true;\n\n        emit ChallengeAndTournamentScoresUpdated(challengeNumber);\n    }\n\n    function updateInformationBatch(uint32 challengeNumber, address[] calldata participants, uint256 itemNumber, int[] calldata values)\n    external override\n    returns (bool success)\n    {\n        require(hasRole(DEFAULT_ADMIN_ROLE, msg.sender), \"Competition - updateInformationBatch: Caller is unauthorized.\");\n        require(_challenges[challengeNumber].phase >= 3, \"Competition - updateInformationBatch: Challenge is in unexpected state.\");\n        require(participants.length == values.length, \"Competition - updateInformationBatch: Number of participants and values are different.\");\n\n        for (uint i = 0; i < participants.length; i++)\n        {\n            _challenges[challengeNumber].submitterInfo[participants[i]].info[itemNumber] = values[i];\n        }\n        success = true;\n\n        emit BatchInformationUpdated(challengeNumber, itemNumber);\n    }\n\n//    function updateInformationSingle(uint32 challengeNumber, address participant, uint256 itemNumber, int value)\n//    external override\n//    returns (bool success)\n//    {\n//        require(hasRole(DEFAULT_ADMIN_ROLE, msg.sender), \"Competition - updateInformationSingle: Caller is unauthorized.\");\n//        require(_challenges[challengeNumber].phase >= 3, \"Competition - updateInformationSingle: Challenge is in unexpected state.\");\n//\n//        _challenges[challengeNumber].submitterInfo[participant].info[itemNumber] = value;\n//        success = true;\n//\n//        emit SingleInformationUpdated(challengeNumber, participant, itemNumber, value);\n//    }\n    \n    function advanceToPhase(uint8 phase)\n    external override\n    returns (bool success)\n    {\n        require(hasRole(DEFAULT_ADMIN_ROLE, msg.sender), \"Competition - advanceToPhase: Caller is unauthorized.\");\n        uint32 challengeNumber = _challengeCounter;\n        require((2 < phase) && (phase < 5), \"Competition - advanceToPhase: You may only use this method for advancing to phases 3 or 4.\" );\n        require((phase-1) == _challenges[challengeNumber].phase, \"Competition - advanceToPhase: You may only advance to the next phase.\");\n        _challenges[challengeNumber].phase = phase;\n    }\n\n    function sponsor(uint256 amountToken)\n    external override\n    returns (bool success)\n    {\n        require(_challenges[_challengeCounter].phase == 4, \"Competition - sponsor: PLease wait for the challenge to complete before sponsoring.\");\n        require(_token.transferFrom(msg.sender, address(this), amountToken), \"Competition - sponsor: Token transfer failed.\");\n        uint256 currentCompPoolAmt = _competitionPool;\n        _competitionPool = currentCompPoolAmt + amountToken;\n        success = true;\n\n        emit Sponsor(msg.sender, amountToken, currentCompPoolAmt + amountToken);\n    }\n\n    function moveRemainderToPool()\n    external override\n    returns (bool success)\n    {\n        require(hasRole(DEFAULT_ADMIN_ROLE, msg.sender), \"Competition - moveRemainderToPool: Caller is unauthorized.\");\n        require(_challenges[_challengeCounter].phase == 4, \"Competition - moveRemainderToPool: PLease wait for the challenge to complete before sponsoring.\");\n        uint256 remainder = getRemainder();\n        require(remainder > 0, \"Competition - moveRemainderToPool: No remainder to move.\");\n        _competitionPool += remainder;\n        require(_competitionPool + _currentTotalStaked == _token.balanceOf(address(this)), \"Competition - moveRemainderToPool: Error in total balance.\");\n        success = true;\n\n        emit RemainderMovedToPool(remainder);\n    }\n}",
  "sourcePath": "contracts/Competition.sol",
  "type": "contract"
}