{
  "abi": [
    {
      "inputs": [
        {
          "internalType": "uint256",
          "name": "stakeThreshold_",
          "type": "uint256"
        },
        {
          "internalType": "address",
          "name": "tokenAddress_",
          "type": "address"
        },
        {
          "internalType": "address",
          "name": "vaultAddress_",
          "type": "address"
        }
      ],
      "stateMutability": "nonpayable",
      "type": "constructor"
    },
    {
      "anonymous": false,
      "inputs": [
        {
          "indexed": true,
          "internalType": "uint32",
          "name": "challengeNumber",
          "type": "uint32"
        },
        {
          "indexed": true,
          "internalType": "bytes32",
          "name": "oldDatasetHash",
          "type": "bytes32"
        },
        {
          "indexed": true,
          "internalType": "bytes32",
          "name": "newDatasetHash",
          "type": "bytes32"
        }
      ],
      "name": "DatasetUpdated",
      "type": "event"
    },
    {
      "anonymous": false,
      "inputs": [
        {
          "indexed": true,
          "internalType": "uint32",
          "name": "challengeNumber",
          "type": "uint32"
        },
        {
          "indexed": true,
          "internalType": "uint256",
          "name": "totalAmountOfTokensPaidOut",
          "type": "uint256"
        }
      ],
      "name": "PerformanceRewardsPaid",
      "type": "event"
    },
    {
      "anonymous": false,
      "inputs": [
        {
          "indexed": true,
          "internalType": "address",
          "name": "winner",
          "type": "address"
        },
        {
          "indexed": true,
          "internalType": "uint256",
          "name": "rewardAmount",
          "type": "uint256"
        }
      ],
      "name": "PerformanceRewardsPayment",
      "type": "event"
    },
    {
      "anonymous": false,
      "inputs": [
        {
          "indexed": true,
          "internalType": "uint32",
          "name": "challengeNumber",
          "type": "uint32"
        },
        {
          "indexed": true,
          "internalType": "bytes32",
          "name": "oldResultsHash",
          "type": "bytes32"
        },
        {
          "indexed": true,
          "internalType": "bytes32",
          "name": "newResultsHash",
          "type": "bytes32"
        }
      ],
      "name": "ResultsUpdated",
      "type": "event"
    },
    {
      "anonymous": false,
      "inputs": [
        {
          "indexed": true,
          "internalType": "bytes32",
          "name": "role",
          "type": "bytes32"
        },
        {
          "indexed": true,
          "internalType": "bytes32",
          "name": "previousAdminRole",
          "type": "bytes32"
        },
        {
          "indexed": true,
          "internalType": "bytes32",
          "name": "newAdminRole",
          "type": "bytes32"
        }
      ],
      "name": "RoleAdminChanged",
      "type": "event"
    },
    {
      "anonymous": false,
      "inputs": [
        {
          "indexed": true,
          "internalType": "bytes32",
          "name": "role",
          "type": "bytes32"
        },
        {
          "indexed": true,
          "internalType": "address",
          "name": "account",
          "type": "address"
        },
        {
          "indexed": true,
          "internalType": "address",
          "name": "sender",
          "type": "address"
        }
      ],
      "name": "RoleGranted",
      "type": "event"
    },
    {
      "anonymous": false,
      "inputs": [
        {
          "indexed": true,
          "internalType": "bytes32",
          "name": "role",
          "type": "bytes32"
        },
        {
          "indexed": true,
          "internalType": "address",
          "name": "account",
          "type": "address"
        },
        {
          "indexed": true,
          "internalType": "address",
          "name": "sender",
          "type": "address"
        }
      ],
      "name": "RoleRevoked",
      "type": "event"
    },
    {
      "anonymous": false,
      "inputs": [
        {
          "indexed": true,
          "internalType": "address",
          "name": "sponsorAddress",
          "type": "address"
        },
        {
          "indexed": true,
          "internalType": "uint256",
          "name": "sponsorAmount",
          "type": "uint256"
        },
        {
          "indexed": true,
          "internalType": "uint256",
          "name": "poolTotal",
          "type": "uint256"
        }
      ],
      "name": "Sponsor",
      "type": "event"
    },
    {
      "anonymous": false,
      "inputs": [
        {
          "indexed": true,
          "internalType": "address",
          "name": "sender",
          "type": "address"
        },
        {
          "indexed": true,
          "internalType": "uint256",
          "name": "amount",
          "type": "uint256"
        }
      ],
      "name": "StakeDecreased",
      "type": "event"
    },
    {
      "anonymous": false,
      "inputs": [
        {
          "indexed": true,
          "internalType": "address",
          "name": "sender",
          "type": "address"
        },
        {
          "indexed": true,
          "internalType": "uint256",
          "name": "amount",
          "type": "uint256"
        }
      ],
      "name": "StakeIncreased",
      "type": "event"
    },
    {
      "anonymous": false,
      "inputs": [
        {
          "indexed": true,
          "internalType": "address",
          "name": "sender",
          "type": "address"
        },
        {
          "indexed": true,
          "internalType": "uint256",
          "name": "currentStake",
          "type": "uint256"
        },
        {
          "indexed": true,
          "internalType": "uint256",
          "name": "participationInterestGained",
          "type": "uint256"
        }
      ],
      "name": "StakeParticipationRewardsPaid",
      "type": "event"
    },
    {
      "anonymous": false,
      "inputs": [
        {
          "indexed": true,
          "internalType": "uint256",
          "name": "newStakeThreshold",
          "type": "uint256"
        },
        {
          "indexed": true,
          "internalType": "address",
          "name": "adminAddress",
          "type": "address"
        }
      ],
      "name": "StakeThresholdUpdated",
      "type": "event"
    },
    {
      "anonymous": false,
      "inputs": [
        {
          "indexed": true,
          "internalType": "address",
          "name": "sender",
          "type": "address"
        },
        {
          "indexed": true,
          "internalType": "address",
          "name": "recipient",
          "type": "address"
        },
        {
          "indexed": true,
          "internalType": "uint256",
          "name": "amount",
          "type": "uint256"
        }
      ],
      "name": "StakeTransferred",
      "type": "event"
    },
    {
      "anonymous": false,
      "inputs": [
        {
          "indexed": true,
          "internalType": "uint32",
          "name": "challengeNumber",
          "type": "uint32"
        }
      ],
      "name": "StakingOpened",
      "type": "event"
    },
    {
      "anonymous": false,
      "inputs": [
        {
          "indexed": true,
          "internalType": "uint32",
          "name": "challengeNumber",
          "type": "uint32"
        }
      ],
      "name": "SubmissionClosed",
      "type": "event"
    },
    {
      "anonymous": false,
      "inputs": [
        {
          "indexed": true,
          "internalType": "uint32",
          "name": "challengeNumber",
          "type": "uint32"
        }
      ],
      "name": "SubmissionOpened",
      "type": "event"
    },
    {
      "anonymous": false,
      "inputs": [
        {
          "indexed": true,
          "internalType": "uint32",
          "name": "challengeNumber",
          "type": "uint32"
        },
        {
          "indexed": true,
          "internalType": "address",
          "name": "participantAddress",
          "type": "address"
        },
        {
          "indexed": true,
          "internalType": "bytes32",
          "name": "newSubmissionHash",
          "type": "bytes32"
        }
      ],
      "name": "SubmissionUpdated",
      "type": "event"
    },
    {
      "anonymous": false,
      "inputs": [
        {
          "indexed": true,
          "internalType": "address",
          "name": "newVaultAddress",
          "type": "address"
        }
      ],
      "name": "VaultAddressUpdated",
      "type": "event"
    },
    {
      "inputs": [],
      "name": "DEFAULT_ADMIN_ROLE",
      "outputs": [
        {
          "internalType": "bytes32",
          "name": "",
          "type": "bytes32"
        }
      ],
      "stateMutability": "view",
      "type": "function"
    },
    {
      "inputs": [],
      "name": "closeSubmission",
      "outputs": [],
      "stateMutability": "nonpayable",
      "type": "function"
    },
    {
      "inputs": [
        {
          "internalType": "uint256",
          "name": "amountToken",
          "type": "uint256"
        }
      ],
      "name": "decreaseStake",
      "outputs": [
        {
          "internalType": "bool",
          "name": "success",
          "type": "bool"
        }
      ],
      "stateMutability": "nonpayable",
      "type": "function"
    },
    {
      "inputs": [],
      "name": "getCompetitionPool",
      "outputs": [
        {
          "internalType": "uint256",
          "name": "competitionPool",
          "type": "uint256"
        }
      ],
      "stateMutability": "view",
      "type": "function"
    },
    {
      "inputs": [],
      "name": "getCurrentParticipationRewardsBudget",
      "outputs": [
        {
          "internalType": "uint256",
          "name": "currentParticipationRewardsBudget",
          "type": "uint256"
        }
      ],
      "stateMutability": "view",
      "type": "function"
    },
    {
      "inputs": [],
      "name": "getCurrentPerformanceRewardsBudget",
      "outputs": [
        {
          "internalType": "uint256",
          "name": "currentPerformanceRewardsBudget",
          "type": "uint256"
        }
      ],
      "stateMutability": "view",
      "type": "function"
    },
    {
      "inputs": [],
      "name": "getCurrentTotalStaked",
      "outputs": [
        {
          "internalType": "uint256",
          "name": "currentTotalStaked",
          "type": "uint256"
        }
      ],
      "stateMutability": "view",
      "type": "function"
    },
    {
      "inputs": [
        {
          "internalType": "uint32",
          "name": "challengeNumber",
          "type": "uint32"
        }
      ],
      "name": "getDatasetHash",
      "outputs": [
        {
          "internalType": "bytes32",
          "name": "dataset",
          "type": "bytes32"
        }
      ],
      "stateMutability": "view",
      "type": "function"
    },
    {
      "inputs": [],
      "name": "getLatestChallengeNumber",
      "outputs": [
        {
          "internalType": "uint32",
          "name": "latestChallengeNumber",
          "type": "uint32"
        }
      ],
      "stateMutability": "view",
      "type": "function"
    },
    {
      "inputs": [
        {
          "internalType": "uint32",
          "name": "challengeNumber",
          "type": "uint32"
        }
      ],
      "name": "getPhase",
      "outputs": [
        {
          "internalType": "uint8",
          "name": "phase",
          "type": "uint8"
        }
      ],
      "stateMutability": "view",
      "type": "function"
    },
    {
      "inputs": [
        {
          "internalType": "uint32",
          "name": "challengeNumber",
          "type": "uint32"
        }
      ],
      "name": "getResultsHash",
      "outputs": [
        {
          "internalType": "bytes32",
          "name": "results",
          "type": "bytes32"
        }
      ],
      "stateMutability": "view",
      "type": "function"
    },
    {
      "inputs": [
        {
          "internalType": "bytes32",
          "name": "role",
          "type": "bytes32"
        }
      ],
      "name": "getRoleAdmin",
      "outputs": [
        {
          "internalType": "bytes32",
          "name": "",
          "type": "bytes32"
        }
      ],
      "stateMutability": "view",
      "type": "function"
    },
    {
      "inputs": [
        {
          "internalType": "address",
          "name": "participant",
          "type": "address"
        }
      ],
      "name": "getStake",
      "outputs": [
        {
          "internalType": "uint256",
          "name": "stake",
          "type": "uint256"
        }
      ],
      "stateMutability": "view",
      "type": "function"
    },
    {
      "inputs": [],
      "name": "getStakeThreshold",
      "outputs": [
        {
          "internalType": "uint256",
          "name": "stakeThreshold",
          "type": "uint256"
        }
      ],
      "stateMutability": "view",
      "type": "function"
    },
    {
      "inputs": [
        {
          "internalType": "uint32",
          "name": "challengeNumber",
          "type": "uint32"
        },
        {
          "internalType": "address",
          "name": "participant",
          "type": "address"
        }
      ],
      "name": "getSubmission",
      "outputs": [
        {
          "internalType": "bytes32",
          "name": "submissionHash",
          "type": "bytes32"
        }
      ],
      "stateMutability": "view",
      "type": "function"
    },
    {
      "inputs": [
        {
          "internalType": "uint32",
          "name": "challengeNumber",
          "type": "uint32"
        }
      ],
      "name": "getSubmissionCounter",
      "outputs": [
        {
          "internalType": "uint256",
          "name": "submissionCounter",
          "type": "uint256"
        }
      ],
      "stateMutability": "view",
      "type": "function"
    },
    {
      "inputs": [
        {
          "internalType": "uint32",
          "name": "challengeNumber",
          "type": "uint32"
        }
      ],
      "name": "getSubmitters",
      "outputs": [
        {
          "internalType": "address[]",
          "name": "submitters",
          "type": "address[]"
        }
      ],
      "stateMutability": "view",
      "type": "function"
    },
    {
      "inputs": [],
      "name": "getTokenAddress",
      "outputs": [
        {
          "internalType": "address",
          "name": "tokenAddress",
          "type": "address"
        }
      ],
      "stateMutability": "view",
      "type": "function"
    },
    {
      "inputs": [
        {
          "internalType": "uint32",
          "name": "challengeNumber",
          "type": "uint32"
        }
      ],
      "name": "getTotalStakesLockedForChallenge",
      "outputs": [
        {
          "internalType": "uint256",
          "name": "totalStakedForChallenge",
          "type": "uint256"
        }
      ],
      "stateMutability": "view",
      "type": "function"
    },
    {
      "inputs": [],
      "name": "getVaultAddress",
      "outputs": [
        {
          "internalType": "address",
          "name": "vaultAddress",
          "type": "address"
        }
      ],
      "stateMutability": "view",
      "type": "function"
    },
    {
      "inputs": [
        {
          "internalType": "bytes32",
          "name": "role",
          "type": "bytes32"
        },
        {
          "internalType": "address",
          "name": "account",
          "type": "address"
        }
      ],
      "name": "grantRole",
      "outputs": [],
      "stateMutability": "nonpayable",
      "type": "function"
    },
    {
      "inputs": [
        {
          "internalType": "bytes32",
          "name": "role",
          "type": "bytes32"
        },
        {
          "internalType": "address",
          "name": "account",
          "type": "address"
        }
      ],
      "name": "hasRole",
      "outputs": [
        {
          "internalType": "bool",
          "name": "",
          "type": "bool"
        }
      ],
      "stateMutability": "view",
      "type": "function"
    },
    {
      "inputs": [
        {
          "internalType": "uint256",
          "name": "amountToken",
          "type": "uint256"
        }
      ],
      "name": "increaseStake",
      "outputs": [
        {
          "internalType": "bool",
          "name": "success",
          "type": "bool"
        }
      ],
      "stateMutability": "nonpayable",
      "type": "function"
    },
    {
      "inputs": [
        {
          "internalType": "bytes32",
          "name": "datasetHash",
          "type": "bytes32"
        }
      ],
      "name": "openStaking",
      "outputs": [],
      "stateMutability": "nonpayable",
      "type": "function"
    },
    {
      "inputs": [],
      "name": "openSubmission",
      "outputs": [],
      "stateMutability": "nonpayable",
      "type": "function"
    },
    {
      "inputs": [
        {
          "internalType": "uint32",
          "name": "challengeNumber",
          "type": "uint32"
        },
        {
          "internalType": "address[]",
          "name": "winners",
          "type": "address[]"
        },
        {
          "internalType": "uint256[]",
          "name": "rewards",
          "type": "uint256[]"
        }
      ],
      "name": "payPerformanceRewards",
      "outputs": [
        {
          "internalType": "bool",
          "name": "success",
          "type": "bool"
        }
      ],
      "stateMutability": "nonpayable",
      "type": "function"
    },
    {
      "inputs": [
        {
          "internalType": "address[]",
          "name": "winners",
          "type": "address[]"
        },
        {
          "internalType": "uint256[]",
          "name": "rewards",
          "type": "uint256[]"
        }
      ],
      "name": "payPerformanceRewards",
      "outputs": [
        {
          "internalType": "bool",
          "name": "success",
          "type": "bool"
        }
      ],
      "stateMutability": "nonpayable",
      "type": "function"
    },
    {
      "inputs": [
        {
          "internalType": "bytes32",
          "name": "role",
          "type": "bytes32"
        },
        {
          "internalType": "address",
          "name": "account",
          "type": "address"
        }
      ],
      "name": "renounceRole",
      "outputs": [],
      "stateMutability": "nonpayable",
      "type": "function"
    },
    {
      "inputs": [
        {
          "internalType": "bytes32",
          "name": "role",
          "type": "bytes32"
        },
        {
          "internalType": "address",
          "name": "account",
          "type": "address"
        }
      ],
      "name": "revokeRole",
      "outputs": [],
      "stateMutability": "nonpayable",
      "type": "function"
    },
    {
      "inputs": [
        {
          "internalType": "uint256",
          "name": "amountToken",
          "type": "uint256"
        }
      ],
      "name": "setStake",
      "outputs": [
        {
          "internalType": "bool",
          "name": "success",
          "type": "bool"
        }
      ],
      "stateMutability": "nonpayable",
      "type": "function"
    },
    {
      "inputs": [
        {
          "internalType": "uint256",
          "name": "amountToken",
          "type": "uint256"
        }
      ],
      "name": "sponsor",
      "outputs": [
        {
          "internalType": "bool",
          "name": "success",
          "type": "bool"
        }
      ],
      "stateMutability": "nonpayable",
      "type": "function"
    },
    {
      "inputs": [
        {
          "internalType": "bytes32",
          "name": "submissionHash",
          "type": "bytes32"
        }
      ],
      "name": "submitNewPredictions",
      "outputs": [
        {
          "internalType": "uint32",
          "name": "challengeNumber",
          "type": "uint32"
        }
      ],
      "stateMutability": "nonpayable",
      "type": "function"
    },
    {
      "inputs": [
        {
          "internalType": "bytes32",
          "name": "resultsHash",
          "type": "bytes32"
        }
      ],
      "name": "submitResults",
      "outputs": [],
      "stateMutability": "nonpayable",
      "type": "function"
    },
    {
      "inputs": [
        {
          "internalType": "bytes4",
          "name": "interfaceId",
          "type": "bytes4"
        }
      ],
      "name": "supportsInterface",
      "outputs": [
        {
          "internalType": "bool",
          "name": "",
          "type": "bool"
        }
      ],
      "stateMutability": "view",
      "type": "function"
    },
    {
      "inputs": [
        {
          "internalType": "address",
          "name": "recipient",
          "type": "address"
        },
        {
          "internalType": "uint256",
          "name": "amountToken",
          "type": "uint256"
        }
      ],
      "name": "transferStake",
      "outputs": [
        {
          "internalType": "bool",
          "name": "success",
          "type": "bool"
        }
      ],
      "stateMutability": "nonpayable",
      "type": "function"
    },
    {
      "inputs": [
        {
          "internalType": "bytes32",
          "name": "oldDatasetHash",
          "type": "bytes32"
        },
        {
          "internalType": "bytes32",
          "name": "newDatasetHash",
          "type": "bytes32"
        }
      ],
      "name": "updateDataset",
      "outputs": [],
      "stateMutability": "nonpayable",
      "type": "function"
    },
    {
      "inputs": [
        {
          "internalType": "bytes32",
          "name": "oldResultsHash",
          "type": "bytes32"
        },
        {
          "internalType": "bytes32",
          "name": "newResultsHash",
          "type": "bytes32"
        }
      ],
      "name": "updateResults",
      "outputs": [],
      "stateMutability": "nonpayable",
      "type": "function"
    },
    {
      "inputs": [
        {
          "internalType": "uint256",
          "name": "newStakeThreshold",
          "type": "uint256"
        }
      ],
      "name": "updateStakeThreshold",
      "outputs": [],
      "stateMutability": "nonpayable",
      "type": "function"
    },
    {
      "inputs": [
        {
          "internalType": "bytes32",
          "name": "oldSubmissionHash",
          "type": "bytes32"
        },
        {
          "internalType": "bytes32",
          "name": "newSubmissionHash",
          "type": "bytes32"
        }
      ],
      "name": "updateSubmission",
      "outputs": [
        {
          "internalType": "uint32",
          "name": "challengeNumber",
          "type": "uint32"
        }
      ],
      "stateMutability": "nonpayable",
      "type": "function"
    },
    {
      "inputs": [
        {
          "internalType": "address",
          "name": "newVaultAddress",
          "type": "address"
        }
      ],
      "name": "updateVaultAddress",
      "outputs": [],
      "stateMutability": "nonpayable",
      "type": "function"
    }
  ],
  "bytecode": "6080604052670c7d713b49da00006008553480156200001d57600080fd5b5060405162002da838038062002da8833981016040819052620000409162000235565b6001600160a01b0382166200009c5760405162461bcd60e51b815260206004820152601760248201527f4e6f20746f6b656e206164647265737320666f756e642e00000000000000000060448201526064015b60405180910390fd5b6001600160a01b038116620000f45760405162461bcd60e51b815260206004820152601760248201527f4e6f207661756c74206164647265737320666f756e642e000000000000000000604482015260640162000093565b6200010160003362000168565b6003928355600180546001600160a01b039384166001600160a01b0319909116179055600280546001600160c01b031916919092161790819055600160a01b900463ffffffff166000908152600a6020526040902001805460ff1916600417905562000275565b62000174828262000178565b5050565b6000828152602081815260408083206001600160a01b038516845290915290205460ff1662000174576000828152602081815260408083206001600160a01b03851684529091529020805460ff19166001179055620001d43390565b6001600160a01b0316816001600160a01b0316837f2f8788117e7eff1d82e926ec794901d17c78024a50270940304540a733656f0d60405160405180910390a45050565b80516001600160a01b03811681146200023057600080fd5b919050565b6000806000606084860312156200024a578283fd5b835192506200025c6020850162000218565b91506200026c6040850162000218565b90509250925092565b612b2380620002856000396000f3fe608060405234801561001057600080fd5b50600436106102485760003560e01c806391d148541161013b578063d2de2f85116100b8578063eecfc33f1161007c578063eecfc33f146105b6578063eedad66b146105df578063f789b4e9146105f2578063f7fb373d146105fa578063ffc6ff1e1461060d57600080fd5b8063d2de2f851461056d578063d4f4b80614610580578063d547741f14610588578063dea1b2ce1461059b578063e8b96de1146105a357600080fd5b8063af4d2212116100ff578063af4d2212146104cd578063af976fec146104e0578063b6cce5e21461051e578063c55e86b114610531578063c8f971df1461054457600080fd5b806391d1485414610463578063934d9012146104765780639f2492a21461049f578063a217fddf146104b2578063a28f8847146104ba57600080fd5b806339e28777116101c957806360cdb6cc1161018d57806360cdb6cc146103a357806365cacaa4146103e3578063736d8c91146103f45780637a7664601461041a5780639044265a1461044357600080fd5b806339e287771461033c5780633f230915146103625780634bfde7f81461037557806358e2f50e146103885780635ef533291461039057600080fd5b80632f2ff15d116102105780632f2ff15d146102e8578063315c455e146102fb578063343cb6be1461030e57806335d9db531461031657806336568abe1461032957600080fd5b806301ffc9a71461024d57806310fe9ae8146102755780632313ed3e1461029a578063248a9ca3146102af57806325b06746146102e0575b600080fd5b61026061025b3660046128bc565b610615565b60405190151581526020015b60405180910390f35b6001546001600160a01b03165b6040516001600160a01b03909116815260200161026c565b6102ad6102a8366004612858565b61064c565b005b6102d26102bd366004612858565b60009081526020819052604090206001015490565b60405190815260200161026c565b6005546102d2565b6102ad6102f6366004612870565b6108be565b6102ad610309366004612858565b61094d565b6003546102d2565b610260610324366004612858565b61095b565b6102ad610337366004612870565b610ae7565b6102d261034a3660046128fc565b63ffffffff166000908152600a602052604090205490565b6102ad61037036600461289b565b610b61565b61026061038336600461293f565b610ce7565b6102ad61107f565b6102ad61039e366004612858565b6111e5565b6102d26103b1366004612916565b63ffffffff9091166000908152600a602090815260408083206001600160a01b03909416835260049093019052205490565b6002546001600160a01b0316610282565b600254600160a01b900463ffffffff165b60405163ffffffff909116815260200161026c565b6102d261042836600461278c565b6001600160a01b031660009081526009602052604090205490565b6104566104513660046128fc565b611297565b60405161026c91906129bd565b610260610471366004612870565b61130d565b6102d26104843660046128fc565b63ffffffff166000908152600a602052604090206002015490565b6104056104ad366004612858565b611336565b6102d2600081565b6102606104c83660046127a6565b6114af565b6102606104db3660046127cf565b61168e565b61050c6104ee3660046128fc565b63ffffffff166000908152600a602052604090206003015460ff1690565b60405160ff909116815260200161026c565b61026061052c366004612858565b6116b7565b6102ad61053f36600461289b565b6117f4565b6102d26105523660046128fc565b63ffffffff166000908152600a602052604090206005015490565b6102ad61057b36600461278c565b611871565b6004546102d2565b6102ad610596366004612870565b611938565b6007546102d2565b6102606105b1366004612858565b6119b8565b6102d26105c43660046128fc565b63ffffffff166000908152600a602052604090206001015490565b6102606105ed366004612858565b611bfe565b6006546102d2565b61040561060836600461289b565b611e33565b6102ad611eb2565b60006001600160e01b03198216637965db0b60e01b148061064657506301ffc9a760e01b6001600160e01b03198316145b92915050565b61065760003361130d565b6106c35760405162461bcd60e51b815260206004820152603260248201527f436f6d7065746974696f6e202d206f70656e5374616b696e673a2043616c6c65604482015271391034b9903ab730baba3437b934bd32b21760711b60648201526084015b60405180910390fd5b600254600160a01b900463ffffffff166000818152600a602052604090206003015460ff1660041461075d5760405162461bcd60e51b815260206004820152603860248201527f436f6d7065746974696f6e202d206f70656e5374616b696e673a20507265766960448201527f6f757320706861736520697320696e636f6d706c6574652e000000000000000060648201526084016106ba565b8061076781612a93565b63ffffffff81166000818152600a60205260408120600301805460ff1916600117905560028054600160a01b90930263ffffffff60a01b19909316929092179091559092506107b99150829084612013565b60025460408051630eecae2160e01b815290516000926001600160a01b031691630eecae2191600480830192602092919082900301818787803b1580156107ff57600080fd5b505af1158015610813573d6000803e3d6000fd5b505050506040513d601f19601f8201168201806040525081019061083791906128e4565b9050806004600082825461084b9190612a0a565b9091555050600854600454670de0b6b3a76400009161086991612a42565b6108739190612a22565b60078190556004546108859190612a61565b60065560405163ffffffff8316907fdb78430d4256f71134803e3f9a309d288726d0a5aee4a19a67a4e381ddfde2f190600090a2505050565b6000828152602081905260409020600101546108db905b3361130d565b61093f5760405162461bcd60e51b815260206004820152602f60248201527f416363657373436f6e74726f6c3a2073656e646572206d75737420626520616e60448201526e0818591b5a5b881d1bc819dc985b9d608a1b60648201526084016106ba565b610949828261216d565b5050565b6109586000826121f1565b50565b33600090815260096020526040812054828114156109eb5760405162461bcd60e51b815260206004820152604160248201527f436f6d7065746974696f6e202d207365745374616b653a20596f75722073746160448201527f6b6520697320616c72656164792073657420746f207468697320616d6f756e746064820152601760f91b608482015260a4016106ba565b80831115610a6b57610a006105ed8285612a61565b610a665760405162461bcd60e51b815260206004820152603160248201527f436f6d7065746974696f6e202d207365745374616b653a20436f756c64206e6f6044820152703a1034b731b932b0b9b29039ba30b5b29760791b60648201526084016106ba565b610ade565b610a786105b18483612a61565b610ade5760405162461bcd60e51b815260206004820152603160248201527f436f6d7065746974696f6e202d207365745374616b653a20436f756c64206e6f6044820152703a103232b1b932b0b9b29039ba30b5b29760791b60648201526084016106ba565b50600192915050565b6001600160a01b0381163314610b575760405162461bcd60e51b815260206004820152602f60248201527f416363657373436f6e74726f6c3a2063616e206f6e6c792072656e6f756e636560448201526e103937b632b9903337b91039b2b63360891b60648201526084016106ba565b6109498282612460565b610b6c60003361130d565b610bd55760405162461bcd60e51b815260206004820152603460248201527f436f6d7065746974696f6e202d20757064617465446174617365743a2043616c6044820152733632b91034b9903ab730baba3437b934bd32b21760611b60648201526084016106ba565b60025463ffffffff600160a01b909104166000818152600a602052604090206003015460ff16600114610c645760405162461bcd60e51b815260206004820152603160248201527f436f6d7065746974696f6e202d20757064617465446174617365743a20436861604482015270363632b733b29034b99031b637b9b2b21760791b60648201526084016106ba565b82610cd75760405162461bcd60e51b815260206004820152603c60248201527f436f6d7065746974696f6e202d20757064617465446174617365743a204d757360448201527f742068617665207072652d6578697374696e6720646174617365742e0000000060648201526084016106ba565b610ce2818484612013565b505050565b6000610cf3813361130d565b610d655760405162461bcd60e51b815260206004820152603c60248201527f436f6d7065746974696f6e202d20706179506572666f726d616e63655265776160448201527f7264733a2043616c6c657220697320756e617574686f72697a65642e0000000060648201526084016106ba565b63ffffffff86166000908152600a6020526040902060039081015460ff161015610e065760405162461bcd60e51b815260206004820152604660248201527f436f6d7065746974696f6e202d20706179506572666f726d616e63655265776160448201527f7264733a204368616c6c656e676520697320696e20756e65787065637465642060648201526539ba30ba329760d11b608482015260a4016106ba565b838214610e955760405162461bcd60e51b815260206004820152605160248201527f436f6d7065746974696f6e202d20706179506572666f726d616e63655265776160448201527f7264733a204e756d626572206f662077696e6e65727320616e6420726577617260648201527032399030b932903234b33332b932b73a1760791b608482015260a4016106ba565b6000805b85811015610f8e576000858583818110610ec357634e487b7160e01b600052603260045260246000fd5b9050602002013590506000888884818110610eee57634e487b7160e01b600052603260045260246000fd5b9050602002016020810190610f03919061278c565b6001600160a01b038116600090815260096020526040812080549293508492909190610f30908490612a0a565b90915550610f4090508285612a0a565b935081816001600160a01b03167fc993fae8b061033559278198ea3f4595bc21afd187db8384ddc0a40e2c7d6c1360405160405180910390a350508080610f8690612a78565b915050610e99565b50600754811115610ff65760405162461bcd60e51b815260206004820152602c60248201527f546f74616c207061796f75742073756d206d6f7265207468616e20636f6d706560448201526b3a34ba34b7b7103837b7b61760a11b60648201526084016106ba565b80600460008282546110089190612a61565b9250508190555080600560008282546110219190612a0a565b90915550600192505063ffffffff87166000818152600a6020526040808220600301805460ff19166004179055518392917fc0578e95e81728b40769c9f26794792cb548b910e25dbaca95d16f2ad71e4cff91a35095945050505050565b61108a60003361130d565b6110f45760405162461bcd60e51b815260206004820152603560248201527f436f6d7065746974696f6e202d206f70656e5375626d697373696f6e3a204361604482015274363632b91034b9903ab730baba3437b934bd32b21760591b60648201526084016106ba565b60025463ffffffff600160a01b909104166000818152600a602052604090206003015460ff1660011461118f5760405162461bcd60e51b815260206004820152603f60248201527f436f6d7065746974696f6e202d206f70656e5375626d697373696f6e3a20436860448201527f616c6c656e676520697320696e20756e65787065637465642073746174652e0060648201526084016106ba565b63ffffffff81166000818152600a602052604080822060038101805460ff19166002908117909155600554910155517f173d82e68025325bf392a6c9b38fde6a6a4ecda962fb17a14daf81b4b561ed2e9190a250565b6111f060003361130d565b6112625760405162461bcd60e51b815260206004820152603b60248201527f436f6d7065746974696f6e202d207570646174655374616b655468726573686f60448201527f6c643a2043616c6c657220697320756e617574686f72697a65642e000000000060648201526084016106ba565b6003819055604051339082907fc3dad8d972694b8a948b4205b1bb45cbb2c73729f86630689e1e41c36a2965fa90600090a350565b63ffffffff81166000908152600a602090815260409182902060050180548351818402810184019094528084526060939283018282801561130157602002820191906000526020600020905b81546001600160a01b031681526001909101906020018083116112e3575b50505050509050919050565b6000918252602082815260408084206001600160a01b0393909316845291905290205460ff1690565b600061134281836124c5565b33600090815260096020526040902054600354919250908110156113ce5760405162461bcd60e51b815260206004820152603d60248201527f436f6d7065746974696f6e202d207375626d69744e657750726564696374696f60448201527f6e733a205374616b652069732062656c6f77207468726573686f6c642e00000060648201526084016106ba565b63ffffffff82166000818152600a60209081526040822060058101805460018101825590845291832090910180546001600160a01b03191633179055918152600290910154600654611421908490612a42565b61142b9190612a22565b9050806004600082825461143f9190612a61565b9091555061144f90508183612a0a565b3360009081526009602052604081209190915560058054839290611474908490612a0a565b90915550506040518190839033907f35d3bb8baa4b2735a9b7bcd0d44b2b974ebbd7f04c135714d0ec9ebdd800674f90600090a45050919050565b60025463ffffffff600160a01b909104166000908152600a602052604081206003015460ff1660011461157f5760405162461bcd60e51b815260206004820152606660248201527f436f6d7065746974696f6e202d207472616e736665725374616b653a20506c6560448201527f617365207761697420666f7220746865207374616b696e6720706572696f642060648201527f746f20756e6c6f636b206265666f7265206d6f64696679696e6720796f75722060848201526539ba30b5b29760d11b60a482015260c4016106ba565b33600090815260096020526040902054808311156115fa5760405162461bcd60e51b815260206004820152603260248201527f436f6d7065746974696f6e202d207472616e736665725374616b653a20496e736044820152713ab33334b1b4b2b73a103130b630b731b29760711b60648201526084016106ba565b3360009081526009602052604081208054859290611619908490612a61565b90915550506001600160a01b03841660009081526009602052604081208054859290611646908490612a0a565b90915550506040516001925083906001600160a01b0386169033907f1e07278daf12d879e91ea076cf43032a70d56cb1d6e8bc91534dcd17f61e18f390600090a45092915050565b6002546000906116ae90600160a01b900463ffffffff1686868686610ce7565b95945050505050565b6001546040516323b872dd60e01b8152336004820152306024820152604481018390526000916001600160a01b0316906323b872dd90606401602060405180830381600087803b15801561170a57600080fd5b505af115801561171e573d6000803e3d6000fd5b505050506040513d601f19601f820116820180604052508101906117429190612838565b6117a35760405162461bcd60e51b815260206004820152602c60248201527f546f75726e616d656e74202d2073706f6e736f723a20546f6b656e207472616e60448201526b39b332b9103330b4b632b21760a11b60648201526084016106ba565b6004546117b08382612a0a565b600455600191506117c18382612a0a565b604051849033907f64939930c3fd0a1fe9e7fb9810272db7730a0f02b900972787bcb79fb6fd3d2d90600090a450919050565b816118675760405162461bcd60e51b815260206004820152603c60248201527f436f6d7065746974696f6e202d20757064617465526573756c74733a204d757360448201527f742068617665207072652d6578697374696e6720726573756c74732e0000000060648201526084016106ba565b61094982826121f1565b61187c60003361130d565b6118ee5760405162461bcd60e51b815260206004820152603960248201527f436f6d7065746974696f6e202d207570646174655661756c744164647265737360448201527f3a2043616c6c657220697320756e617574686f72697a65642e0000000000000060648201526084016106ba565b600280546001600160a01b0319166001600160a01b0383169081179091556040517f5e74f6697ae9d8e4ed8c4e8cb2f44acc9909529ce81812aab23103b3de223f6690600090a250565b600082815260208190526040902060010154611953906108d5565b610b575760405162461bcd60e51b815260206004820152603060248201527f416363657373436f6e74726f6c3a2073656e646572206d75737420626520616e60448201526f2061646d696e20746f207265766f6b6560801b60648201526084016106ba565b60025463ffffffff600160a01b909104166000908152600a602052604081206003015460ff16600114611a885760405162461bcd60e51b815260206004820152606660248201527f436f6d7065746974696f6e202d2064656372656173655374616b653a20506c6560448201527f617365207761697420666f7220746865207374616b696e6720706572696f642060648201527f746f20756e6c6f636b206265666f7265206d6f64696679696e6720796f75722060848201526539ba30b5b29760d11b60a482015260c4016106ba565b3360009081526009602052604090205480831115611b0e5760405162461bcd60e51b815260206004820152603f60248201527f436f6d7065746974696f6e202d2064656372656173655374616b653a20496e7360448201527f756666696369656e742066756e647320666f72207769746864726177616c2e0060648201526084016106ba565b611b188382612a61565b3360009081526009602052604081209190915560058054859290611b3d908490612a61565b909155505060015460405163a9059cbb60e01b8152336004820152602481018590526001600160a01b039091169063a9059cbb90604401602060405180830381600087803b158015611b8e57600080fd5b505af1158015611ba2573d6000803e3d6000fd5b505050506040513d601f19601f82011682018060405250810190611bc69190612838565b5060405160019250839033907f700865370ffb2a65a2b0242e6a64b21ac907ed5ecd46c9cffc729c177b2b1c6990600090a350919050565b60025463ffffffff600160a01b909104166000908152600a602052604081206003015460ff16600114611cce5760405162461bcd60e51b815260206004820152606660248201527f436f6d7065746974696f6e202d20696e6372656173655374616b653a20506c6560448201527f617365207761697420666f7220746865207374616b696e6720706572696f642060648201527f746f20756e6c6f636b206265666f7265206d6f64696679696e6720796f75722060848201526539ba30b5b29760d11b60a482015260c4016106ba565b6001546040516323b872dd60e01b8152336004820152306024820152604481018490526001600160a01b03909116906323b872dd90606401602060405180830381600087803b158015611d2057600080fd5b505af1158015611d34573d6000803e3d6000fd5b505050506040513d601f19601f82011682018060405250810190611d589190612838565b611dc05760405162461bcd60e51b815260206004820152603360248201527f436f6d7065746974696f6e202d20696e6372656173655374616b653a20546f6b60448201527232b7102a3930b739b332b9103330b4b632b21760691b60648201526084016106ba565b3360009081526009602052604081208054849290611ddf908490612a0a565b925050819055508160056000828254611df89190612a0a565b909155505060405160019150829033907f8b0ed825817a2e696c9a931715af4609fc60e1701f09c89ee7645130e937eb2d90600090a3919050565b600082611ea15760405162461bcd60e51b81526020600482015260426024820152600080516020612ace83398151915260448201527f4d7573742068617665207072652d6578697374696e67207375626d697373696f606482015261371760f11b608482015260a4016106ba565b611eab83836124c5565b9392505050565b611ebd60003361130d565b611f285760405162461bcd60e51b815260206004820152603660248201527f436f6d7065746974696f6e202d20636c6f73655375626d697373696f6e3a204360448201527530b63632b91034b9903ab730baba3437b934bd32b21760511b60648201526084016106ba565b60028054600160a01b900463ffffffff166000818152600a6020526040902060030154909160ff90911614611fc55760405162461bcd60e51b815260206004820152603d60248201527f436f6d7065746974696f6e202d20636c6f73655375626d697373696f6e3a204360448201527f68616c6c656e676520696e20756e65787065637465642073746174652e00000060648201526084016106ba565b63ffffffff81166000818152600a60205260408082206003908101805460ff19169091179055517faa5ebdc7900b87a79257aabbab219af255ada0be7148632ce5afcd622df7a88b9190a250565b8082141561209a5760405162461bcd60e51b815260206004820152604860248201527f436f6d7065746974696f6e202d20757064617465446174617365743a2043616e60448201527f6e6f74207570646174652077697468207468652073616d652068617368206173606482015267103132b337b9329760c11b608482015260a4016106ba565b63ffffffff83166000908152600a602052604090205482146121245760405162461bcd60e51b815260206004820152603d60248201527f436f6d7065746974696f6e202d20757064617465446174617365743a20496e6360448201527f6f7272656374206f6c642064617461736574207265666572656e63652e00000060648201526084016106ba565b63ffffffff83166000818152600a6020526040808220849055518392859290917f0b4ad7e2453c3c06a28c5cfe29a3067c6edde6eb03be4df2a461f9d806cb747e9190a4505050565b612177828261130d565b610949576000828152602081815260408083206001600160a01b03851684529091529020805460ff191660011790556121ad3390565b6001600160a01b0316816001600160a01b0316837f2f8788117e7eff1d82e926ec794901d17c78024a50270940304540a733656f0d60405160405180910390a45050565b6121fc60003361130d565b6122655760405162461bcd60e51b815260206004820152603460248201527f436f6d7065746974696f6e202d20757064617465526573756c74733a2043616c6044820152733632b91034b9903ab730baba3437b934bd32b21760611b60648201526084016106ba565b808214156122ec5760405162461bcd60e51b815260206004820152604860248201527f436f6d7065746974696f6e202d20757064617465526573756c74733a2043616e60448201527f6e6f74207570646174652077697468207468652073616d652068617368206173606482015267103132b337b9329760c11b608482015260a4016106ba565b600254600160a01b900463ffffffff166000818152600a6020526040902060039081015460ff1610156123875760405162461bcd60e51b815260206004820152603b60248201527f436f6d7065746974696f6e202d20757064617465526573756c74733a2043686160448201527f6c6c656e676520696e20756e65787065637465642073746174652e000000000060648201526084016106ba565b63ffffffff81166000908152600a602052604090206001015483146124145760405162461bcd60e51b815260206004820152603c60248201527f436f6d7065746974696f6e202d20757064617465526573756c74733a20436c6160448201527f736820696e206578697374696e6720726573756c747320686173682e0000000060648201526084016106ba565b63ffffffff81166000818152600a6020526040808220600101859055518492869290917f0fb7d772905d44c5fdd59d4ab87c7f40281e09f93e2e189d03737c6d82b154ea9190a4505050565b61246a828261130d565b15610949576000828152602081815260408083206001600160a01b0385168085529252808320805460ff1916905551339285917ff6391f5c32d9c69d2a47ea670b442974b53935d1edc7fd64eb21e047a839171b9190a45050565b60028054600160a01b900463ffffffff166000818152600a6020526040902060030154909160ff909116146125505760405162461bcd60e51b815260206004820152603e6024820152600080516020612ace83398151915260448201527f4e6f7420617661696c61626c6520666f72207375626d697373696f6e732e000060648201526084016106ba565b816125b15760405162461bcd60e51b81526020600482015260396024820152600080516020612ace83398151915260448201527f43616e6e6f74207375626d697420656d70747920686173682e0000000000000060648201526084016106ba565b818314156126295760405162461bcd60e51b815260206004820152604b6024820152600080516020612ace83398151915260448201527f43616e6e6f74207570646174652077697468207468652073616d65206861736860648201526a1030b9903132b337b9329760a91b608482015260a4016106ba565b63ffffffff81166000908152600a6020908152604080832033845260040190915290205483146126ba5760405162461bcd60e51b81526020600482015260426024820152600080516020612ace83398151915260448201527f436c61736820696e206578697374696e67207375626d697373696f6e20686173606482015261341760f11b608482015260a4016106ba565b63ffffffff81166000818152600a6020908152604080832033808552600490910190925280832086905551859391927f953e3b79bb71898776bb2ef8bb919748c883b8b27c42e334de1ecdbf79d472bb91a492915050565b80356001600160a01b038116811461272957600080fd5b919050565b60008083601f84011261273f578182fd5b50813567ffffffffffffffff811115612756578182fd5b6020830191508360208260051b850101111561277157600080fd5b9250929050565b803563ffffffff8116811461272957600080fd5b60006020828403121561279d578081fd5b611eab82612712565b600080604083850312156127b8578081fd5b6127c183612712565b946020939093013593505050565b600080600080604085870312156127e4578182fd5b843567ffffffffffffffff808211156127fb578384fd5b6128078883890161272e565b9096509450602087013591508082111561281f578384fd5b5061282c8782880161272e565b95989497509550505050565b600060208284031215612849578081fd5b81518015158114611eab578182fd5b600060208284031215612869578081fd5b5035919050565b60008060408385031215612882578182fd5b8235915061289260208401612712565b90509250929050565b600080604083850312156128ad578182fd5b50508035926020909101359150565b6000602082840312156128cd578081fd5b81356001600160e01b031981168114611eab578182fd5b6000602082840312156128f5578081fd5b5051919050565b60006020828403121561290d578081fd5b611eab82612778565b60008060408385031215612928578182fd5b61293183612778565b915061289260208401612712565b600080600080600060608688031215612956578081fd5b61295f86612778565b9450602086013567ffffffffffffffff8082111561297b578283fd5b61298789838a0161272e565b9096509450604088013591508082111561299f578283fd5b506129ac8882890161272e565b969995985093965092949392505050565b6020808252825182820181905260009190848201906040850190845b818110156129fe5783516001600160a01b0316835292840192918401916001016129d9565b50909695505050505050565b60008219821115612a1d57612a1d612ab7565b500190565b600082612a3d57634e487b7160e01b81526012600452602481fd5b500490565b6000816000190483118215151615612a5c57612a5c612ab7565b500290565b600082821015612a7357612a73612ab7565b500390565b6000600019821415612a8c57612a8c612ab7565b5060010190565b600063ffffffff80831681811415612aad57612aad612ab7565b6001019392505050565b634e487b7160e01b600052601160045260246000fdfe436f6d7065746974696f6e202d207570646174655375626d697373696f6e3a20a2646970667358221220b3bfd79626fc41e7f3590dcee999583c2490ce271d4f21f06afac863e4af60b664736f6c63430008040033",
  "bytecodeSha1": "3ab589705c9ea2dbf387baf19a19bccb00b821ae",
  "compiler": {
    "evm_version": "istanbul",
    "optimizer": {
      "enabled": true,
      "runs": 200
    },
    "version": "0.8.4+commit.c7e474f2"
  },
  "contractName": "Competition",
  "language": "Solidity",
  "natspec": {
    "author": "Rocket Capital Investment Pte Ltd",
    "details": "This contract manages registration and reward payouts for the RCI Tournament.IPFS hash format: Hash Identifier (2 bytes), Actual Hash (May eventually take on other formats but currently 32 bytes) ",
    "kind": "dev",
    "methods": {
      "closeSubmission()": {
        "details": "Called only by authorized admin to stop allowing submissions for a particular challenge.*"
      },
      "decreaseStake(uint256)": {
        "details": "Called by anyone to decrease their stake.",
        "params": {
          "amountToken": "Number of tokens to withdraw."
        },
        "returns": {
          "success": "True if the operation completed successfully.*"
        }
      },
      "getCompetitionPool()": {
        "details": "Called by anyone to check amount pooled into this contract.",
        "returns": {
          "competitionPool": "Amount of tokens in the competition pool in wei.*"
        }
      },
      "getCurrentParticipationRewardsBudget()": {
        "details": "Called by anyone to check the participation rewards budget allocation for the current challenge.",
        "returns": {
          "currentParticipationRewardsBudget": "Budget for participation rewards in wei.*"
        }
      },
      "getCurrentPerformanceRewardsBudget()": {
        "details": "Called by anyone to check the performance rewards budget for the current challenge.",
        "returns": {
          "currentPerformanceRewardsBudget": "Budget for performance rewards payment in wei.*"
        }
      },
      "getCurrentTotalStaked()": {
        "details": "Called by anyone to check the current total amount staked.",
        "returns": {
          "currentTotalStaked": "Amount of tokens currently staked in wei.*"
        }
      },
      "getDatasetHash(uint32)": {
        "details": "Called by anyone to obtain the dataset hash for this particular challenge.",
        "params": {
          "challengeNumber": "The challenge to get the dataset hash of."
        },
        "returns": {
          "dataset": "IPFS hash where the dataset of this particular challenge is stored. This is the IPFS CID less the 1220 prefix.*"
        }
      },
      "getLatestChallengeNumber()": {
        "details": "Called by anyone to get the number of the latest challenge.As the challenge number begins from 1, this is also the total number of challenges created in this competition.",
        "returns": {
          "latestChallengeNumber": "Latest challenge created.*"
        }
      },
      "getPhase(uint32)": {
        "details": "Called by anyone to obtain the phase number for this particular challenge.",
        "params": {
          "challengeNumber": "The challenge to get the phase of."
        },
        "returns": {
          "phase": "The phase that this challenge is in.*"
        }
      },
      "getResultsHash(uint32)": {
        "details": "Called by anyone to obtain the results hash for this particular challenge.",
        "params": {
          "challengeNumber": "The challenge to get the results hash of."
        },
        "returns": {
          "results": "IPFS hash where results of this particular challenge are stored. This is the IPFS CID less the 1220 prefix.*"
        }
      },
      "getRoleAdmin(bytes32)": {
        "details": "Returns the admin role that controls `role`. See {grantRole} and {revokeRole}. To change a role's admin, use {_setRoleAdmin}."
      },
      "getStake(address)": {
        "details": "Called by anyone to obtain the stake amount in wei of a particular address.",
        "params": {
          "participant": "Address to query token balance of."
        },
        "returns": {
          "stake": "Token balance of given address in wei.*"
        }
      },
      "getStakeThreshold()": {
        "details": "Called by anyone to obtain the minimum amount of stake required to participate in the competition.",
        "returns": {
          "stakeThreshold": "Minimum stake amount in wei.*"
        }
      },
      "getSubmission(uint32,address)": {
        "details": "Called by anyone to get submission hash of a participant for a challenge.",
        "params": {
          "challengeNumber": "Challenge index to check on.",
          "participant": "Address of participant to check on."
        },
        "returns": {
          "submissionHash": "IPFS reference hash of participant's prediction submission for this challenge. This is the IPFS CID less the 1220 prefix.*"
        }
      },
      "getSubmissionCounter(uint32)": {
        "details": "Called by anyone to obtain the number of submissions made for this particular challenge.",
        "params": {
          "challengeNumber": "The challenge to get the submission counter of."
        },
        "returns": {
          "submissionCounter": "Number of submissions made.*"
        }
      },
      "getSubmitters(uint32)": {
        "details": "Called by anyone to obtain the list of submitters for this particular challenge.Submitters refer to participants that have made submissions for this particular challenge.",
        "params": {
          "challengeNumber": "The challenge to get the submitters list of."
        },
        "returns": {
          "submitters": "List of submitter addresses.*"
        }
      },
      "getTokenAddress()": {
        "details": "Called by anyone to obtain the smart contract address of the ERC20 token used in this competition.",
        "returns": {
          "tokenAddress": "ERC20 Token smart contract address.*"
        }
      },
      "getTotalStakesLockedForChallenge(uint32)": {
        "details": "Called by anyone to check the total stakes locked for a particular challenge.",
        "params": {
          "challengeNumber": "Challenge to get the total stakes locked of."
        },
        "returns": {
          "totalStakedForChallenge": "Total amount of tokens locked for this challenge.*"
        }
      },
      "getVaultAddress()": {
        "details": "Called by anyone to obtain the address of the vault contract.",
        "returns": {
          "vaultAddress": "Vault contract address.*"
        }
      },
      "grantRole(bytes32,address)": {
        "details": "Grants `role` to `account`. If `account` had not been already granted `role`, emits a {RoleGranted} event. Requirements: - the caller must have ``role``'s admin role."
      },
      "hasRole(bytes32,address)": {
        "details": "Returns `true` if `account` has been granted `role`."
      },
      "increaseStake(uint256)": {
        "details": "Called by anyone to increase their stake.This performs an ERC20 transfer so the msg sender will need to grant approval to this contract before calling this function.",
        "params": {
          "amountToken": "The amount to add to their stake."
        },
        "returns": {
          "success": "True if the operation completed successfully.*"
        }
      },
      "openStaking(bytes32)": {
        "details": "Called only by authorized admin to start allowing staking for a new challenge.",
        "params": {
          "datasetHash": "IPFS reference hash where dataset for this challenge is stored. This is the IPFS CID less the 1220 prefix.*"
        }
      },
      "openSubmission()": {
        "details": "Called only by authorized admin to lock stakes and start allowing submissions for a particular challenge.*"
      },
      "payPerformanceRewards(address[],uint256[])": {
        "details": "Called only by authorized admin to move rewards from the competition pool to the winners' competition internal balances based on results from the current challenge.Note that the size of the array parameters passed in to this function is limited by the block gas limit.This function allows for the payout to be split into chunks by calling it repeatedly.",
        "params": {
          "rewards": "Array of corresponding amount of tokens in wei won by each winner.",
          "winners": "Array of winners' addresses."
        },
        "returns": {
          "success": "True if operation completes successfully.*"
        }
      },
      "payPerformanceRewards(uint32,address[],uint256[])": {
        "details": "Provides the same function as above but allows for challenge number to be specified.Note that the size of the array parameters passed in to this function is limited by the block gas limit.This function allows for the payout to be split into chunks by calling it repeatedly.",
        "params": {
          "challengeNumber": "Challenge to make rewards payment for.",
          "rewards": "Array of corresponding amount of tokens in wei won by each winner.",
          "winners": "Array of winners' addresses."
        },
        "returns": {
          "success": "True if operation completes successfully.*"
        }
      },
      "renounceRole(bytes32,address)": {
        "details": "Revokes `role` from the calling account. Roles are often managed via {grantRole} and {revokeRole}: this function's purpose is to provide a mechanism for accounts to lose their privileges if they are compromised (such as when a trusted device is misplaced). If the calling account had been granted `role`, emits a {RoleRevoked} event. Requirements: - the caller must be `account`."
      },
      "revokeRole(bytes32,address)": {
        "details": "Revokes `role` from `account`. If `account` had been granted `role`, emits a {RoleRevoked} event. Requirements: - the caller must have ``role``'s admin role."
      },
      "setStake(uint256)": {
        "details": "Called by anyone to set their stake to a particular value explicitly.Internally calls the increaseStake or decreaseStake function.This performs an ERC20 transfer so the msg sender may need to grant approval to this contract before calling this function.",
        "params": {
          "amountToken": "The explicit value to set their stake to."
        },
        "returns": {
          "success": "True if the operation completed successfully.*"
        }
      },
      "sponsor(uint256)": {
        "details": "Called by a sponsor to send tokens to the contract's competition pool. This pool is used for payouts to challenge winners.This performs an ERC20 transfer so the msg sender will need to grant approval to this contract before calling this function.",
        "params": {
          "amountToken": "The amount to send to the the competition pool."
        },
        "returns": {
          "success": "True if the operation completed successfully.*"
        }
      },
      "submitNewPredictions(bytes32)": {
        "details": "Called by participant to make a new prediction submission for the current challenge.Will be successful if the participant's stake is above the staking threshold.",
        "params": {
          "submissionHash": "IPFS reference hash of submission. This is the IPFS CID less the 1220 prefix."
        },
        "returns": {
          "challengeNumber": "Challenge that this submission was made for.*"
        }
      },
      "submitResults(bytes32)": {
        "details": "Called only by authorized admin to submit the IPFS reference for the results of a particular challenge.",
        "params": {
          "resultsHash": "IPFS reference hash where results for this challenge are stored. This is the IPFS CID less the 1220 prefix.*"
        }
      },
      "supportsInterface(bytes4)": {
        "details": "See {IERC165-supportsInterface}."
      },
      "transferStake(address,uint256)": {
        "details": "Called by anyone to make transfers from their competition stake to the competition stake of another address.",
        "params": {
          "amountToken": "The amount to transfer.",
          "recipient": "Address of recipient."
        },
        "returns": {
          "success": "True if the operation completed successfully.*"
        }
      },
      "updateResults(bytes32,bytes32)": {
        "details": "Called only by authorized admin to update the IPFS reference for the results of the current challenge.",
        "params": {
          "newResultsHash": "IPFS reference hash where new results for this challenge are stored. This is the IPFS CID less the 1220 prefix.*",
          "oldResultsHash": "IPFS reference hash where previous results for this challenge are stored. This is the IPFS CID less the 1220 prefix."
        }
      },
      "updateStakeThreshold(uint256)": {
        "details": "Called only by authorized admin to update the minimum stake amount required to take part in the competition.",
        "params": {
          "newStakeThreshold": "New stake threshold amount in wei.*"
        }
      },
      "updateSubmission(bytes32,bytes32)": {
        "details": "Called by participant to modify prediction submission for the current challenge.",
        "params": {
          "newSubmissionHash": "IPFS reference hash of new submission. This is the IPFS CID less the 1220 prefix.",
          "oldSubmissionHash": "IPFS reference hash of previous submission. This is the IPFS CID less the 1220 prefix."
        },
        "returns": {
          "challengeNumber": "Challenge that this submission was made for.*"
        }
      },
      "updateVaultAddress(address)": {
        "details": "Called only by authorized admin to update the address of the vault this competition is linked to.",
        "params": {
          "newVaultAddress": "New vault address.*"
        }
      }
    },
    "title": "RCI Tournament Contract",
    "version": 1
  },
  "opcodes": "PUSH1 0x80 PUSH1 0x40 MSTORE CALLVALUE DUP1 ISZERO PUSH2 0x10 JUMPI PUSH1 0x0 DUP1 REVERT JUMPDEST POP PUSH1 0x4 CALLDATASIZE LT PUSH2 0x248 JUMPI PUSH1 0x0 CALLDATALOAD PUSH1 0xE0 SHR DUP1 PUSH4 0x91D14854 GT PUSH2 0x13B JUMPI DUP1 PUSH4 0xD2DE2F85 GT PUSH2 0xB8 JUMPI DUP1 PUSH4 0xEECFC33F GT PUSH2 0x7C JUMPI DUP1 PUSH4 0xEECFC33F EQ PUSH2 0x5B6 JUMPI DUP1 PUSH4 0xEEDAD66B EQ PUSH2 0x5DF JUMPI DUP1 PUSH4 0xF789B4E9 EQ PUSH2 0x5F2 JUMPI DUP1 PUSH4 0xF7FB373D EQ PUSH2 0x5FA JUMPI DUP1 PUSH4 0xFFC6FF1E EQ PUSH2 0x60D JUMPI PUSH1 0x0 DUP1 REVERT JUMPDEST DUP1 PUSH4 0xD2DE2F85 EQ PUSH2 0x56D JUMPI DUP1 PUSH4 0xD4F4B806 EQ PUSH2 0x580 JUMPI DUP1 PUSH4 0xD547741F EQ PUSH2 0x588 JUMPI DUP1 PUSH4 0xDEA1B2CE EQ PUSH2 0x59B JUMPI DUP1 PUSH4 0xE8B96DE1 EQ PUSH2 0x5A3 JUMPI PUSH1 0x0 DUP1 REVERT JUMPDEST DUP1 PUSH4 0xAF4D2212 GT PUSH2 0xFF JUMPI DUP1 PUSH4 0xAF4D2212 EQ PUSH2 0x4CD JUMPI DUP1 PUSH4 0xAF976FEC EQ PUSH2 0x4E0 JUMPI DUP1 PUSH4 0xB6CCE5E2 EQ PUSH2 0x51E JUMPI DUP1 PUSH4 0xC55E86B1 EQ PUSH2 0x531 JUMPI DUP1 PUSH4 0xC8F971DF EQ PUSH2 0x544 JUMPI PUSH1 0x0 DUP1 REVERT JUMPDEST DUP1 PUSH4 0x91D14854 EQ PUSH2 0x463 JUMPI DUP1 PUSH4 0x934D9012 EQ PUSH2 0x476 JUMPI DUP1 PUSH4 0x9F2492A2 EQ PUSH2 0x49F JUMPI DUP1 PUSH4 0xA217FDDF EQ PUSH2 0x4B2 JUMPI DUP1 PUSH4 0xA28F8847 EQ PUSH2 0x4BA JUMPI PUSH1 0x0 DUP1 REVERT JUMPDEST DUP1 PUSH4 0x39E28777 GT PUSH2 0x1C9 JUMPI DUP1 PUSH4 0x60CDB6CC GT PUSH2 0x18D JUMPI DUP1 PUSH4 0x60CDB6CC EQ PUSH2 0x3A3 JUMPI DUP1 PUSH4 0x65CACAA4 EQ PUSH2 0x3E3 JUMPI DUP1 PUSH4 0x736D8C91 EQ PUSH2 0x3F4 JUMPI DUP1 PUSH4 0x7A766460 EQ PUSH2 0x41A JUMPI DUP1 PUSH4 0x9044265A EQ PUSH2 0x443 JUMPI PUSH1 0x0 DUP1 REVERT JUMPDEST DUP1 PUSH4 0x39E28777 EQ PUSH2 0x33C JUMPI DUP1 PUSH4 0x3F230915 EQ PUSH2 0x362 JUMPI DUP1 PUSH4 0x4BFDE7F8 EQ PUSH2 0x375 JUMPI DUP1 PUSH4 0x58E2F50E EQ PUSH2 0x388 JUMPI DUP1 PUSH4 0x5EF53329 EQ PUSH2 0x390 JUMPI PUSH1 0x0 DUP1 REVERT JUMPDEST DUP1 PUSH4 0x2F2FF15D GT PUSH2 0x210 JUMPI DUP1 PUSH4 0x2F2FF15D EQ PUSH2 0x2E8 JUMPI DUP1 PUSH4 0x315C455E EQ PUSH2 0x2FB JUMPI DUP1 PUSH4 0x343CB6BE EQ PUSH2 0x30E JUMPI DUP1 PUSH4 0x35D9DB53 EQ PUSH2 0x316 JUMPI DUP1 PUSH4 0x36568ABE EQ PUSH2 0x329 JUMPI PUSH1 0x0 DUP1 REVERT JUMPDEST DUP1 PUSH4 0x1FFC9A7 EQ PUSH2 0x24D JUMPI DUP1 PUSH4 0x10FE9AE8 EQ PUSH2 0x275 JUMPI DUP1 PUSH4 0x2313ED3E EQ PUSH2 0x29A JUMPI DUP1 PUSH4 0x248A9CA3 EQ PUSH2 0x2AF JUMPI DUP1 PUSH4 0x25B06746 EQ PUSH2 0x2E0 JUMPI JUMPDEST PUSH1 0x0 DUP1 REVERT JUMPDEST PUSH2 0x260 PUSH2 0x25B CALLDATASIZE PUSH1 0x4 PUSH2 0x28BC JUMP JUMPDEST PUSH2 0x615 JUMP JUMPDEST PUSH1 0x40 MLOAD SWAP1 ISZERO ISZERO DUP2 MSTORE PUSH1 0x20 ADD JUMPDEST PUSH1 0x40 MLOAD DUP1 SWAP2 SUB SWAP1 RETURN JUMPDEST PUSH1 0x1 SLOAD PUSH1 0x1 PUSH1 0x1 PUSH1 0xA0 SHL SUB AND JUMPDEST PUSH1 0x40 MLOAD PUSH1 0x1 PUSH1 0x1 PUSH1 0xA0 SHL SUB SWAP1 SWAP2 AND DUP2 MSTORE PUSH1 0x20 ADD PUSH2 0x26C JUMP JUMPDEST PUSH2 0x2AD PUSH2 0x2A8 CALLDATASIZE PUSH1 0x4 PUSH2 0x2858 JUMP JUMPDEST PUSH2 0x64C JUMP JUMPDEST STOP JUMPDEST PUSH2 0x2D2 PUSH2 0x2BD CALLDATASIZE PUSH1 0x4 PUSH2 0x2858 JUMP JUMPDEST PUSH1 0x0 SWAP1 DUP2 MSTORE PUSH1 0x20 DUP2 SWAP1 MSTORE PUSH1 0x40 SWAP1 KECCAK256 PUSH1 0x1 ADD SLOAD SWAP1 JUMP JUMPDEST PUSH1 0x40 MLOAD SWAP1 DUP2 MSTORE PUSH1 0x20 ADD PUSH2 0x26C JUMP JUMPDEST PUSH1 0x5 SLOAD PUSH2 0x2D2 JUMP JUMPDEST PUSH2 0x2AD PUSH2 0x2F6 CALLDATASIZE PUSH1 0x4 PUSH2 0x2870 JUMP JUMPDEST PUSH2 0x8BE JUMP JUMPDEST PUSH2 0x2AD PUSH2 0x309 CALLDATASIZE PUSH1 0x4 PUSH2 0x2858 JUMP JUMPDEST PUSH2 0x94D JUMP JUMPDEST PUSH1 0x3 SLOAD PUSH2 0x2D2 JUMP JUMPDEST PUSH2 0x260 PUSH2 0x324 CALLDATASIZE PUSH1 0x4 PUSH2 0x2858 JUMP JUMPDEST PUSH2 0x95B JUMP JUMPDEST PUSH2 0x2AD PUSH2 0x337 CALLDATASIZE PUSH1 0x4 PUSH2 0x2870 JUMP JUMPDEST PUSH2 0xAE7 JUMP JUMPDEST PUSH2 0x2D2 PUSH2 0x34A CALLDATASIZE PUSH1 0x4 PUSH2 0x28FC JUMP JUMPDEST PUSH4 0xFFFFFFFF AND PUSH1 0x0 SWAP1 DUP2 MSTORE PUSH1 0xA PUSH1 0x20 MSTORE PUSH1 0x40 SWAP1 KECCAK256 SLOAD SWAP1 JUMP JUMPDEST PUSH2 0x2AD PUSH2 0x370 CALLDATASIZE PUSH1 0x4 PUSH2 0x289B JUMP JUMPDEST PUSH2 0xB61 JUMP JUMPDEST PUSH2 0x260 PUSH2 0x383 CALLDATASIZE PUSH1 0x4 PUSH2 0x293F JUMP JUMPDEST PUSH2 0xCE7 JUMP JUMPDEST PUSH2 0x2AD PUSH2 0x107F JUMP JUMPDEST PUSH2 0x2AD PUSH2 0x39E CALLDATASIZE PUSH1 0x4 PUSH2 0x2858 JUMP JUMPDEST PUSH2 0x11E5 JUMP JUMPDEST PUSH2 0x2D2 PUSH2 0x3B1 CALLDATASIZE PUSH1 0x4 PUSH2 0x2916 JUMP JUMPDEST PUSH4 0xFFFFFFFF SWAP1 SWAP2 AND PUSH1 0x0 SWAP1 DUP2 MSTORE PUSH1 0xA PUSH1 0x20 SWAP1 DUP2 MSTORE PUSH1 0x40 DUP1 DUP4 KECCAK256 PUSH1 0x1 PUSH1 0x1 PUSH1 0xA0 SHL SUB SWAP1 SWAP5 AND DUP4 MSTORE PUSH1 0x4 SWAP1 SWAP4 ADD SWAP1 MSTORE KECCAK256 SLOAD SWAP1 JUMP JUMPDEST PUSH1 0x2 SLOAD PUSH1 0x1 PUSH1 0x1 PUSH1 0xA0 SHL SUB AND PUSH2 0x282 JUMP JUMPDEST PUSH1 0x2 SLOAD PUSH1 0x1 PUSH1 0xA0 SHL SWAP1 DIV PUSH4 0xFFFFFFFF AND JUMPDEST PUSH1 0x40 MLOAD PUSH4 0xFFFFFFFF SWAP1 SWAP2 AND DUP2 MSTORE PUSH1 0x20 ADD PUSH2 0x26C JUMP JUMPDEST PUSH2 0x2D2 PUSH2 0x428 CALLDATASIZE PUSH1 0x4 PUSH2 0x278C JUMP JUMPDEST PUSH1 0x1 PUSH1 0x1 PUSH1 0xA0 SHL SUB AND PUSH1 0x0 SWAP1 DUP2 MSTORE PUSH1 0x9 PUSH1 0x20 MSTORE PUSH1 0x40 SWAP1 KECCAK256 SLOAD SWAP1 JUMP JUMPDEST PUSH2 0x456 PUSH2 0x451 CALLDATASIZE PUSH1 0x4 PUSH2 0x28FC JUMP JUMPDEST PUSH2 0x1297 JUMP JUMPDEST PUSH1 0x40 MLOAD PUSH2 0x26C SWAP2 SWAP1 PUSH2 0x29BD JUMP JUMPDEST PUSH2 0x260 PUSH2 0x471 CALLDATASIZE PUSH1 0x4 PUSH2 0x2870 JUMP JUMPDEST PUSH2 0x130D JUMP JUMPDEST PUSH2 0x2D2 PUSH2 0x484 CALLDATASIZE PUSH1 0x4 PUSH2 0x28FC JUMP JUMPDEST PUSH4 0xFFFFFFFF AND PUSH1 0x0 SWAP1 DUP2 MSTORE PUSH1 0xA PUSH1 0x20 MSTORE PUSH1 0x40 SWAP1 KECCAK256 PUSH1 0x2 ADD SLOAD SWAP1 JUMP JUMPDEST PUSH2 0x405 PUSH2 0x4AD CALLDATASIZE PUSH1 0x4 PUSH2 0x2858 JUMP JUMPDEST PUSH2 0x1336 JUMP JUMPDEST PUSH2 0x2D2 PUSH1 0x0 DUP2 JUMP JUMPDEST PUSH2 0x260 PUSH2 0x4C8 CALLDATASIZE PUSH1 0x4 PUSH2 0x27A6 JUMP JUMPDEST PUSH2 0x14AF JUMP JUMPDEST PUSH2 0x260 PUSH2 0x4DB CALLDATASIZE PUSH1 0x4 PUSH2 0x27CF JUMP JUMPDEST PUSH2 0x168E JUMP JUMPDEST PUSH2 0x50C PUSH2 0x4EE CALLDATASIZE PUSH1 0x4 PUSH2 0x28FC JUMP JUMPDEST PUSH4 0xFFFFFFFF AND PUSH1 0x0 SWAP1 DUP2 MSTORE PUSH1 0xA PUSH1 0x20 MSTORE PUSH1 0x40 SWAP1 KECCAK256 PUSH1 0x3 ADD SLOAD PUSH1 0xFF AND SWAP1 JUMP JUMPDEST PUSH1 0x40 MLOAD PUSH1 0xFF SWAP1 SWAP2 AND DUP2 MSTORE PUSH1 0x20 ADD PUSH2 0x26C JUMP JUMPDEST PUSH2 0x260 PUSH2 0x52C CALLDATASIZE PUSH1 0x4 PUSH2 0x2858 JUMP JUMPDEST PUSH2 0x16B7 JUMP JUMPDEST PUSH2 0x2AD PUSH2 0x53F CALLDATASIZE PUSH1 0x4 PUSH2 0x289B JUMP JUMPDEST PUSH2 0x17F4 JUMP JUMPDEST PUSH2 0x2D2 PUSH2 0x552 CALLDATASIZE PUSH1 0x4 PUSH2 0x28FC JUMP JUMPDEST PUSH4 0xFFFFFFFF AND PUSH1 0x0 SWAP1 DUP2 MSTORE PUSH1 0xA PUSH1 0x20 MSTORE PUSH1 0x40 SWAP1 KECCAK256 PUSH1 0x5 ADD SLOAD SWAP1 JUMP JUMPDEST PUSH2 0x2AD PUSH2 0x57B CALLDATASIZE PUSH1 0x4 PUSH2 0x278C JUMP JUMPDEST PUSH2 0x1871 JUMP JUMPDEST PUSH1 0x4 SLOAD PUSH2 0x2D2 JUMP JUMPDEST PUSH2 0x2AD PUSH2 0x596 CALLDATASIZE PUSH1 0x4 PUSH2 0x2870 JUMP JUMPDEST PUSH2 0x1938 JUMP JUMPDEST PUSH1 0x7 SLOAD PUSH2 0x2D2 JUMP JUMPDEST PUSH2 0x260 PUSH2 0x5B1 CALLDATASIZE PUSH1 0x4 PUSH2 0x2858 JUMP JUMPDEST PUSH2 0x19B8 JUMP JUMPDEST PUSH2 0x2D2 PUSH2 0x5C4 CALLDATASIZE PUSH1 0x4 PUSH2 0x28FC JUMP JUMPDEST PUSH4 0xFFFFFFFF AND PUSH1 0x0 SWAP1 DUP2 MSTORE PUSH1 0xA PUSH1 0x20 MSTORE PUSH1 0x40 SWAP1 KECCAK256 PUSH1 0x1 ADD SLOAD SWAP1 JUMP JUMPDEST PUSH2 0x260 PUSH2 0x5ED CALLDATASIZE PUSH1 0x4 PUSH2 0x2858 JUMP JUMPDEST PUSH2 0x1BFE JUMP JUMPDEST PUSH1 0x6 SLOAD PUSH2 0x2D2 JUMP JUMPDEST PUSH2 0x405 PUSH2 0x608 CALLDATASIZE PUSH1 0x4 PUSH2 0x289B JUMP JUMPDEST PUSH2 0x1E33 JUMP JUMPDEST PUSH2 0x2AD PUSH2 0x1EB2 JUMP JUMPDEST PUSH1 0x0 PUSH1 0x1 PUSH1 0x1 PUSH1 0xE0 SHL SUB NOT DUP3 AND PUSH4 0x7965DB0B PUSH1 0xE0 SHL EQ DUP1 PUSH2 0x646 JUMPI POP PUSH4 0x1FFC9A7 PUSH1 0xE0 SHL PUSH1 0x1 PUSH1 0x1 PUSH1 0xE0 SHL SUB NOT DUP4 AND EQ JUMPDEST SWAP3 SWAP2 POP POP JUMP JUMPDEST PUSH2 0x657 PUSH1 0x0 CALLER PUSH2 0x130D JUMP JUMPDEST PUSH2 0x6C3 JUMPI PUSH1 0x40 MLOAD PUSH3 0x461BCD PUSH1 0xE5 SHL DUP2 MSTORE PUSH1 0x20 PUSH1 0x4 DUP3 ADD MSTORE PUSH1 0x32 PUSH1 0x24 DUP3 ADD MSTORE PUSH32 0x436F6D7065746974696F6E202D206F70656E5374616B696E673A2043616C6C65 PUSH1 0x44 DUP3 ADD MSTORE PUSH18 0x391034B9903AB730BABA3437B934BD32B217 PUSH1 0x71 SHL PUSH1 0x64 DUP3 ADD MSTORE PUSH1 0x84 ADD JUMPDEST PUSH1 0x40 MLOAD DUP1 SWAP2 SUB SWAP1 REVERT JUMPDEST PUSH1 0x2 SLOAD PUSH1 0x1 PUSH1 0xA0 SHL SWAP1 DIV PUSH4 0xFFFFFFFF AND PUSH1 0x0 DUP2 DUP2 MSTORE PUSH1 0xA PUSH1 0x20 MSTORE PUSH1 0x40 SWAP1 KECCAK256 PUSH1 0x3 ADD SLOAD PUSH1 0xFF AND PUSH1 0x4 EQ PUSH2 0x75D JUMPI PUSH1 0x40 MLOAD PUSH3 0x461BCD PUSH1 0xE5 SHL DUP2 MSTORE PUSH1 0x20 PUSH1 0x4 DUP3 ADD MSTORE PUSH1 0x38 PUSH1 0x24 DUP3 ADD MSTORE PUSH32 0x436F6D7065746974696F6E202D206F70656E5374616B696E673A205072657669 PUSH1 0x44 DUP3 ADD MSTORE PUSH32 0x6F757320706861736520697320696E636F6D706C6574652E0000000000000000 PUSH1 0x64 DUP3 ADD MSTORE PUSH1 0x84 ADD PUSH2 0x6BA JUMP JUMPDEST DUP1 PUSH2 0x767 DUP2 PUSH2 0x2A93 JUMP JUMPDEST PUSH4 0xFFFFFFFF DUP2 AND PUSH1 0x0 DUP2 DUP2 MSTORE PUSH1 0xA PUSH1 0x20 MSTORE PUSH1 0x40 DUP2 KECCAK256 PUSH1 0x3 ADD DUP1 SLOAD PUSH1 0xFF NOT AND PUSH1 0x1 OR SWAP1 SSTORE PUSH1 0x2 DUP1 SLOAD PUSH1 0x1 PUSH1 0xA0 SHL SWAP1 SWAP4 MUL PUSH4 0xFFFFFFFF PUSH1 0xA0 SHL NOT SWAP1 SWAP4 AND SWAP3 SWAP1 SWAP3 OR SWAP1 SWAP2 SSTORE SWAP1 SWAP3 POP PUSH2 0x7B9 SWAP2 POP DUP3 SWAP1 DUP5 PUSH2 0x2013 JUMP JUMPDEST PUSH1 0x2 SLOAD PUSH1 0x40 DUP1 MLOAD PUSH4 0xEECAE21 PUSH1 0xE0 SHL DUP2 MSTORE SWAP1 MLOAD PUSH1 0x0 SWAP3 PUSH1 0x1 PUSH1 0x1 PUSH1 0xA0 SHL SUB AND SWAP2 PUSH4 0xEECAE21 SWAP2 PUSH1 0x4 DUP1 DUP4 ADD SWAP3 PUSH1 0x20 SWAP3 SWAP2 SWAP1 DUP3 SWAP1 SUB ADD DUP2 DUP8 DUP8 DUP1 EXTCODESIZE ISZERO DUP1 ISZERO PUSH2 0x7FF JUMPI PUSH1 0x0 DUP1 REVERT JUMPDEST POP GAS CALL ISZERO DUP1 ISZERO PUSH2 0x813 JUMPI RETURNDATASIZE PUSH1 0x0 DUP1 RETURNDATACOPY RETURNDATASIZE PUSH1 0x0 REVERT JUMPDEST POP POP POP POP PUSH1 0x40 MLOAD RETURNDATASIZE PUSH1 0x1F NOT PUSH1 0x1F DUP3 ADD AND DUP3 ADD DUP1 PUSH1 0x40 MSTORE POP DUP2 ADD SWAP1 PUSH2 0x837 SWAP2 SWAP1 PUSH2 0x28E4 JUMP JUMPDEST SWAP1 POP DUP1 PUSH1 0x4 PUSH1 0x0 DUP3 DUP3 SLOAD PUSH2 0x84B SWAP2 SWAP1 PUSH2 0x2A0A JUMP JUMPDEST SWAP1 SWAP2 SSTORE POP POP PUSH1 0x8 SLOAD PUSH1 0x4 SLOAD PUSH8 0xDE0B6B3A7640000 SWAP2 PUSH2 0x869 SWAP2 PUSH2 0x2A42 JUMP JUMPDEST PUSH2 0x873 SWAP2 SWAP1 PUSH2 0x2A22 JUMP JUMPDEST PUSH1 0x7 DUP2 SWAP1 SSTORE PUSH1 0x4 SLOAD PUSH2 0x885 SWAP2 SWAP1 PUSH2 0x2A61 JUMP JUMPDEST PUSH1 0x6 SSTORE PUSH1 0x40 MLOAD PUSH4 0xFFFFFFFF DUP4 AND SWAP1 PUSH32 0xDB78430D4256F71134803E3F9A309D288726D0A5AEE4A19A67A4E381DDFDE2F1 SWAP1 PUSH1 0x0 SWAP1 LOG2 POP POP POP JUMP JUMPDEST PUSH1 0x0 DUP3 DUP2 MSTORE PUSH1 0x20 DUP2 SWAP1 MSTORE PUSH1 0x40 SWAP1 KECCAK256 PUSH1 0x1 ADD SLOAD PUSH2 0x8DB SWAP1 JUMPDEST CALLER PUSH2 0x130D JUMP JUMPDEST PUSH2 0x93F JUMPI PUSH1 0x40 MLOAD PUSH3 0x461BCD PUSH1 0xE5 SHL DUP2 MSTORE PUSH1 0x20 PUSH1 0x4 DUP3 ADD MSTORE PUSH1 0x2F PUSH1 0x24 DUP3 ADD MSTORE PUSH32 0x416363657373436F6E74726F6C3A2073656E646572206D75737420626520616E PUSH1 0x44 DUP3 ADD MSTORE PUSH15 0x818591B5A5B881D1BC819DC985B9D PUSH1 0x8A SHL PUSH1 0x64 DUP3 ADD MSTORE PUSH1 0x84 ADD PUSH2 0x6BA JUMP JUMPDEST PUSH2 0x949 DUP3 DUP3 PUSH2 0x216D JUMP JUMPDEST POP POP JUMP JUMPDEST PUSH2 0x958 PUSH1 0x0 DUP3 PUSH2 0x21F1 JUMP JUMPDEST POP JUMP JUMPDEST CALLER PUSH1 0x0 SWAP1 DUP2 MSTORE PUSH1 0x9 PUSH1 0x20 MSTORE PUSH1 0x40 DUP2 KECCAK256 SLOAD DUP3 DUP2 EQ ISZERO PUSH2 0x9EB JUMPI PUSH1 0x40 MLOAD PUSH3 0x461BCD PUSH1 0xE5 SHL DUP2 MSTORE PUSH1 0x20 PUSH1 0x4 DUP3 ADD MSTORE PUSH1 0x41 PUSH1 0x24 DUP3 ADD MSTORE PUSH32 0x436F6D7065746974696F6E202D207365745374616B653A20596F757220737461 PUSH1 0x44 DUP3 ADD MSTORE PUSH32 0x6B6520697320616C72656164792073657420746F207468697320616D6F756E74 PUSH1 0x64 DUP3 ADD MSTORE PUSH1 0x17 PUSH1 0xF9 SHL PUSH1 0x84 DUP3 ADD MSTORE PUSH1 0xA4 ADD PUSH2 0x6BA JUMP JUMPDEST DUP1 DUP4 GT ISZERO PUSH2 0xA6B JUMPI PUSH2 0xA00 PUSH2 0x5ED DUP3 DUP6 PUSH2 0x2A61 JUMP JUMPDEST PUSH2 0xA66 JUMPI PUSH1 0x40 MLOAD PUSH3 0x461BCD PUSH1 0xE5 SHL DUP2 MSTORE PUSH1 0x20 PUSH1 0x4 DUP3 ADD MSTORE PUSH1 0x31 PUSH1 0x24 DUP3 ADD MSTORE PUSH32 0x436F6D7065746974696F6E202D207365745374616B653A20436F756C64206E6F PUSH1 0x44 DUP3 ADD MSTORE PUSH17 0x3A1034B731B932B0B9B29039BA30B5B297 PUSH1 0x79 SHL PUSH1 0x64 DUP3 ADD MSTORE PUSH1 0x84 ADD PUSH2 0x6BA JUMP JUMPDEST PUSH2 0xADE JUMP JUMPDEST PUSH2 0xA78 PUSH2 0x5B1 DUP5 DUP4 PUSH2 0x2A61 JUMP JUMPDEST PUSH2 0xADE JUMPI PUSH1 0x40 MLOAD PUSH3 0x461BCD PUSH1 0xE5 SHL DUP2 MSTORE PUSH1 0x20 PUSH1 0x4 DUP3 ADD MSTORE PUSH1 0x31 PUSH1 0x24 DUP3 ADD MSTORE PUSH32 0x436F6D7065746974696F6E202D207365745374616B653A20436F756C64206E6F PUSH1 0x44 DUP3 ADD MSTORE PUSH17 0x3A103232B1B932B0B9B29039BA30B5B297 PUSH1 0x79 SHL PUSH1 0x64 DUP3 ADD MSTORE PUSH1 0x84 ADD PUSH2 0x6BA JUMP JUMPDEST POP PUSH1 0x1 SWAP3 SWAP2 POP POP JUMP JUMPDEST PUSH1 0x1 PUSH1 0x1 PUSH1 0xA0 SHL SUB DUP2 AND CALLER EQ PUSH2 0xB57 JUMPI PUSH1 0x40 MLOAD PUSH3 0x461BCD PUSH1 0xE5 SHL DUP2 MSTORE PUSH1 0x20 PUSH1 0x4 DUP3 ADD MSTORE PUSH1 0x2F PUSH1 0x24 DUP3 ADD MSTORE PUSH32 0x416363657373436F6E74726F6C3A2063616E206F6E6C792072656E6F756E6365 PUSH1 0x44 DUP3 ADD MSTORE PUSH15 0x103937B632B9903337B91039B2B633 PUSH1 0x89 SHL PUSH1 0x64 DUP3 ADD MSTORE PUSH1 0x84 ADD PUSH2 0x6BA JUMP JUMPDEST PUSH2 0x949 DUP3 DUP3 PUSH2 0x2460 JUMP JUMPDEST PUSH2 0xB6C PUSH1 0x0 CALLER PUSH2 0x130D JUMP JUMPDEST PUSH2 0xBD5 JUMPI PUSH1 0x40 MLOAD PUSH3 0x461BCD PUSH1 0xE5 SHL DUP2 MSTORE PUSH1 0x20 PUSH1 0x4 DUP3 ADD MSTORE PUSH1 0x34 PUSH1 0x24 DUP3 ADD MSTORE PUSH32 0x436F6D7065746974696F6E202D20757064617465446174617365743A2043616C PUSH1 0x44 DUP3 ADD MSTORE PUSH20 0x3632B91034B9903AB730BABA3437B934BD32B217 PUSH1 0x61 SHL PUSH1 0x64 DUP3 ADD MSTORE PUSH1 0x84 ADD PUSH2 0x6BA JUMP JUMPDEST PUSH1 0x2 SLOAD PUSH4 0xFFFFFFFF PUSH1 0x1 PUSH1 0xA0 SHL SWAP1 SWAP2 DIV AND PUSH1 0x0 DUP2 DUP2 MSTORE PUSH1 0xA PUSH1 0x20 MSTORE PUSH1 0x40 SWAP1 KECCAK256 PUSH1 0x3 ADD SLOAD PUSH1 0xFF AND PUSH1 0x1 EQ PUSH2 0xC64 JUMPI PUSH1 0x40 MLOAD PUSH3 0x461BCD PUSH1 0xE5 SHL DUP2 MSTORE PUSH1 0x20 PUSH1 0x4 DUP3 ADD MSTORE PUSH1 0x31 PUSH1 0x24 DUP3 ADD MSTORE PUSH32 0x436F6D7065746974696F6E202D20757064617465446174617365743A20436861 PUSH1 0x44 DUP3 ADD MSTORE PUSH17 0x363632B733B29034B99031B637B9B2B217 PUSH1 0x79 SHL PUSH1 0x64 DUP3 ADD MSTORE PUSH1 0x84 ADD PUSH2 0x6BA JUMP JUMPDEST DUP3 PUSH2 0xCD7 JUMPI PUSH1 0x40 MLOAD PUSH3 0x461BCD PUSH1 0xE5 SHL DUP2 MSTORE PUSH1 0x20 PUSH1 0x4 DUP3 ADD MSTORE PUSH1 0x3C PUSH1 0x24 DUP3 ADD MSTORE PUSH32 0x436F6D7065746974696F6E202D20757064617465446174617365743A204D7573 PUSH1 0x44 DUP3 ADD MSTORE PUSH32 0x742068617665207072652D6578697374696E6720646174617365742E00000000 PUSH1 0x64 DUP3 ADD MSTORE PUSH1 0x84 ADD PUSH2 0x6BA JUMP JUMPDEST PUSH2 0xCE2 DUP2 DUP5 DUP5 PUSH2 0x2013 JUMP JUMPDEST POP POP POP JUMP JUMPDEST PUSH1 0x0 PUSH2 0xCF3 DUP2 CALLER PUSH2 0x130D JUMP JUMPDEST PUSH2 0xD65 JUMPI PUSH1 0x40 MLOAD PUSH3 0x461BCD PUSH1 0xE5 SHL DUP2 MSTORE PUSH1 0x20 PUSH1 0x4 DUP3 ADD MSTORE PUSH1 0x3C PUSH1 0x24 DUP3 ADD MSTORE PUSH32 0x436F6D7065746974696F6E202D20706179506572666F726D616E636552657761 PUSH1 0x44 DUP3 ADD MSTORE PUSH32 0x7264733A2043616C6C657220697320756E617574686F72697A65642E00000000 PUSH1 0x64 DUP3 ADD MSTORE PUSH1 0x84 ADD PUSH2 0x6BA JUMP JUMPDEST PUSH4 0xFFFFFFFF DUP7 AND PUSH1 0x0 SWAP1 DUP2 MSTORE PUSH1 0xA PUSH1 0x20 MSTORE PUSH1 0x40 SWAP1 KECCAK256 PUSH1 0x3 SWAP1 DUP2 ADD SLOAD PUSH1 0xFF AND LT ISZERO PUSH2 0xE06 JUMPI PUSH1 0x40 MLOAD PUSH3 0x461BCD PUSH1 0xE5 SHL DUP2 MSTORE PUSH1 0x20 PUSH1 0x4 DUP3 ADD MSTORE PUSH1 0x46 PUSH1 0x24 DUP3 ADD MSTORE PUSH32 0x436F6D7065746974696F6E202D20706179506572666F726D616E636552657761 PUSH1 0x44 DUP3 ADD MSTORE PUSH32 0x7264733A204368616C6C656E676520697320696E20756E657870656374656420 PUSH1 0x64 DUP3 ADD MSTORE PUSH6 0x39BA30BA3297 PUSH1 0xD1 SHL PUSH1 0x84 DUP3 ADD MSTORE PUSH1 0xA4 ADD PUSH2 0x6BA JUMP JUMPDEST DUP4 DUP3 EQ PUSH2 0xE95 JUMPI PUSH1 0x40 MLOAD PUSH3 0x461BCD PUSH1 0xE5 SHL DUP2 MSTORE PUSH1 0x20 PUSH1 0x4 DUP3 ADD MSTORE PUSH1 0x51 PUSH1 0x24 DUP3 ADD MSTORE PUSH32 0x436F6D7065746974696F6E202D20706179506572666F726D616E636552657761 PUSH1 0x44 DUP3 ADD MSTORE PUSH32 0x7264733A204E756D626572206F662077696E6E65727320616E64207265776172 PUSH1 0x64 DUP3 ADD MSTORE PUSH17 0x32399030B932903234B33332B932B73A17 PUSH1 0x79 SHL PUSH1 0x84 DUP3 ADD MSTORE PUSH1 0xA4 ADD PUSH2 0x6BA JUMP JUMPDEST PUSH1 0x0 DUP1 JUMPDEST DUP6 DUP2 LT ISZERO PUSH2 0xF8E JUMPI PUSH1 0x0 DUP6 DUP6 DUP4 DUP2 DUP2 LT PUSH2 0xEC3 JUMPI PUSH4 0x4E487B71 PUSH1 0xE0 SHL PUSH1 0x0 MSTORE PUSH1 0x32 PUSH1 0x4 MSTORE PUSH1 0x24 PUSH1 0x0 REVERT JUMPDEST SWAP1 POP PUSH1 0x20 MUL ADD CALLDATALOAD SWAP1 POP PUSH1 0x0 DUP9 DUP9 DUP5 DUP2 DUP2 LT PUSH2 0xEEE JUMPI PUSH4 0x4E487B71 PUSH1 0xE0 SHL PUSH1 0x0 MSTORE PUSH1 0x32 PUSH1 0x4 MSTORE PUSH1 0x24 PUSH1 0x0 REVERT JUMPDEST SWAP1 POP PUSH1 0x20 MUL ADD PUSH1 0x20 DUP2 ADD SWAP1 PUSH2 0xF03 SWAP2 SWAP1 PUSH2 0x278C JUMP JUMPDEST PUSH1 0x1 PUSH1 0x1 PUSH1 0xA0 SHL SUB DUP2 AND PUSH1 0x0 SWAP1 DUP2 MSTORE PUSH1 0x9 PUSH1 0x20 MSTORE PUSH1 0x40 DUP2 KECCAK256 DUP1 SLOAD SWAP3 SWAP4 POP DUP5 SWAP3 SWAP1 SWAP2 SWAP1 PUSH2 0xF30 SWAP1 DUP5 SWAP1 PUSH2 0x2A0A JUMP JUMPDEST SWAP1 SWAP2 SSTORE POP PUSH2 0xF40 SWAP1 POP DUP3 DUP6 PUSH2 0x2A0A JUMP JUMPDEST SWAP4 POP DUP2 DUP2 PUSH1 0x1 PUSH1 0x1 PUSH1 0xA0 SHL SUB AND PUSH32 0xC993FAE8B061033559278198EA3F4595BC21AFD187DB8384DDC0A40E2C7D6C13 PUSH1 0x40 MLOAD PUSH1 0x40 MLOAD DUP1 SWAP2 SUB SWAP1 LOG3 POP POP DUP1 DUP1 PUSH2 0xF86 SWAP1 PUSH2 0x2A78 JUMP JUMPDEST SWAP2 POP POP PUSH2 0xE99 JUMP JUMPDEST POP PUSH1 0x7 SLOAD DUP2 GT ISZERO PUSH2 0xFF6 JUMPI PUSH1 0x40 MLOAD PUSH3 0x461BCD PUSH1 0xE5 SHL DUP2 MSTORE PUSH1 0x20 PUSH1 0x4 DUP3 ADD MSTORE PUSH1 0x2C PUSH1 0x24 DUP3 ADD MSTORE PUSH32 0x546F74616C207061796F75742073756D206D6F7265207468616E20636F6D7065 PUSH1 0x44 DUP3 ADD MSTORE PUSH12 0x3A34BA34B7B7103837B7B617 PUSH1 0xA1 SHL PUSH1 0x64 DUP3 ADD MSTORE PUSH1 0x84 ADD PUSH2 0x6BA JUMP JUMPDEST DUP1 PUSH1 0x4 PUSH1 0x0 DUP3 DUP3 SLOAD PUSH2 0x1008 SWAP2 SWAP1 PUSH2 0x2A61 JUMP JUMPDEST SWAP3 POP POP DUP2 SWAP1 SSTORE POP DUP1 PUSH1 0x5 PUSH1 0x0 DUP3 DUP3 SLOAD PUSH2 0x1021 SWAP2 SWAP1 PUSH2 0x2A0A JUMP JUMPDEST SWAP1 SWAP2 SSTORE POP PUSH1 0x1 SWAP3 POP POP PUSH4 0xFFFFFFFF DUP8 AND PUSH1 0x0 DUP2 DUP2 MSTORE PUSH1 0xA PUSH1 0x20 MSTORE PUSH1 0x40 DUP1 DUP3 KECCAK256 PUSH1 0x3 ADD DUP1 SLOAD PUSH1 0xFF NOT AND PUSH1 0x4 OR SWAP1 SSTORE MLOAD DUP4 SWAP3 SWAP2 PUSH32 0xC0578E95E81728B40769C9F26794792CB548B910E25DBACA95D16F2AD71E4CFF SWAP2 LOG3 POP SWAP6 SWAP5 POP POP POP POP POP JUMP JUMPDEST PUSH2 0x108A PUSH1 0x0 CALLER PUSH2 0x130D JUMP JUMPDEST PUSH2 0x10F4 JUMPI PUSH1 0x40 MLOAD PUSH3 0x461BCD PUSH1 0xE5 SHL DUP2 MSTORE PUSH1 0x20 PUSH1 0x4 DUP3 ADD MSTORE PUSH1 0x35 PUSH1 0x24 DUP3 ADD MSTORE PUSH32 0x436F6D7065746974696F6E202D206F70656E5375626D697373696F6E3A204361 PUSH1 0x44 DUP3 ADD MSTORE PUSH21 0x363632B91034B9903AB730BABA3437B934BD32B217 PUSH1 0x59 SHL PUSH1 0x64 DUP3 ADD MSTORE PUSH1 0x84 ADD PUSH2 0x6BA JUMP JUMPDEST PUSH1 0x2 SLOAD PUSH4 0xFFFFFFFF PUSH1 0x1 PUSH1 0xA0 SHL SWAP1 SWAP2 DIV AND PUSH1 0x0 DUP2 DUP2 MSTORE PUSH1 0xA PUSH1 0x20 MSTORE PUSH1 0x40 SWAP1 KECCAK256 PUSH1 0x3 ADD SLOAD PUSH1 0xFF AND PUSH1 0x1 EQ PUSH2 0x118F JUMPI PUSH1 0x40 MLOAD PUSH3 0x461BCD PUSH1 0xE5 SHL DUP2 MSTORE PUSH1 0x20 PUSH1 0x4 DUP3 ADD MSTORE PUSH1 0x3F PUSH1 0x24 DUP3 ADD MSTORE PUSH32 0x436F6D7065746974696F6E202D206F70656E5375626D697373696F6E3A204368 PUSH1 0x44 DUP3 ADD MSTORE PUSH32 0x616C6C656E676520697320696E20756E65787065637465642073746174652E00 PUSH1 0x64 DUP3 ADD MSTORE PUSH1 0x84 ADD PUSH2 0x6BA JUMP JUMPDEST PUSH4 0xFFFFFFFF DUP2 AND PUSH1 0x0 DUP2 DUP2 MSTORE PUSH1 0xA PUSH1 0x20 MSTORE PUSH1 0x40 DUP1 DUP3 KECCAK256 PUSH1 0x3 DUP2 ADD DUP1 SLOAD PUSH1 0xFF NOT AND PUSH1 0x2 SWAP1 DUP2 OR SWAP1 SWAP2 SSTORE PUSH1 0x5 SLOAD SWAP2 ADD SSTORE MLOAD PUSH32 0x173D82E68025325BF392A6C9B38FDE6A6A4ECDA962FB17A14DAF81B4B561ED2E SWAP2 SWAP1 LOG2 POP JUMP JUMPDEST PUSH2 0x11F0 PUSH1 0x0 CALLER PUSH2 0x130D JUMP JUMPDEST PUSH2 0x1262 JUMPI PUSH1 0x40 MLOAD PUSH3 0x461BCD PUSH1 0xE5 SHL DUP2 MSTORE PUSH1 0x20 PUSH1 0x4 DUP3 ADD MSTORE PUSH1 0x3B PUSH1 0x24 DUP3 ADD MSTORE PUSH32 0x436F6D7065746974696F6E202D207570646174655374616B655468726573686F PUSH1 0x44 DUP3 ADD MSTORE PUSH32 0x6C643A2043616C6C657220697320756E617574686F72697A65642E0000000000 PUSH1 0x64 DUP3 ADD MSTORE PUSH1 0x84 ADD PUSH2 0x6BA JUMP JUMPDEST PUSH1 0x3 DUP2 SWAP1 SSTORE PUSH1 0x40 MLOAD CALLER SWAP1 DUP3 SWAP1 PUSH32 0xC3DAD8D972694B8A948B4205B1BB45CBB2C73729F86630689E1E41C36A2965FA SWAP1 PUSH1 0x0 SWAP1 LOG3 POP JUMP JUMPDEST PUSH4 0xFFFFFFFF DUP2 AND PUSH1 0x0 SWAP1 DUP2 MSTORE PUSH1 0xA PUSH1 0x20 SWAP1 DUP2 MSTORE PUSH1 0x40 SWAP2 DUP3 SWAP1 KECCAK256 PUSH1 0x5 ADD DUP1 SLOAD DUP4 MLOAD DUP2 DUP5 MUL DUP2 ADD DUP5 ADD SWAP1 SWAP5 MSTORE DUP1 DUP5 MSTORE PUSH1 0x60 SWAP4 SWAP3 DUP4 ADD DUP3 DUP3 DUP1 ISZERO PUSH2 0x1301 JUMPI PUSH1 0x20 MUL DUP3 ADD SWAP2 SWAP1 PUSH1 0x0 MSTORE PUSH1 0x20 PUSH1 0x0 KECCAK256 SWAP1 JUMPDEST DUP2 SLOAD PUSH1 0x1 PUSH1 0x1 PUSH1 0xA0 SHL SUB AND DUP2 MSTORE PUSH1 0x1 SWAP1 SWAP2 ADD SWAP1 PUSH1 0x20 ADD DUP1 DUP4 GT PUSH2 0x12E3 JUMPI JUMPDEST POP POP POP POP POP SWAP1 POP SWAP2 SWAP1 POP JUMP JUMPDEST PUSH1 0x0 SWAP2 DUP3 MSTORE PUSH1 0x20 DUP3 DUP2 MSTORE PUSH1 0x40 DUP1 DUP5 KECCAK256 PUSH1 0x1 PUSH1 0x1 PUSH1 0xA0 SHL SUB SWAP4 SWAP1 SWAP4 AND DUP5 MSTORE SWAP2 SWAP1 MSTORE SWAP1 KECCAK256 SLOAD PUSH1 0xFF AND SWAP1 JUMP JUMPDEST PUSH1 0x0 PUSH2 0x1342 DUP2 DUP4 PUSH2 0x24C5 JUMP JUMPDEST CALLER PUSH1 0x0 SWAP1 DUP2 MSTORE PUSH1 0x9 PUSH1 0x20 MSTORE PUSH1 0x40 SWAP1 KECCAK256 SLOAD PUSH1 0x3 SLOAD SWAP2 SWAP3 POP SWAP1 DUP2 LT ISZERO PUSH2 0x13CE JUMPI PUSH1 0x40 MLOAD PUSH3 0x461BCD PUSH1 0xE5 SHL DUP2 MSTORE PUSH1 0x20 PUSH1 0x4 DUP3 ADD MSTORE PUSH1 0x3D PUSH1 0x24 DUP3 ADD MSTORE PUSH32 0x436F6D7065746974696F6E202D207375626D69744E657750726564696374696F PUSH1 0x44 DUP3 ADD MSTORE PUSH32 0x6E733A205374616B652069732062656C6F77207468726573686F6C642E000000 PUSH1 0x64 DUP3 ADD MSTORE PUSH1 0x84 ADD PUSH2 0x6BA JUMP JUMPDEST PUSH4 0xFFFFFFFF DUP3 AND PUSH1 0x0 DUP2 DUP2 MSTORE PUSH1 0xA PUSH1 0x20 SWAP1 DUP2 MSTORE PUSH1 0x40 DUP3 KECCAK256 PUSH1 0x5 DUP2 ADD DUP1 SLOAD PUSH1 0x1 DUP2 ADD DUP3 SSTORE SWAP1 DUP5 MSTORE SWAP2 DUP4 KECCAK256 SWAP1 SWAP2 ADD DUP1 SLOAD PUSH1 0x1 PUSH1 0x1 PUSH1 0xA0 SHL SUB NOT AND CALLER OR SWAP1 SSTORE SWAP2 DUP2 MSTORE PUSH1 0x2 SWAP1 SWAP2 ADD SLOAD PUSH1 0x6 SLOAD PUSH2 0x1421 SWAP1 DUP5 SWAP1 PUSH2 0x2A42 JUMP JUMPDEST PUSH2 0x142B SWAP2 SWAP1 PUSH2 0x2A22 JUMP JUMPDEST SWAP1 POP DUP1 PUSH1 0x4 PUSH1 0x0 DUP3 DUP3 SLOAD PUSH2 0x143F SWAP2 SWAP1 PUSH2 0x2A61 JUMP JUMPDEST SWAP1 SWAP2 SSTORE POP PUSH2 0x144F SWAP1 POP DUP2 DUP4 PUSH2 0x2A0A JUMP JUMPDEST CALLER PUSH1 0x0 SWAP1 DUP2 MSTORE PUSH1 0x9 PUSH1 0x20 MSTORE PUSH1 0x40 DUP2 KECCAK256 SWAP2 SWAP1 SWAP2 SSTORE PUSH1 0x5 DUP1 SLOAD DUP4 SWAP3 SWAP1 PUSH2 0x1474 SWAP1 DUP5 SWAP1 PUSH2 0x2A0A JUMP JUMPDEST SWAP1 SWAP2 SSTORE POP POP PUSH1 0x40 MLOAD DUP2 SWAP1 DUP4 SWAP1 CALLER SWAP1 PUSH32 0x35D3BB8BAA4B2735A9B7BCD0D44B2B974EBBD7F04C135714D0EC9EBDD800674F SWAP1 PUSH1 0x0 SWAP1 LOG4 POP POP SWAP2 SWAP1 POP JUMP JUMPDEST PUSH1 0x2 SLOAD PUSH4 0xFFFFFFFF PUSH1 0x1 PUSH1 0xA0 SHL SWAP1 SWAP2 DIV AND PUSH1 0x0 SWAP1 DUP2 MSTORE PUSH1 0xA PUSH1 0x20 MSTORE PUSH1 0x40 DUP2 KECCAK256 PUSH1 0x3 ADD SLOAD PUSH1 0xFF AND PUSH1 0x1 EQ PUSH2 0x157F JUMPI PUSH1 0x40 MLOAD PUSH3 0x461BCD PUSH1 0xE5 SHL DUP2 MSTORE PUSH1 0x20 PUSH1 0x4 DUP3 ADD MSTORE PUSH1 0x66 PUSH1 0x24 DUP3 ADD MSTORE PUSH32 0x436F6D7065746974696F6E202D207472616E736665725374616B653A20506C65 PUSH1 0x44 DUP3 ADD MSTORE PUSH32 0x617365207761697420666F7220746865207374616B696E6720706572696F6420 PUSH1 0x64 DUP3 ADD MSTORE PUSH32 0x746F20756E6C6F636B206265666F7265206D6F64696679696E6720796F757220 PUSH1 0x84 DUP3 ADD MSTORE PUSH6 0x39BA30B5B297 PUSH1 0xD1 SHL PUSH1 0xA4 DUP3 ADD MSTORE PUSH1 0xC4 ADD PUSH2 0x6BA JUMP JUMPDEST CALLER PUSH1 0x0 SWAP1 DUP2 MSTORE PUSH1 0x9 PUSH1 0x20 MSTORE PUSH1 0x40 SWAP1 KECCAK256 SLOAD DUP1 DUP4 GT ISZERO PUSH2 0x15FA JUMPI PUSH1 0x40 MLOAD PUSH3 0x461BCD PUSH1 0xE5 SHL DUP2 MSTORE PUSH1 0x20 PUSH1 0x4 DUP3 ADD MSTORE PUSH1 0x32 PUSH1 0x24 DUP3 ADD MSTORE PUSH32 0x436F6D7065746974696F6E202D207472616E736665725374616B653A20496E73 PUSH1 0x44 DUP3 ADD MSTORE PUSH18 0x3AB33334B1B4B2B73A103130B630B731B297 PUSH1 0x71 SHL PUSH1 0x64 DUP3 ADD MSTORE PUSH1 0x84 ADD PUSH2 0x6BA JUMP JUMPDEST CALLER PUSH1 0x0 SWAP1 DUP2 MSTORE PUSH1 0x9 PUSH1 0x20 MSTORE PUSH1 0x40 DUP2 KECCAK256 DUP1 SLOAD DUP6 SWAP3 SWAP1 PUSH2 0x1619 SWAP1 DUP5 SWAP1 PUSH2 0x2A61 JUMP JUMPDEST SWAP1 SWAP2 SSTORE POP POP PUSH1 0x1 PUSH1 0x1 PUSH1 0xA0 SHL SUB DUP5 AND PUSH1 0x0 SWAP1 DUP2 MSTORE PUSH1 0x9 PUSH1 0x20 MSTORE PUSH1 0x40 DUP2 KECCAK256 DUP1 SLOAD DUP6 SWAP3 SWAP1 PUSH2 0x1646 SWAP1 DUP5 SWAP1 PUSH2 0x2A0A JUMP JUMPDEST SWAP1 SWAP2 SSTORE POP POP PUSH1 0x40 MLOAD PUSH1 0x1 SWAP3 POP DUP4 SWAP1 PUSH1 0x1 PUSH1 0x1 PUSH1 0xA0 SHL SUB DUP7 AND SWAP1 CALLER SWAP1 PUSH32 0x1E07278DAF12D879E91EA076CF43032A70D56CB1D6E8BC91534DCD17F61E18F3 SWAP1 PUSH1 0x0 SWAP1 LOG4 POP SWAP3 SWAP2 POP POP JUMP JUMPDEST PUSH1 0x2 SLOAD PUSH1 0x0 SWAP1 PUSH2 0x16AE SWAP1 PUSH1 0x1 PUSH1 0xA0 SHL SWAP1 DIV PUSH4 0xFFFFFFFF AND DUP7 DUP7 DUP7 DUP7 PUSH2 0xCE7 JUMP JUMPDEST SWAP6 SWAP5 POP POP POP POP POP JUMP JUMPDEST PUSH1 0x1 SLOAD PUSH1 0x40 MLOAD PUSH4 0x23B872DD PUSH1 0xE0 SHL DUP2 MSTORE CALLER PUSH1 0x4 DUP3 ADD MSTORE ADDRESS PUSH1 0x24 DUP3 ADD MSTORE PUSH1 0x44 DUP2 ADD DUP4 SWAP1 MSTORE PUSH1 0x0 SWAP2 PUSH1 0x1 PUSH1 0x1 PUSH1 0xA0 SHL SUB AND SWAP1 PUSH4 0x23B872DD SWAP1 PUSH1 0x64 ADD PUSH1 0x20 PUSH1 0x40 MLOAD DUP1 DUP4 SUB DUP2 PUSH1 0x0 DUP8 DUP1 EXTCODESIZE ISZERO DUP1 ISZERO PUSH2 0x170A JUMPI PUSH1 0x0 DUP1 REVERT JUMPDEST POP GAS CALL ISZERO DUP1 ISZERO PUSH2 0x171E JUMPI RETURNDATASIZE PUSH1 0x0 DUP1 RETURNDATACOPY RETURNDATASIZE PUSH1 0x0 REVERT JUMPDEST POP POP POP POP PUSH1 0x40 MLOAD RETURNDATASIZE PUSH1 0x1F NOT PUSH1 0x1F DUP3 ADD AND DUP3 ADD DUP1 PUSH1 0x40 MSTORE POP DUP2 ADD SWAP1 PUSH2 0x1742 SWAP2 SWAP1 PUSH2 0x2838 JUMP JUMPDEST PUSH2 0x17A3 JUMPI PUSH1 0x40 MLOAD PUSH3 0x461BCD PUSH1 0xE5 SHL DUP2 MSTORE PUSH1 0x20 PUSH1 0x4 DUP3 ADD MSTORE PUSH1 0x2C PUSH1 0x24 DUP3 ADD MSTORE PUSH32 0x546F75726E616D656E74202D2073706F6E736F723A20546F6B656E207472616E PUSH1 0x44 DUP3 ADD MSTORE PUSH12 0x39B332B9103330B4B632B217 PUSH1 0xA1 SHL PUSH1 0x64 DUP3 ADD MSTORE PUSH1 0x84 ADD PUSH2 0x6BA JUMP JUMPDEST PUSH1 0x4 SLOAD PUSH2 0x17B0 DUP4 DUP3 PUSH2 0x2A0A JUMP JUMPDEST PUSH1 0x4 SSTORE PUSH1 0x1 SWAP2 POP PUSH2 0x17C1 DUP4 DUP3 PUSH2 0x2A0A JUMP JUMPDEST PUSH1 0x40 MLOAD DUP5 SWAP1 CALLER SWAP1 PUSH32 0x64939930C3FD0A1FE9E7FB9810272DB7730A0F02B900972787BCB79FB6FD3D2D SWAP1 PUSH1 0x0 SWAP1 LOG4 POP SWAP2 SWAP1 POP JUMP JUMPDEST DUP2 PUSH2 0x1867 JUMPI PUSH1 0x40 MLOAD PUSH3 0x461BCD PUSH1 0xE5 SHL DUP2 MSTORE PUSH1 0x20 PUSH1 0x4 DUP3 ADD MSTORE PUSH1 0x3C PUSH1 0x24 DUP3 ADD MSTORE PUSH32 0x436F6D7065746974696F6E202D20757064617465526573756C74733A204D7573 PUSH1 0x44 DUP3 ADD MSTORE PUSH32 0x742068617665207072652D6578697374696E6720726573756C74732E00000000 PUSH1 0x64 DUP3 ADD MSTORE PUSH1 0x84 ADD PUSH2 0x6BA JUMP JUMPDEST PUSH2 0x949 DUP3 DUP3 PUSH2 0x21F1 JUMP JUMPDEST PUSH2 0x187C PUSH1 0x0 CALLER PUSH2 0x130D JUMP JUMPDEST PUSH2 0x18EE JUMPI PUSH1 0x40 MLOAD PUSH3 0x461BCD PUSH1 0xE5 SHL DUP2 MSTORE PUSH1 0x20 PUSH1 0x4 DUP3 ADD MSTORE PUSH1 0x39 PUSH1 0x24 DUP3 ADD MSTORE PUSH32 0x436F6D7065746974696F6E202D207570646174655661756C7441646472657373 PUSH1 0x44 DUP3 ADD MSTORE PUSH32 0x3A2043616C6C657220697320756E617574686F72697A65642E00000000000000 PUSH1 0x64 DUP3 ADD MSTORE PUSH1 0x84 ADD PUSH2 0x6BA JUMP JUMPDEST PUSH1 0x2 DUP1 SLOAD PUSH1 0x1 PUSH1 0x1 PUSH1 0xA0 SHL SUB NOT AND PUSH1 0x1 PUSH1 0x1 PUSH1 0xA0 SHL SUB DUP4 AND SWAP1 DUP2 OR SWAP1 SWAP2 SSTORE PUSH1 0x40 MLOAD PUSH32 0x5E74F6697AE9D8E4ED8C4E8CB2F44ACC9909529CE81812AAB23103B3DE223F66 SWAP1 PUSH1 0x0 SWAP1 LOG2 POP JUMP JUMPDEST PUSH1 0x0 DUP3 DUP2 MSTORE PUSH1 0x20 DUP2 SWAP1 MSTORE PUSH1 0x40 SWAP1 KECCAK256 PUSH1 0x1 ADD SLOAD PUSH2 0x1953 SWAP1 PUSH2 0x8D5 JUMP JUMPDEST PUSH2 0xB57 JUMPI PUSH1 0x40 MLOAD PUSH3 0x461BCD PUSH1 0xE5 SHL DUP2 MSTORE PUSH1 0x20 PUSH1 0x4 DUP3 ADD MSTORE PUSH1 0x30 PUSH1 0x24 DUP3 ADD MSTORE PUSH32 0x416363657373436F6E74726F6C3A2073656E646572206D75737420626520616E PUSH1 0x44 DUP3 ADD MSTORE PUSH16 0x2061646D696E20746F207265766F6B65 PUSH1 0x80 SHL PUSH1 0x64 DUP3 ADD MSTORE PUSH1 0x84 ADD PUSH2 0x6BA JUMP JUMPDEST PUSH1 0x2 SLOAD PUSH4 0xFFFFFFFF PUSH1 0x1 PUSH1 0xA0 SHL SWAP1 SWAP2 DIV AND PUSH1 0x0 SWAP1 DUP2 MSTORE PUSH1 0xA PUSH1 0x20 MSTORE PUSH1 0x40 DUP2 KECCAK256 PUSH1 0x3 ADD SLOAD PUSH1 0xFF AND PUSH1 0x1 EQ PUSH2 0x1A88 JUMPI PUSH1 0x40 MLOAD PUSH3 0x461BCD PUSH1 0xE5 SHL DUP2 MSTORE PUSH1 0x20 PUSH1 0x4 DUP3 ADD MSTORE PUSH1 0x66 PUSH1 0x24 DUP3 ADD MSTORE PUSH32 0x436F6D7065746974696F6E202D2064656372656173655374616B653A20506C65 PUSH1 0x44 DUP3 ADD MSTORE PUSH32 0x617365207761697420666F7220746865207374616B696E6720706572696F6420 PUSH1 0x64 DUP3 ADD MSTORE PUSH32 0x746F20756E6C6F636B206265666F7265206D6F64696679696E6720796F757220 PUSH1 0x84 DUP3 ADD MSTORE PUSH6 0x39BA30B5B297 PUSH1 0xD1 SHL PUSH1 0xA4 DUP3 ADD MSTORE PUSH1 0xC4 ADD PUSH2 0x6BA JUMP JUMPDEST CALLER PUSH1 0x0 SWAP1 DUP2 MSTORE PUSH1 0x9 PUSH1 0x20 MSTORE PUSH1 0x40 SWAP1 KECCAK256 SLOAD DUP1 DUP4 GT ISZERO PUSH2 0x1B0E JUMPI PUSH1 0x40 MLOAD PUSH3 0x461BCD PUSH1 0xE5 SHL DUP2 MSTORE PUSH1 0x20 PUSH1 0x4 DUP3 ADD MSTORE PUSH1 0x3F PUSH1 0x24 DUP3 ADD MSTORE PUSH32 0x436F6D7065746974696F6E202D2064656372656173655374616B653A20496E73 PUSH1 0x44 DUP3 ADD MSTORE PUSH32 0x756666696369656E742066756E647320666F72207769746864726177616C2E00 PUSH1 0x64 DUP3 ADD MSTORE PUSH1 0x84 ADD PUSH2 0x6BA JUMP JUMPDEST PUSH2 0x1B18 DUP4 DUP3 PUSH2 0x2A61 JUMP JUMPDEST CALLER PUSH1 0x0 SWAP1 DUP2 MSTORE PUSH1 0x9 PUSH1 0x20 MSTORE PUSH1 0x40 DUP2 KECCAK256 SWAP2 SWAP1 SWAP2 SSTORE PUSH1 0x5 DUP1 SLOAD DUP6 SWAP3 SWAP1 PUSH2 0x1B3D SWAP1 DUP5 SWAP1 PUSH2 0x2A61 JUMP JUMPDEST SWAP1 SWAP2 SSTORE POP POP PUSH1 0x1 SLOAD PUSH1 0x40 MLOAD PUSH4 0xA9059CBB PUSH1 0xE0 SHL DUP2 MSTORE CALLER PUSH1 0x4 DUP3 ADD MSTORE PUSH1 0x24 DUP2 ADD DUP6 SWAP1 MSTORE PUSH1 0x1 PUSH1 0x1 PUSH1 0xA0 SHL SUB SWAP1 SWAP2 AND SWAP1 PUSH4 0xA9059CBB SWAP1 PUSH1 0x44 ADD PUSH1 0x20 PUSH1 0x40 MLOAD DUP1 DUP4 SUB DUP2 PUSH1 0x0 DUP8 DUP1 EXTCODESIZE ISZERO DUP1 ISZERO PUSH2 0x1B8E JUMPI PUSH1 0x0 DUP1 REVERT JUMPDEST POP GAS CALL ISZERO DUP1 ISZERO PUSH2 0x1BA2 JUMPI RETURNDATASIZE PUSH1 0x0 DUP1 RETURNDATACOPY RETURNDATASIZE PUSH1 0x0 REVERT JUMPDEST POP POP POP POP PUSH1 0x40 MLOAD RETURNDATASIZE PUSH1 0x1F NOT PUSH1 0x1F DUP3 ADD AND DUP3 ADD DUP1 PUSH1 0x40 MSTORE POP DUP2 ADD SWAP1 PUSH2 0x1BC6 SWAP2 SWAP1 PUSH2 0x2838 JUMP JUMPDEST POP PUSH1 0x40 MLOAD PUSH1 0x1 SWAP3 POP DUP4 SWAP1 CALLER SWAP1 PUSH32 0x700865370FFB2A65A2B0242E6A64B21AC907ED5ECD46C9CFFC729C177B2B1C69 SWAP1 PUSH1 0x0 SWAP1 LOG3 POP SWAP2 SWAP1 POP JUMP JUMPDEST PUSH1 0x2 SLOAD PUSH4 0xFFFFFFFF PUSH1 0x1 PUSH1 0xA0 SHL SWAP1 SWAP2 DIV AND PUSH1 0x0 SWAP1 DUP2 MSTORE PUSH1 0xA PUSH1 0x20 MSTORE PUSH1 0x40 DUP2 KECCAK256 PUSH1 0x3 ADD SLOAD PUSH1 0xFF AND PUSH1 0x1 EQ PUSH2 0x1CCE JUMPI PUSH1 0x40 MLOAD PUSH3 0x461BCD PUSH1 0xE5 SHL DUP2 MSTORE PUSH1 0x20 PUSH1 0x4 DUP3 ADD MSTORE PUSH1 0x66 PUSH1 0x24 DUP3 ADD MSTORE PUSH32 0x436F6D7065746974696F6E202D20696E6372656173655374616B653A20506C65 PUSH1 0x44 DUP3 ADD MSTORE PUSH32 0x617365207761697420666F7220746865207374616B696E6720706572696F6420 PUSH1 0x64 DUP3 ADD MSTORE PUSH32 0x746F20756E6C6F636B206265666F7265206D6F64696679696E6720796F757220 PUSH1 0x84 DUP3 ADD MSTORE PUSH6 0x39BA30B5B297 PUSH1 0xD1 SHL PUSH1 0xA4 DUP3 ADD MSTORE PUSH1 0xC4 ADD PUSH2 0x6BA JUMP JUMPDEST PUSH1 0x1 SLOAD PUSH1 0x40 MLOAD PUSH4 0x23B872DD PUSH1 0xE0 SHL DUP2 MSTORE CALLER PUSH1 0x4 DUP3 ADD MSTORE ADDRESS PUSH1 0x24 DUP3 ADD MSTORE PUSH1 0x44 DUP2 ADD DUP5 SWAP1 MSTORE PUSH1 0x1 PUSH1 0x1 PUSH1 0xA0 SHL SUB SWAP1 SWAP2 AND SWAP1 PUSH4 0x23B872DD SWAP1 PUSH1 0x64 ADD PUSH1 0x20 PUSH1 0x40 MLOAD DUP1 DUP4 SUB DUP2 PUSH1 0x0 DUP8 DUP1 EXTCODESIZE ISZERO DUP1 ISZERO PUSH2 0x1D20 JUMPI PUSH1 0x0 DUP1 REVERT JUMPDEST POP GAS CALL ISZERO DUP1 ISZERO PUSH2 0x1D34 JUMPI RETURNDATASIZE PUSH1 0x0 DUP1 RETURNDATACOPY RETURNDATASIZE PUSH1 0x0 REVERT JUMPDEST POP POP POP POP PUSH1 0x40 MLOAD RETURNDATASIZE PUSH1 0x1F NOT PUSH1 0x1F DUP3 ADD AND DUP3 ADD DUP1 PUSH1 0x40 MSTORE POP DUP2 ADD SWAP1 PUSH2 0x1D58 SWAP2 SWAP1 PUSH2 0x2838 JUMP JUMPDEST PUSH2 0x1DC0 JUMPI PUSH1 0x40 MLOAD PUSH3 0x461BCD PUSH1 0xE5 SHL DUP2 MSTORE PUSH1 0x20 PUSH1 0x4 DUP3 ADD MSTORE PUSH1 0x33 PUSH1 0x24 DUP3 ADD MSTORE PUSH32 0x436F6D7065746974696F6E202D20696E6372656173655374616B653A20546F6B PUSH1 0x44 DUP3 ADD MSTORE PUSH19 0x32B7102A3930B739B332B9103330B4B632B217 PUSH1 0x69 SHL PUSH1 0x64 DUP3 ADD MSTORE PUSH1 0x84 ADD PUSH2 0x6BA JUMP JUMPDEST CALLER PUSH1 0x0 SWAP1 DUP2 MSTORE PUSH1 0x9 PUSH1 0x20 MSTORE PUSH1 0x40 DUP2 KECCAK256 DUP1 SLOAD DUP5 SWAP3 SWAP1 PUSH2 0x1DDF SWAP1 DUP5 SWAP1 PUSH2 0x2A0A JUMP JUMPDEST SWAP3 POP POP DUP2 SWAP1 SSTORE POP DUP2 PUSH1 0x5 PUSH1 0x0 DUP3 DUP3 SLOAD PUSH2 0x1DF8 SWAP2 SWAP1 PUSH2 0x2A0A JUMP JUMPDEST SWAP1 SWAP2 SSTORE POP POP PUSH1 0x40 MLOAD PUSH1 0x1 SWAP2 POP DUP3 SWAP1 CALLER SWAP1 PUSH32 0x8B0ED825817A2E696C9A931715AF4609FC60E1701F09C89EE7645130E937EB2D SWAP1 PUSH1 0x0 SWAP1 LOG3 SWAP2 SWAP1 POP JUMP JUMPDEST PUSH1 0x0 DUP3 PUSH2 0x1EA1 JUMPI PUSH1 0x40 MLOAD PUSH3 0x461BCD PUSH1 0xE5 SHL DUP2 MSTORE PUSH1 0x20 PUSH1 0x4 DUP3 ADD MSTORE PUSH1 0x42 PUSH1 0x24 DUP3 ADD MSTORE PUSH1 0x0 DUP1 MLOAD PUSH1 0x20 PUSH2 0x2ACE DUP4 CODECOPY DUP2 MLOAD SWAP2 MSTORE PUSH1 0x44 DUP3 ADD MSTORE PUSH32 0x4D7573742068617665207072652D6578697374696E67207375626D697373696F PUSH1 0x64 DUP3 ADD MSTORE PUSH2 0x3717 PUSH1 0xF1 SHL PUSH1 0x84 DUP3 ADD MSTORE PUSH1 0xA4 ADD PUSH2 0x6BA JUMP JUMPDEST PUSH2 0x1EAB DUP4 DUP4 PUSH2 0x24C5 JUMP JUMPDEST SWAP4 SWAP3 POP POP POP JUMP JUMPDEST PUSH2 0x1EBD PUSH1 0x0 CALLER PUSH2 0x130D JUMP JUMPDEST PUSH2 0x1F28 JUMPI PUSH1 0x40 MLOAD PUSH3 0x461BCD PUSH1 0xE5 SHL DUP2 MSTORE PUSH1 0x20 PUSH1 0x4 DUP3 ADD MSTORE PUSH1 0x36 PUSH1 0x24 DUP3 ADD MSTORE PUSH32 0x436F6D7065746974696F6E202D20636C6F73655375626D697373696F6E3A2043 PUSH1 0x44 DUP3 ADD MSTORE PUSH22 0x30B63632B91034B9903AB730BABA3437B934BD32B217 PUSH1 0x51 SHL PUSH1 0x64 DUP3 ADD MSTORE PUSH1 0x84 ADD PUSH2 0x6BA JUMP JUMPDEST PUSH1 0x2 DUP1 SLOAD PUSH1 0x1 PUSH1 0xA0 SHL SWAP1 DIV PUSH4 0xFFFFFFFF AND PUSH1 0x0 DUP2 DUP2 MSTORE PUSH1 0xA PUSH1 0x20 MSTORE PUSH1 0x40 SWAP1 KECCAK256 PUSH1 0x3 ADD SLOAD SWAP1 SWAP2 PUSH1 0xFF SWAP1 SWAP2 AND EQ PUSH2 0x1FC5 JUMPI PUSH1 0x40 MLOAD PUSH3 0x461BCD PUSH1 0xE5 SHL DUP2 MSTORE PUSH1 0x20 PUSH1 0x4 DUP3 ADD MSTORE PUSH1 0x3D PUSH1 0x24 DUP3 ADD MSTORE PUSH32 0x436F6D7065746974696F6E202D20636C6F73655375626D697373696F6E3A2043 PUSH1 0x44 DUP3 ADD MSTORE PUSH32 0x68616C6C656E676520696E20756E65787065637465642073746174652E000000 PUSH1 0x64 DUP3 ADD MSTORE PUSH1 0x84 ADD PUSH2 0x6BA JUMP JUMPDEST PUSH4 0xFFFFFFFF DUP2 AND PUSH1 0x0 DUP2 DUP2 MSTORE PUSH1 0xA PUSH1 0x20 MSTORE PUSH1 0x40 DUP1 DUP3 KECCAK256 PUSH1 0x3 SWAP1 DUP2 ADD DUP1 SLOAD PUSH1 0xFF NOT AND SWAP1 SWAP2 OR SWAP1 SSTORE MLOAD PUSH32 0xAA5EBDC7900B87A79257AABBAB219AF255ADA0BE7148632CE5AFCD622DF7A88B SWAP2 SWAP1 LOG2 POP JUMP JUMPDEST DUP1 DUP3 EQ ISZERO PUSH2 0x209A JUMPI PUSH1 0x40 MLOAD PUSH3 0x461BCD PUSH1 0xE5 SHL DUP2 MSTORE PUSH1 0x20 PUSH1 0x4 DUP3 ADD MSTORE PUSH1 0x48 PUSH1 0x24 DUP3 ADD MSTORE PUSH32 0x436F6D7065746974696F6E202D20757064617465446174617365743A2043616E PUSH1 0x44 DUP3 ADD MSTORE PUSH32 0x6E6F74207570646174652077697468207468652073616D652068617368206173 PUSH1 0x64 DUP3 ADD MSTORE PUSH8 0x103132B337B93297 PUSH1 0xC1 SHL PUSH1 0x84 DUP3 ADD MSTORE PUSH1 0xA4 ADD PUSH2 0x6BA JUMP JUMPDEST PUSH4 0xFFFFFFFF DUP4 AND PUSH1 0x0 SWAP1 DUP2 MSTORE PUSH1 0xA PUSH1 0x20 MSTORE PUSH1 0x40 SWAP1 KECCAK256 SLOAD DUP3 EQ PUSH2 0x2124 JUMPI PUSH1 0x40 MLOAD PUSH3 0x461BCD PUSH1 0xE5 SHL DUP2 MSTORE PUSH1 0x20 PUSH1 0x4 DUP3 ADD MSTORE PUSH1 0x3D PUSH1 0x24 DUP3 ADD MSTORE PUSH32 0x436F6D7065746974696F6E202D20757064617465446174617365743A20496E63 PUSH1 0x44 DUP3 ADD MSTORE PUSH32 0x6F7272656374206F6C642064617461736574207265666572656E63652E000000 PUSH1 0x64 DUP3 ADD MSTORE PUSH1 0x84 ADD PUSH2 0x6BA JUMP JUMPDEST PUSH4 0xFFFFFFFF DUP4 AND PUSH1 0x0 DUP2 DUP2 MSTORE PUSH1 0xA PUSH1 0x20 MSTORE PUSH1 0x40 DUP1 DUP3 KECCAK256 DUP5 SWAP1 SSTORE MLOAD DUP4 SWAP3 DUP6 SWAP3 SWAP1 SWAP2 PUSH32 0xB4AD7E2453C3C06A28C5CFE29A3067C6EDDE6EB03BE4DF2A461F9D806CB747E SWAP2 SWAP1 LOG4 POP POP POP JUMP JUMPDEST PUSH2 0x2177 DUP3 DUP3 PUSH2 0x130D JUMP JUMPDEST PUSH2 0x949 JUMPI PUSH1 0x0 DUP3 DUP2 MSTORE PUSH1 0x20 DUP2 DUP2 MSTORE PUSH1 0x40 DUP1 DUP4 KECCAK256 PUSH1 0x1 PUSH1 0x1 PUSH1 0xA0 SHL SUB DUP6 AND DUP5 MSTORE SWAP1 SWAP2 MSTORE SWAP1 KECCAK256 DUP1 SLOAD PUSH1 0xFF NOT AND PUSH1 0x1 OR SWAP1 SSTORE PUSH2 0x21AD CALLER SWAP1 JUMP JUMPDEST PUSH1 0x1 PUSH1 0x1 PUSH1 0xA0 SHL SUB AND DUP2 PUSH1 0x1 PUSH1 0x1 PUSH1 0xA0 SHL SUB AND DUP4 PUSH32 0x2F8788117E7EFF1D82E926EC794901D17C78024A50270940304540A733656F0D PUSH1 0x40 MLOAD PUSH1 0x40 MLOAD DUP1 SWAP2 SUB SWAP1 LOG4 POP POP JUMP JUMPDEST PUSH2 0x21FC PUSH1 0x0 CALLER PUSH2 0x130D JUMP JUMPDEST PUSH2 0x2265 JUMPI PUSH1 0x40 MLOAD PUSH3 0x461BCD PUSH1 0xE5 SHL DUP2 MSTORE PUSH1 0x20 PUSH1 0x4 DUP3 ADD MSTORE PUSH1 0x34 PUSH1 0x24 DUP3 ADD MSTORE PUSH32 0x436F6D7065746974696F6E202D20757064617465526573756C74733A2043616C PUSH1 0x44 DUP3 ADD MSTORE PUSH20 0x3632B91034B9903AB730BABA3437B934BD32B217 PUSH1 0x61 SHL PUSH1 0x64 DUP3 ADD MSTORE PUSH1 0x84 ADD PUSH2 0x6BA JUMP JUMPDEST DUP1 DUP3 EQ ISZERO PUSH2 0x22EC JUMPI PUSH1 0x40 MLOAD PUSH3 0x461BCD PUSH1 0xE5 SHL DUP2 MSTORE PUSH1 0x20 PUSH1 0x4 DUP3 ADD MSTORE PUSH1 0x48 PUSH1 0x24 DUP3 ADD MSTORE PUSH32 0x436F6D7065746974696F6E202D20757064617465526573756C74733A2043616E PUSH1 0x44 DUP3 ADD MSTORE PUSH32 0x6E6F74207570646174652077697468207468652073616D652068617368206173 PUSH1 0x64 DUP3 ADD MSTORE PUSH8 0x103132B337B93297 PUSH1 0xC1 SHL PUSH1 0x84 DUP3 ADD MSTORE PUSH1 0xA4 ADD PUSH2 0x6BA JUMP JUMPDEST PUSH1 0x2 SLOAD PUSH1 0x1 PUSH1 0xA0 SHL SWAP1 DIV PUSH4 0xFFFFFFFF AND PUSH1 0x0 DUP2 DUP2 MSTORE PUSH1 0xA PUSH1 0x20 MSTORE PUSH1 0x40 SWAP1 KECCAK256 PUSH1 0x3 SWAP1 DUP2 ADD SLOAD PUSH1 0xFF AND LT ISZERO PUSH2 0x2387 JUMPI PUSH1 0x40 MLOAD PUSH3 0x461BCD PUSH1 0xE5 SHL DUP2 MSTORE PUSH1 0x20 PUSH1 0x4 DUP3 ADD MSTORE PUSH1 0x3B PUSH1 0x24 DUP3 ADD MSTORE PUSH32 0x436F6D7065746974696F6E202D20757064617465526573756C74733A20436861 PUSH1 0x44 DUP3 ADD MSTORE PUSH32 0x6C6C656E676520696E20756E65787065637465642073746174652E0000000000 PUSH1 0x64 DUP3 ADD MSTORE PUSH1 0x84 ADD PUSH2 0x6BA JUMP JUMPDEST PUSH4 0xFFFFFFFF DUP2 AND PUSH1 0x0 SWAP1 DUP2 MSTORE PUSH1 0xA PUSH1 0x20 MSTORE PUSH1 0x40 SWAP1 KECCAK256 PUSH1 0x1 ADD SLOAD DUP4 EQ PUSH2 0x2414 JUMPI PUSH1 0x40 MLOAD PUSH3 0x461BCD PUSH1 0xE5 SHL DUP2 MSTORE PUSH1 0x20 PUSH1 0x4 DUP3 ADD MSTORE PUSH1 0x3C PUSH1 0x24 DUP3 ADD MSTORE PUSH32 0x436F6D7065746974696F6E202D20757064617465526573756C74733A20436C61 PUSH1 0x44 DUP3 ADD MSTORE PUSH32 0x736820696E206578697374696E6720726573756C747320686173682E00000000 PUSH1 0x64 DUP3 ADD MSTORE PUSH1 0x84 ADD PUSH2 0x6BA JUMP JUMPDEST PUSH4 0xFFFFFFFF DUP2 AND PUSH1 0x0 DUP2 DUP2 MSTORE PUSH1 0xA PUSH1 0x20 MSTORE PUSH1 0x40 DUP1 DUP3 KECCAK256 PUSH1 0x1 ADD DUP6 SWAP1 SSTORE MLOAD DUP5 SWAP3 DUP7 SWAP3 SWAP1 SWAP2 PUSH32 0xFB7D772905D44C5FDD59D4AB87C7F40281E09F93E2E189D03737C6D82B154EA SWAP2 SWAP1 LOG4 POP POP POP JUMP JUMPDEST PUSH2 0x246A DUP3 DUP3 PUSH2 0x130D JUMP JUMPDEST ISZERO PUSH2 0x949 JUMPI PUSH1 0x0 DUP3 DUP2 MSTORE PUSH1 0x20 DUP2 DUP2 MSTORE PUSH1 0x40 DUP1 DUP4 KECCAK256 PUSH1 0x1 PUSH1 0x1 PUSH1 0xA0 SHL SUB DUP6 AND DUP1 DUP6 MSTORE SWAP3 MSTORE DUP1 DUP4 KECCAK256 DUP1 SLOAD PUSH1 0xFF NOT AND SWAP1 SSTORE MLOAD CALLER SWAP3 DUP6 SWAP2 PUSH32 0xF6391F5C32D9C69D2A47EA670B442974B53935D1EDC7FD64EB21E047A839171B SWAP2 SWAP1 LOG4 POP POP JUMP JUMPDEST PUSH1 0x2 DUP1 SLOAD PUSH1 0x1 PUSH1 0xA0 SHL SWAP1 DIV PUSH4 0xFFFFFFFF AND PUSH1 0x0 DUP2 DUP2 MSTORE PUSH1 0xA PUSH1 0x20 MSTORE PUSH1 0x40 SWAP1 KECCAK256 PUSH1 0x3 ADD SLOAD SWAP1 SWAP2 PUSH1 0xFF SWAP1 SWAP2 AND EQ PUSH2 0x2550 JUMPI PUSH1 0x40 MLOAD PUSH3 0x461BCD PUSH1 0xE5 SHL DUP2 MSTORE PUSH1 0x20 PUSH1 0x4 DUP3 ADD MSTORE PUSH1 0x3E PUSH1 0x24 DUP3 ADD MSTORE PUSH1 0x0 DUP1 MLOAD PUSH1 0x20 PUSH2 0x2ACE DUP4 CODECOPY DUP2 MLOAD SWAP2 MSTORE PUSH1 0x44 DUP3 ADD MSTORE PUSH32 0x4E6F7420617661696C61626C6520666F72207375626D697373696F6E732E0000 PUSH1 0x64 DUP3 ADD MSTORE PUSH1 0x84 ADD PUSH2 0x6BA JUMP JUMPDEST DUP2 PUSH2 0x25B1 JUMPI PUSH1 0x40 MLOAD PUSH3 0x461BCD PUSH1 0xE5 SHL DUP2 MSTORE PUSH1 0x20 PUSH1 0x4 DUP3 ADD MSTORE PUSH1 0x39 PUSH1 0x24 DUP3 ADD MSTORE PUSH1 0x0 DUP1 MLOAD PUSH1 0x20 PUSH2 0x2ACE DUP4 CODECOPY DUP2 MLOAD SWAP2 MSTORE PUSH1 0x44 DUP3 ADD MSTORE PUSH32 0x43616E6E6F74207375626D697420656D70747920686173682E00000000000000 PUSH1 0x64 DUP3 ADD MSTORE PUSH1 0x84 ADD PUSH2 0x6BA JUMP JUMPDEST DUP2 DUP4 EQ ISZERO PUSH2 0x2629 JUMPI PUSH1 0x40 MLOAD PUSH3 0x461BCD PUSH1 0xE5 SHL DUP2 MSTORE PUSH1 0x20 PUSH1 0x4 DUP3 ADD MSTORE PUSH1 0x4B PUSH1 0x24 DUP3 ADD MSTORE PUSH1 0x0 DUP1 MLOAD PUSH1 0x20 PUSH2 0x2ACE DUP4 CODECOPY DUP2 MLOAD SWAP2 MSTORE PUSH1 0x44 DUP3 ADD MSTORE PUSH32 0x43616E6E6F74207570646174652077697468207468652073616D652068617368 PUSH1 0x64 DUP3 ADD MSTORE PUSH11 0x1030B9903132B337B93297 PUSH1 0xA9 SHL PUSH1 0x84 DUP3 ADD MSTORE PUSH1 0xA4 ADD PUSH2 0x6BA JUMP JUMPDEST PUSH4 0xFFFFFFFF DUP2 AND PUSH1 0x0 SWAP1 DUP2 MSTORE PUSH1 0xA PUSH1 0x20 SWAP1 DUP2 MSTORE PUSH1 0x40 DUP1 DUP4 KECCAK256 CALLER DUP5 MSTORE PUSH1 0x4 ADD SWAP1 SWAP2 MSTORE SWAP1 KECCAK256 SLOAD DUP4 EQ PUSH2 0x26BA JUMPI PUSH1 0x40 MLOAD PUSH3 0x461BCD PUSH1 0xE5 SHL DUP2 MSTORE PUSH1 0x20 PUSH1 0x4 DUP3 ADD MSTORE PUSH1 0x42 PUSH1 0x24 DUP3 ADD MSTORE PUSH1 0x0 DUP1 MLOAD PUSH1 0x20 PUSH2 0x2ACE DUP4 CODECOPY DUP2 MLOAD SWAP2 MSTORE PUSH1 0x44 DUP3 ADD MSTORE PUSH32 0x436C61736820696E206578697374696E67207375626D697373696F6E20686173 PUSH1 0x64 DUP3 ADD MSTORE PUSH2 0x3417 PUSH1 0xF1 SHL PUSH1 0x84 DUP3 ADD MSTORE PUSH1 0xA4 ADD PUSH2 0x6BA JUMP JUMPDEST PUSH4 0xFFFFFFFF DUP2 AND PUSH1 0x0 DUP2 DUP2 MSTORE PUSH1 0xA PUSH1 0x20 SWAP1 DUP2 MSTORE PUSH1 0x40 DUP1 DUP4 KECCAK256 CALLER DUP1 DUP6 MSTORE PUSH1 0x4 SWAP1 SWAP2 ADD SWAP1 SWAP3 MSTORE DUP1 DUP4 KECCAK256 DUP7 SWAP1 SSTORE MLOAD DUP6 SWAP4 SWAP2 SWAP3 PUSH32 0x953E3B79BB71898776BB2EF8BB919748C883B8B27C42E334DE1ECDBF79D472BB SWAP2 LOG4 SWAP3 SWAP2 POP POP JUMP JUMPDEST DUP1 CALLDATALOAD PUSH1 0x1 PUSH1 0x1 PUSH1 0xA0 SHL SUB DUP2 AND DUP2 EQ PUSH2 0x2729 JUMPI PUSH1 0x0 DUP1 REVERT JUMPDEST SWAP2 SWAP1 POP JUMP JUMPDEST PUSH1 0x0 DUP1 DUP4 PUSH1 0x1F DUP5 ADD SLT PUSH2 0x273F JUMPI DUP2 DUP3 REVERT JUMPDEST POP DUP2 CALLDATALOAD PUSH8 0xFFFFFFFFFFFFFFFF DUP2 GT ISZERO PUSH2 0x2756 JUMPI DUP2 DUP3 REVERT JUMPDEST PUSH1 0x20 DUP4 ADD SWAP2 POP DUP4 PUSH1 0x20 DUP3 PUSH1 0x5 SHL DUP6 ADD ADD GT ISZERO PUSH2 0x2771 JUMPI PUSH1 0x0 DUP1 REVERT JUMPDEST SWAP3 POP SWAP3 SWAP1 POP JUMP JUMPDEST DUP1 CALLDATALOAD PUSH4 0xFFFFFFFF DUP2 AND DUP2 EQ PUSH2 0x2729 JUMPI PUSH1 0x0 DUP1 REVERT JUMPDEST PUSH1 0x0 PUSH1 0x20 DUP3 DUP5 SUB SLT ISZERO PUSH2 0x279D JUMPI DUP1 DUP2 REVERT JUMPDEST PUSH2 0x1EAB DUP3 PUSH2 0x2712 JUMP JUMPDEST PUSH1 0x0 DUP1 PUSH1 0x40 DUP4 DUP6 SUB SLT ISZERO PUSH2 0x27B8 JUMPI DUP1 DUP2 REVERT JUMPDEST PUSH2 0x27C1 DUP4 PUSH2 0x2712 JUMP JUMPDEST SWAP5 PUSH1 0x20 SWAP4 SWAP1 SWAP4 ADD CALLDATALOAD SWAP4 POP POP POP JUMP JUMPDEST PUSH1 0x0 DUP1 PUSH1 0x0 DUP1 PUSH1 0x40 DUP6 DUP8 SUB SLT ISZERO PUSH2 0x27E4 JUMPI DUP2 DUP3 REVERT JUMPDEST DUP5 CALLDATALOAD PUSH8 0xFFFFFFFFFFFFFFFF DUP1 DUP3 GT ISZERO PUSH2 0x27FB JUMPI DUP4 DUP5 REVERT JUMPDEST PUSH2 0x2807 DUP9 DUP4 DUP10 ADD PUSH2 0x272E JUMP JUMPDEST SWAP1 SWAP7 POP SWAP5 POP PUSH1 0x20 DUP8 ADD CALLDATALOAD SWAP2 POP DUP1 DUP3 GT ISZERO PUSH2 0x281F JUMPI DUP4 DUP5 REVERT JUMPDEST POP PUSH2 0x282C DUP8 DUP3 DUP9 ADD PUSH2 0x272E JUMP JUMPDEST SWAP6 SWAP9 SWAP5 SWAP8 POP SWAP6 POP POP POP POP JUMP JUMPDEST PUSH1 0x0 PUSH1 0x20 DUP3 DUP5 SUB SLT ISZERO PUSH2 0x2849 JUMPI DUP1 DUP2 REVERT JUMPDEST DUP2 MLOAD DUP1 ISZERO ISZERO DUP2 EQ PUSH2 0x1EAB JUMPI DUP2 DUP3 REVERT JUMPDEST PUSH1 0x0 PUSH1 0x20 DUP3 DUP5 SUB SLT ISZERO PUSH2 0x2869 JUMPI DUP1 DUP2 REVERT JUMPDEST POP CALLDATALOAD SWAP2 SWAP1 POP JUMP JUMPDEST PUSH1 0x0 DUP1 PUSH1 0x40 DUP4 DUP6 SUB SLT ISZERO PUSH2 0x2882 JUMPI DUP2 DUP3 REVERT JUMPDEST DUP3 CALLDATALOAD SWAP2 POP PUSH2 0x2892 PUSH1 0x20 DUP5 ADD PUSH2 0x2712 JUMP JUMPDEST SWAP1 POP SWAP3 POP SWAP3 SWAP1 POP JUMP JUMPDEST PUSH1 0x0 DUP1 PUSH1 0x40 DUP4 DUP6 SUB SLT ISZERO PUSH2 0x28AD JUMPI DUP2 DUP3 REVERT JUMPDEST POP POP DUP1 CALLDATALOAD SWAP3 PUSH1 0x20 SWAP1 SWAP2 ADD CALLDATALOAD SWAP2 POP JUMP JUMPDEST PUSH1 0x0 PUSH1 0x20 DUP3 DUP5 SUB SLT ISZERO PUSH2 0x28CD JUMPI DUP1 DUP2 REVERT JUMPDEST DUP2 CALLDATALOAD PUSH1 0x1 PUSH1 0x1 PUSH1 0xE0 SHL SUB NOT DUP2 AND DUP2 EQ PUSH2 0x1EAB JUMPI DUP2 DUP3 REVERT JUMPDEST PUSH1 0x0 PUSH1 0x20 DUP3 DUP5 SUB SLT ISZERO PUSH2 0x28F5 JUMPI DUP1 DUP2 REVERT JUMPDEST POP MLOAD SWAP2 SWAP1 POP JUMP JUMPDEST PUSH1 0x0 PUSH1 0x20 DUP3 DUP5 SUB SLT ISZERO PUSH2 0x290D JUMPI DUP1 DUP2 REVERT JUMPDEST PUSH2 0x1EAB DUP3 PUSH2 0x2778 JUMP JUMPDEST PUSH1 0x0 DUP1 PUSH1 0x40 DUP4 DUP6 SUB SLT ISZERO PUSH2 0x2928 JUMPI DUP2 DUP3 REVERT JUMPDEST PUSH2 0x2931 DUP4 PUSH2 0x2778 JUMP JUMPDEST SWAP2 POP PUSH2 0x2892 PUSH1 0x20 DUP5 ADD PUSH2 0x2712 JUMP JUMPDEST PUSH1 0x0 DUP1 PUSH1 0x0 DUP1 PUSH1 0x0 PUSH1 0x60 DUP7 DUP9 SUB SLT ISZERO PUSH2 0x2956 JUMPI DUP1 DUP2 REVERT JUMPDEST PUSH2 0x295F DUP7 PUSH2 0x2778 JUMP JUMPDEST SWAP5 POP PUSH1 0x20 DUP7 ADD CALLDATALOAD PUSH8 0xFFFFFFFFFFFFFFFF DUP1 DUP3 GT ISZERO PUSH2 0x297B JUMPI DUP3 DUP4 REVERT JUMPDEST PUSH2 0x2987 DUP10 DUP4 DUP11 ADD PUSH2 0x272E JUMP JUMPDEST SWAP1 SWAP7 POP SWAP5 POP PUSH1 0x40 DUP9 ADD CALLDATALOAD SWAP2 POP DUP1 DUP3 GT ISZERO PUSH2 0x299F JUMPI DUP3 DUP4 REVERT JUMPDEST POP PUSH2 0x29AC DUP9 DUP3 DUP10 ADD PUSH2 0x272E JUMP JUMPDEST SWAP7 SWAP10 SWAP6 SWAP9 POP SWAP4 SWAP7 POP SWAP3 SWAP5 SWAP4 SWAP3 POP POP POP JUMP JUMPDEST PUSH1 0x20 DUP1 DUP3 MSTORE DUP3 MLOAD DUP3 DUP3 ADD DUP2 SWAP1 MSTORE PUSH1 0x0 SWAP2 SWAP1 DUP5 DUP3 ADD SWAP1 PUSH1 0x40 DUP6 ADD SWAP1 DUP5 JUMPDEST DUP2 DUP2 LT ISZERO PUSH2 0x29FE JUMPI DUP4 MLOAD PUSH1 0x1 PUSH1 0x1 PUSH1 0xA0 SHL SUB AND DUP4 MSTORE SWAP3 DUP5 ADD SWAP3 SWAP2 DUP5 ADD SWAP2 PUSH1 0x1 ADD PUSH2 0x29D9 JUMP JUMPDEST POP SWAP1 SWAP7 SWAP6 POP POP POP POP POP POP JUMP JUMPDEST PUSH1 0x0 DUP3 NOT DUP3 GT ISZERO PUSH2 0x2A1D JUMPI PUSH2 0x2A1D PUSH2 0x2AB7 JUMP JUMPDEST POP ADD SWAP1 JUMP JUMPDEST PUSH1 0x0 DUP3 PUSH2 0x2A3D JUMPI PUSH4 0x4E487B71 PUSH1 0xE0 SHL DUP2 MSTORE PUSH1 0x12 PUSH1 0x4 MSTORE PUSH1 0x24 DUP2 REVERT JUMPDEST POP DIV SWAP1 JUMP JUMPDEST PUSH1 0x0 DUP2 PUSH1 0x0 NOT DIV DUP4 GT DUP3 ISZERO ISZERO AND ISZERO PUSH2 0x2A5C JUMPI PUSH2 0x2A5C PUSH2 0x2AB7 JUMP JUMPDEST POP MUL SWAP1 JUMP JUMPDEST PUSH1 0x0 DUP3 DUP3 LT ISZERO PUSH2 0x2A73 JUMPI PUSH2 0x2A73 PUSH2 0x2AB7 JUMP JUMPDEST POP SUB SWAP1 JUMP JUMPDEST PUSH1 0x0 PUSH1 0x0 NOT DUP3 EQ ISZERO PUSH2 0x2A8C JUMPI PUSH2 0x2A8C PUSH2 0x2AB7 JUMP JUMPDEST POP PUSH1 0x1 ADD SWAP1 JUMP JUMPDEST PUSH1 0x0 PUSH4 0xFFFFFFFF DUP1 DUP4 AND DUP2 DUP2 EQ ISZERO PUSH2 0x2AAD JUMPI PUSH2 0x2AAD PUSH2 0x2AB7 JUMP JUMPDEST PUSH1 0x1 ADD SWAP4 SWAP3 POP POP POP JUMP JUMPDEST PUSH4 0x4E487B71 PUSH1 0xE0 SHL PUSH1 0x0 MSTORE PUSH1 0x11 PUSH1 0x4 MSTORE PUSH1 0x24 PUSH1 0x0 REVERT INVALID NUMBER PUSH16 0x6D7065746974696F6E202D2075706461 PUSH21 0x655375626D697373696F6E3A20A264697066735822 SLT KECCAK256 0xB3 0xBF 0xD7 SWAP7 0x26 0xFC COINBASE 0xE7 RETURN MSIZE 0xD 0xCE 0xE9 SWAP10 PC EXTCODECOPY 0x24 SWAP1 0xCE 0x27 SAR 0x4F 0x21 CREATE PUSH11 0xFAC863E4AF60B664736F6C PUSH4 0x43000804 STOP CALLER ",
  "sha1": "f84c9c2f52d782c2476baf5e7bdaf3124c20d964",
  "source": "pragma solidity 0.8.4;\n\n// SPDX-License-Identifier: MIT\n\nimport './../interfaces/ICompetition.sol';\nimport './standard/access/AccessControl.sol';\nimport '../interfaces/IToken.sol';\nimport '../interfaces/IVault.sol';\nimport '../interfaces/IRegistry.sol';\n\n/**\n * @title RCI Tournament Contract\n * @author Rocket Capital Investment Pte Ltd\n * @dev This contract manages registration and reward payouts for the RCI Tournament.\n * @dev IPFS hash format: Hash Identifier (2 bytes), Actual Hash (May eventually take on other formats but currently 32 bytes)\n * \n */\ncontract Competition is AccessControl, ICompetition {\n\n    struct Challenge{\n        bytes32 dataset;\n        bytes32 results;\n        uint256 totalStakedForChallenge;\n        uint8 phase;\n        // 0: closed, 1: open for staking, 2: staking closed, open for submissions, 3: submissions closed 4: rewards paid, phase completed.\n        mapping(address => bytes32) addressToSubmissionMap;\n        address[] submitters;\n    }\n\n    IToken private _token;\n    IVault private _vault;\n    uint32 private _challengeCounter;\n    uint256 private _stakeThreshold;\n    uint256 private _competitionPool;\n    uint256 private _currentTotalStaked;\n    uint256 private _currentParticipationRewardsBudget;\n    uint256 private _currentPerformanceRewardsBudget;\n    uint256 private _performanceRewardsPercentageInWei = 90e16;\n    mapping(address => uint256) private _stakes;\n    mapping(uint32 => Challenge) private _challenges;\n\n    /*\n    * @param duration_ The number of phases per challenge.\n    * @param fee_ The initial registration fee in Token wei.\n    * @param token_address_ The address of the ERC20 token contract.\n    */\n    constructor(uint256 stakeThreshold_, address tokenAddress_, address vaultAddress_){\n        require(tokenAddress_ != address(0), \"No token address found.\");\n        require(vaultAddress_ != address(0), \"No vault address found.\");\n\n        _setupRole(DEFAULT_ADMIN_ROLE, msg.sender);\n        _stakeThreshold = stakeThreshold_;\n        _token = IToken(tokenAddress_);\n        _vault = IVault(vaultAddress_);\n        _challengeCounter = 0;\n        _challenges[_challengeCounter].phase = 4;\n    }\n\n    function sponsor(uint256 amountToken)\n    external override\n    returns (bool success)\n    {\n        // Transfer would fail anyway if not approved.\n        require(_token.transferFrom(msg.sender, address(this), amountToken), \"Tournament - sponsor: Token transfer failed.\");\n        uint256 currentCompPoolAmt = _competitionPool;\n        _competitionPool = currentCompPoolAmt + amountToken;\n        success = true;\n\n        emit Sponsor(msg.sender, amountToken, currentCompPoolAmt + amountToken);\n    }\n\n    function setStake(uint256 amountToken)\n    external override\n    returns (bool success)\n    {\n        uint256 currentStake = _stakes[msg.sender];\n        require(currentStake != amountToken, \"Competition - setStake: Your stake is already set to this amount.\");\n        if (amountToken > currentStake){\n            require(increaseStake(amountToken - currentStake), \"Competition - setStake: Could not increase stake.\");\n        } else{\n            require(decreaseStake(currentStake - amountToken), \"Competition - setStake: Could not decrease stake.\");\n        }\n        success = true;\n    }\n\n    function increaseStake(uint256 amountToken)\n    public override\n    returns (bool success)\n    {\n        require(_challenges[_challengeCounter].phase == 1, \"Competition - increaseStake: Please wait for the staking period to unlock before modifying your stake.\");\n        require(_token.transferFrom(msg.sender, address(this), amountToken), \"Competition - increaseStake: Token Transfer failed.\");\n        _stakes[msg.sender] += amountToken;\n        _currentTotalStaked += amountToken;\n        success = true;\n\n        emit StakeIncreased(msg.sender, amountToken);\n    }\n\n    function decreaseStake(uint256 amountToken)\n    public override\n    returns (bool success)\n    {\n        require(_challenges[_challengeCounter].phase == 1, \"Competition - decreaseStake: Please wait for the staking period to unlock before modifying your stake.\");\n        uint256 currentBal = _stakes[msg.sender];\n        require(amountToken <= currentBal, \"Competition - decreaseStake: Insufficient funds for withdrawal.\");\n        _stakes[msg.sender] = currentBal - amountToken;\n        _currentTotalStaked -= amountToken;\n        _token.transfer(msg.sender, amountToken);\n        success = true;\n\n        emit StakeDecreased(msg.sender, amountToken);\n    }\n\n    function transferStake(address recipient, uint256 amountToken)\n    external override\n    returns (bool success)\n    {\n        require(_challenges[_challengeCounter].phase == 1, \"Competition - transferStake: Please wait for the staking period to unlock before modifying your stake.\");\n        uint256 currentBal = _stakes[msg.sender];\n        require(amountToken <= currentBal, \"Competition - transferStake: Insufficient balance.\");\n        _stakes[msg.sender] -= amountToken;\n        _stakes[recipient] += amountToken;\n        success = true;\n\n        emit StakeTransferred(msg.sender, recipient, amountToken);\n    }\n\n    function submitNewPredictions(bytes32 submissionHash)\n    external override\n    returns (uint32 challengeNumber)\n    {  \n        challengeNumber = _updateSubmission(bytes32(0), submissionHash);\n        uint256 currentStake = _stakes[msg.sender];\n        require(currentStake >= _stakeThreshold, \"Competition - submitNewPredictions: Stake is below threshold.\");\n        _challenges[challengeNumber].submitters.push(msg.sender);\n\n        uint256 participationRewards = _currentParticipationRewardsBudget * currentStake / _challenges[challengeNumber].totalStakedForChallenge;\n\n        _competitionPool -= participationRewards;\n        _stakes[msg.sender] = currentStake + participationRewards;\n        _currentTotalStaked += participationRewards;\n\n        emit StakeParticipationRewardsPaid(msg.sender, currentStake, participationRewards);\n    }\n\n    function updateSubmission(bytes32 oldSubmissionHash, bytes32 newSubmissionHash)\n    public override\n    returns (uint32 challengeNumber)\n    {\n        require(oldSubmissionHash != bytes32(0), \"Competition - updateSubmission: Must have pre-existing submission.\");\n        challengeNumber = _updateSubmission(oldSubmissionHash, newSubmissionHash);\n    }\n\n    function _updateSubmission(bytes32 oldSubmissionHash, bytes32 newSubmissionHash)\n    private\n    returns (uint32 challengeNumber)\n    {\n        challengeNumber = _challengeCounter;\n        require(_challenges[challengeNumber].phase == 2, \"Competition - updateSubmission: Not available for submissions.\");\n        require(newSubmissionHash != bytes32(0), \"Competition - updateSubmission: Cannot submit empty hash.\");\n        require(oldSubmissionHash != newSubmissionHash, \"Competition - updateSubmission: Cannot update with the same hash as before.\");\n        require(_challenges[challengeNumber].addressToSubmissionMap[msg.sender] == oldSubmissionHash,\n                \"Competition - updateSubmission: Clash in existing submission hash.\");\n        _challenges[challengeNumber].addressToSubmissionMap[msg.sender] = newSubmissionHash;\n\n        emit SubmissionUpdated(challengeNumber, msg.sender, newSubmissionHash);\n    }\n\n    function getCompetitionPool()\n    view external override\n    returns (uint256 competitionPool)\n    {\n        competitionPool = _competitionPool;\n    }\n\n    function getCurrentTotalStaked()\n    view external override\n    returns (uint256 currentTotalStaked)\n    {\n        currentTotalStaked = _currentTotalStaked;\n    }\n\n    function getCurrentParticipationRewardsBudget()\n    view external override\n    returns (uint256 currentParticipationRewardsBudget)\n    {\n        currentParticipationRewardsBudget = _currentParticipationRewardsBudget;\n    }\n\n    function getCurrentPerformanceRewardsBudget()\n    view external override\n    returns (uint256 currentPerformanceRewardsBudget)\n    {\n        currentPerformanceRewardsBudget = _currentPerformanceRewardsBudget;\n    }\n\n    function getLatestChallengeNumber()\n    view public override\n    returns (uint32 latestChallengeNumber)\n    {\n        latestChallengeNumber = _challengeCounter;\n    }\n\n    function getDatasetHash(uint32 challengeNumber)\n    view external override\n    returns (bytes32 dataset)\n    {\n        dataset = _challenges[challengeNumber].dataset;\n    }\n\n    function getResultsHash(uint32 challengeNumber)\n    view external override\n    returns (bytes32 results)\n    {\n        results = _challenges[challengeNumber].results;\n    }\n\n    function getSubmissionCounter(uint32 challengeNumber)\n    view external override\n    returns (uint256 submissionCounter)\n    {\n        submissionCounter = _challenges[challengeNumber].submitters.length;\n    }\n\n    function getSubmitters(uint32 challengeNumber)\n    view external override\n    returns (address[] memory submitters)\n    {\n        submitters = _challenges[challengeNumber].submitters;\n    }\n\n    function getPhase(uint32 challengeNumber)\n    view external override\n    returns (uint8 phase)\n    {\n        phase = _challenges[challengeNumber].phase;\n    }\n\n    function getStakeThreshold()\n    view external override\n    returns (uint256 stakeThreshold)\n    {\n        stakeThreshold = _stakeThreshold;\n    }\n\n    function getStake(address participant)\n    view external override\n    returns (uint256 stake)\n    {\n        stake = _stakes[participant];\n    }\n\n    function getTokenAddress()\n    view external override\n    returns (address tokenAddress)\n    {\n        tokenAddress = address(_token);\n    }\n\n    function getVaultAddress()\n    view external override\n    returns (address vaultAddress)\n    {\n        vaultAddress = address(_vault);\n    }\n\n    function getSubmission(uint32 challengeNumber, address participant)\n    view external override\n    returns (bytes32 submissionHash)\n    {\n        submissionHash = _challenges[challengeNumber].addressToSubmissionMap[participant];\n    }\n\n    function getTotalStakesLockedForChallenge(uint32 challengeNumber)\n    view external override\n    returns (uint256 totalStakedForChallenge)\n    {\n        totalStakedForChallenge = _challenges[challengeNumber].totalStakedForChallenge;\n    }\n\n    function updateVaultAddress(address newVaultAddress)\n    external override\n    {\n        require(hasRole(DEFAULT_ADMIN_ROLE, msg.sender), \"Competition - updateVaultAddress: Caller is unauthorized.\");\n        _vault = IVault(newVaultAddress);\n\n        emit VaultAddressUpdated(newVaultAddress);\n    }\n\n    function updateStakeThreshold(uint256 newStakeThreshold)\n    external override\n    {\n        require(hasRole(DEFAULT_ADMIN_ROLE, msg.sender), \"Competition - updateStakeThreshold: Caller is unauthorized.\");\n        _stakeThreshold = newStakeThreshold;\n\n        emit StakeThresholdUpdated(newStakeThreshold, msg.sender);\n    }\n\n    function openStaking(bytes32 datasetHash)\n    external override\n    {\n        require(hasRole(DEFAULT_ADMIN_ROLE, msg.sender), \"Competition - openStaking: Caller is unauthorized.\");\n        uint32 challengeNumber = _challengeCounter;\n        require(_challenges[challengeNumber].phase == 4, \"Competition - openStaking: Previous phase is incomplete.\");\n\n        challengeNumber++;\n\n        _challenges[challengeNumber].phase = 1;\n        _challengeCounter = challengeNumber;\n\n        _updateDataset(challengeNumber, bytes32(0), datasetHash);\n\n        uint256 drawAmount = _vault.draw();\n        _competitionPool += drawAmount;\n\n        _currentPerformanceRewardsBudget = _competitionPool * _performanceRewardsPercentageInWei/(1e18);\n        _currentParticipationRewardsBudget = _competitionPool - _currentPerformanceRewardsBudget;\n\n        emit StakingOpened(challengeNumber);\n    }\n    \n    function openSubmission()\n    external override\n    {\n        require(hasRole(DEFAULT_ADMIN_ROLE, msg.sender), \"Competition - openSubmission: Caller is unauthorized.\");\n        uint32 challengeNumber = _challengeCounter;\n        require(_challenges[challengeNumber].phase == 1, \"Competition - openSubmission: Challenge is in unexpected state.\");\n\n        _challenges[challengeNumber].phase = 2;\n        _challenges[challengeNumber].totalStakedForChallenge = _currentTotalStaked;\n\n        emit SubmissionOpened(challengeNumber);\n    }\n\n    function updateDataset(bytes32 oldDatasetHash, bytes32 newDatasetHash)\n    external override\n    {\n        require(hasRole(DEFAULT_ADMIN_ROLE, msg.sender), \"Competition - updateDataset: Caller is unauthorized.\");\n        uint32 challengeNumber = _challengeCounter;\n        require(_challenges[challengeNumber].phase == 1, \"Competition - updateDataset: Challenge is closed.\");\n        require(oldDatasetHash != bytes32(0), \"Competition - updateDataset: Must have pre-existing dataset.\");\n        _updateDataset(challengeNumber, oldDatasetHash, newDatasetHash);\n    }\n\n    function _updateDataset(uint32 challengeNumber, bytes32 oldDatasetHash, bytes32 newDatasetHash)\n    private\n    {\n        require(oldDatasetHash != newDatasetHash, \"Competition - updateDataset: Cannot update with the same hash as before.\");\n        require(_challenges[challengeNumber].dataset == oldDatasetHash, \"Competition - updateDataset: Incorrect old dataset reference.\");\n        _challenges[challengeNumber].dataset = newDatasetHash;\n\n        emit DatasetUpdated(challengeNumber, oldDatasetHash, newDatasetHash);\n    }\n\n    function closeSubmission()\n    external override\n    {\n        require(hasRole(DEFAULT_ADMIN_ROLE, msg.sender), \"Competition - closeSubmission: Caller is unauthorized.\");\n        uint32 challengeNumber = _challengeCounter;\n        require(_challenges[challengeNumber].phase == 2, \"Competition - closeSubmission: Challenge in unexpected state.\");\n        _challenges[challengeNumber].phase = 3;\n\n        emit SubmissionClosed(challengeNumber);\n    }\n\n    function submitResults(bytes32 resultsHash)\n    external override\n    {\n        _updateResults(bytes32(0), resultsHash);\n    }\n\n    function updateResults(bytes32 oldResultsHash, bytes32 newResultsHash)\n    public override\n    {\n\n        require(oldResultsHash != bytes32(0), \"Competition - updateResults: Must have pre-existing results.\");\n        _updateResults(oldResultsHash, newResultsHash);\n    }\n\n    function _updateResults(bytes32 oldResultsHash, bytes32 newResultsHash)\n    private\n    {\n        require(hasRole(DEFAULT_ADMIN_ROLE, msg.sender), \"Competition - updateResults: Caller is unauthorized.\");\n        require(oldResultsHash != newResultsHash, \"Competition - updateResults: Cannot update with the same hash as before.\");\n        uint32 challengeNumber = _challengeCounter;\n        require(_challenges[challengeNumber].phase >= 3, \"Competition - updateResults: Challenge in unexpected state.\");\n        require(_challenges[challengeNumber].results == oldResultsHash, \"Competition - updateResults: Clash in existing results hash.\");\n        _challenges[challengeNumber].results = newResultsHash;\n\n        emit ResultsUpdated(challengeNumber, oldResultsHash, newResultsHash);\n    }\n\n    function payPerformanceRewards(address[] calldata winners, uint256[] calldata rewards)\n    external override\n    returns (bool success)\n    {\n        success = payPerformanceRewards(_challengeCounter, winners, rewards);\n    }\n\n    function payPerformanceRewards(uint32 challengeNumber, address[] calldata winners, uint256[] calldata rewards)\n    public override\n    returns (bool success)\n    {\n        require(hasRole(DEFAULT_ADMIN_ROLE, msg.sender), \"Competition - payPerformanceRewards: Caller is unauthorized.\");\n        require(_challenges[challengeNumber].phase >= 3, \"Competition - payPerformanceRewards: Challenge is in unexpected state.\");\n        require(winners.length == rewards.length, \"Competition - payPerformanceRewards: Number of winners and rewards are different.\");\n        uint256 totalAmount;\n        for (uint i = 0; i < winners.length; i++)\n        {\n            uint256 rewardAmount = rewards[i];\n            address winner = winners[i];\n            _stakes[winner] += rewardAmount;\n            totalAmount += rewardAmount;\n            emit PerformanceRewardsPayment(winner, rewardAmount);\n        }\n        if (totalAmount > _currentPerformanceRewardsBudget) {\n            revert('Total payout sum more than competition pool.');\n        }\n        else {\n            _competitionPool -= totalAmount;\n            _currentTotalStaked += totalAmount;\n            success = true;\n        }\n        _challenges[challengeNumber].phase = 4;\n\n        emit PerformanceRewardsPaid(challengeNumber, totalAmount);\n    }\n}",
  "sourcePath": "contracts/Competition.sol",
  "type": "contract"
}