{
  "abi": [
    {
      "inputs": [
        {
          "internalType": "uint256",
          "name": "start_",
          "type": "uint256"
        },
        {
          "internalType": "address",
          "name": "token_address_",
          "type": "address"
        }
      ],
      "stateMutability": "nonpayable",
      "type": "constructor"
    },
    {
      "anonymous": false,
      "inputs": [
        {
          "indexed": true,
          "internalType": "uint256",
          "name": "newAmount",
          "type": "uint256"
        }
      ],
      "name": "AmountPerWithdrawalUpdated",
      "type": "event"
    },
    {
      "anonymous": false,
      "inputs": [
        {
          "indexed": true,
          "internalType": "address",
          "name": "newCompetition",
          "type": "address"
        },
        {
          "indexed": true,
          "internalType": "uint256",
          "name": "amountPerWithdrawal",
          "type": "uint256"
        }
      ],
      "name": "CompetitionAuthorized",
      "type": "event"
    },
    {
      "anonymous": false,
      "inputs": [
        {
          "indexed": true,
          "internalType": "address",
          "name": "recipient",
          "type": "address"
        },
        {
          "indexed": true,
          "internalType": "uint256",
          "name": "amountToWithdraw",
          "type": "uint256"
        },
        {
          "indexed": true,
          "internalType": "uint256",
          "name": "intervalsElapsed",
          "type": "uint256"
        }
      ],
      "name": "Drawn",
      "type": "event"
    },
    {
      "anonymous": false,
      "inputs": [
        {
          "indexed": true,
          "internalType": "bytes32",
          "name": "role",
          "type": "bytes32"
        },
        {
          "indexed": true,
          "internalType": "bytes32",
          "name": "previousAdminRole",
          "type": "bytes32"
        },
        {
          "indexed": true,
          "internalType": "bytes32",
          "name": "newAdminRole",
          "type": "bytes32"
        }
      ],
      "name": "RoleAdminChanged",
      "type": "event"
    },
    {
      "anonymous": false,
      "inputs": [
        {
          "indexed": true,
          "internalType": "bytes32",
          "name": "role",
          "type": "bytes32"
        },
        {
          "indexed": true,
          "internalType": "address",
          "name": "account",
          "type": "address"
        },
        {
          "indexed": true,
          "internalType": "address",
          "name": "sender",
          "type": "address"
        }
      ],
      "name": "RoleGranted",
      "type": "event"
    },
    {
      "anonymous": false,
      "inputs": [
        {
          "indexed": true,
          "internalType": "bytes32",
          "name": "role",
          "type": "bytes32"
        },
        {
          "indexed": true,
          "internalType": "address",
          "name": "account",
          "type": "address"
        },
        {
          "indexed": true,
          "internalType": "address",
          "name": "sender",
          "type": "address"
        }
      ],
      "name": "RoleRevoked",
      "type": "event"
    },
    {
      "inputs": [],
      "name": "DEFAULT_ADMIN_ROLE",
      "outputs": [
        {
          "internalType": "bytes32",
          "name": "",
          "type": "bytes32"
        }
      ],
      "stateMutability": "view",
      "type": "function"
    },
    {
      "inputs": [
        {
          "internalType": "address",
          "name": "newCompetition",
          "type": "address"
        },
        {
          "internalType": "uint256",
          "name": "amountPerWithdrawal",
          "type": "uint256"
        }
      ],
      "name": "authorizeCompetition",
      "outputs": [],
      "stateMutability": "nonpayable",
      "type": "function"
    },
    {
      "inputs": [],
      "name": "draw",
      "outputs": [
        {
          "internalType": "uint256",
          "name": "amountToWithdraw",
          "type": "uint256"
        }
      ],
      "stateMutability": "nonpayable",
      "type": "function"
    },
    {
      "inputs": [],
      "name": "getAmountPerWithdrawal",
      "outputs": [
        {
          "internalType": "uint256",
          "name": "amountPerWithdrawal",
          "type": "uint256"
        }
      ],
      "stateMutability": "view",
      "type": "function"
    },
    {
      "inputs": [],
      "name": "getAuthorizedCompetition",
      "outputs": [
        {
          "internalType": "address",
          "name": "authorizedCompetition",
          "type": "address"
        }
      ],
      "stateMutability": "view",
      "type": "function"
    },
    {
      "inputs": [],
      "name": "getIntervalsSinceLaunch",
      "outputs": [
        {
          "internalType": "uint256",
          "name": "intervals",
          "type": "uint256"
        }
      ],
      "stateMutability": "view",
      "type": "function"
    },
    {
      "inputs": [],
      "name": "getLastIntervalWithdrawn",
      "outputs": [
        {
          "internalType": "uint256",
          "name": "lastIntervalWithdrawn",
          "type": "uint256"
        }
      ],
      "stateMutability": "nonpayable",
      "type": "function"
    },
    {
      "inputs": [
        {
          "internalType": "bytes32",
          "name": "role",
          "type": "bytes32"
        }
      ],
      "name": "getRoleAdmin",
      "outputs": [
        {
          "internalType": "bytes32",
          "name": "",
          "type": "bytes32"
        }
      ],
      "stateMutability": "view",
      "type": "function"
    },
    {
      "inputs": [],
      "name": "getStartTime",
      "outputs": [
        {
          "internalType": "uint256",
          "name": "start",
          "type": "uint256"
        }
      ],
      "stateMutability": "view",
      "type": "function"
    },
    {
      "inputs": [
        {
          "internalType": "bytes32",
          "name": "role",
          "type": "bytes32"
        },
        {
          "internalType": "address",
          "name": "account",
          "type": "address"
        }
      ],
      "name": "grantRole",
      "outputs": [],
      "stateMutability": "nonpayable",
      "type": "function"
    },
    {
      "inputs": [
        {
          "internalType": "bytes32",
          "name": "role",
          "type": "bytes32"
        },
        {
          "internalType": "address",
          "name": "account",
          "type": "address"
        }
      ],
      "name": "hasRole",
      "outputs": [
        {
          "internalType": "bool",
          "name": "",
          "type": "bool"
        }
      ],
      "stateMutability": "view",
      "type": "function"
    },
    {
      "inputs": [
        {
          "internalType": "bytes32",
          "name": "role",
          "type": "bytes32"
        },
        {
          "internalType": "address",
          "name": "account",
          "type": "address"
        }
      ],
      "name": "renounceRole",
      "outputs": [],
      "stateMutability": "nonpayable",
      "type": "function"
    },
    {
      "inputs": [
        {
          "internalType": "bytes32",
          "name": "role",
          "type": "bytes32"
        },
        {
          "internalType": "address",
          "name": "account",
          "type": "address"
        }
      ],
      "name": "revokeRole",
      "outputs": [],
      "stateMutability": "nonpayable",
      "type": "function"
    },
    {
      "inputs": [
        {
          "internalType": "bytes4",
          "name": "interfaceId",
          "type": "bytes4"
        }
      ],
      "name": "supportsInterface",
      "outputs": [
        {
          "internalType": "bool",
          "name": "",
          "type": "bool"
        }
      ],
      "stateMutability": "view",
      "type": "function"
    },
    {
      "inputs": [
        {
          "internalType": "uint256",
          "name": "newAmount",
          "type": "uint256"
        }
      ],
      "name": "updateAmountPerWithdrawal",
      "outputs": [],
      "stateMutability": "nonpayable",
      "type": "function"
    }
  ],
  "bytecode": "608060405234801561001057600080fd5b50604051610bb9380380610bb983398101604081905261002f9161011c565b61003a600033610070565b600180546001600160a01b0319166001600160a01b038316179055816100635742600455610069565b60048290555b5050610157565b61007a828261007e565b5050565b6000828152602081815260408083206001600160a01b038516845290915290205460ff1661007a576000828152602081815260408083206001600160a01b03851684529091529020805460ff191660011790556100d83390565b6001600160a01b0316816001600160a01b0316837f2f8788117e7eff1d82e926ec794901d17c78024a50270940304540a733656f0d60405160405180910390a45050565b6000806040838503121561012e578182fd5b825160208401519092506001600160a01b038116811461014c578182fd5b809150509250929050565b610a53806101666000396000f3fe608060405234801561001057600080fd5b50600436106100f55760003560e01c80635ed6a01d11610097578063a217fddf11610066578063a217fddf146101dc578063c828371e146101e4578063d547741f146101ec578063fb0f6286146101ff57600080fd5b80635ed6a01d1461019e5780636cd22340146101a657806386b099bb146101c157806391d14854146101c957600080fd5b8063248a9ca3116100d3578063248a9ca3146101405780632f2ff15d1461016357806336568abe14610178578063538a1f881461018b57600080fd5b806301ffc9a7146100fa5780630eecae2114610122578063127a80ab14610138575b600080fd5b61010d6101083660046109b2565b610212565b60405190151581526020015b60405180910390f35b61012a610249565b604051908152602001610119565b60055461012a565b61012a61014e36600461096f565b60009081526020819052604090206001015490565b610176610171366004610987565b610450565b005b610176610186366004610987565b6104df565b61017661019936600461091f565b610559565b61012a6106a0565b6002546040516001600160a01b039091168152602001610119565b60035461012a565b61010d6101d7366004610987565b6106c1565b61012a600081565b60045461012a565b6101766101fa366004610987565b6106ea565b61017661020d36600461096f565b61076a565b60006001600160e01b03198216637965db0b60e01b148061024357506301ffc9a760e01b6001600160e01b03198316145b92915050565b600354801561044d576002546001600160a01b031633146102c15760405162461bcd60e51b815260206004820152602760248201527f5661756c74202d20647261773a2043616c6c6572206973206e6f74206175746860448201526637b934bd32b21760c91b60648201526084015b60405180910390fd5b60006102cb6106a0565b905060055481116103375760405162461bcd60e51b815260206004820152603060248201527f5661756c74202d20647261773a20416c726561647920636c61696d656420666f60448201526f39103a3434b99034b73a32b93b30b61760811b60648201526084016102b8565b60015460035460405163a9059cbb60e01b815233600482015260248101919091526001600160a01b039091169063a9059cbb90604401602060405180830381600087803b15801561038757600080fd5b505af115801561039b573d6000803e3d6000fd5b505050506040513d601f19601f820116820180604052508101906103bf9190610948565b6104175760405162461bcd60e51b8152602060048201526024808201527f5661756c74202d20647261773a20546f6b656e207472616e73666572206661696044820152633632b21760e11b60648201526084016102b8565b60058190556040518190839033907f11c8b4019de91c411a4563c3f1a6debb06e417f30b786f18dfe77db88d40657790600090a4505b90565b60008281526020819052604090206001015461046d905b336106c1565b6104d15760405162461bcd60e51b815260206004820152602f60248201527f416363657373436f6e74726f6c3a2073656e646572206d75737420626520616e60448201526e0818591b5a5b881d1bc819dc985b9d608a1b60648201526084016102b8565b6104db828261081a565b5050565b6001600160a01b038116331461054f5760405162461bcd60e51b815260206004820152602f60248201527f416363657373436f6e74726f6c3a2063616e206f6e6c792072656e6f756e636560448201526e103937b632b9903337b91039b2b63360891b60648201526084016102b8565b6104db828261089e565b6105646000336106c1565b6105ce5760405162461bcd60e51b815260206004820152603560248201527f5661756c74202d20617574686f72697a65436f6d7065746974696f6e3a204361604482015274363632b91034b9903ab730baba3437b934bd32b21760591b60648201526084016102b8565b6002546001600160a01b03161561064d5760405162461bcd60e51b815260206004820152603960248201527f5661756c74202d20617574686f72697a65436f6d7065746974696f6e3a20436f60448201527f6d7065746974696f6e20616c7265616479206578697374732e0000000000000060648201526084016102b8565b6003819055600280546001600160a01b0319166001600160a01b0384169081179091556040518291907f9c6c08c6e8a66cbc213ea9350571c9b46aac2684fc090ba0b330a9c8ba33602690600090a35050565b60006023600454426106b291906109fa565b6106bc91906109da565b905090565b6000918252602082815260408084206001600160a01b0393909316845291905290205460ff1690565b60008281526020819052604090206001015461070590610467565b61054f5760405162461bcd60e51b815260206004820152603060248201527f416363657373436f6e74726f6c3a2073656e646572206d75737420626520616e60448201526f2061646d696e20746f207265766f6b6560801b60648201526084016102b8565b6107756000336106c1565b6107e75760405162461bcd60e51b815260206004820152603a60248201527f5661756c74202d20757064617465416d6f756e7450657257697468647261776160448201527f6c3a2043616c6c657220697320756e617574686f72697a65642e00000000000060648201526084016102b8565b600381905560405181907ff6a1be46faba17636fe6b7abe9e62c1a1cd7fbb17d196d4860fdcee962cd63d290600090a250565b61082482826106c1565b6104db576000828152602081815260408083206001600160a01b03851684529091529020805460ff1916600117905561085a3390565b6001600160a01b0316816001600160a01b0316837f2f8788117e7eff1d82e926ec794901d17c78024a50270940304540a733656f0d60405160405180910390a45050565b6108a882826106c1565b156104db576000828152602081815260408083206001600160a01b0385168085529252808320805460ff1916905551339285917ff6391f5c32d9c69d2a47ea670b442974b53935d1edc7fd64eb21e047a839171b9190a45050565b80356001600160a01b038116811461091a57600080fd5b919050565b60008060408385031215610931578182fd5b61093a83610903565b946020939093013593505050565b600060208284031215610959578081fd5b81518015158114610968578182fd5b9392505050565b600060208284031215610980578081fd5b5035919050565b60008060408385031215610999578182fd5b823591506109a960208401610903565b90509250929050565b6000602082840312156109c3578081fd5b81356001600160e01b031981168114610968578182fd5b6000826109f557634e487b7160e01b81526012600452602481fd5b500490565b600082821015610a1857634e487b7160e01b81526011600452602481fd5b50039056fea264697066735822122016117a4869ca4130b1d6503ae3762e05d81d627d4d3d66177d0e9ad3c54e470a64736f6c63430008040033",
  "bytecodeSha1": "85337e366f287a582db901ad405cf26774d20165",
  "compiler": {
    "evm_version": "istanbul",
    "optimizer": {
      "enabled": true,
      "runs": 200
    },
    "version": "0.8.4+commit.c7e474f2"
  },
  "contractName": "Vault",
  "language": "Solidity",
  "natspec": {
    "kind": "dev",
    "methods": {
      "getRoleAdmin(bytes32)": {
        "details": "Returns the admin role that controls `role`. See {grantRole} and {revokeRole}. To change a role's admin, use {_setRoleAdmin}."
      },
      "grantRole(bytes32,address)": {
        "details": "Grants `role` to `account`. If `account` had not been already granted `role`, emits a {RoleGranted} event. Requirements: - the caller must have ``role``'s admin role."
      },
      "hasRole(bytes32,address)": {
        "details": "Returns `true` if `account` has been granted `role`."
      },
      "renounceRole(bytes32,address)": {
        "details": "Revokes `role` from the calling account. Roles are often managed via {grantRole} and {revokeRole}: this function's purpose is to provide a mechanism for accounts to lose their privileges if they are compromised (such as when a trusted device is misplaced). If the calling account had been granted `role`, emits a {RoleRevoked} event. Requirements: - the caller must be `account`."
      },
      "revokeRole(bytes32,address)": {
        "details": "Revokes `role` from `account`. If `account` had been granted `role`, emits a {RoleRevoked} event. Requirements: - the caller must have ``role``'s admin role."
      },
      "supportsInterface(bytes4)": {
        "details": "See {IERC165-supportsInterface}."
      }
    },
    "version": 1
  },
  "opcodes": "PUSH1 0x80 PUSH1 0x40 MSTORE CALLVALUE DUP1 ISZERO PUSH2 0x10 JUMPI PUSH1 0x0 DUP1 REVERT JUMPDEST POP PUSH1 0x4 CALLDATASIZE LT PUSH2 0xF5 JUMPI PUSH1 0x0 CALLDATALOAD PUSH1 0xE0 SHR DUP1 PUSH4 0x5ED6A01D GT PUSH2 0x97 JUMPI DUP1 PUSH4 0xA217FDDF GT PUSH2 0x66 JUMPI DUP1 PUSH4 0xA217FDDF EQ PUSH2 0x1DC JUMPI DUP1 PUSH4 0xC828371E EQ PUSH2 0x1E4 JUMPI DUP1 PUSH4 0xD547741F EQ PUSH2 0x1EC JUMPI DUP1 PUSH4 0xFB0F6286 EQ PUSH2 0x1FF JUMPI PUSH1 0x0 DUP1 REVERT JUMPDEST DUP1 PUSH4 0x5ED6A01D EQ PUSH2 0x19E JUMPI DUP1 PUSH4 0x6CD22340 EQ PUSH2 0x1A6 JUMPI DUP1 PUSH4 0x86B099BB EQ PUSH2 0x1C1 JUMPI DUP1 PUSH4 0x91D14854 EQ PUSH2 0x1C9 JUMPI PUSH1 0x0 DUP1 REVERT JUMPDEST DUP1 PUSH4 0x248A9CA3 GT PUSH2 0xD3 JUMPI DUP1 PUSH4 0x248A9CA3 EQ PUSH2 0x140 JUMPI DUP1 PUSH4 0x2F2FF15D EQ PUSH2 0x163 JUMPI DUP1 PUSH4 0x36568ABE EQ PUSH2 0x178 JUMPI DUP1 PUSH4 0x538A1F88 EQ PUSH2 0x18B JUMPI PUSH1 0x0 DUP1 REVERT JUMPDEST DUP1 PUSH4 0x1FFC9A7 EQ PUSH2 0xFA JUMPI DUP1 PUSH4 0xEECAE21 EQ PUSH2 0x122 JUMPI DUP1 PUSH4 0x127A80AB EQ PUSH2 0x138 JUMPI JUMPDEST PUSH1 0x0 DUP1 REVERT JUMPDEST PUSH2 0x10D PUSH2 0x108 CALLDATASIZE PUSH1 0x4 PUSH2 0x9B2 JUMP JUMPDEST PUSH2 0x212 JUMP JUMPDEST PUSH1 0x40 MLOAD SWAP1 ISZERO ISZERO DUP2 MSTORE PUSH1 0x20 ADD JUMPDEST PUSH1 0x40 MLOAD DUP1 SWAP2 SUB SWAP1 RETURN JUMPDEST PUSH2 0x12A PUSH2 0x249 JUMP JUMPDEST PUSH1 0x40 MLOAD SWAP1 DUP2 MSTORE PUSH1 0x20 ADD PUSH2 0x119 JUMP JUMPDEST PUSH1 0x5 SLOAD PUSH2 0x12A JUMP JUMPDEST PUSH2 0x12A PUSH2 0x14E CALLDATASIZE PUSH1 0x4 PUSH2 0x96F JUMP JUMPDEST PUSH1 0x0 SWAP1 DUP2 MSTORE PUSH1 0x20 DUP2 SWAP1 MSTORE PUSH1 0x40 SWAP1 KECCAK256 PUSH1 0x1 ADD SLOAD SWAP1 JUMP JUMPDEST PUSH2 0x176 PUSH2 0x171 CALLDATASIZE PUSH1 0x4 PUSH2 0x987 JUMP JUMPDEST PUSH2 0x450 JUMP JUMPDEST STOP JUMPDEST PUSH2 0x176 PUSH2 0x186 CALLDATASIZE PUSH1 0x4 PUSH2 0x987 JUMP JUMPDEST PUSH2 0x4DF JUMP JUMPDEST PUSH2 0x176 PUSH2 0x199 CALLDATASIZE PUSH1 0x4 PUSH2 0x91F JUMP JUMPDEST PUSH2 0x559 JUMP JUMPDEST PUSH2 0x12A PUSH2 0x6A0 JUMP JUMPDEST PUSH1 0x2 SLOAD PUSH1 0x40 MLOAD PUSH1 0x1 PUSH1 0x1 PUSH1 0xA0 SHL SUB SWAP1 SWAP2 AND DUP2 MSTORE PUSH1 0x20 ADD PUSH2 0x119 JUMP JUMPDEST PUSH1 0x3 SLOAD PUSH2 0x12A JUMP JUMPDEST PUSH2 0x10D PUSH2 0x1D7 CALLDATASIZE PUSH1 0x4 PUSH2 0x987 JUMP JUMPDEST PUSH2 0x6C1 JUMP JUMPDEST PUSH2 0x12A PUSH1 0x0 DUP2 JUMP JUMPDEST PUSH1 0x4 SLOAD PUSH2 0x12A JUMP JUMPDEST PUSH2 0x176 PUSH2 0x1FA CALLDATASIZE PUSH1 0x4 PUSH2 0x987 JUMP JUMPDEST PUSH2 0x6EA JUMP JUMPDEST PUSH2 0x176 PUSH2 0x20D CALLDATASIZE PUSH1 0x4 PUSH2 0x96F JUMP JUMPDEST PUSH2 0x76A JUMP JUMPDEST PUSH1 0x0 PUSH1 0x1 PUSH1 0x1 PUSH1 0xE0 SHL SUB NOT DUP3 AND PUSH4 0x7965DB0B PUSH1 0xE0 SHL EQ DUP1 PUSH2 0x243 JUMPI POP PUSH4 0x1FFC9A7 PUSH1 0xE0 SHL PUSH1 0x1 PUSH1 0x1 PUSH1 0xE0 SHL SUB NOT DUP4 AND EQ JUMPDEST SWAP3 SWAP2 POP POP JUMP JUMPDEST PUSH1 0x3 SLOAD DUP1 ISZERO PUSH2 0x44D JUMPI PUSH1 0x2 SLOAD PUSH1 0x1 PUSH1 0x1 PUSH1 0xA0 SHL SUB AND CALLER EQ PUSH2 0x2C1 JUMPI PUSH1 0x40 MLOAD PUSH3 0x461BCD PUSH1 0xE5 SHL DUP2 MSTORE PUSH1 0x20 PUSH1 0x4 DUP3 ADD MSTORE PUSH1 0x27 PUSH1 0x24 DUP3 ADD MSTORE PUSH32 0x5661756C74202D20647261773A2043616C6C6572206973206E6F742061757468 PUSH1 0x44 DUP3 ADD MSTORE PUSH7 0x37B934BD32B217 PUSH1 0xC9 SHL PUSH1 0x64 DUP3 ADD MSTORE PUSH1 0x84 ADD JUMPDEST PUSH1 0x40 MLOAD DUP1 SWAP2 SUB SWAP1 REVERT JUMPDEST PUSH1 0x0 PUSH2 0x2CB PUSH2 0x6A0 JUMP JUMPDEST SWAP1 POP PUSH1 0x5 SLOAD DUP2 GT PUSH2 0x337 JUMPI PUSH1 0x40 MLOAD PUSH3 0x461BCD PUSH1 0xE5 SHL DUP2 MSTORE PUSH1 0x20 PUSH1 0x4 DUP3 ADD MSTORE PUSH1 0x30 PUSH1 0x24 DUP3 ADD MSTORE PUSH32 0x5661756C74202D20647261773A20416C726561647920636C61696D656420666F PUSH1 0x44 DUP3 ADD MSTORE PUSH16 0x39103A3434B99034B73A32B93B30B617 PUSH1 0x81 SHL PUSH1 0x64 DUP3 ADD MSTORE PUSH1 0x84 ADD PUSH2 0x2B8 JUMP JUMPDEST PUSH1 0x1 SLOAD PUSH1 0x3 SLOAD PUSH1 0x40 MLOAD PUSH4 0xA9059CBB PUSH1 0xE0 SHL DUP2 MSTORE CALLER PUSH1 0x4 DUP3 ADD MSTORE PUSH1 0x24 DUP2 ADD SWAP2 SWAP1 SWAP2 MSTORE PUSH1 0x1 PUSH1 0x1 PUSH1 0xA0 SHL SUB SWAP1 SWAP2 AND SWAP1 PUSH4 0xA9059CBB SWAP1 PUSH1 0x44 ADD PUSH1 0x20 PUSH1 0x40 MLOAD DUP1 DUP4 SUB DUP2 PUSH1 0x0 DUP8 DUP1 EXTCODESIZE ISZERO DUP1 ISZERO PUSH2 0x387 JUMPI PUSH1 0x0 DUP1 REVERT JUMPDEST POP GAS CALL ISZERO DUP1 ISZERO PUSH2 0x39B JUMPI RETURNDATASIZE PUSH1 0x0 DUP1 RETURNDATACOPY RETURNDATASIZE PUSH1 0x0 REVERT JUMPDEST POP POP POP POP PUSH1 0x40 MLOAD RETURNDATASIZE PUSH1 0x1F NOT PUSH1 0x1F DUP3 ADD AND DUP3 ADD DUP1 PUSH1 0x40 MSTORE POP DUP2 ADD SWAP1 PUSH2 0x3BF SWAP2 SWAP1 PUSH2 0x948 JUMP JUMPDEST PUSH2 0x417 JUMPI PUSH1 0x40 MLOAD PUSH3 0x461BCD PUSH1 0xE5 SHL DUP2 MSTORE PUSH1 0x20 PUSH1 0x4 DUP3 ADD MSTORE PUSH1 0x24 DUP1 DUP3 ADD MSTORE PUSH32 0x5661756C74202D20647261773A20546F6B656E207472616E7366657220666169 PUSH1 0x44 DUP3 ADD MSTORE PUSH4 0x3632B217 PUSH1 0xE1 SHL PUSH1 0x64 DUP3 ADD MSTORE PUSH1 0x84 ADD PUSH2 0x2B8 JUMP JUMPDEST PUSH1 0x5 DUP2 SWAP1 SSTORE PUSH1 0x40 MLOAD DUP2 SWAP1 DUP4 SWAP1 CALLER SWAP1 PUSH32 0x11C8B4019DE91C411A4563C3F1A6DEBB06E417F30B786F18DFE77DB88D406577 SWAP1 PUSH1 0x0 SWAP1 LOG4 POP JUMPDEST SWAP1 JUMP JUMPDEST PUSH1 0x0 DUP3 DUP2 MSTORE PUSH1 0x20 DUP2 SWAP1 MSTORE PUSH1 0x40 SWAP1 KECCAK256 PUSH1 0x1 ADD SLOAD PUSH2 0x46D SWAP1 JUMPDEST CALLER PUSH2 0x6C1 JUMP JUMPDEST PUSH2 0x4D1 JUMPI PUSH1 0x40 MLOAD PUSH3 0x461BCD PUSH1 0xE5 SHL DUP2 MSTORE PUSH1 0x20 PUSH1 0x4 DUP3 ADD MSTORE PUSH1 0x2F PUSH1 0x24 DUP3 ADD MSTORE PUSH32 0x416363657373436F6E74726F6C3A2073656E646572206D75737420626520616E PUSH1 0x44 DUP3 ADD MSTORE PUSH15 0x818591B5A5B881D1BC819DC985B9D PUSH1 0x8A SHL PUSH1 0x64 DUP3 ADD MSTORE PUSH1 0x84 ADD PUSH2 0x2B8 JUMP JUMPDEST PUSH2 0x4DB DUP3 DUP3 PUSH2 0x81A JUMP JUMPDEST POP POP JUMP JUMPDEST PUSH1 0x1 PUSH1 0x1 PUSH1 0xA0 SHL SUB DUP2 AND CALLER EQ PUSH2 0x54F JUMPI PUSH1 0x40 MLOAD PUSH3 0x461BCD PUSH1 0xE5 SHL DUP2 MSTORE PUSH1 0x20 PUSH1 0x4 DUP3 ADD MSTORE PUSH1 0x2F PUSH1 0x24 DUP3 ADD MSTORE PUSH32 0x416363657373436F6E74726F6C3A2063616E206F6E6C792072656E6F756E6365 PUSH1 0x44 DUP3 ADD MSTORE PUSH15 0x103937B632B9903337B91039B2B633 PUSH1 0x89 SHL PUSH1 0x64 DUP3 ADD MSTORE PUSH1 0x84 ADD PUSH2 0x2B8 JUMP JUMPDEST PUSH2 0x4DB DUP3 DUP3 PUSH2 0x89E JUMP JUMPDEST PUSH2 0x564 PUSH1 0x0 CALLER PUSH2 0x6C1 JUMP JUMPDEST PUSH2 0x5CE JUMPI PUSH1 0x40 MLOAD PUSH3 0x461BCD PUSH1 0xE5 SHL DUP2 MSTORE PUSH1 0x20 PUSH1 0x4 DUP3 ADD MSTORE PUSH1 0x35 PUSH1 0x24 DUP3 ADD MSTORE PUSH32 0x5661756C74202D20617574686F72697A65436F6D7065746974696F6E3A204361 PUSH1 0x44 DUP3 ADD MSTORE PUSH21 0x363632B91034B9903AB730BABA3437B934BD32B217 PUSH1 0x59 SHL PUSH1 0x64 DUP3 ADD MSTORE PUSH1 0x84 ADD PUSH2 0x2B8 JUMP JUMPDEST PUSH1 0x2 SLOAD PUSH1 0x1 PUSH1 0x1 PUSH1 0xA0 SHL SUB AND ISZERO PUSH2 0x64D JUMPI PUSH1 0x40 MLOAD PUSH3 0x461BCD PUSH1 0xE5 SHL DUP2 MSTORE PUSH1 0x20 PUSH1 0x4 DUP3 ADD MSTORE PUSH1 0x39 PUSH1 0x24 DUP3 ADD MSTORE PUSH32 0x5661756C74202D20617574686F72697A65436F6D7065746974696F6E3A20436F PUSH1 0x44 DUP3 ADD MSTORE PUSH32 0x6D7065746974696F6E20616C7265616479206578697374732E00000000000000 PUSH1 0x64 DUP3 ADD MSTORE PUSH1 0x84 ADD PUSH2 0x2B8 JUMP JUMPDEST PUSH1 0x3 DUP2 SWAP1 SSTORE PUSH1 0x2 DUP1 SLOAD PUSH1 0x1 PUSH1 0x1 PUSH1 0xA0 SHL SUB NOT AND PUSH1 0x1 PUSH1 0x1 PUSH1 0xA0 SHL SUB DUP5 AND SWAP1 DUP2 OR SWAP1 SWAP2 SSTORE PUSH1 0x40 MLOAD DUP3 SWAP2 SWAP1 PUSH32 0x9C6C08C6E8A66CBC213EA9350571C9B46AAC2684FC090BA0B330A9C8BA336026 SWAP1 PUSH1 0x0 SWAP1 LOG3 POP POP JUMP JUMPDEST PUSH1 0x0 PUSH1 0x23 PUSH1 0x4 SLOAD TIMESTAMP PUSH2 0x6B2 SWAP2 SWAP1 PUSH2 0x9FA JUMP JUMPDEST PUSH2 0x6BC SWAP2 SWAP1 PUSH2 0x9DA JUMP JUMPDEST SWAP1 POP SWAP1 JUMP JUMPDEST PUSH1 0x0 SWAP2 DUP3 MSTORE PUSH1 0x20 DUP3 DUP2 MSTORE PUSH1 0x40 DUP1 DUP5 KECCAK256 PUSH1 0x1 PUSH1 0x1 PUSH1 0xA0 SHL SUB SWAP4 SWAP1 SWAP4 AND DUP5 MSTORE SWAP2 SWAP1 MSTORE SWAP1 KECCAK256 SLOAD PUSH1 0xFF AND SWAP1 JUMP JUMPDEST PUSH1 0x0 DUP3 DUP2 MSTORE PUSH1 0x20 DUP2 SWAP1 MSTORE PUSH1 0x40 SWAP1 KECCAK256 PUSH1 0x1 ADD SLOAD PUSH2 0x705 SWAP1 PUSH2 0x467 JUMP JUMPDEST PUSH2 0x54F JUMPI PUSH1 0x40 MLOAD PUSH3 0x461BCD PUSH1 0xE5 SHL DUP2 MSTORE PUSH1 0x20 PUSH1 0x4 DUP3 ADD MSTORE PUSH1 0x30 PUSH1 0x24 DUP3 ADD MSTORE PUSH32 0x416363657373436F6E74726F6C3A2073656E646572206D75737420626520616E PUSH1 0x44 DUP3 ADD MSTORE PUSH16 0x2061646D696E20746F207265766F6B65 PUSH1 0x80 SHL PUSH1 0x64 DUP3 ADD MSTORE PUSH1 0x84 ADD PUSH2 0x2B8 JUMP JUMPDEST PUSH2 0x775 PUSH1 0x0 CALLER PUSH2 0x6C1 JUMP JUMPDEST PUSH2 0x7E7 JUMPI PUSH1 0x40 MLOAD PUSH3 0x461BCD PUSH1 0xE5 SHL DUP2 MSTORE PUSH1 0x20 PUSH1 0x4 DUP3 ADD MSTORE PUSH1 0x3A PUSH1 0x24 DUP3 ADD MSTORE PUSH32 0x5661756C74202D20757064617465416D6F756E74506572576974686472617761 PUSH1 0x44 DUP3 ADD MSTORE PUSH32 0x6C3A2043616C6C657220697320756E617574686F72697A65642E000000000000 PUSH1 0x64 DUP3 ADD MSTORE PUSH1 0x84 ADD PUSH2 0x2B8 JUMP JUMPDEST PUSH1 0x3 DUP2 SWAP1 SSTORE PUSH1 0x40 MLOAD DUP2 SWAP1 PUSH32 0xF6A1BE46FABA17636FE6B7ABE9E62C1A1CD7FBB17D196D4860FDCEE962CD63D2 SWAP1 PUSH1 0x0 SWAP1 LOG2 POP JUMP JUMPDEST PUSH2 0x824 DUP3 DUP3 PUSH2 0x6C1 JUMP JUMPDEST PUSH2 0x4DB JUMPI PUSH1 0x0 DUP3 DUP2 MSTORE PUSH1 0x20 DUP2 DUP2 MSTORE PUSH1 0x40 DUP1 DUP4 KECCAK256 PUSH1 0x1 PUSH1 0x1 PUSH1 0xA0 SHL SUB DUP6 AND DUP5 MSTORE SWAP1 SWAP2 MSTORE SWAP1 KECCAK256 DUP1 SLOAD PUSH1 0xFF NOT AND PUSH1 0x1 OR SWAP1 SSTORE PUSH2 0x85A CALLER SWAP1 JUMP JUMPDEST PUSH1 0x1 PUSH1 0x1 PUSH1 0xA0 SHL SUB AND DUP2 PUSH1 0x1 PUSH1 0x1 PUSH1 0xA0 SHL SUB AND DUP4 PUSH32 0x2F8788117E7EFF1D82E926EC794901D17C78024A50270940304540A733656F0D PUSH1 0x40 MLOAD PUSH1 0x40 MLOAD DUP1 SWAP2 SUB SWAP1 LOG4 POP POP JUMP JUMPDEST PUSH2 0x8A8 DUP3 DUP3 PUSH2 0x6C1 JUMP JUMPDEST ISZERO PUSH2 0x4DB JUMPI PUSH1 0x0 DUP3 DUP2 MSTORE PUSH1 0x20 DUP2 DUP2 MSTORE PUSH1 0x40 DUP1 DUP4 KECCAK256 PUSH1 0x1 PUSH1 0x1 PUSH1 0xA0 SHL SUB DUP6 AND DUP1 DUP6 MSTORE SWAP3 MSTORE DUP1 DUP4 KECCAK256 DUP1 SLOAD PUSH1 0xFF NOT AND SWAP1 SSTORE MLOAD CALLER SWAP3 DUP6 SWAP2 PUSH32 0xF6391F5C32D9C69D2A47EA670B442974B53935D1EDC7FD64EB21E047A839171B SWAP2 SWAP1 LOG4 POP POP JUMP JUMPDEST DUP1 CALLDATALOAD PUSH1 0x1 PUSH1 0x1 PUSH1 0xA0 SHL SUB DUP2 AND DUP2 EQ PUSH2 0x91A JUMPI PUSH1 0x0 DUP1 REVERT JUMPDEST SWAP2 SWAP1 POP JUMP JUMPDEST PUSH1 0x0 DUP1 PUSH1 0x40 DUP4 DUP6 SUB SLT ISZERO PUSH2 0x931 JUMPI DUP2 DUP3 REVERT JUMPDEST PUSH2 0x93A DUP4 PUSH2 0x903 JUMP JUMPDEST SWAP5 PUSH1 0x20 SWAP4 SWAP1 SWAP4 ADD CALLDATALOAD SWAP4 POP POP POP JUMP JUMPDEST PUSH1 0x0 PUSH1 0x20 DUP3 DUP5 SUB SLT ISZERO PUSH2 0x959 JUMPI DUP1 DUP2 REVERT JUMPDEST DUP2 MLOAD DUP1 ISZERO ISZERO DUP2 EQ PUSH2 0x968 JUMPI DUP2 DUP3 REVERT JUMPDEST SWAP4 SWAP3 POP POP POP JUMP JUMPDEST PUSH1 0x0 PUSH1 0x20 DUP3 DUP5 SUB SLT ISZERO PUSH2 0x980 JUMPI DUP1 DUP2 REVERT JUMPDEST POP CALLDATALOAD SWAP2 SWAP1 POP JUMP JUMPDEST PUSH1 0x0 DUP1 PUSH1 0x40 DUP4 DUP6 SUB SLT ISZERO PUSH2 0x999 JUMPI DUP2 DUP3 REVERT JUMPDEST DUP3 CALLDATALOAD SWAP2 POP PUSH2 0x9A9 PUSH1 0x20 DUP5 ADD PUSH2 0x903 JUMP JUMPDEST SWAP1 POP SWAP3 POP SWAP3 SWAP1 POP JUMP JUMPDEST PUSH1 0x0 PUSH1 0x20 DUP3 DUP5 SUB SLT ISZERO PUSH2 0x9C3 JUMPI DUP1 DUP2 REVERT JUMPDEST DUP2 CALLDATALOAD PUSH1 0x1 PUSH1 0x1 PUSH1 0xE0 SHL SUB NOT DUP2 AND DUP2 EQ PUSH2 0x968 JUMPI DUP2 DUP3 REVERT JUMPDEST PUSH1 0x0 DUP3 PUSH2 0x9F5 JUMPI PUSH4 0x4E487B71 PUSH1 0xE0 SHL DUP2 MSTORE PUSH1 0x12 PUSH1 0x4 MSTORE PUSH1 0x24 DUP2 REVERT JUMPDEST POP DIV SWAP1 JUMP JUMPDEST PUSH1 0x0 DUP3 DUP3 LT ISZERO PUSH2 0xA18 JUMPI PUSH4 0x4E487B71 PUSH1 0xE0 SHL DUP2 MSTORE PUSH1 0x11 PUSH1 0x4 MSTORE PUSH1 0x24 DUP2 REVERT JUMPDEST POP SUB SWAP1 JUMP INVALID LOG2 PUSH5 0x6970667358 0x22 SLT KECCAK256 AND GT PUSH27 0x4869CA4130B1D6503AE3762E05D81D627D4D3D66177D0E9AD3C54E SELFBALANCE EXP PUSH5 0x736F6C6343 STOP ADDMOD DIV STOP CALLER ",
  "sha1": "633bbf132e6f1132b7d016b4b9b3b56c6d5f6a9a",
  "source": "pragma solidity 0.8.4;\n\n// SPDX-License-Identifier: MIT\n\nimport './standard/access/AccessControl.sol';\nimport '../interfaces/IVault.sol';\nimport '../interfaces/IToken.sol';\n\ncontract Vault is AccessControl, IVault{\n    \n    IToken private _token;\n    address private _authorizedCompetition;\n    uint256 constant private _intervalInSeconds = 35; //60 * 60 * 24 * 7;\n    uint256 private _amountPerWithdrawal;\n    uint256 private _start;\n    uint256 private _lastIntervalWithdrawn;\n\n    constructor(uint256 start_, address token_address_)\n    {\n        _setupRole(DEFAULT_ADMIN_ROLE, msg.sender);\n        _token = IToken(token_address_);\n        if (start_== 0){\n            _start = block.timestamp;\n        }else{\n            _start = start_;\n        }\n    }\n\n    function authorizeCompetition(address newCompetition, uint256 amountPerWithdrawal)\n    external override\n    {\n        require(hasRole(DEFAULT_ADMIN_ROLE, msg.sender), \"Vault - authorizeCompetition: Caller is unauthorized.\");\n        require(_authorizedCompetition == address(0), \"Vault - authorizeCompetition: Competition already exists.\");\n        _amountPerWithdrawal = amountPerWithdrawal;\n        _authorizedCompetition = newCompetition;\n\n        emit CompetitionAuthorized(newCompetition, amountPerWithdrawal);\n    }\n\n    function updateAmountPerWithdrawal(uint256 newAmount)\n    external override\n    {\n        require(hasRole(DEFAULT_ADMIN_ROLE, msg.sender), \"Vault - updateAmountPerWithdrawal: Caller is unauthorized.\");\n        _amountPerWithdrawal = newAmount;\n\n        emit AmountPerWithdrawalUpdated(newAmount);\n    }\n\n    function getAuthorizedCompetition()\n    external view override\n    returns (address authorizedCompetition)\n    {\n        authorizedCompetition = _authorizedCompetition;\n    }\n\n    function getAmountPerWithdrawal()\n    external view override\n    returns (uint256 amountPerWithdrawal)\n    {\n        amountPerWithdrawal = _amountPerWithdrawal;\n    }\n\n    function getIntervalsSinceLaunch()\n    public view override\n    returns (uint256 intervals)\n    {\n        intervals = (block.timestamp - _start) / _intervalInSeconds;\n    }\n\n    function getStartTime()\n    external view override\n    returns (uint256 start){\n        start = _start;\n    }\n\n    function getLastIntervalWithdrawn()\n    external override\n    returns (uint256 lastIntervalWithdrawn)\n    {\n        lastIntervalWithdrawn = _lastIntervalWithdrawn;\n    }\n\n    function draw()\n    external override\n    returns (uint256 amountToWithdraw)\n    {\n        amountToWithdraw = _amountPerWithdrawal;\n        if (amountToWithdraw > 0){\n            require(msg.sender == _authorizedCompetition, \"Vault - draw: Caller is not authorized.\");\n            uint256 intervalsElapsed = getIntervalsSinceLaunch();\n            require(intervalsElapsed > _lastIntervalWithdrawn, \"Vault - draw: Already claimed for this interval.\");\n            require(_token.transfer(msg.sender, _amountPerWithdrawal), \"Vault - draw: Token transfer failed.\");\n            _lastIntervalWithdrawn = intervalsElapsed;\n\n            emit Drawn(msg.sender, amountToWithdraw, intervalsElapsed);\n        }\n    }\n}",
  "sourcePath": "contracts/Vault.sol",
  "type": "contract"
}